:100000000C94CD000C94EC000C94EC000C94EC00DF
:100010000C94EC000C94EC000C94EC000C94EC00B0
:100020000C94EC000C94EC000C94710F0C94EC000C
:100030000C94EC000C94A50F0C94EC000C94C619D5
:100040000C94EC000C94EC000C94EC000C94EC0080
:100050000C94EC000C94EC000C94EC000C94EC0070
:100060000C94EC000C9493180C94EC000C94EC00A1
:100070000C94EC000C946C1A0C94EC000C94EC00B6
:100080000C94DD220C94F3220C94EC000C9450227E
:100090000C94EC000C94EC000C94EC000C94EC0030
:1000A0000C94EC000C94EC000C9424220C943A2256
:1000B0000C94EC000C948D210C94EC000C94EC004E
:1000C0000C94EC000C94EC000C94EC000C94EC0000
:1000D0000C94EC000C94EC000C94EC000C94EC00F0
:1000E0000C94EC001E120212D01193125D128612B3
:1000F000A7118B115E114611E710E710E710E7100A
:10010000E710E7103A112F11E710E710E710E7109A
:10011000E710E710E710E710E710E710E710E71027
:100120005E11D01123111E11E710E710E710E71040
:10013000E710E710E710E710E710E710E710E71007
:100140005D12A711E710E7101E1286124712084A27
:10015000D73B3BCE016E84BCBFFDC12F3D6C7431DB
:100160009ABD56833DDA3D00C77F11BED9E4BB4C32
:100170003E916BAAAABE000000803F05A84CCDB2FC
:10018000D44EB93836A9020C50B9918688083CA6DD
:10019000AAAA2ABE000000803F0011241FBECFEF94
:1001A000D1E2DEBFCDBF00E00CBF12E0A0E0B2E0C4
:1001B000E4E6F2E602C005900D92AE31B107D9F740
:1001C00014E0AEE1B2E001C01D92A83AB107E1F738
:1001D0000E94EE000C9431310C9400002F923F925B
:1001E0004F925F926F927F928F929F92AF92BF9247
:1001F000CF92DF92EF92FF920F931F93DF93CF93F3
:1002000000D00F92CDB7DEB70E9467190E9459281F
:100210000E9409230E943C1A6B017C010E943C1A37
:100220009B01AC016093590430935A0440935B04E2
:1002300050935C0410925D0410925E0410925F046F
:1002400010926004AA24BB2400E019821A821B8247
:100250001C821FEF222423940E9442198093490498
:100260000E9499270E94D52C80914904873009F477
:10027000C3C10E943C1A6C197D098E099F096E3119
:100280004BE4740740E0840740E0940708F093C112
:100290000E94D5100E945C0B0E943C1A9B01AC018D
:1002A00060E070E0CB01F0915904E0915A04809035
:1002B0005B0440905C0430905D0450905E0460905C
:1002C0005F0470906004B22FBF1BA1E02B1708F0F1
:1002D000A0E0F32FFE1BEF2FF1E03E1708F0F0E057
:1002E0009E2E9A1AA92D99249394EA1708F099241E
:1002F000F929E42FE8198E2EE1E0481508F0E0E036
:10030000982C9F1AF1E0891408F0F0E0EF2BF52FFC
:10031000F4194F2EF1E0541508F0F0E0842C8E1AF9
:10032000E1E0481408F0E0E0FE2B3194E1E06315D1
:1003300008F0E0E0432C4F1AF1E0341408F0F0E04C
:10034000EF2B5194F1E0751508F0F0E0352C3E1AD2
:10035000E1E0531408F0E0E0FE2B6194E1E0861543
:1003600008F0E0E0962D9F1B81E0691608F080E020
:10037000E82B71947E1609F08BC0992309F088C090
:10038000332009F085C0442009F082C0882009F09C
:100390007FC0992009F07CC0A23008F079C0A1305C
:1003A00009F473C080914904863009F4DEC08F30AF
:1003B00009F04BC00E94CC1E80914904081709F433
:1003C0004BCF0E941A250E94212580910B0181604C
:1003D00080930B0180910B01826080930B018091CF
:1003E0000B01846080930B01A39A80910B018061C3
:1003F00080930B0180910B01806280930B018091AF
:100400000B01806480930B0180910B0180688093C5
:100410000B0110930C0210930D0210930E028FEF3C
:100420000E94612580910D020E94752580910E0227
:100430000E94892580E00E94532180E00E941921BA
:10044000109216030091490407CF60E00E946218E1
:1004500090914904892F963009F487C0973008F0AD
:10046000ECC0923009F4E4C0933008F0DBC199236A
:1004700009F4BAC1913021F40E94162590914904E3
:10048000992309F097CF80E099CFB03908F48ACF4B
:100490000E943C1A9B01AC016093590430935A04AA
:1004A00040935B0450935C0410925D0410925E04D0
:1004B00010925F041092600480916104882309F413
:1004C0008EC08091F9029091FA02009709F4FBC066
:1004D0002091FD023091FE02289FA001299F500D1E
:1004E000389F500D112457FDEEC0281739070CF026
:1004F00094C240911802240F311D3093FE022093C4
:10050000FD028217930724F49093FE028093FD026C
:100510008091FB029091FC02009709F4DFC02091CA
:10052000FF0230910003289FA001299F500D389FA2
:10053000500D112457FDD2C0281739070CF07EC288
:1005400040911802240F311D309300032093FF02C5
:10055000821793070CF026CF909300038093FF023D
:1005600080914904863009F022CF90911D0491308A
:1005700009F4F0C2913008F0B5C280E00E94532126
:1005800080E00E9419210E943A2610930C021093D9
:100590000D0210930E028FEF0E94612580910D02D3
:1005A0000E94752580910E020E948925449A459AE1
:1005B0009091490465CF0E94451A80914904982F73
:1005C0009450923008F4A3C1873009F4CBC186302F
:1005D00009F40FC10E943C1A6B017C0159CE809135
:1005E000F9029091FA029093FE028093FD028091AD
:1005F000FB029091FC02B0CF0E943C1A29813A8103
:100600004B815C81621B730B840B950B683C32E160
:10061000730730E0830730E0930708F42ACE109385
:100620000C0210930D0210930E0223CE0E94162589
:100630000E941D259091490423CF9A3009F453C09C
:100640009B30F8F4983009F468C0993008F47FC002
:100650008091D5029091D602A091D702B091D80294
:10066000893BFBE09F07F0E0AF07F0E0BF0714F124
:1006700080E00E94192180E00E945321909149045A
:10068000FFCE9C3009F429C19C3008F40CC19D3088
:1006900009F0F6CE8091D5029091D602A091D702B2
:1006A000B091D80289355BE1950750E0A50750E08D
:1006B000B507F4F688E20E94192188E20E945321CE
:1006C00090914904DDCE1092FE021092FD028091BD
:1006D000FB029091FC02009709F021CF10920003D9
:1006E0001092FF025FCE8091D5029091D602A09128
:1006F000D702B091D802813A2FE0920720E0A207FA
:1007000020E0B2070CF0B4CF88E20E94192188E201
:100710000E94532190914904B3CE8091D5029091CB
:10072000D602A091D702B091D802813DE7E09E07A2
:10073000E0E0AE07E0E0BE070CF09ACF88E20E944E
:10074000192188E20E9453219091490499CE809109
:100750004D04823009F4D0C3833008F080C188236F
:1007600009F087C30E943A2680910B018E7F809307
:100770000B0110924E040E94162584E10E94532121
:1007800084E10E9419210E943C1A9B01AC016093F4
:1007900055047093560480935704909358048091A5
:1007A000510490915204A0915304B0915404281B19
:1007B000390B4A0B5B0B23336FEE360762E04607BB
:1007C00060E0560710F020924D0480910C020E94C8
:1007D000612580910D020E94752580910E020E9474
:1007E0008925909149044CCE0E94AC1D90914904FA
:1007F00047CE80911D04813009F0ECCE9091130317
:10080000923008F0E7CE90911603992309F007C5BE
:100810004EEF40930C0210930D0210930E02809342
:100820001603D8CE9430D1F0953008F4FFCE8091E5
:100830000C020E94612580910D020E947525809115
:100840000E020E9489250E94162589E10E94192125
:1008500089E10E9453219091490412CE80910B01AD
:100860008E7F80930B0180910B018D7F80930B0114
:1008700080910B018B7F80930B01A39880910B01DA
:100880008F7E80930B0180910B018F7D80930B01F4
:1008900080910B018F7B80930B0180910B018F77EF
:1008A00080930B0192CF8091D5029091D602A091B6
:1008B000D702B091D802893833E1930730E0A3071B
:1008C00030E0B3070CF0D4CE88E20E94192188E210
:1008D0000E94532190914904D3CD8091D5029091EB
:1008E000D602A091D702B091D802813747E1940790
:1008F00040E0A40740E0B4070CF4DCCE80E00E94A6
:10090000192180E00E94532190914904B9CD0E94A1
:10091000B3306EE170E00E945230A80EB91E5FE75E
:10092000A522BB2480911603813009F4DDC28130F9
:1009300008F095C28A2D809580930C0220921603B0
:1009400080E2A816B10408F0ECC080910D028F3F40
:1009500009F440CE80910E028F3F09F43BCE1093F4
:100960000C0238CE80919400909195000E94B8308E
:100970000E94B3306EE170E00E9452304C018A0C4C
:100980009B1CFFE78F229924882D809580930C0271
:1009900080919400909195000E94B8300E94B330ED
:1009A0006EE170E00E9452306C01C80CD91C2FE738
:1009B000C222DD248C2D809580930D0280919400BD
:1009C000909195000E94B8300E94B3306EE170E0C3
:1009D0000E9452305C01AC0CBD1C3FE7A322BB243B
:1009E0008A2D809580930E028091940090919500BD
:1009F0000E94B8300E94B33060E870E00E9452302C
:100A00008032910508F09FC010930C020E943C1A9E
:100A100069837A838B839C83DDCD821793070CF0E7
:100A200077CD40911802241B31093093FE022093A8
:100A3000FD02281739070CF06BCD66CD821793079E
:100A40000CF0B0CC40911802241B31093093000304
:100A50002093FF02281739070CF0A4CC7DCD8430F9
:100A600009F41DC3843008F4C3C2853009F0ADCE4B
:100A70000E943A2680910B018F7B80930B0180911D
:100A80000B018F7780930B010E943C1A9B01AC01F4
:100A900060935504709356048093570490935804C0
:100AA0008091510490915204A0915304B091540448
:100AB000281B390B4A0B5B0B2B329CE1390790E06A
:100AC000490790E0590708F480CE0E943C1A6093D1
:100AD00051047093520480935304909354041092E1
:100AE0004D0473CE923011F0982FCACC90911E0411
:100AF0009923D1F30E945326609111037091120340
:100B00008EEF9FE00E94DF300E943A268AEA61E081
:100B10000E94621810921E0410921D0490914904C4
:100B2000AFCC90E4A916B10408F0A7C280910C02E2
:100B30008F3F09F44FCD80910E028F3F09F44ACDCB
:100B400010930D0247CD8034910508F003C3109334
:100B50000D025CCF0E94532680910C020E946125F9
:100B600080910D020E94752580910E020E948925B8
:100B70004498459880912004882309F47FCD1092F1
:100B800020048091590261E00E94621880915A020B
:100B900061E00E9462188091290290912A0261E02E
:100BA0000E9462188091290290912A02892F61E0A7
:100BB0000E94621880915B0261E00E94621880913D
:100BC0005C0261E00E94621880912D0290912E02D9
:100BD00061E00E94621880912D0290912E02892F6F
:100BE00061E00E94621880915D0261E00E946218DB
:100BF00080915E0261E00E946218809131029091C2
:100C0000320261E00E9462188091310290913202BA
:100C1000892F61E00E94621880915F0261E00E946A
:100C200062188091600261E00E9462188091350232
:100C30009091360261E00E94621880913502909195
:100C40003602892F61E00E9462188091610261E0A2
:100C50000E9462188091620261E00E946218809195
:100C6000390290913A0261E00E9462188091390243
:100C700090913A02892F61E00E946218809163028C
:100C800061E00E9462188091640261E00E94621833
:100C900080913D0290913E0261E00E946218809135
:100CA0003D0290913E02892F61E00E94621880917E
:100CB000650261E00E9462188091660261E00E9414
:100CC0006218809141029091420261E00E94621894
:100CD0008091410290914202892F61E00E94621846
:100CE0008091670261E00E9462188091680261E071
:100CF0000E946218809145029091460261E00E9434
:100D000062188091450290914602892F61E00E940D
:100D100062188091690261E00E94621880916A0203
:100D200061E00E9462188091490290914A0261E05C
:100D30000E9462188091490290914A02892F61E0D5
:100D40000E94621880916B0261E00E94621880919B
:100D50006C0261E00E94621880914D0290914E02F7
:100D600061E00E94621880914D0290914E02892F9D
:100D700061E00E94621880916D0261E00E94621839
:100D800080916E0261E00E94621880915102909100
:100D9000520261E00E9462188091510290915202C9
:100DA000892F61E00E94621880916F0261E00E94C9
:100DB00062188091700261E00E9462188091550271
:100DC0009091560261E00E946218809155029091C4
:100DD0005602892F61E00E9462188091260461E02A
:100DE0000E9462188091270461E00E94621880913D
:100DF000280461E00E9462188091290461E00E9449
:100E0000621880912A0461E00E94621880912B048C
:100E100061E00E9462188091210461E00E946218E2
:100E20008091490461E00E9462188091030190E082
:100E300080729070959587959595879595958795EE
:100E4000959587959595879561E00E9462188091A8
:100E5000130361E00E9462189091490411CB823023
:100E600009F06ECD8A2D809580930E0210921603A4
:100E700067CD813009F0A9CC0E943A2680910B0100
:100E80008B7F80930B0110924F040E94162584E102
:100E90000E94532184E10E94192180916B0290915C
:100EA0006C02E1E080399E070CF43AC180916D023A
:100EB00090916E02F1E080399F070CF431C180916E
:100EC000690290916A0221E0803992070CF428C1EE
:100ED00080916F029091700231E0803993070CF499
:100EE0001FC110924E0471CC8A2D809580930D0203
:100EF00062E06093160324CD0E943A2680910B0194
:100F00008F7E80930B010E941A250E943C1A9B0140
:100F1000AC016093550470935604809357049093EA
:100F200058048091510490915204A0915304B091BF
:100F30005404281B390B4A0B5B0B23336FEE360727
:100F400062E0460760E0560708F052C18091030155
:100F500084FF33C110924F04809150048F5F8093BF
:100F60005004853108F071C180916B0290916C0240
:100F70002091690230916A0241E0223C3407ACF4CE
:100F800051E0833C95078CF040916D0250916E02C8
:100F900061E0433C56074CF040916F025091700263
:100FA000E1E0433C5E070CF076C140916F02509146
:100FB0007002F1E0423C5F070CF0EAC041E0233CE4
:100FC00034070CF4E5C051E0833C95070CF4E5C010
:100FD00080916D0290916E0261E0833C96070CF067
:100FE00053C184E10E94192186EF0E945321EDCB69
:100FF0000E943A2680910B018F7B80930B010E9407
:101000003C1A9B01AC016093550470935604809385
:101010005704909358048091510490915204A091E8
:101020005304B0915404281B390B4A0B5B0B2D3C25
:1010300066E6360764E0460760E0560708F491C0AC
:101040008091BD029091BE02E3E08A379E0708F4CA
:1010500094C08CEE0E9453218CEE0E9419210E94B4
:101060003C1A6093510470935204809353049093FC
:101070005404F4E0F0934D04A8CBE0E6AE16B104BE
:1010800008F0A8CA80910C028F3F09F4A3CA80918E
:101090000D028F3F09F49ECA10930E029BCA0E9454
:1010A0003A2680910B018F7B80930B0180910B017D
:1010B0008F7780930B010E943C1A9B01AC016093D7
:1010C000550470935604809357049093580480916C
:1010D000510490915204A0915304B0915404281BE0
:1010E000390B4A0B5B0B2F3865E2360760E0460789
:1010F00060E0560708F469CB84E10E9453218CEE2E
:101100000E9419210E943C1A60935104709352046A
:10111000809353049093540485E080934D0455CB01
:1011200080914E048F5F80934E048B3008F44DCB3A
:1011300010924F04109250040E943C1A6093510484
:1011400070935204809353049093540442E040936C
:101150004D043BCB8036910508F058CC10930E021D
:1011600055CC8091030184FD30CB10925004109235
:101170004F0482E0982E90924D040E943C1A609396
:1011800051047093520480935304909354041DCBE4
:10119000E1E0833C9E070CF024CF80916D0290919A
:1011A0006E02F1E0833C9F070CF448C086EF0E947A
:1011B000192184E10E94532108CB109250048091A0
:1011C0006B0290916C02E1E0833C9E072CF1209130
:1011D0006D0230916E02F1E0233C3F07ECF020916C
:1011E0004F042F5F20934F042B3F08F4C1CEEBCA6E
:1011F0008CEE0E9453218CEE0E9419210E943C1A11
:101200006093510470935204809353049093540458
:1012100084E080934D04D9CA10924F04A9CE913036
:1012200041F1923009F0D6C910930C0210930D02CF
:101230008EEF80930E0210921603CCC984E10E94B7
:10124000532184E10E941921C0CA80E00E94192123
:1012500080E00E9453210E943C1A609351047093D5
:101260005204809353049093540493E090934D045C
:10127000ACCA10930C025EEF50930D0210930E0255
:1012800062E060931603A6C984E10E94192181EFF0
:101290000E9453219ACA81EF0E94192184E10E9481
:1012A000532193CA81E090E021E00DB407FC0AC00D
:1012B000019637E280319307C0F3209314030DB4F5
:1012C00007FEF6CF089584B1807F84B984B187602A
:1012D00084B980E58CBD8DB581608DBD08951CBC41
:1012E0001DBC0895442309F1A62FB72FE82FF92F2D
:1012F00091E021912EBD21E030E00DB407FC0BC040
:101300002F5F3F4F57E220313507B8F39093140316
:101310000DB407FEF5CF20911403222331F42EB52E
:101320002D932E2F281B241720F308956623E9F010
:10133000E82FF92F91E021912EBD21E030E00DB48E
:1013400007FC0BC02F5F3F4F47E220313407B8F353
:10135000909314030DB407FEF5CF209114032223BC
:1013600021F42E2F281B261730F308958EBD81E01F
:1013700090E021E00DB407FC0AC0019637E280310D
:101380009307C0F3209314030DB407FEF6CF8EB578
:1013900008950F931F93DF93CF9300D0CDB7DEB79F
:1013A000289880E20E94B6098DE00E94B609289A2A
:1013B000289883E20E94B60981E00E94B609289A23
:1013C000809111039091120399838A831B8228983C
:1013D00080E30E94B6098E010F5F1F4FC80163E0D2
:1013E0000E949609289A28988AE20E94B609C801A4
:1013F00063E00E949609289A289881E20E94B60923
:1014000081E00E94B609289A289882E20E94B609D3
:1014100081E00E94B609289A289884E20E94B609C1
:1014200082E10E94B609289A289885E20E94B609AE
:1014300088E20E94B609289A289881E30E94B6099A
:101440008DE00E94B609289A289880E50E94B60986
:1014500083E70E94B609289A28988CE30E94B6096F
:1014600081E00E94B609289A28988DE30E94B60967
:1014700086E00E94B609289A289880E20E94B60960
:101480008FE00E94B609289A0F900F900F90CF918D
:10149000DF911F910F9108952C9A289A0E94C909F3
:1014A0000895CF93DF93EC012C9828988AE20E944C
:1014B000B609CE0165E00E949609289A2C9ADF9120
:1014C000CF910895CF93DF93EC01289880E30E9499
:1014D000B609CE0165E00E949609289ADF91CF9166
:1014E000089580917A04882311F080E00895289867
:1014F0008FEF0E94B609289A80740895DF93CF93E6
:101500000F92CDB7DEB71982289887E10E94B609FD
:10151000BE016F5F7F4FCB0141E00E947209289AA4
:10152000898181700F90CF91DF910895289882EE84
:101530000E94B609289A0895CF93DF93EC0128986A
:1015400081E60E94B609CE01BE014DE00E947209FB
:10155000289A289887E20E94B60980E40E94B6097A
:10156000289ADF91CF910895DF93CF930F92CDB753
:10157000DEB728988F71806269830E94B6096981FD
:10158000862F0E94B609289A0F90CF91DF91089577
:101590000F931F93DF93CF930F92CDB7DEB78B01DD
:1015A00028988F7149830E94B609C801B801498102
:1015B0000E947209289A0F90CF91DF911F910F918D
:1015C00008950F931F93DF93CF930F92CDB7DEB79C
:1015D0008B0128988F71806249830E94B609C801E7
:1015E0004981642F0E949609289A0F90CF91DF912C
:1015F0001F910F9108950F931F93DF93CF930F9235
:10160000CDB7DEB78C0180917A048823E1F72C985E
:1016100081E080937A04289880E269830E94B60969
:101620008AE40E94B609289A289881EE0E94B60999
:10163000289A289880EA0E94B609C80169810E9408
:101640009609289A2C9A0F90CF91DF911F910F91B4
:101650000895EF92FF920F931F93DF93CF930F9212
:10166000CDB7DEB7182F062F289881EE99830E94F8
:10167000B609289A289888EA0E94B6099981002319
:1016800061F0612F792F7B01F70181917F010E9429
:10169000B6098E2D811B8017B8F3289A0F90CF9131
:1016A000DF911F910F91FF90EF900895289881EEA0
:1016B0000E94B609289A08951F93CF93DF938091D3
:1016C0007A04882321F0DF91CF911F910895289803
:1016D0008FEF0E94B609289A86FFF5CF80911303F9
:1016E000826080931303289887E20E94B60980E7FE
:1016F0000E94B609289A289881E60E94B60988E9CE
:1017000094E0BC014DE00E947209289A289887E273
:101710000E94B60980E40E94B609289A289882EEB1
:101720000E94B609289A60919804662309F495C12D
:1017300050919C0440919D04E091990470919A0409
:10174000252F30E02F7730703093100320930F0354
:10175000842F90E08F77907090930E0380930D0309
:1017600057FDA3C2220F331F220F331F309521953F
:101770003F4F3093FA022093F90247FDA0C2880F31
:10178000991F880F991F909581959F4F9093FC0208
:101790008093FB0242E02130340744F040E052E005
:1017A0005093FA024093F90220E032E042E08130A7
:1017B000940734F080E092E09093FC028093FB0267
:1017C0004EEF2030340734F440E05EEF5093FA02DD
:1017D0004093F9022EEF8030920734F480E09EEFC0
:1017E0009093FC028093FB02262F30E0309391040B
:1017F00020939004F0E0F0939304E0939204C72FB9
:10180000D0E0D0939504C0939404922F8827821B34
:10181000930B24E630E0B9010E943E30162F10955C
:1018200010930C025E2F44274E1B5F0BCA01B901B7
:101830000E943E30609560930E025C2F44274C1B43
:101840005D0BCA01B9010E943E30609560930D02A4
:10185000812F0E94612580910D020E947525809143
:101860000E020E94892580919B0480FF02C144984A
:1018700081FF02C14598982F82FF02C121E0209389
:10188000120284FD01C186FF06C181E080936204DB
:1018900097FD05C11092630480919E0480FF06C1EC
:1018A00080910B018E7F80930B0180919E0481FFBC
:1018B00006C180910B018D7F80930B0180919E0466
:1018C00082FF06C180910B018B7F80930B01809179
:1018D0009E0483FF06C1A39880919E0484FF06C1E5
:1018E00080910B018F7E80930B0180919E0485FF78
:1018F00006C180910B018F7D80930B0180919E0426
:1019000086FF06C180910B018F7B80930B01809134
:101910009E0487FD06C180910B01806880930B01B6
:1019200080910B0280938004853009F406C18630D3
:1019300008F05FC1833009F432C2843009F03FC03F
:10194000909161028091620290938104809382045D
:101950009091690280916A02909383048093840439
:1019600090916B0280916C02909385048093860421
:1019700090916D0280916E02909387048093880409
:1019800090916F02809170029093890480938A04F1
:10199000909126048091270490938B0480938C046B
:1019A000909128048091290490938D0480938E0453
:1019B0008091210480938F0485E080930B02289806
:1019C00081EE0E94B609289A289888EA0E94B609F2
:1019D000809180040E94B609809181040E94B6091A
:1019E000809182040E94B609809183040E94B60906
:1019F000809184040E94B609809185040E94B609F2
:101A0000809186040E94B609809187040E94B609DD
:101A1000809188040E94B609809189040E94B609C9
:101A200080918A040E94B60980918B040E94B609B5
:101A300080918C040E94B60980918D040E94B609A1
:101A400080918E040E94B60980918F040E94B6098D
:101A5000289ADF91CF911F910895E0919904EE2388
:101A600009F436C150919C0440919D0470919A04F0
:101A700067CE449A81FDFECE459A982F82FDFECE18
:101A80001092120284FFFFCE0E94592890919B046D
:101A9000892F86FDFACE1092620497FFFBCE81E07B
:101AA0008093630480919E0480FDFACE80910B01A7
:101AB000816080930B0180919E0481FDFACE80911C
:101AC0000B01826080930B0180919E0482FDFACE0F
:101AD00080910B01846080930B0180919E0483FDB3
:101AE000FACEA39A80919E0484FDFACE80910B01D8
:101AF000806180930B0180919E0485FDFACE8091D8
:101B00000B01806280930B0180919E0486FDFACECA
:101B100080910B01806480930B0180919E0487FF6C
:101B2000FACE80910B018F7780930B0180910B028D
:101B300080938004853009F0FACE8091290290913B
:101B40002A02809381048091290290912A02909325
:101B5000820480912D0290912E02809383048091C3
:101B60002D0290912E0290938404809131029091E5
:101B700032028093850480913102909132029093D9
:101B8000860480913502909136028093870480917B
:101B90003502909136029093880480913D02909195
:101BA0003E028093890480913D0290913E02909381
:101BB0008A04809141029091420280938B0480912B
:101BC00041029091420290938C0480914502909141
:101BD000460280938D048091450290914602909335
:101BE0008E048091490480938F0486E080930B02D9
:101BF000E6CE863009F481C0873009F0E0CE30911E
:101C0000D5022091D6029091D7028091D8023093CC
:101C10008104209382049093830480938404309100
:101C2000D1022091D2029091D3028091D4023093BC
:101C300085042093860490938704809388046091A0
:101C4000650470916604809167049091680420E0B7
:101C500030E44FE054E40E94942F0E94752E60936C
:101C6000890470938A046091690470916A04809178
:101C70006B0490916C040E94752E60938B0470939A
:101C80008C0460916D0470916E0480916F0490914A
:101C900070040E94752E60938D0470938E041092D0
:101CA0008F0483E080930B028ACE220F331F220F12
:101CB000331F3093FA022093F90247FF60CD880F5B
:101CC000991F880F991F9093FC028093FB0262CDAD
:101CD00070919A04772361F480919B04883041F4D9
:101CE00050919C04552309F4C0C040919D0428CD17
:101CF00050919C0440919D0423CD80913902909194
:101D00003A02809381048091390290913A02909333
:101D100082048091490290914A02809383048091C9
:101D2000490290914A029093840480914D029091CF
:101D30004E028093850480914D0290914E029093C3
:101D40008604809151029091520280938704809181
:101D50005102909152029093880480915502909183
:101D60005602809389048091550290915602909377
:101D70008A0490912A0480912B0490938B04809381
:101D80008C049091BD028091BE0290938D0480934B
:101D90008E0410928F0487E080930B0210CE9091F6
:101DA000590280915A029093810480938204909109
:101DB0005B0280915C0290938304809384049091F1
:101DC0005D0280915E0290938504809386049091D9
:101DD0005F028091600290938704809388049091C1
:101DE0006302809164029093890480938A049091A5
:101DF00065028091660290938B0480938C0490918D
:101E000067028091680290938D0480938E043091D4
:101E10000301809103012091030190E08072907092
:101E2000959587959595879595958795959587959A
:101E300095958795880F991F221F2227221F220F11
:101E4000220F282B832F90E08071907095958795B5
:101E5000959587959595879595958795282B2093AA
:101E60008F0484E080930B02AACD40919D0444230B
:101E700079F01092100310920F03842F90E08F7767
:101E8000907090930E0380930D0320E030E06ACCB5
:101E90008CE30E94D01950919C0440919D04609164
:101EA0009804E091990470919A044ACCCF93DF93FF
:101EB000C8E6D0E01882ACE6B0E01C92E0EBF0E0BF
:101EC00010821092B1001092700088818260888325
:101ED0008C9180688C93808182608083DF91CF9128
:101EE00008951F920F920FB60F9211248F93809135
:101EF0001202882321F18091030186FD20C0809188
:101F000068008D7F8093680080916C008F7780934C
:101F10006C0081E0809313028DE08093B300809188
:101F2000B10086608093B1008091700082608093E0
:101F300070001092200210922102109222028F91C2
:101F40000F900FBE0F901F9018951F920F920FB613
:101F50000F9211242F933F934F935F938F939F93EF
:101F60008091B100887F8093B10080911302882313
:101F7000A9F08091030186FF65C0809168008260AE
:101F80008093680080916C00806880936C008FEF74
:101F90009FEF909302028093010249C08091010259
:101FA000909102022FEF8F3F920709F463C08130B6
:101FB000910509F498C09C0122503040253031052C
:101FC00008F467C09C01275030402630310508F0E6
:101FD000BDC026E32093B3002091B100266020937A
:101FE000B1002091700022602093700020910301C5
:101FF00030E0207430700024220F331F001C220FA9
:10200000331F001C232F302D4CE050E0481B590B90
:1020100002C0220F331F4A95E2F740912002420F7F
:1020200040932002019690930202809301029F91B7
:102030008F915F914F913F912F910F900FBE0F9015
:102040001F9018951092130283E38093B300809140
:10205000B10086608093B1008091700082608093AF
:10206000700080910102909102022FEF8F3F920742
:10207000C9F6DDCF2091030126FF52C020916800F0
:1020800022602093680020916C00206820936C00EF
:10209000CECF26E32093B3002091B1002660209399
:1020A000B100209170002260209370002091030104
:1020B00030E0207430700024220F331F001C220FE8
:1020C000331F001C232F302D46E050E0481B590BD6
:1020D00002C0220F331F4A95E2F740912102420FBE
:1020E000409321029FCF2091030130E02074307093
:1020F000022E232F000C221F330B000C221F331F34
:102100002093220226E32093B3002091B1002660A1
:102110002093B1002091700022602093700082CF44
:102120008CE18093B3008091B10086608093B10010
:102130008091700082608093700010922002109253
:1021400021021092220281E090E06DCF8D30910546
:1021500009F068CF109270008091680082608093CF
:10216000680080916C00806880936C008FEF9FEF17
:1021700090930202809301028091220280930002D8
:102180008091210280931E028091200280931F0281
:1021900081E0809322044BCF8091000208958091CA
:1021A0001E02089580911F020895809112028823D3
:1021B000B1F180912204882391F1E0911F02E09314
:1021C000210410922204F0E0E533F10548F120915A
:1021D000F9023091FA028091FB029091FC0237FDE6
:1021E00027C0359527953595279530931003209373
:1021F0000F0397FD09C095958795959587959093C1
:102200000E0380930D030895909581959F4F9595AA
:1022100087959595879590930E0380930D03089568
:10222000EE58FF4FEE0FFF1F0590F491E02D19942B
:10223000309521953F4FD5CF80936204109263046F
:10224000C6CF1092620481E0809363042091F9026A
:102250003091FA028091FB029091FC02C0CF109263
:1022600062042091F9023091FA028091FB02909170
:10227000FC02B5CF81E0809362042091F902309195
:10228000FA028091FB029091FC02A9CF8091FB029F
:102290009091FC024E979093FC028093FB022EEFEC
:1022A000803092079CF580E09EEF9093FC02809333
:1022B000FB022091F9023091FA0291CF2091F902AC
:1022C0003091FA028091F7029091F80228173907AD
:1022D00024F02091FB023091FC022E5130403093CB
:1022E000FA022093F902C9013093FC022093FB0209
:1022F0004EEF2030340734F440E05EEF5093FA02A2
:102300004093F9024EEF203034076CF22091F9022D
:102310003091FA0264CF2091F9023091FA022E51E5
:1023200030403093FA022093F9024EEF2030340708
:102330000CF017C180E09EEF9093FA028093F902AF
:102340008091FB029091FC0220E830E04ECF20917A
:10235000F9023091FA022E5130403093FA02209364
:10236000F9028091FB029091FC024E969093FC0240
:102370008093FB024EEF2030340734F420E03EEF30
:102380003093FA022093F90242E0813094070CF472
:1023900026CF80E092E09093FC028093FB021FCF57
:1023A0002091F9023091FA028091FB029091FC0297
:1023B000821793070CF4DAC09C01225E3F4F3093E2
:1023C000FA022093F9024E969093FC028093FB024E
:1023D00042E02130340734F020E032E03093FA025A
:1023E0002093F90222E0813092070CF48FCF80E035
:1023F00092E09093FC028093FB022091F9023091CD
:10240000FA02EDCE2091F9023091FA02225E3F4F9E
:102410003093FA022093F90242E0213034070CF4A1
:10242000A0C080E092E09093FA028093F90280913C
:10243000FB029091FC0220E830E0D7CE809123048B
:1024400090E0019665E070E00E9452308093230492
:10245000882309F08DC0449A459A10920E028FEF9E
:1024600080930D0280930C020E94612580910D02E1
:102470000E94752580910E020E9489252091F90203
:102480003091FA028091FB029091FC02A8CE8091DB
:10249000240490E00196837090708093240482302D
:1024A00009F4CFCE833009F453C0813009F4C4CE8F
:1024B00010926204109263048ACE2091F902309146
:1024C000FA02225E3F4F3093FA022093F902809184
:1024D000FB029091FC024E979093FC028093FB02CA
:1024E00042E02130340734F020E032E03093FA0249
:1024F0002093F9024EEF803094070CF070CE80E00C
:102500009EEF9093FC028093FB0269CE1092FA0238
:102510001092F9021092FC021092FB0280E090E00F
:1025200020E030E05ECE8091FB029091FC024E965E
:102530009093FC028093FB0222E0813092070CF41E
:10254000E5CE80E092E09093FC028093FB02DECE29
:1025500081E080936204809363042091F9023091BA
:10256000FA028091FB029091FC0239CEC90125CF7D
:10257000813061F0823091F08330D9F08FEF809319
:102580000E0280930D0280930C026ECF8FEF80932A
:102590000E0210920D0280930C0266CF449845986B
:1025A0008FEF80930E0280930D0210920C0280E058
:1025B0005BCF10920E0210920D0210920C0280E07E
:1025C00053CF08950F931F93CF93DF93FC01808126
:1025D0009181009709F4B8C02091380430913904F2
:1025E00041E02E3034070CF489C0181619060CF09F
:1025F00014C188E691E0821B930B9595879595957C
:10260000879529E130E0281B390B30930402209391
:10261000030280917C0490917D04909397048093B1
:1026200096042081318137FDD3C04091F102509151
:10263000F202B901641B750BAB0170937D046093CA
:102640007C042091050330910603240F351F30933D
:1026500006032093050376E0213437070CF485C088
:1026600020E436E0309306032093050360EC72E12A
:102670009A01220F331F240F351F220F331F220F01
:10268000331F220F331F240F351F00811181C0918A
:102690000302D09104020C9FD0010D9FB00D1C9F2E
:1026A000B00D11242A0F3B1F841B950B880F991F17
:1026B000280F391F260F371F30930403209303037D
:1026C00037FD69C0121613060CF06FC0808191812E
:1026D00097FD89C07DE5213C37070CF466C080EC8E
:1026E0009DE5909304038093030380E092E091833F
:1026F0008083DF91CF911F910F910895243B310585
:1027000094F42A3531057CF4181619060CF093C0A0
:102710003595279535952795275E3F4F30930402D1
:102720002093030276CF1816190694F584EB90E0F7
:10273000821B930B959587959595879549969093D0
:1027400004028093030265CF1092060310920503E2
:1027500010927D0410927C041092970410929604BB
:10276000DF91CF911F910F91089569EF203C3607BB
:102770004CF420EC39EF309306032093050360E41A
:102780007DEE76CFB901660F771F620F731F70CF92
:1027900084EB90E030CF8081918197FD06C010924C
:1027A00004031092030320E030E082EA203438076B
:1027B00004F580E492EA909304038093030380E09D
:1027C0009EEF91838083DF91CF911F910F910895A8
:1027D0004091F1025091F202420F531F50937D0439
:1027E00040937C042ECF109204031092030320E048
:1027F00030E035952795359527953595279535956D
:1028000027953183208342E0213034070CF06DCFCF
:102810006EEF203036079CF26CCF88E691E0821B89
:10282000930B959587959595879549969093040276
:1028300080930302EECE359527953595279589E14E
:1028400090E0821B930B9093040280930302E1CEED
:102850000F931F93CF93DF93FC01808191810097A9
:1028600009F4B8C0209138043091390441E02E3089
:1028700034070CF489C0181619060CF014C188E648
:1028800091E0821B930B959587959595879529E106
:1028900030E0281B390B309306022093050280910B
:1028A000A5049091A60490937F0480937E042081D8
:1028B000318137FDD3C04091F3025091F402B90148
:1028C000641B750BAB017093A6046093A504209163
:1028D000070330910803240F351F3093080320931A
:1028E000070376E0213437070CF485C020E436E096
:1028F000309308032093070360EC72E19A01220FE2
:10290000331F240F351F220F331F220F331F220FB7
:10291000331F240F351F00811181C0910502D09112
:1029200006020C9FD0010D9FB00D1C9FB00D11240D
:102930002A0F3B1F841B950B880F991F280F391FE7
:10294000260F371F309302032093010337FD69C020
:10295000121613060CF06FC08081918197FD89C01B
:102960007DE5213C37070CF466C080EC9DE5909333
:1029700002038093010380E092E091838083DF91E2
:10298000CF911F910F910895243B310594F42A357E
:1029900031057CF4181619060CF093C0359527956F
:1029A00035952795275E3F4F309306022093050209
:1029B00076CF1816190694F584EB90E0821B930BE2
:1029C000959587959595879549969093060280935E
:1029D000050265CF10920803109207031092A60417
:1029E0001092A50410927F0410927E04DF91CF9183
:1029F0001F910F91089569EF203C36074CF420ECAD
:102A000039EF309308032093070360E47DEE76CF1F
:102A1000B901660F771F620F731F70CF84EB90E0D0
:102A200030CF8081918197FD06C0109202031092F1
:102A3000010320E030E082EA2034380704F580E426
:102A400092EA909302038093010380E09EEF9183CA
:102A50008083DF91CF911F910F9108954091F302F0
:102A60005091F402420F531F5093A6044093A504C3
:102A70002ECF109202031092010320E030E0359532
:102A80002795359527953595279535952795318344
:102A9000208342E0213034070CF06DCF6EEF203000
:102AA00036079CF26CCF88E691E0821B930B9595DC
:102AB0008795959587954996909306028093050290
:102AC000EECE359527953595279589E190E0821BC7
:102AD000930B9093060280930502E1CEFC01808166
:102AE0009181009709F47BC0A091A504B091A60440
:102AF000B0937F04A0937E042081318137FD89C08B
:102B00008091F3029091F402A901481B590BCA016C
:102B10005093A6044093A504209107033091080325
:102B2000280F391F309308032093070356E0213400
:102B300035070CF461C020E436E03093080320939D
:102B4000070360E87CE09C01220F331F280F391F28
:102B5000220F331F220F331F220F331F280F391F5D
:102B600040815181440F551F440F551F440F551F7D
:102B7000240F351FAD01481B590BCA01880F991F3F
:102B8000840F951F280F391F260F371F309302031C
:102B90002093010337FD4CC0121613060CF052C0EF
:102BA0008081918197FD67C05DE5213C35070CF47C
:102BB00049C080EC9DE590930203809301032CEDC6
:102BC00035E0225E3F4F3183208342E021303407DD
:102BD0000CF448C080E092E09183808308951092C5
:102BE0000803109207031092A6041092A5041092F5
:102BF0007F0410927E04089549EF203C3407A4F42A
:102C000020EC39EF309308032093070360E873EF5B
:102C10009ACF8091F3029091F402820F931F9093C8
:102C2000A6048093A50478CFB901660F771F8BCFD8
:102C30008081918197FD06C01092020310920103DA
:102C400020E030E082EA20343807DCF480E492EAC5
:102C5000909302038093010324E23AEF2E51304017
:102C6000318320835EEF2030350724F480E09EEF2F
:102C7000918380830895109202031092010320E053
:102C800030E03595279535952795359527953595D8
:102C9000279531832083121613060CF492CF211549
:102CA0003105E1F60895FC0180819181009709F4D6
:102CB0007BC0A0917C04B0917D04B0939704A09355
:102CC00096042081318137FD89C08091F102909175
:102CD000F202A901481B590BCA0150937D0440938D
:102CE0007C042091050330910603280F391F30938F
:102CF00006032093050356E0213435070CF461C028
:102D000020E436E0309306032093050360E87CE07E
:102D10009C01220F331F280F391F220F331F220F50
:102D2000331F220F331F280F391F40815181440F59
:102D3000551F440F551F440F551F240F351FAD015C
:102D4000481B590BCA01880F991F840F951F280F24
:102D5000391F260F371F309304032093030337FDD9
:102D60004CC0121613060CF052C08081918197FD61
:102D700067C05DE5213C35070CF449C080EC9DE55A
:102D800090930403809303032CED35E0225E3F4FC4
:102D90003183208342E0213034070CF448C080E0C6
:102DA00092E09183808308951092060310920503A8
:102DB00010927D0410927C04109297041092960455
:102DC000089549EF203C3407A4F420EC39EF309308
:102DD00006032093050360E873EF9ACF8091F10218
:102DE0009091F202820F931F90937D0480937C0454
:102DF00078CFB901660F771F8BCF8081918197FDC6
:102E000006C0109204031092030320E030E082EA2F
:102E100020343807DCF480E492EA90930403809332
:102E2000030324E23AEF2E513040318320835EEFDA
:102E30002030350724F480E09EEF9183808308954D
:102E4000109204031092030320E030E0359527959B
:102E50003595279535952795359527953183208389
:102E6000121613060CF492CF21153105E1F60895E0
:102E700085B7806185BF8FEF81B912B897EF94B99C
:102E800090EE95B990EF97B990EB98B99CEF9AB9FD
:102E900093E09BB98DB91EB810BA83BB80914C04E6
:102EA0008823E1F08130D1F0823051F19FEF90938F
:102EB0000101109202019FE0909304018823A9F47C
:102EC0009091050110920501109207019FEF9093D8
:102ED0000A01882329F410920B01089514BAE6CF51
:102EE0008130C9F3823041F00895813011F0823091
:102EF00059F790930501E8CF87EF80930B01089570
:102F000098E094BBD3CF1092B8001092BC00089503
:102F1000589A599A1092B90081E08093B8000895A8
:102F200094EA9093BC009091BC0097FFFCCF9091E5
:102F3000B900987F983021F0903111F081E0089528
:102F40008093BB0084E88093BC008091BC0087FF25
:102F5000FCCF9091B900987F983121F081E09034B6
:102F600019F0089580E0089580E0089524EA34E897
:102F700044E92093BC009091BC0097FFFCCF909156
:102F8000B900987F983011F0903199F78093BB0089
:102F90003093BC009091BC0097FFFCCF9091B9009A
:102FA000987F903219F0983509F008954093BC004D
:102FB0009091BC0094FDFCCFDCCF94EA9093BC00D0
:102FC0009091BC0097FFFCCF9091B900987F98300A
:102FD00021F0903111F081E008958093BB0084E8E6
:102FE0008093BC008091BC0087FFFCCF9091B9001A
:102FF000987F983121F081E0903419F0089580E0B5
:10300000089580E0089584E98093BC008091BC001D
:1030100084FDFCCF08958093BB0084E88093BC00BE
:103020008091BC0087FFFCCF9091B900987F81E030
:10303000983209F0089580E0089584EC8093BC00F4
:103040008091BC0087FFFCCF8091BB00089584E88D
:103050008093BC008091BC0087FFFCCF8091BB00B7
:1030600008951092C50080E18093C400E0ECF0E088
:10307000808182608083E1ECF0E0808188698083D8
:10308000E2ECF0E080818660808308951092CD00AC
:1030900080E18093CC00E8ECF0E080818260808366
:1030A000E9ECF0E0808188618083EAECF0E08081E7
:1030B0008660808308951092C0001092C100109223
:1030C000C20008959091C00095FFFCCF8093C60088
:1030D000662321F08091C00086FFFCCF0895909177
:1030E000C80095FFFCCF8093CE00662321F080912D
:1030F000C80086FFFCCF08958091C0008095881F8E
:103100008827881F089587E990E02091C00027FD57
:1031100007C00197D1F781E08093180380E00895FC
:103120008091C60008951F920F920FB60F920BB6B2
:103130000F9211242F933F934F935F936F937F933D
:103140008F939F93AF93BF93EF93FF938091C600AC
:10315000909149049F3021F1909111029923D9F463
:1031600090911D04913009F460C0923009F443C07D
:10317000FF91EF91BF91AF919F918F917F916F914F
:103180005F914F913F912F910F900BBE0F900FBE0B
:103190000F901F9018951092110280931D04E8CF94
:1031A0008B3209F44CC08D32F1F0873609F05BC0E8
:1031B000909121048091C00085FFFCCF9093C600C0
:1031C0008091C00086FFFCCF9091660090937B04B5
:1031D0008091C00085FFFCCF9093C6008091C00015
:1031E00086FFFCCFC5CF80917B048823D1F181502D
:1031F00080937B042BC040911F04442351F1413044
:1032000009F0B6CF382F20E080911103909112037E
:10321000822B932B909312038093110340931E04EF
:1032200010921F0440931102A3CF8A3A31F18535E1
:1032300009F09ECF9093110210921D0499CF8091B6
:103240007B048F3FE9F08F5F80937B04809366005F
:103250008FCF809311031092120381E080931F049B
:1032600087CF80E0F3CF833709F082CF8DEF9FE0E7
:1032700060917B040E94D1307BCF9093200478CF63
:103280008FEFE4CF86B166B126B146B130E0287049
:103290003070359527953595279535952795220FCB
:1032A000331F70E0647070707595679575956795BC
:1032B000260F371F220F331F50E042705070559574
:1032C0004795240F351F220F8170820F0895F894BF
:1032D00014BC15BC10926E001092200110922101B6
:1032E0008EEF9FE00E94CB309093120380931103E6
:1032F0008DEF9FE00E94C33080937B04982F915004
:103300009E3FD8F58093660080911103909112033F
:103310009C0121583C4023303105F8F410924C04B4
:103320000E9438170E94491A0E944E1D0E942425AF
:103330000E9463090E944C0A80911403882329F497
:10334000809113038160809313030E9431180E94BF
:103350006C260E94560F789408952CE080389207CE
:1033600021F481E080934C04DBCF2CE08438920779
:10337000B8F282E080934C04D3CF609166006093F2
:103380007B048DEF9FE00E94D130BECF1F920F9241
:103390000FB60F9211240F900FBE0F901F9018952B
:1033A000CF93DF939EE1899FE00111248091680013
:1033B0008D7F8093680080916C008F7780936C0084
:1033C000D99A10927A0080917A00806180937A0075
:1033D00010929000109291001092710088B3876053
:1033E00088BB1092A0001092A1001092720089B3C5
:1033F000876089BB10928000109281000E945B1848
:103400000E946F090E9483170E94381783B78F604C
:1034100083BF81E0809370008091B0008D7F8093A6
:10342000B0008091B10087608093B100209719F0BF
:1034300088952197E9F713BE8091B100887F80932A
:10344000B100109270008091B00082608093B00053
:103450008FEF80930C0280930D0280930E021092E6
:10346000F6021092F5021092F8021092F7020E94F2
:103470006719DF91CF9108956091410470914204E2
:103480008091430490914404089581E08093BF02A9
:103490000895CF93DF93EAE7F0E01082ABE7B0E066
:1034A0001C92CCE7D0E0188280818660808388817E
:1034B000806488838081806280838C91887F8C93F4
:1034C000808188608083808180688083808180643F
:1034D0008083DF91CF9108951F920F920FB60F92C4
:1034E0000BB60F9211242F933F934F935F936F93DB
:1034F0007F938F939F93EF93FF934091410430917B
:103500004204209143049091440480914504E09149
:10351000460470914704F0914804642F6F5F51E0B6
:10352000641708F050E0530F41E0531708F040E0F3
:10353000420F31E0421708F030E0390F21E039172F
:1035400008F020E0280F91E0281708F090E09E0F87
:1035500081E09E1708F080E0870FE1E0871708F010
:10356000E0E0EF0F60934104509342044093430422
:103570003093440420934504909346048093470479
:10358000E09348042091780030E040917900942F36
:1035900080E0282B392B8091B902823009F4ABC12D
:1035A000833008F444C0833009F4C8C1843009F47E
:1035B00067C18091BA02823009F44EC1833008F0AD
:1035C000CCC0882309F023C1809124028695809382
:1035D00023028091BB02882309F0E0C181E080933F
:1035E000B90281E08093BA0290912302983008F0EA
:1035F000ECC090917B00977F90937B009091230289
:10360000905C90937C00823009F4ECC0FF91EF91C4
:103610009F918F917F916F915F914F913F912F91EA
:103620000F900BBE0F900FBE0F901F901895882320
:1036300009F0FEC0609124026E3009F4D0C1462F1B
:1036400050E0FA01EE0FFF1FE75DFD4F318320834D
:1036500040FF77C0FA01EE0FFF1FE95DFD4F80814B
:103660009181FA01EE0FFF1FE75DFD4F408151810F
:10367000262F269530E0841B950B220F331FF9016E
:10368000EF58FD4F40815181841B950BF901E75A9A
:10369000FD4F9183808397FDBDC144E08130940745
:1036A00024F080E094E091838083603148F48C338F
:1036B00091050CF0B4C12F533D4FF90191838083E4
:1036C00080916304882309F475C180916902909107
:1036D0006A02F1E0843A9F07CCF080916B029091EE
:1036E0006C0221E0843A92078CF080916D029091F7
:1036F0006E0241E0843A94074CF080916F02909101
:103700007002E1E0843A9E070CF054C181E080939E
:1037100064041092F8021092F7021092A90010921D
:10372000A8001092AB001092AA001092F60210921C
:10373000F502109299001092980010929B0010923E
:103740009A006F5F60932402683108F432CF1092C0
:10375000240281E08093C0022CCF833009F4B7C0EB
:10376000843009F041CF90912602909323029091EA
:1037700027029093BB029091BC02992309F008C1E3
:1037800083E08093B9021092BA02609124026E30F5
:1037900009F41FC1862F90E060FFF1C0603108F48A
:1037A0000CC120914C04222309F0D5C04097959577
:1037B000879521E030E002C0220F331F8A95E2F79F
:1037C000209305018091BA020FCF90917B00986001
:1037D00090937B0090912302985C90937C008230C0
:1037E00009F014CF20914C04222351F0213019F01C
:1037F000223009F00BCF8FEF8093050112B806CF6E
:1038000080910501807F8093050112B8FFCE813041
:1038100009F0EACE8091250280932302809128024C
:103820008093BC021092B90282E08093BA02DCCE8F
:10383000813009F0BECE8091E3029091E402820FC4
:10384000931F969587959093E4028093E30280916D
:10385000BA02823009F0B2CE809126028093230210
:10386000809127028093BB028091BC02882309F0DB
:103870009BC083E08093B90283E08093BA02B4CE08
:1038800080910A02882309F494CE9091000193FD5F
:1038900090CE9091000194FD8CCE482F4F5F4093C5
:1038A0000A02453008F485CE8091ED029091EE0237
:1038B000820F931F9093EE028093ED02483009F03F
:1038C00078CE10920A0281E08093070272CE809136
:1038D000250280932302809128028093BC0280916C
:1038E000BB02882309F04EC081E08093B90284E0D6
:1038F0008093BA0279CE80910902882309F459CEC7
:10390000639957CE649955CE482F4F5F4093090273
:10391000453008F44ECE8091EF029091F002820F74
:10392000931F9093F0028093EF02483009F041CE4C
:103930001092090281E0809308023BCE8091E1025F
:103940009091E202820F931F969587959093E202E1
:103950008093E1022ECE213011F0223081F440918B
:10396000050140979595879521E030E002C0220F30
:10397000331F8A95E2F72095242320930501809137
:10398000BA0232CE8130D1F185E08093B902AFCF57
:10399000913009F085E08093B902F5CE8130B1F124
:1039A00085E08093B9021DCE813061F185E080937E
:1039B000B90262CF10926404C4CE669581E090E0B3
:1039C00002C0880F991F6A95E2F782B98091BA0206
:1039D0000BCE8091BF028130A1F180E005CE8091B5
:1039E000BF02823009F02BCE3093BE022093BD027D
:1039F0001092BF0246984EE050E02ACE82E08093BB
:103A0000B90275CF84E08093B90236CF82E080930B
:103A1000B902E7CD1182108280E090E046CEAC0181
:103A2000445C5F4F55954795483751057CF42F53BB
:103A30003D4FCC9795958795CC96F90191838083DE
:103A40003FCE82E08093BF02469AA4CEAC01445D93
:103A50005E4F5595479555954795443B510574F4F0
:103A60002F533D4F845B904095958795959587950D
:103A700088589F4FF9019183808322CE2F533D4F69
:103A8000845A9140959587959595879595958795B5
:103A90008C549F4FF9019183808312CE0F931F9313
:103AA000CF93DF93E0E9F0E0108241E950E0DA01E2
:103AB0001C9221E730E0E9011882A0EAB0E01C92F4
:103AC00081EA90E0EC01188202E710E0E801188238
:103AD000608163686083608163606083EA016881FC
:103AE0006B6068834091F5025091F6025093990003
:103AF0004093980010929B0010929A00E90148812F
:103B00004160488320812F7520832EB1277E2EB9F6
:103B10002C9123682C93FC0120812B6020838091C1
:103B2000F7029091F8029093A9008093A800109258
:103B3000AB001092AA00E8018881816088838C9193
:103B40008F758C93E2E0F1E08081877E8083DF9146
:103B5000CF911F910F910895809107028823B1F1B1
:103B60002091ED023091EE023695279536952795F6
:103B70003093F2022093F102109207021092EE02AB
:103B80001092ED028091FB029091FC0297FDD5C04E
:103B9000359527953595279535952795442737FDF4
:103BA0004095542F8091D5029091D602A091D702D2
:103BB000B091D802820F931FA41FB51F8093D50226
:103BC0009093D602A093D702B093D80280910802B6
:103BD0008823B1F12091EF023091F00236952795BC
:103BE000369527953093F4022093F3021092080241
:103BF0001092F0021092EF028091F9029091FA0275
:103C000097FD7CC035952795359527953595279552
:103C1000442737FD4095542F8091D1029091D202D4
:103C2000A091D302B091D402820F931FA41FB51F9D
:103C30008093D1029093D202A093D302B093D40286
:103C40008091FD029091FE0290930A0380930903F4
:103C50002091FF023091000330930C0320930B035B
:103C600040916204442379F53093EC022093EB02F7
:103C70009093EA028093E9023093F8022093F702CE
:103C80009093F6028093F502181619065CF590934E
:103C90009900809398008091F7029091F80218168D
:103CA00019062CF49093A9008093A800089500971A
:103CB00009F06AC01092A9001092A8001092AB00FF
:103CC0001092AA0008958BE093E069E073E00E94EF
:103CD000102320910B0330910C03809109039091E4
:103CE0000A03C2CF009709F047C0109299001092C2
:103CF000980010929B0010929A00CDCF3595279591
:103D00003595279535952795442737FD4095542FB0
:103D10008091D1029091D202A091D302B091D402AD
:103D2000821B930BA40BB50B8093D1029093D2020C
:103D3000A093D302B093D40283CF359527953595C0
:103D4000279535952795442737FD4095542F809129
:103D5000D5029091D602A091D702B091D802821BD1
:103D6000930BA40BB50B8093D5029093D602A0932E
:103D7000D702B093D8022ACF909581959F4F909308
:103D80009B0080939A0087CF909581959F4F909349
:103D9000AB008093AA0008956F927F928F929F92BA
:103DA000AF92BF92CF92DF92EF92FF920F931F9349
:103DB0008091FD029091FE0290930A038093090383
:103DC0004091FF025091000350930C0340930B036A
:103DD00020916204222309F0B7C15093EC02409372
:103DE000EB029093EA028093E90280910702882314
:103DF00009F458C02091ED023091EE0236952795D6
:103E0000369527953093F2022093F1021092070223
:103E10001092EE021092ED028091D5029091D6029E
:103E2000A091D702B091D8028093DD029093DE0278
:103E3000A093DF02B093E00257FD95C13595279519
:103E40003595279535952795442737FD4095542F6F
:103E5000280F391F4A1F5B1F2093D5023093D602CB
:103E60004093D7025093D80280911702813009F411
:103E700095C18BE093E00E94E21280910B03909138
:103E80000C039093F8028093F702181619060CF0B1
:103E9000AAC19093A9008093A800809171048F5FBC
:103EA0008093710480910802882309F0F0C080910A
:103EB0007104823008F4DEC080910B018E7F809304
:103EC0000B0110927104E090D102F090D2020091A7
:103ED000D3021091D4026090D5027090D6028090E7
:103EE000D7029090D802C801B7010E94A32E26E9FC
:103EF00031E24EE85DE30E94942F5B016C01C40146
:103F0000B3010E94A32E28E93EE642E95DE30E9448
:103F1000942F9B01AC01C601B5010E943E2D20E00B
:103F200030E04EE152E40E94082ED62EA72EC82E75
:103F3000B92E862F9A2DAC2DBB2D809365049093BE
:103F40006604A0936704B09368048091D9029091AD
:103F5000DA02A091DB02B091DC02A8019701281BD4
:103F6000390B4A0B5B0BCA01B9010E94A32E26E94B
:103F700031E24EE85DE30E94942F7B018C01809139
:103F8000DD029091DE02A091DF02B091E002A40177
:103F90009301281B390B4A0B5B0BCA01B9010E9424
:103FA000A32E28E93EE642E95DE30E94942F9B019F
:103FB000AC01C801B7010E943F2D20E030E040E095
:103FC0005FE30E94942F8B017C01862F912FAE2DF1
:103FD000BF2D8093720490937304A0937404B093E4
:103FE00075046D2D7A2D8C2D9B2D0E94052E9B0125
:103FF000AC01602F712F8E2D9F2D0E94942F9B015D
:10400000AC016091690470916A0480916B04909195
:104010006C040E943F2D6093690470936A0480933E
:104020006B0490936C046D2D7A2D8C2D9B2D0E942A
:10403000F72F9B01AC01602F712F8E2D9F2D0E94B9
:10404000942F9B01AC0160916D0470916E0480917E
:104050006F04909170040E943F2D60936D047093E3
:104060006E0480936F049093700480910B018160C3
:1040700080930B011F910F91FF90EF90DF90CF90F5
:10408000BF90AF909F908F907F906F9008952091F8
:10409000EF023091F00236952795369527953093AB
:1040A000F4022093F302109208021092F002109290
:1040B000EF028091D1029091D202A091D302B091EF
:1040C000D4028093D9029093DA02A093DB02B093DA
:1040D000DC024091E9025091EA0257FD64C0359537
:1040E00027953595279535952795442737FD409594
:1040F000542F280F391F4A1F5B1F2093D102309382
:10410000D2024093D3025093D4028091170281309F
:1041100009F464C089E093E00E94281480910903A7
:1041200090910A039093F6028093F50218161906EF
:104130000CF064C090939900809398008091710472
:104140008F5F80937104B5CE8BE093E069E073E0FC
:104150000E94102340910B0350910C03809109039E
:1041600090910A033ACE3595279535952795359543
:104170002795442737FD4095542F821B930BA40BA2
:10418000B50B8093D5029093D602A093D702B0933B
:10419000D80280911702813009F06BCE8BE093E05A
:1041A0000E9453166ACE35952795359527953595F6
:1041B0002795442737FD4095542F821B930BA40B62
:1041C000B50B8093D1029093D202A093D302B09307
:1041D000D40280911702813009F09CCF89E093E0EE
:1041E0000E946E159BCF0097A1F41092A900109227
:1041F000A8001092AB001092AA004FCE009789F44D
:10420000109299001092980010929B0010929A00C0
:1042100095CF909581959F4F9093AB008093AA0086
:104220003CCE909581959F4F90939B0080939A00F0
:1042300085CF282F332727FD309537FD30C03093A9
:104240000E0320930D0387FD1EC0220F331F220F84
:10425000331F3093FC022093FB0282E021303807A9
:104260003CF080E092E09093FC028093FB02089582
:104270008EEF2030380734F480E09EEF9093FC02FC
:104280008093FB020895220F331F220F331F3095B6
:1042900021953F4F3093FC022093FB02DECF3095F7
:1042A00021953F4FCCCF282F332727FD309537FD61
:1042B00030C03093100320930F0387FD1EC0220FE0
:1042C000331F220F331F3093FA022093F90282E04A
:1042D000213038073CF080E092E09093FA0280931E
:1042E000F90208958EEF2030380734F480E09EEF15
:1042F0009093FA028093F9020895220F331F220F40
:10430000331F309521953F4F3093FA022093F902E5
:10431000DECF309521953F4FCCCF1F920F920FB635
:104320000F9211248F939F9380916404882361F0EE
:104330001092F8021092F7021092A9001092A800B1
:104340001092AB001092AA001092E2021092E102C9
:104350008091F7029091F802009741F58091EB026D
:104360009091EC0297FD69C081E0809328028EE075
:104370008093250281E080930A028091A0008F75CE
:104380008093A00080910201877E8093020180913A
:104390007200897F8093720089B3866089BB9F9188
:1043A0008F910F900FBE0F901F9018951816190639
:1043B0002CF5109228028FE0809325028091A000B6
:1043C0008F7D8093A000809172008B7F809372001C
:1043D000809102018F7E809302018091A00080680D
:1043E0008093A000809172008260809372009F9100
:1043F0008F910F900FBE0F901F901895109228026A
:104400008EE0809325028091A0008F778093A0009A
:10441000809172008D7F8093720080910201877F6E
:10442000809302018091A00080628093A00080911F
:104430007200846080937200B2CF81E08093280282
:104440008FE08093250296CF1F920F920FB60F92A6
:1044500011248F939F9381E0809328029EE0909394
:10446000250280930A029F918F910F900FBE0F90AB
:104470001F9018951F920F920FB60F9211248F93D1
:104480009F9381E0809328029FE090932502809380
:104490000A029F918F910F900FBE0F901F90189559
:1044A0001F920F920FB60F9211248F939F938091BA
:1044B0006404882361F01092F6021092F5021092C3
:1044C00099001092980010929B0010929A001092FE
:1044D000E4021092E3028091F5029091F6020097B7
:1044E00031F58091E9029091EA0297FD5FC081E089
:1044F000809327028CE08093260281E0809309025A
:10450000809190008F75809390008EB1877E8EB9D8
:1045100080917100897F8093710088B3866088BB29
:104520009F918F910F900FBE0F901F9018951816A6
:1045300019060CF5109227028DE0809326028091D7
:1045400090008F7D80939000809171008B7F80938D
:1045500071007498809190008068809390008091A1
:1045600071008260809371009F918F910F900FBEB8
:104570000F901F901895109227028CE080932602CE
:10458000809190008F7780939000809171008D7F53
:104590008093710073988091900080628093900066
:1045A00080917100846080937100BACF81E0809324
:1045B00027028DE080932602A0CF1F920F920FB6A4
:1045C0000F9211248F939F9381E0809327029CE0A8
:1045D00090932602809309029F918F910F900FBEB6
:1045E0000F901F9018951F920F920FB60F921124E3
:1045F0008F939F9381E0809327029DE09093260202
:10460000809309029F918F910F900FBE0F901F9082
:10461000189580919400909195000E94B83008956B
:104620002F923F924F925F926F927F928F929F92C2
:10463000AF92BF92CF92DF92EF92FF920F931F93B0
:10464000DF93CF93CDB7DEB728970FB6F894DEBFD0
:104650000FBECDBF2C017A836983FC010190F081EC
:10466000E02DFC83EB83FB010190F081E02DFE83C4
:10467000ED836091C1027091C2026530710534F41E
:104680001092C2021092C10260E070E04091C30239
:104690005091C4024530510534F41092C402109276
:1046A000C30240E050E08091C5029091C60285307F
:1046B000910524F41092C6021092C5020091C7021F
:1046C0001091C8020530110534F41092C8021092FE
:1046D000C70200E010E06090C9027090CA02F5E0E5
:1046E0006F16710434F41092CA021092C902662443
:1046F00077242091CB023091CC022530310534F45F
:104700001092CC021092CB0220E030E08091CD02DA
:104710009091CE028530910524F41092CE02109231
:10472000CD028091CF029091D0028530910534F472
:104730001092D0021092CF0280E090E0EE24FF248D
:10474000E61AF70A5A01B594A794159507956901D9
:10475000D594C7944C01959487940E94B3309301EB
:104760002E5130402E0D3F1D200F311F2C0D3D1DB1
:104770002A193B09281939094CE3242E312CB1019F
:104780000E945230280F391F38872F83E090C302D0
:10479000F090C402F594E7940091C5021091C6020E
:1047A0001595079515950795C090C702D090C8023A
:1047B000D594C7948090CB029090CC029594879426
:1047C0006090CD027090CE02759467947594679452
:1047D000A090CF02B090D002B594A7940E94B330BD
:1047E0009701200F311F2E5130402C0D3D1D2A19ED
:1047F0003B092819390926193709B1010E9452309D
:10480000280F391F4B815C8157FD97C05A01CC247A
:10481000B7FCC094DC2C8F8198853C01882477FC00
:104820008094982C79010027F7FC0095102FC40183
:10483000B3016E197F09800B910BA60195010E94AF
:104840001F30F6E09595879577956795FA95D1F79E
:104850006A0D7B1D8C1D9D1DF201718360832D816E
:104860003E8137FD99C05901CC24B7FCC094DC2CA3
:10487000C801B701660D771D881D991DA601950118
:104880000E941F3036E095958795779567953A9504
:10489000D1F76A0D7B1D8C1D9D1D9B01E981FA815D
:1048A00071836083F2E021303F0744F080E092E0C2
:1048B000E981FA819183808320E032E0F2018081F6
:1048C0009181F2E081309F074CF080E092E0F201AC
:1048D00091838083E981FA8120813181FEEF20304C
:1048E0003F074CF480E09EEFE981FA819183808359
:1048F000F20180819181FEEF80309F072CF480E0EF
:104900009EEFF2019183808328960FB6F894DEBF64
:104910000FBECDBFCF91DF911F910F91FF90EF9010
:10492000DF90CF90BF90AF909F908F907F906F90CF
:104930005F904F903F902F9008954D815E815A0176
:10494000CC24B7FCC094DC2C8F8198853C01882452
:1049500077FC8094982C79010027F7FC0095102FA4
:10496000C801B701660D771D881D991DA601950127
:104970000E941F30E6E09595879577956795EA95B3
:10498000D1F7261B370B480B590BF20131832083DB
:104990002D813E8137FF67CF2B813C815901CC248B
:1049A000B7FCC094DC2CC401B3016E197F09800BE5
:1049B000910BA60195010E941F3026E095958795E1
:1049C000779567952A95D1F7A61AB70AC80AD90A22
:1049D0009501E981FA81B182A08264CF8091690258
:1049E00090916A0221E0843A9207D4F080916B02A0
:1049F00090916C0221E0843A920794F080916D02CC
:104A000090916E0221E0843A920774F081E0209147
:104A10006F023091700291E0243A39071CF4089536
:104A200081E0089580E0089581E0089581E0809319
:104A30006204089510926204089581E080936304F3
:104A40000895109263040895A0E8B0E01C92E1E894
:104A5000F0E010828C91896A8C93808189608083D8
:104A600080910C0290E0909389008093880080915F
:104A70000D0290E090938B0080938A0080910E024B
:104A800090E090938D0080938C00089581E0909148
:104A90001503891B80931503882339F480918000C6
:104AA000877F809380002F98089580918000886090
:104AB000809380008FEF90E090938D0080938C0026
:104AC0000895882359F09091800090689093800019
:104AD00090E09093890080938800089580918000F1
:104AE0008F77809380002D980895882359F09091B6
:104AF000800090629093800090E090938B00809370
:104B00008A000895809180008F7D809380002E9888
:104B10000895882359F090918000986090938000C8
:104B200090E090938D0080938C0008958091800098
:104B3000877F809380002F980895833009F45AC0AE
:104B4000843080F0853009F441C08530D0F466238C
:104B500009F468C080910B018F7E80930B018091D6
:104B60000B0108958130E1F1823080F0662309F471
:104B700046C080910B018B7F80930B0180910B01CC
:104B800008958630C9F0873061F00895662309F4EE
:104B900051C080910B018E7F80930B0180910B019E
:104BA0000895662309F05EC080910B0180688093B0
:104BB0000B0180910B010895662349F180910B014F
:104BC0008F7B80930B0180910B0108956623D1F1B7
:104BD00080910B018F7D80930B0180910B010895D3
:104BE0006623C1F180910B018D7F80930B01809131
:104BF0000B010895662399F0A39884B308958091DA
:104C00000B01846080930B0180910B0108958091CA
:104C10000B01806480930B0180910B010895A39A8E
:104C200084B3089580910B01806180930B01809182
:104C30000B01089580910B01816080930B0180919D
:104C40000B01089580910B01806280930B0180918C
:104C50000B01089580910B01826080930B0180917C
:104C60000B01089580910B018F7780930B01809148
:104C70000B010895EBE0F1E0808181608083808109
:104C800082608083808184608083A39A8081806138
:104C90008083808180628083808180648083808142
:104CA000806880830895EBE0F1E080818E7F8083CF
:104CB00080818D7F808380818B7F8083A39880819A
:104CC0008F7E808380818F7D808380818F7B8083B6
:104CD00080818F77808308950E94881780911402C5
:104CE0000E949017882349F486E10E940B1885E4FE
:104CF0000E940B180E94031808950E94031886EA68
:104D000090E0909315028093140286EA0E94901717
:104D1000882341F58DE20E940B1888E00E940B1851
:104D20000E940318809114020E9490178823D1F4E6
:104D300081E30E940B1880E00E940B180E94031868
:104D4000809114020E949017882361F48CE20E94E3
:104D50000B1889E00E940B180E94031881E08093D1
:104D6000250408950E94031882E080932504089585
:104D7000809114020E949017882351F486E10E94CA
:104D80000B1885E40E940B180E94031880E0089518
:104D90000E94031881E00895809114020E949017E8
:104DA000882331F58DE20E940B1888E00E940B18D1
:104DB0000E940318809114020E9490178823C1F466
:104DC00081E30E940B1880E00E940B180E940318D8
:104DD000809114020E949017882351F48CE20E9463
:104DE0000B1889E00E940B180E94031880E00895B8
:104DF0000E94031881E00895FF920F931F93DF93A1
:104E0000CF930F92CDB7DEB780912504882391F020
:104E1000813009F488C01092270410922604109261
:104E20002904109228040F90CF91DF911F910F91C8
:104E3000FF900895809114020E94901780E00E94D4
:104E40000B18809114028F5F0E94DD170E941D18BD
:104E5000082F0E941D18F82E0E941D18182F0E945E
:104E6000271889830E9403189091A70489819923A8
:104E700039F14F2D552747FD5095542F4427602F6A
:104E8000772767FD7095462B572B50932704409347
:104E90002604282F332727FD3095322F2227812FF4
:104EA000992787FD9095282B392B3093290420933F
:104EB00028040F90CF91DF911F910F91FF900895DB
:104EC0004F2D552747FD5095542F4427602F7727A6
:104ED00067FD7095462B572B60912C0470912D0423
:104EE000461B570B5093270440932604282F332743
:104EF00027FD3095322F2227812F992787FD909506
:104F0000282B392B80912E0490912F04281B390BCC
:104F100030932904209328040F90CF91DF911F91A3
:104F20000F91FF900895809114020E94901782E3E0
:104F300086CFDF93CF9300D000D0CDB7DEB780917E
:104F400025048823C1F0813009F4ADC010922704F4
:104F500010922604109229041092280410922B0417
:104F600010922A0426960FB6F894DEBF0FBECDBF6E
:104F7000CF91DF910895809114020E94901780E0F4
:104F80000E940B18809114028F5F0E94DD170E940F
:104F90001D1889830E941D188A830E941D188B8307
:104FA0000E941D188C830E941D188D830E94271853
:104FB0008E830E9403188091A704882389F18A8137
:104FC000992787FD9095982F88272981332727FDDA
:104FD0003095822B932B90932704809326048C8109
:104FE000992787FD9095982F88272B81332727FDB8
:104FF0003095822B932B90932904809328048E81E3
:10500000992787FD9095982F88272D81332727FD95
:105010003095822B932B90932B0480932A04A2CF5C
:105020008A81992787FD9095982F88272981332792
:1050300027FD3095822B932B20912C0430912D0449
:10504000821B930B90932704809326048C819927CD
:1050500087FD9095982F88272B81332727FD309542
:10506000822B932B20912E0430912F04821B930BC3
:1050700090932904809328048E81992787FD909529
:10508000982F88272D81332727FD3095822B932B4E
:105090002091300430913104821B930B90932B04A8
:1050A00080932A045FCF809114020E94901782E3BC
:1050B00067CFCF93DF9310920C0210920D021092E3
:1050C0000E0280E00E94612580910D020E947525EC
:1050D00080910E020E94892510924B0410924A047E
:1050E00081E08093A704C1E0D0E00E94992720913D
:1050F0004A0430914B04213131050CF435C18091C3
:10510000890290918A02A0918B02B0918C0254E0A6
:10511000B695A795979587955A95D1F79093720272
:105120008093710280918D0290918E02A0918F02E6
:10513000B091900244E0B695A795979587954A95CA
:10514000D1F79093740280937302809191029091B1
:105150009202A0919302B091940234E0B695A79583
:10516000979587953A95D1F790937602809375023B
:105170008091950290919602A0919702B091980229
:1051800024E0B695A795979587952A95D1F79093A2
:105190007802809377028091990290919A02A0916F
:1051A0009B02B0919C02F4E0B695A79597958795E0
:1051B000FA95D1F790937A028093790280919D02BB
:1051C00090919E02A0919F02B091A002E4E0B6955A
:1051D000A79597958795EA95D1F790937C02809350
:1051E0007B028091A1029091A202A091A302B091B2
:1051F000A40274E0B695A795979587957A95D1F70F
:1052000090937E0280937D028091A5029091A602E8
:10521000A091A702B091A80264E0B695A7959795D2
:1052200087956A95D1F79093800280937F02809151
:10523000AD029091AE02A091AF02B091B00254E0E5
:10524000B695A795979587955A95D1F79C0180912A
:10525000B1029091B202A091B302B091B40244E0C5
:10526000B695A795979587954A95D1F7BC018091FA
:10527000B5029091B602A091B702B091B802F4E0E5
:10528000B695A79597958795FA95D1F7AC0180913A
:10529000A9029091AA02A091AB02B091AC02E4E005
:1052A000B695A79597958795EA95D1F78050924046
:1052B0009093820280938102205032403093840286
:1052C000209383026050724070938602609385023F
:1052D000405052405093880240938702809132049C
:1052E0009091330495958795959587959595879594
:1052F0009595879590932D0480932C048091340488
:105300009091350495958795959587959595879571
:105310009595879590932F0480932E048091360461
:10532000909137049595879595958795959587954F
:105330009595879590933104809330041092A7043B
:105340008FEF80930C0280930D0280930E020E94D7
:10535000612580910D020E94752580910E020E94A8
:105360008925DF91CF9108958091C002882309F4A7
:1053700086C11092C0022115310509F486C18091C1
:10538000590290915A02AA2797FDA095BA2F4091F1
:10539000890250918A0260918B0270918C02840F75
:1053A000951FA61FB71F8093890290938A02A0932E
:1053B0008B02B0938C0280915B0290915C02AA27D1
:1053C00097FDA095BA2F40918D0250918E02609169
:1053D0008F0270919002840F951FA61FB71F8093B4
:1053E0008D0290938E02A0938F02B09390028091D1
:1053F0005D0290915E02AA2797FDA095BA2F409179
:105400009102509192026091930270919402840FE4
:10541000951FA61FB71F8093910290939202A093AD
:105420009302B093940280915F0290916002AA2748
:1054300097FDA095BA2F40919502509196026091E8
:10544000970270919802840F951FA61FB71F809333
:10545000950290939602A0939702B0939802809140
:10546000610290916202AA2797FDA095BA2F409100
:10547000990250919A0260919B0270919C02840F54
:10548000951FA61FB71F8093990290939A02A0932D
:105490009B02B0939C028091630290916402AA27C0
:1054A00097FDA095BA2F40919D0250919E02609168
:1054B0009F027091A002840F951FA61FB71F8093B3
:1054C0009D0290939E02A0939F02B093A0028091B0
:1054D000650290916602AA2797FDA095BA2F409188
:1054E000A1025091A2026091A3027091A402840FC4
:1054F000951FA61FB71F8093A1029093A202A093AD
:10550000A302B093A4028091670290916802AA2737
:1055100097FDA095BA2F4091A5025091A6026091E7
:10552000A7027091A802840F951FA61FB71F809332
:10553000A5029093A602A093A702B093A80280911F
:10554000690290916A02AA2797FDA095BA2F40910F
:10555000A9025091AA026091AB027091AC02840F33
:10556000951FA61FB71F8093A9029093AA02A0932C
:10557000AB02B093AC0280916B0290916C02AA27AF
:1055800097FDA095BA2F4091AD025091AE02609167
:10559000AF027091B002840F951FA61FB71F8093B2
:1055A000AD029093AE02A093AF02B093B00280918F
:1055B0006D0290916E02AA2797FDA095BA2F409197
:1055C000B1025091B2026091B3027091B402840FA3
:1055D000951FA61FB71F8093B1029093B202A093AC
:1055E000B302B093B40280916F0290917002AA2727
:1055F00097FDA095BA2F4091B5025091B6026091E7
:10560000B7027091B802840F951FA61FB71F809331
:10561000B5029093B602A093B702B093B8028091FE
:105620003204909133044091260450912704840F52
:10563000951F9093330480933204809134049091A9
:1056400035044091280450912904840F951F9093AC
:10565000350480933404809136049091370440914E
:105660002A0450912B04840F951F90933704809344
:1056700036042F5F3F4F30934B0420934A048091B0
:10568000A704882309F031CD5BCE109289021092D5
:105690008A0210928B0210928C0210927202109267
:1056A000710210928D0210928E0210928F0210924F
:1056B0009002109274021092730210929102109252
:1056C000920210929302109294021092760210921B
:1056D0007502109295021092960210929702109203
:1056E000980210927802109277021092990210920A
:1056F0009A0210929B0210929C0210927A021092CF
:10570000790210929D0210929E0210929F021092B6
:10571000A00210927C0210927B021092A1021092C1
:10572000A2021092A3021092A40210927E02109282
:105730007D021092A5021092A6021092A70210926A
:10574000A8021092800210927F021092A902109279
:10575000AA021092AB021092AC0210928202109236
:1057600081021092AD021092AE021092AF0210921E
:10577000B00210928402109283021092B102109231
:10578000B2021092B3021092B402109286021092EA
:1057900085021092B5021092B6021092B7021092D2
:1057A000B80210928802109287021092330410926D
:1057B000320410923504109234041092370410927F
:1057C0003604D0934B04C0934A048091A70459CF68
:1057D00080912504882379F0813011F110922704FB
:1057E00010922604109229041092280410922B047F
:1057F00010922A040895809114020E94901780E06C
:105800000E940B18809114028F5F0E94DD170E9486
:105810001D1880933B040E941D1880933C0408953A
:10582000809114020E94901782E30E940B188091CD
:1058300014028F5F0E94DD170E941D1880933B04A5
:105840000E941D1880933C040E941D1880933D0403
:10585000089580912504882309F04EC00E941D18E8
:1058600080933D040E941D1880933E040E941D18E1
:1058700080933F040E942718809340040E940318DD
:105880008091A704882309F447C080913C0499279C
:1058900087FD9095982F882720913B04332727FD7B
:1058A0003095822B932B909327048093260480912C
:1058B0003E04992787FD9095982F882720913D04D5
:1058C000332727FD3095822B932B909329048093C7
:1058D000280480914004992787FD9095982F882768
:1058E00020913F04332727FD3095822B932B9093F3
:1058F0002B0480932A040895813009F4B3CF1092C9
:105900002704109226041092290410922804109261
:105910002B0410922A04089580913C04992787FD56
:105920009095982F882720913B04332727FD3095A9
:10593000822B932B20912C0430912D04821B930BEE
:10594000909327048093260480913E04992787FD35
:105950009095982F882720913D04332727FD309577
:10596000822B932B20912E0430912F04821B930BBA
:10597000909329048093280480914004992787FDFF
:105980009095982F882720913F04332727FD309545
:10599000822B932B2091300430913104821B930B86
:1059A00090932B0480932A040895EF92FF920F9313
:1059B0001F9380912A0490912B0497FD5BC0803146
:1059C000910508F042C081E0809316029091150283
:1059D000981709F442C010923A048093150260911E
:1059E000260470912704882777FD8095982F0E94C0
:1059F000A32E7B018C0160912804709129048827D3
:105A000077FD8095982F0E94A32E9B01AC01C801C1
:105A1000B7010E94B22D21EE3EE245E652E40E941B
:105A2000942F0E94702E9B01709339046093380468
:105A300077FF06C028593E4F30933904209338042D
:105A40001F910F91FF90EF9008951092160280E041
:105A500090911502981709F0BECF90913A049F5F7C
:105A600090933A04953008F4B8CF10923A0480939A
:105A70001702B3CF909581959F4FA1CF5058BB2768
:105A8000AA270ED0FFC1C8D130F0CDD120F031F41B
:105A90009F3F11F41EF498C10EF4E095E7FB8EC110
:105AA000E92F12D280F3BA176207730784079507AC
:105AB00018F071F49EF52AC20EF4E0950B2EBA2F61
:105AC000A02D0B01B90190010C01CA01A001112404
:105AD000FF27591B99F0593F50F4503E68F11A16B0
