:100000000C94BE000C94DD000C94DD000C94DD001B
:100010000C94DD000C94DD000C94DD000C94DD00EC
:100020000C94DD000C94DD000C94F50D0C94DD00B7
:100030000C94DD000C94290E0C94DD000C944A18ED
:100040000C94DD000C94DD000C94DD000C94DD00BC
:100050000C94DD000C94DD000C94DD000C94DD00AC
:100060000C94DD000C9417170C94DD000C94DD004B
:100070000C94DD000C94F0180C94DD000C94DD0061
:100080000C9438200C944E200C94DD000C94AB1F83
:100090000C94DD000C94DD000C94DD000C94DD006C
:1000A0000C94DD000C94DD000C947F1F0C94951FC4
:1000B0000C94DD000C94E81E0C94DD000C94DD0023
:1000C0000C94DD000C94DD000C94DD000C94DD003C
:1000D0000C94DD000C94DD000C94DD000C94DD002C
:1000E0000C94DD00A210861054101711E1100A11B3
:1000F0002B100F10E20FCA0F6B0F6B0F6B0F6B0FF4
:100100006B0F6B0FBE0FB30F6B0F6B0F6B0F6B0F84
:100110006B0F6B0F6B0F6B0F6B0F6B0F6B0F6B0F0F
:10012000E20F5410A70FA20F6B0F6B0F6B0F6B0F2B
:100130006B0F6B0F6B0F6B0F6B0F6B0F6B0F6B0FEF
:10014000E1102B106B0F6B0FA2100A11CB10084A95
:10015000D73B3BCE016E84BCBFFDC12F3D6C7431DB
:100160009ABD56833DDA3D00C77F11BED9E4BB4C32
:100170003E916BAAAABE000000803F0011241FBE62
:10018000CFEFD1E2DEBFCDBF00E00CBF13E0A0E0B7
:10019000B2E0E0E8F2E602C005900D92A432B107A9
:1001A000D9F715E0A4E2B3E001C01D92A038B10771
:1001B000E1F70E94DF000C943F310C9400002F9275
:1001C0003F924F925F926F927F928F929F92AF92E7
:1001D000BF92CF92DF92EF92FF920F931F93DF9324
:1001E000CF9300D000D0CDB7DEB70E94EB170E94AE
:1001F000B4250E9464200E94C0187B018C011E82DD
:100200001D82CC24882499245401DD24DA9452E000
:10021000252E4EE1642E712C30E8432E512C3324D0
:1002200033940E94C61780933F050E94F4240E94D5
:10023000302A80913F05873009F4C6C00E94C0185B
:100240006E197F09800B910B6E313BE4730730E030
:10025000830730E0930708F075C00E94590F0E9491
:10026000040A80913F05863009F488C08F3009F078
:100270004AC00E942D1D80913F05C81691F20E9430
:1002800075220E947C2280910B01816080930B017A
:1002900080910B01826080930B0180910B0184603F
:1002A00080930B01A39A80910B01806180930B01D5
:1002B00080910B01806280930B0180910B0180641F
:1002C00080930B0180910B01806880930B01D09289
:1002D0000C02D0920D02D0920E028FEF0E94BC222F
:1002E00080910D020E94D02280910E020E94E42291
:1002F00080E00E94AE1E80E00E94741E10921004E6
:10030000C0903F058ECF60E00E94E61690913F05B9
:10031000892F963099F1973008F073C0923009F424
:100320006BC0933008F051C1992309F430C191306A
:1003300021F40E94712290913F05992309F099CFF1
:1003400080E09BCF0E94C91880913F05982F945060
:10035000923008F4AFC1873009F4DAC1863009F46D
:100360001BC10E94C0187B018C010E94590F0E9482
:10037000040A80913F05863009F078CF90911705E7
:10038000913009F495C2913008F018C280E00E94C3
:10039000AE1E80E00E94741E0E949523D0920C0233
:1003A000D0920D02D0920E028FEF0E94BC2280915B
:1003B0000D020E94D02280910E020E94E422449AF3
:1003C000459A90913F05B9CF0E94C01868197909E4
:1003D0008A099B09683C22E1720720E0820720E03D
:1003E000920708F42BCFD0920C02D0920D02D0923B
:1003F0000E0224CF0E9471220E94782290913F0524
:100400009CCF9A3009F4A9C09B30F0F4983009F4DD
:100410008AC09930D8F18091DB039091DC03A091E0
:10042000DD03B091DE03893BFBE09F07F0E0AF07FF
:10043000F0E0BF0714F180E00E94741E80E00E948B
:10044000AE1E90913F0579CF9C3009F419C19C30C4
:1004500008F4FCC09D3009F070CF8091DB039091CF
:10046000DC03A091DD03B091DE0389356BE19607D3
:1004700060E0A60760E0B607F4F688E20E94741E0A
:1004800088E20E94AE1E90913F0557CF80914305B0
:10049000823009F475C4833008F0AFC1882309F0B5
:1004A00096C30E94952380910B018E7F80930B0150
:1004B000109244050E94712284E10E94AE1E84E1E4
:1004C0000E94741E0E94C0189B01AC0160934B05F2
:1004D00070934C0580934D0590934E058091470590
:1004E00090914805A0914905B0914A05281B390B08
:1004F0004A0B5B0B23339FEE390792E0490790E0EC
:10050000590710F03092430580910C020E94BC22E2
:1005100080910D020E94D02280910E020E94E4225E
:1005200090913F050ACF8091DB039091DC03A0916D
:10053000DD03B091DE03813DE7E09E07E0E0AE071A
:10054000E0E0BE070CF077CF88E20E94741E88E2DC
:100550000E94AE1E90913F05F0CE8091DB039091FA
:10056000DC03A091DD03B091DE03813A2FE0920716
:1005700020E0A20720E0B2070CF05DCF88E20E94E5
:10058000741E88E20E94AE1E90913F05D6CE0E9456
:10059000001C90913F05D1CE80911705813009F064
:1005A000E0CE90910D04923008F0DBCE90911004D3
:1005B000992309F0DDC4EEEFE0930C02D0920D0216
:1005C000D0920E0280931004CCCE9430D1F09530AE
:1005D00008F410CF80910C020E94BC2280910D0281
:1005E0000E94D02280910E020E94E4220E94712279
:1005F00089E10E94741E89E10E94AE1E90913F0520
:100600009CCE80910B018E7F80930B0180910B011A
:100610008D7F80930B0180910B018B7F80930B0169
:10062000A39880910B018F7E80930B0180910B0129
:100630008F7D80930B0180910B018F7B80930B0149
:1006400080910B018F7780930B015ECF8091DB034C
:100650009091DC03A091DD03B091DE03893833E192
:10066000930730E0A30730E0B3070CF0E4CE88E254
:100670000E94741E88E20E94AE1E90913F055DCEDE
:100680008091DB039091DC03A091DD03B091DE0348
:10069000813747E1940740E0A40740E0B4070CF439
:1006A000ECCE80E00E94741E80E00E94AE1E90910D
:1006B0003F0543CE0E94B12EB3010E94192EAD8199
:1006C000BE81A80FB91FAF77B070BE83AD83809194
:1006D0001004813009F4B6C2813008F06EC28D81F9
:1006E000809580930C0230921004ED81FE81E032FF
:1006F000F10508F0C5C080910D028F3F09F431CE9D
:1007000080910E028F3F09F42CCED0920C0229CE9C
:1007100080919400909195000E94B62E0E94B12E77
:10072000B3010E94192E7C01AD81BE81EA0EFB1E31
:10073000BFE7EB22FF248E2D809580930C028091E1
:100740009400909195000E94B62E0E94B12EB301A4
:100750000E94192E8C010E0D1F1D0F771070802F17
:10076000809580930D0280919400909195000E9455
:10077000B62E0E94B12EB3010E94192E800F911F38
:100780008F7790709E838D838D81809580930E02EC
:1007900080919400909195000E94B62E0E94B12EF7
:1007A000B2010E94192E8032910508F07AC0D092D1
:1007B0000C020E94C0184B015C01D3CD923011F0A5
:1007C000982FBBCD909118059923D1F30E94AE23A9
:1007D00060910B0470910C048EEF9FE00E948630B4
:1007E0000E9495238AEA61E00E94E616109218059D
:1007F0001092170590913F05A0CD843009F47FC277
:10080000843008F437C2853009F07ECE0E949523EB
:1008100080910B018F7B80930B0180910B018F776F
:1008200080930B010E94C0189B01AC0160934B05A3
:1008300070934C0580934D0590934E05809147052C
:1008400090914805A0914905B0914A05281B390BA4
:100850004A0B5B0B2B329CE1390790E0490790E093
:10086000590708F451CE0E94C01860934705709351
:1008700048058093490590934A051092430544CE5C
:10088000E034F10508F0E5C180910C028F3F09F4D6
:1008900068CD80910E028F3F09F463CDD0920D0296
:1008A00060CD8034910508F000C3D0920D0281CF55
:1008B0000E94AE2380910C020E94BC2280910D0206
:1008C0000E94D02280910E020E94E4224498459812
:1008D00080911A05882309F4B4CD10921A058091ED
:1008E0005F0361E00E94E6168091600361E00E9470
:1008F000E61680912F039091300361E00E94E61686
:1009000080912F0390913003892F61E00E94E616B9
:100910008091610361E00E94E6168091620361E0CC
:100920000E94E616809133039091340361E00E94A7
:10093000E6168091330390913403892F61E00E9481
:10094000E6168091630361E00E94E61680916403DD
:1009500061E00E94E616809137039091380361E0D0
:100960000E94E6168091370390913803892F61E049
:100970000E94E6168091650361E00E94E616809170
:10098000660361E00E94E61680913B0390913C0370
:1009900061E00E94E61680913B0390913C03892F11
:1009A00061E00E94E6168091670361E00E94E6160E
:1009B0008091680361E00E94E61680913F03909168
:1009C000400361E00E94E61680913F03909140034E
:1009D000892F61E00E94E6168091690361E00E9420
:1009E000E61680916A0361E00E94E6168091430357
:1009F0009091440361E00E94E61680914303909138
:100A00004403892F61E00E94E61680916B0361E048
:100A10000E94E61680916C0361E00E94E6168091C8
:100A200047039091480361E00E94E61680914703D6
:100A300090914803892F61E00E94E61680916D0332
:100A400061E00E94E61680916E0361E00E94E61666
:100A500080914B0390914C0361E00E94E6168091D7
:100A60004B0390914C03892F61E00E94E616809120
:100A70006F0361E00E94E6168091700361E00E94BE
:100A8000E61680914F039091500361E00E94E616B4
:100A900080914F0390915003892F61E00E94E616E8
:100AA0008091710361E00E94E6168091720361E01B
:100AB0000E94E616809153039091540361E00E94D6
:100AC000E6168091530390915403892F61E00E94B0
:100AD000E6168091730361E00E94E616809174032C
:100AE00061E00E94E616809157039091580361E0FF
:100AF0000E94E6168091570390915803892F61E078
:100B00000E94E6168091750361E00E94E6168091CE
:100B1000760361E00E94E61680915B0390915C038E
:100B200061E00E94E61680915B0390915C03892F3F
:100B300061E00E94E6168091200561E00E94E616C1
:100B40008091210561E00E94E6168091220561E016
:100B50000E94E6168091230561E00E94E6168091CE
:100B6000240561E00E94E6168091250561E00E945F
:100B7000E61680911B0561E00E94E61680913F0514
:100B800061E00E94E6168091030190E0807290700F
:100B9000959587959595879595958795959587953D
:100BA0009595879561E00E94E61680910D0461E0BD
:100BB0000E94E61690913F05C0CB823009F095CD9A
:100BC0008D81809580930E02109210048ECD81301D
:100BD00009F09ACC0E94952380910B018B7F809322
:100BE0000B01109245050E94712284E10E94AE1E05
:100BF00084E10E94741E8091710390917203A1E0C0
:100C000080399A070CF438C1809173039091740372
:100C1000B1E080399B070CF42FC180916F03909154
:100C20007003E1E080399E070CF426C180917503C2
:100C300090917603F1E080399F070CF41DC110926A
:100C4000440562CC8D81809580930D022092100422
:100C50004CCDE036F10508F084CB80910C028F3F3B
:100C600009F47FCB80910D028F3F09F47ACBD092AB
:100C70000E0277CB0E94952380910B018F7B80938E
:100C80000B010E94C0189B01AC0160934B0570934F
:100C90004C0580934D0590934E05809147059091AA
:100CA0004805A0914905B0914A05281B390B4A0B0C
:100CB0005B0B2D3C96E6390794E0490790E0590715
:100CC00008F4FAC08091C3039091C403A3E08A376B
:100CD0009A0708F4FBC08CEE0E94AE1E8CEE0E94B8
:100CE000741E0E94C0186093470570934805809356
:100CF000490590934A05B4E0B093430505CC0E94A2
:100D0000952380910B018F7B80930B0180910B01C8
:100D10008F7780930B010E94C0189B01AC016093F8
:100D20004B0570934C0580934D0590934E05809133
:100D3000470590914805A0914905B0914A05281BA7
:100D4000390B4A0B5B0B2F3895E2390790E04907C6
:100D500090E0590708F4D8CB84E10E94AE1E8CEED7
:100D60000E94741E0E94C018609347057093480546
:100D70008093490590934A05A5E0A0934305C4CB11
:100D80000E94952380910B018F7E80930B010E941E
:100D900075220E94C0189B01AC0160934B057093B3
:100DA0004C0580934D0590934E0580914705909199
:100DB0004805A0914905B0914A05281B390B4A0BFB
:100DC0005B0B23339FEE390792E0490790E0590708
:100DD00008F0B7C08091030184FF98C010924505C8
:100DE000809146058F5F80934605853108F0D6C017
:100DF000209171033091720340916F035091700301
:100E000061E0423C5607ACF481E0233C38078CF0AB
:100E10008091730390917403A1E0833C9A074CF096
:100E20008091750390917603B1E0833C9B070CF0B1
:100E3000DAC08091750390917603E1E0823C9E07D1
:100E40000CF04FC0F1E0433C5F070CF44AC041E0B6
:100E5000233C34070CF44AC08091730390917403CF
:100E600061E0833C96070CF0B7C084E10E94741ED9
:100E700086EF0E94AE1E48CB809144058F5F809321
:100E800044058B3008F440CB10924505109246057E
:100E90000E94C018609347057093480580934905E8
:100EA00090934A05209243052FCB8036910508F098
:100EB00080CCD0920E027DCC8091030184FD24CBA6
:100EC0001092460510924505209243050E94C018D5
:100ED00060934705709348058093490590934A05B0
:100EE00013CB81E0233C38070CF0BFCF8091730314
:100EF00090917403A1E0833C9A070CF448C086EFFC
:100F00000E94741E84E10E94AE1EFECA1092460525
:100F10002091710330917203E1E0233C3E072CF1F4
:100F20008091730390917403F1E0833C9F07ECF090
:100F3000809145058F5F809345058B3F08F45CCF1A
:100F4000E1CA8CEE0E94AE1E8CEE0E94741E0E94BE
:100F5000C0186093470570934805809349059093A6
:100F60004A05A4E0A0934305CFCA1092450544CF9B
:100F7000913041F1923009F0F4C9D0920C02D09234
:100F80000D022EEF20930E0210921004EAC984E1A4
:100F90000E94AE1E84E10E94741EB6CA80E00E94C8
:100FA000741E80E00E94AE1E0E94C0186093470528
:100FB000709348058093490590934A05B3E0B09338
:100FC0004305A2CAD0920C02FEEFF0930D02D0921C
:100FD0000E0220921004C5C984E10E94741E81EFA4
:100FE0000E94AE1E91CA81EF0E94741E84E10E948D
:100FF000AE1E8ACA81E090E021E00DB407FC0AC071
:10100000019637E280319307C0F320930E040DB4AC
:1010100007FEF6CF089584B1807F84B984B18760DC
:1010200084B980E58CBD8DB581608DBD08951CBCF3
:101030001DBC0895442309F1A62FB72FE82FF92FDF
:1010400091E021912EBD21E030E00DB407FC0BC0F2
:101050002F5F3F4F57E220313507B8F390930E04CE
:101060000DB407FEF5CF20910E04222331F42EB5E6
:101070002D932E2F281B241720F308956623E9F0C3
:10108000E82FF92F91E021912EBD21E030E00DB441
:1010900007FC0BC02F5F3F4F47E220313407B8F306
:1010A00090930E040DB407FEF5CF20910E04222379
:1010B00021F42E2F281B261730F308958EBD81E0D2
:1010C00090E021E00DB407FC0AC0019637E28031C0
:1010D0009307C0F320930E040DB407FEF6CF8EB530
:1010E00008950F931F93DF93CF9300D0CDB7DEB752
:1010F000289880E20E945E088DE00E945E08289A8F
:10110000289883E20E945E0881E00E945E08289A87
:1011100080910B0490910C0499838A831B822898F8
:1011200080E30E945E088E010F5F1F4FC80163E0DD
:101130000E943E08289A28988AE20E945E08C80108
:1011400063E00E943E08289A289881E20E945E0887
:1011500081E00E945E08289A289882E20E945E0838
:1011600081E00E945E08289A289884E20E945E0826
:1011700082E10E945E08289A289885E20E945E0813
:1011800088E20E945E08289A289881E30E945E08FF
:101190008DE00E945E08289A289880E50E945E08EB
:1011A00083E70E945E08289A28988CE30E945E08D4
:1011B00081E00E945E08289A28988DE30E945E08CC
:1011C00086E00E945E08289A289880E20E945E08C5
:1011D0008FE00E945E08289A0F900F900F90CF9199
:1011E000DF911F910F9108952C9A289A0E947108FF
:1011F0000895CF93DF93EC012C9828988AE20E94FF
:101200005E08CE0165E00E943E08289A2C9ADF9184
:10121000CF910895CF93DF93EC01289880E30E944B
:101220005E08CE0165E00E943E08289ADF91CF91CA
:10123000089580915205882311F080E00895289840
:101240008FEF0E945E08289A80740895DF93CF93F1
:101250000F92CDB7DEB71982289887E10E945E0809
:10126000BE016F5F7F4FCB0141E00E941A08289AB0
:10127000898181700F90CF91DF910895289882EE37
:101280000E945E08289A0895CF93DF93EC01289876
:1012900081E60E945E08CE01BE014DE00E941A0860
:1012A000289A289887E20E945E0880E40E945E08DF
:1012B000289ADF91CF910895DF93CF930F92CDB706
:1012C000DEB728988F71806269830E945E08698109
:1012D000862F0E945E08289A0F90CF91DF91089583
:1012E0000F931F93DF93CF930F92CDB7DEB78B0190
:1012F00028988F7149830E945E08C801B80149810E
:101300000E941A08289A0F90CF91DF911F910F9198
:1013100008950F931F93DF93CF930F92CDB7DEB74E
:101320008B0128988F71806249830E945E08C801F2
:101330004981642F0E943E08289A0F90CF91DF9137
:101340001F910F9108950F931F93DF93CF930F92E7
:10135000CDB7DEB78C01809152058823E1F72C9838
:1013600081E080935205289880E269830E945E089C
:101370008AE40E945E08289A289881EE0E945E08FE
:10138000289A289880EA0E945E08C80169810E9414
:101390003E08289A2C9A0F90CF91DF911F910F91C0
:1013A0000895EF92FF920F931F93DF93CF930F92C5
:1013B000CDB7DEB7182F062F289881EE99830E94AB
:1013C0005E08289A289888EA0E945E08998100237E
:1013D00061F0612F792F7B01F70181917F010E94DC
:1013E0005E088E2D811B8017B8F3289A0F90CF913D
:1013F000DF911F910F91FF90EF900895289881EE53
:101400000E945E08289A08951F93CF93DF938091DE
:101410005205882321F0DF91CF911F9108952898DC
:101420008FEF0E945E08289A86FFF5CF80910D0409
:10143000826080930D04289887E20E945E0880E70E
:101440000E945E08289A289881E60E945E0880E73C
:1014500095E0BC014DE00E941A08289A289887E27E
:101460000E945E0880E40E945E08289A289882EE16
:101470000E945E08289A60917005662309F495C160
:101480005091740540917505E09171057091720558
:10149000252F30E02F77307030930A042093090411
:1014A000842F90E08F7790709093080480930704C6
:1014B00057FD7FC2220F331F220F331F3095219516
:1014C0003F4F3093F8032093F70347FD7CC2880F0A
:1014D000991F880F991F909581959F4F9093FA03BC
:1014E0008093F90342E02130340744F040E052E0B9
:1014F0005093F8034093F70320E032E042E081305C
:10150000940734F080E092E09093FA038093F9031B
:101510004EEF2030340734F440E05EEF5093F80390
:101520004093F7032EEF8030920734F480E09EEF73
:101530009093FA038093F903262F30E030936905E6
:1015400020936805F0E0F0936B05E0936A05C72FE0
:10155000D0E0D0936D05C0936C05922F8827821B35
:10156000930B24E630E0B9010E94052E162F10954A
:1015700010930C025E2F44274E1B5F0BCA01B9016A
:101580000E94052E609560930E025C2F44274C1B31
:101590005D0BCA01B9010E94052E609560930D0292
:1015A000812F0E94BC2280910D020E94D022809146
:1015B0000E020E94E4228091730580FF02C14498CC
:1015C00081FF02C14598982F82FF02C121E020933C
:1015D000120284FD01C186FF06C181E080934F05A0
:1015E00097FD05C1109250058091760580FF06C1D8
:1015F00080910B018E7F80930B018091760581FF96
:1016000006C180910B018D7F80930B01809176053F
:1016100082FF06C180910B018B7F80930B0180912B
:10162000760583FF06C1A3988091760584FF06C1E5
:1016300080910B018F7E80930B018091760585FF51
:1016400006C180910B018F7D80930B0180917605FF
:1016500086FF06C180910B018F7B80930B018091E7
:10166000760587FD06C180910B01806880930B0190
:1016700080910B0280935805853009F406C18630AD
:1016800008F05FC1833009F40EC2843009F03FC016
:1016900090916703809168039093590580935A0550
:1016A00090916F038091700390935B0580935C052C
:1016B000909171038091720390935D0580935E0514
:1016C000909173038091740390935F0580936005FC
:1016D00090917503809176039093610580936205E4
:1016E0009091200580912105909363058093640576
:1016F000909122058091230590936505809366055E
:1017000080911B058093670585E080930B022898E4
:1017100081EE0E945E08289A289888EA0E945E0856
:10172000809158050E945E08809159050E945E08CC
:1017300080915A050E945E0880915B050E945E08B8
:1017400080915C050E945E0880915D050E945E08A4
:1017500080915E050E945E0880915F050E945E0890
:10176000809160050E945E08809161050E945E087C
:10177000809162050E945E08809163050E945E0868
:10178000809164050E945E08809165050E945E0854
:10179000809166050E945E08809167050E945E0840
:1017A000289ADF91CF911F910895E0917105EE2362
:1017B00009F412C15091740540917505709172053C
:1017C00067CE449A81FDFECE459A982F82FDFECECB
:1017D0001092120284FFFFCE0E94B42590917305EF
:1017E000892F86FDFACE10924F0597FFFBCE81E040
:1017F000809350058091760580FDFACE80910B0193
:10180000816080930B018091760581FDFACE8091F5
:101810000B01826080930B018091760582FDFACEE8
:1018200080910B01846080930B018091760583FD8C
:10183000FACEA39A8091760584FDFACE80910B01B1
:10184000806180930B018091760585FDFACE8091B1
:101850000B01806280930B018091760586FDFACEA4
:1018600080910B01806480930B018091760587FF46
:10187000FACE80910B018F7780930B0180910B0240
:1018800080935805853009F0FACE80912F0390910E
:1018900030038093590580912F03909130039093EA
:1018A0005A05809133039091340380935B058091B6
:1018B00033039091340390935C05809137039091AA
:1018C000380380935D05809137039091380390939E
:1018D0005E0580913B0390913C0380935F0580916E
:1018E0003B0390913C03909360058091430390915A
:1018F0004403809361058091430390914403909346
:10190000620580914703909148038093630580911D
:101910004703909148039093640580914B03909105
:101920004C038093650580914B0390914C039093F9
:10193000660580913F058093670586E080930B02E2
:10194000E6CE863009F45DC0873009F0E0CE3091F4
:10195000DB032091DC039091DD038091DE03309363
:10196000590520935A0590935B0580935C0530914F
:10197000D7032091D8039091D9038091DA03309353
:101980005D0520935E0590935F058093600510923E
:101990006105109262051092630510926405109221
:1019A0006505109266051092670583E080930B022F
:1019B000AECE220F331F220F331F3093F803209334
:1019C000F70347FF84CD880F991F880F991F9093C5
:1019D000FA038093F90386CD70917205772361F441
:1019E00080917305883041F450917405552309F4B2
:1019F000C0C0409175054CCD50917405409175055E
:101A000047CD80913F039091400380935905809189
:101A10003F039091400390935A0580914F0390911A
:101A2000500380935B0580914F03909150039093F6
:101A30005C05809153039091540380935D058091E0
:101A400053039091540390935E05809157039091B6
:101A5000580380935F0580915703909158039093AA
:101A6000600580915B0390915C0380936105809198
:101A70005B0390915C0390936205909124058091A3
:101A8000250590936305809364059091C30380912D
:101A9000C40390936505809366051092670587E0FF
:101AA00080930B0234CE90915F03809160039093FA
:101AB000590580935A059091610380916203909338
:101AC0005B0580935C059091630380916403909320
:101AD0005D0580935E059091650380916603909308
:101AE0005F05809360059091690380916A039093EC
:101AF00061058093620590916B0380916C039093D4
:101B000063058093640590916D0380916E039093BB
:101B10006505809366053091030180910301209152
:101B2000030190E0807290709595879595958795C3
:101B3000959587959595879595958795880F991F84
:101B4000221F2227221F220F220F282B832F90E0F3
:101B500080719070959587959595879595958795C2
:101B600095958795282B2093670584E080930B0239
:101B7000CECD40917505442379F010920A0410925D
:101B80000904842F90E08F779070909308048093DD
:101B9000070420E030E08ECC8CE30E945418509172
:101BA00074054091750560917005E0917105709123
:101BB00072056ECCCF93DF93C8E6D0E01882ACE616
:101BC000B0E01C92E0EBF0E010821092B1001092B5
:101BD00070008881826088838C9180688C9380817A
:101BE00082608083DF91CF9108951F920F920FB68C
:101BF0000F9211248F9380911202882321F18091FA
:101C0000030186FD20C0809168008D7F809368006D
:101C100080916C008F7780936C0081E08093130239
:101C20008DE08093B3008091B10086608093B10015
:101C30008091700082608093700010922603109251
:101C40002703109228038F910F900FBE0F901F90C3
:101C500018951F920F920FB60F9211242F933F9356
:101C60004F935F938F939F938091B100887F809370
:101C7000B100809113028823A9F08091030186FFAF
:101C800065C08091680082608093680080916C00DC
:101C9000806880936C008FEF9FEF90930202809397
:101CA000010249C080910102909102022FEF8F3F03
:101CB000920709F463C08130910509F498C09C0132
:101CC000225030402530310508F467C09C01275070
:101CD00030402630310508F0BDC026E32093B30024
:101CE0002091B10026602093B10020917000226005
:101CF000209370002091030130E0207430700024A4
:101D0000220F331F001C220F331F001C232F302DE6
:101D10004CE050E0481B590B02C0220F331F4A957C
:101D2000E2F740912603420F4093260301969093D9
:101D30000202809301029F918F915F914F913F9199
:101D40002F910F900FBE0F901F90189510921302B5
:101D500083E38093B3008091B10086608093B100EB
:101D60008091700082608093700080910102909158
:101D700002022FEF8F3F9207C9F6DDCF20910301BA
:101D800026FF52C0209168002260209368002091B5
:101D90006C00206820936C00CECF26E32093B30024
:101DA0002091B10026602093B10020917000226044
:101DB000209370002091030130E0207430700024E3
:101DC000220F331F001C220F331F001C232F302D26
:101DD00046E050E0481B590B02C0220F331F4A95C2
:101DE000E2F740912703420F409327039FCF2091B2
:101DF000030130E020743070022E232F000C221FCC
:101E0000330B000C221F331F2093280326E320935B
:101E1000B3002091B10026602093B10020917000A2
:101E200022602093700082CF8CE18093B300809178
:101E3000B10086608093B1008091700082608093D1
:101E4000700010922603109227031092280381E05D
:101E500090E06DCF8D30910509F068CF1092700041
:101E60008091680082608093680080916C00806837
:101E700080936C008FEF9FEF90930202809301029A
:101E8000809128038093000280912703809324038C
:101E9000809126038093250381E080931C054BCF1E
:101EA0008091000208958091240308958091250374
:101EB0000895809112028823B1F180911C05882336
:101EC00091F1E0912503E0931B0510921C05F0E0D1
:101ED000E533F10548F12091F7033091F803809143
:101EE000F9039091FA0337FD27C03595279535956D
:101EF000279530930A042093090497FD09C095950E
:101F00008795959587959093080480930704089585
:101F1000909581959F4F95958795959587959093E9
:101F20000804809307040895EE58FF4FEE0FFF1F3B
:101F30000590F491E02D1994309521953F4FD5CF20
:101F400080934F0510925005C6CF10924F0581E047
:101F5000809350052091F7033091F8038091F903A5
:101F60009091FA03C0CF10924F052091F703309162
:101F7000F8038091F9039091FA03B5CF81E0809343
:101F80004F052091F7033091F8038091F903909168
:101F9000FA03A9CF8091F9039091FA034E97909399
:101FA000FA038093F9032EEF803092079CF580E0CE
:101FB0009EEF9093FA038093F9032091F7033091F9
:101FC000F80391CF2091F7033091F8038091F50346
:101FD0009091F6032817390724F02091F9033091E6
:101FE000FA032E5130403093F8032093F703C901D0
:101FF0003093FA032093F9034EEF2030340734F482
:1020000040E05EEF5093F8034093F7034EEF20302B
:1020100034076CF22091F7033091F80364CF2091DC
:10202000F7033091F8032E5130403093F80320939A
:10203000F7034EEF203034070CF017C180E09EEF1D
:102040009093F8038093F7038091F9039091FA033A
:1020500020E830E04ECF2091F7033091F8032E5165
:1020600030403093F8032093F7038091F903909167
:10207000FA034E969093FA038093F9034EEF2030C3
:10208000340734F420E03EEF3093F8032093F70355
:1020900042E0813094070CF426CF80E092E09093E8
:1020A000FA038093F9031FCF2091F7033091F803CF
:1020B0008091F9039091FA03821793070CF4DAC028
:1020C0009C01225E3F4F3093F8032093F7034E9616
:1020D0009093FA038093F90342E02130340734F0FF
:1020E00020E032E03093F8032093F70322E08130C0
:1020F00092070CF48FCF80E092E09093FA038093E4
:10210000F9032091F7033091F803EDCE2091F70306
:102110003091F803225E3F4F3093F8032093F7038A
:1021200042E0213034070CF4A0C080E092E09093AC
:10213000F8038093F7038091F9039091FA0320E864
:1021400030E0D7CE80911D0590E0019665E070E00B
:102150000E94192E80931D05882309F08DC0449A92
:10216000459A10920E028FEF80930D0280930C021D
:102170000E94BC2280910D020E94D02280910E020A
:102180000E94E4222091F7033091F8038091F90333
:102190009091FA03A8CE80911E0590E0019683707D
:1021A000907080931E05823009F4CFCE833009F4FD
:1021B00053C0813009F4C4CE10924F0510925005DF
:1021C0008ACE2091F7033091F803225E3F4F30937F
:1021D000F8032093F7038091F9039091FA034E9747
:1021E0009093FA038093F90342E02130340734F0EE
:1021F00020E032E03093F8032093F7034EEF803075
:1022000094070CF070CE80E09EEF9093FA038093D9
:10221000F90369CE1092F8031092F7031092FA03B3
:102220001092F90380E090E020E030E05ECE8091F3
:10223000F9039091FA034E969093FA038093F90371
:1022400022E0813092070CF4E5CE80E092E090939A
:10225000FA038093F903DECE81E080934F058093EB
:1022600050052091F7033091F8038091F903909184
:10227000FA0339CEC90125CF813061F0823091F067
:102280008330D9F08FEF80930E0280930D028093FC
:102290000C026ECF8FEF80930E0210920D0280938E
:1022A0000C0266CF449845988FEF80930E0280937E
:1022B0000D0210920C0280E05BCF10920E02109281
:1022C0000D0210920C0280E053CF08950F931F93DC
:1022D000CF93DF93FC0180819181009709F4B8C00E
:1022E000209132053091330541E02E3034070CF453
:1022F00089C0181619060CF014C188E691E0821BFB
:10230000930B959587959595879529E130E0281B46
:10231000390B30930402209303028091540590916D
:10232000550590936F0580936E052081318137FDAF
:10233000D3C04091EF035091F003B901641B750BBA
:10234000AB0170935505609354052091FF033091C4
:102350000004240F351F309300042093FF0376E020
:10236000213437070CF485C020E436E030930004B4
:102370002093FF0360EC72E19A01220F331F240FB8
:10238000351F220F331F220F331F220F331F240F3D
:10239000351F00811181C0910302D09104020C9F6E
:1023A000D0010D9FB00D1C9FB00D11242A0F3B1FB3
:1023B000841B950B880F991F280F391F260F371F75
:1023C0003093FE032093FD0337FD69C012161306F8
:1023D0000CF06FC08081918197FD89C07DE5213C23
:1023E00037070CF466C080EC9DE59093FE03809364
:1023F000FD0380E092E091838083DF91CF911F9174
:102400000F910895243B310594F42A3531057CF46D
:10241000181619060CF093C0359527953595279514
:10242000275E3F4F309304022093030276CF1816A5
:10243000190694F584EB90E0821B930B9595879594
:10244000959587954996909304028093030265CFF2
:10245000109200041092FF0310925505109254053B
:1024600010926F0510926E05DF91CF911F910F9121
:10247000089569EF203C36074CF420EC39EF309397
:1024800000042093FF0360E47DEE76CFB901660F70
:10249000771F620F731F70CF84EB90E030CF808185
:1024A000918197FD06C01092FE031092FD0320E07B
:1024B00030E082EA2034380704F580E492EA909311
:1024C000FE038093FD0380E09EEF91838083DF9184
:1024D000CF911F910F9108954091EF035091F00318
:1024E000420F531F50935505409354052ECF109221
:1024F000FE031092FD0320E030E0359527953595D9
:10250000279535952795359527953183208342E08A
:10251000213034070CF06DCF6EEF203036079CF27F
:102520006CCF88E691E0821B930B959587959595E6
:10253000879549969093040280930302EECE3595D9
:1025400027953595279589E190E0821B930B909311
:10255000040280930302E1CE0F931F93CF93DF9386
:10256000FC0180819181009709F4B8C02091320567
:102570003091330541E02E3034070CF489C0181631
:1025800019060CF014C188E691E0821B930B959517
:1025900087959595879529E130E0281B390B309375
:1025A00006022093050280917D0590917E0590930F
:1025B0005705809356052081318137FDD3C0409166
:1025C000F1035091F203B901641B750BAB017093D9
:1025D0007E0560937D052091010430910204240F53
:1025E000351F309302042093010476E0213437072D
:1025F0000CF485C020E436E03093020420930104FB
:1026000060EC72E19A01220F331F240F351F220F55
:10261000331F220F331F220F331F240F351F00815A
:102620001181C0910502D09106020C9FD0010D9F2F
:10263000B00D1C9FB00D11242A0F3B1F841B950B5E
:10264000880F991F280F391F260F371F3093FC035F
:102650002093FB0337FD69C0121613060CF06FC000
:102660008081918197FD89C07DE5213C37070CF47D
:1026700066C080EC9DE59093FC038093FB0380E0B3
:1026800092E091838083DF91CF911F910F91089504
:10269000243B310594F42A3531057CF418161906CB
:1026A0000CF093C03595279535952795275E3F4FBC
:1026B000309306022093050276CF1816190694F57A
:1026C00084EB90E0821B930B959587959595879564
:1026D0004996909306028093050265CF10920204FA
:1026E0001092010410927E0510927D0510925705FC
:1026F00010925605DF91CF911F910F91089569EFC8
:10270000203C36074CF420EC39EF30930204209340
:10271000010460E47DEE76CFB901660F771F620F8A
:10272000731F70CF84EB90E030CF8081918197FD53
:1027300006C01092FC031092FB0320E030E082EA16
:102740002034380704F580E492EA9093FC038093E8
:10275000FB0380E09EEF91838083DF91CF911F91F7
:102760000F9108954091F1035091F203420F531FCE
:1027700050937E0540937D052ECF1092FC0310925E
:10278000FB0320E030E03595279535952795359565
:102790002795359527953183208342E021303407F2
:1027A0000CF06DCF6EEF203036079CF26CCF88E6D0
:1027B00091E0821B930B9595879595958795499602
:1027C0009093060280930502EECE359527953595B8
:1027D000279589E190E0821B930B909306028093EA
:1027E0000502E1CEFC0180819181009709F47BC054
:1027F000A0917D05B0917E05B0935705A093560535
:102800002081318137FD89C08091F1039091F203DD
:10281000A901481B590BCA0150937E0540937D05C1
:102820002091010430910204280F391F30930204D3
:102830002093010456E0213435070CF461C020E4F4
:1028400036E0309302042093010460E87CE09C01B0
:10285000220F331F280F391F220F331F220F331F60
:10286000220F331F280F391F40815181440F551FFC
:10287000440F551F440F551F240F351FAD01481B32
:10288000590BCA01880F991F840F951F280F391FF4
:10289000260F371F3093FC032093FB0337FD4CC0FA
:1028A000121613060CF052C08081918197FD67C00B
:1028B0005DE5213C35070CF449C080EC9DE5909323
:1028C000FC038093FB032CED35E0225E3F4F318308
:1028D000208342E0213034070CF448C080E092E0CD
:1028E0009183808308951092020410920104109243
:1028F0007E0510927D051092570510925605089599
:1029000049EF203C3407A4F420EC39EF3093020463
:102910002093010460E873EF9ACF8091F1039091C6
:10292000F203820F931F90937E0580937D0578CFED
:10293000B901660F771F8BCF8081918197FD06C00B
:102940001092FC031092FB0320E030E082EA203476
:102950003807DCF480E492EA9093FC038093FB0355
:1029600024E23AEF2E513040318320835EEF203055
:10297000350724F480E09EEF9183808308951092C0
:10298000FC031092FB0320E030E035952795359548
:1029900027953595279535952795318320831216F0
:1029A00013060CF492CF21153105E1F60895FC01D0
:1029B00080819181009709F47BC0A0915405B0916A
:1029C0005505B0936F05A0936E052081318137FDC9
:1029D00089C08091EF039091F003A901481B590B26
:1029E000CA0150935505409354052091FF0330913F
:1029F0000004280F391F309300042093FF0356E092
:102A0000213435070CF461C020E436E03093000433
:102A10002093FF0360E87CE09C01220F331F280F06
:102A2000391F220F331F220F331F220F331F280F8E
:102A3000391F40815181440F551F440F551F440FCA
:102A4000551F240F351FAD01481B590BCA01880FB4
:102A5000991F840F951F280F391F260F371F30939A
:102A6000FE032093FD0337FD4CC0121613060CF035
:102A700052C08081918197FD67C05DE5213C35079B
:102A80000CF449C080EC9DE59093FE038093FD0318
:102A90002CED35E0225E3F4F3183208342E0213030
:102AA00034070CF448C080E092E09183808308955D
:102AB000109200041092FF031092550510925405D5
:102AC00010926F0510926E05089549EF203C34076F
:102AD000A4F420EC39EF309300042093FF0360E866
:102AE00073EF9ACF8091EF039091F003820F931FC1
:102AF000909355058093540578CFB901660F771FE1
:102B00008BCF8081918197FD06C01092FE031092B9
:102B1000FD0320E030E082EA20343807DCF480E472
:102B200092EA9093FE038093FD0324E23AEF2E5144
:102B30003040318320835EEF2030350724F480E07D
:102B40009EEF9183808308951092FE031092FD03FF
:102B500020E030E0359527953595279535952795D3
:102B60003595279531832083121613060CF492CFE6
:102B700021153105E1F6089585B7806185BF8FEF96
:102B800081B912B897EF94B990EE95B990EF97B9D3
:102B900090EB98B99CEF9AB993E09BB98DB91EB8A8
:102BA00010BA83BB809142058823E1F08130D1F0D7
:102BB000823051F19FEF90930101109202019FE04A
:102BC000909304018823A9F49091050110920501C6
:102BD000109207019FEF90930A01882329F4109225
:102BE0000B01089514BAE6CF8130C9F3823041F069
:102BF0000895813011F0823059F790930501E8CFA4
:102C000087EF80930B01089598E094BBD3CF109287
:102C1000B8001092BC000895589A599A1092B900C1
:102C200081E08093B800089594EA9093BC0090915D
:102C3000BC0097FFFCCF9091B900987F983021F0AD
:102C4000903111F081E008958093BB0084E8809377
:102C5000BC008091BC0087FFFCCF9091B900987FA9
:102C6000983121F081E0903419F0089580E00895C2
:102C700080E0089524EA34E844E92093BC00909170
:102C8000BC0097FFFCCF9091B900987F983011F06D
:102C9000903199F78093BB003093BC009091BC00B9
:102CA00097FFFCCF9091B900987F903219F098353A
:102CB00009F008954093BC009091BC0094FDFCCFB6
:102CC000DCCF94EA9093BC009091BC0097FFFCCFBE
:102CD0009091B900987F983021F0903111F081E007
:102CE00008958093BB0084E88093BC008091BC0071
:102CF00087FFFCCF9091B900987F983121F081E057
:102D0000903419F0089580E0089580E0089584E9F2
:102D10008093BC008091BC0084FDFCCF089580931B
:102D2000BB0084E88093BC008091BC0087FFFCCF8F
:102D30009091B900987F81E0983209F0089580E081
:102D4000089584EC8093BC008091BC0087FFFCCF89
:102D50008091BB00089584E88093BC008091BC0002
:102D600087FFFCCF8091BB0008951092C50080E1E1
:102D70008093C400E0ECF0E0808182608083E1EC2D
:102D8000F0E0808188698083E2ECF0E080818660F9
:102D9000808308951092CD0080E18093CC00E8EC10
:102DA000F0E0808182608083E9ECF0E080818861DE
:102DB0008083EAECF0E08081866080830895109241
:102DC000C0001092C1001092C20008959091C000FE
:102DD00095FFFCCF8093C600662321F08091C00050
:102DE00086FFFCCF08959091C80095FFFCCF80939B
:102DF000CE00662321F08091C80086FFFCCF0895A5
:102E00008091C0008095881F8827881F089587E9D2
:102E100090E02091C00027FD07C00197D1F781E025
:102E20008093120480E008958091C60008951F9257
:102E30000F920FB60F920BB60F9211242F933F9360
:102E40004F935F936F937F938F939F93AF93BF93B2
:102E5000EF93FF938091C60090913F059F3021F141
:102E6000909111029923D9F490911705913009F4AA
:102E700060C0923009F443C0FF91EF91BF91AF91D0
:102E80009F918F917F916F915F914F913F912F9182
:102E90000F900BBE0F900FBE0F901F9018951092C1
:102EA000110280931705E8CF8B3209F44CC08D32A4
:102EB000F1F0873609F05BC090911B058091C0004E
:102EC00085FFFCCF9093C6008091C00086FFFCCFA9
:102ED00090916600909353058091C00085FFFCCFD0
:102EE0009093C6008091C00086FFFCCFC5CF809133
:102EF00053058823D1F18150809353052BC0409115
:102F00001905442351F1413009F0B6CF382F20E0A4
:102F100080910B0490910C04822B932B90930C04C2
:102F200080930B04409318051092190540931102E9
:102F3000A3CF8A3A31F1853509F09ECF90931102E3
:102F40001092170599CF809153058F3FE9F08F5F5D
:102F500080935305809366008FCF80930B0410926B
:102F60000C0481E08093190587CF80E0F3CF83378D
:102F700009F082CF8DEF9FE0609153050E94783079
:102F80007BCF90931A0578CF8FEFE4CF86B166B1EF
:102F900026B146B130E028703070359527953595CB
:102FA000279535952795220F331F70E06470707058
:102FB0007595679575956795260F371F220F331FF7
:102FC00050E04270507055954795240F351F220FE1
:102FD0008170820F0895F89414BC15BC10926E0095
:102FE00010922001109221018EEF9FE00E9472301A
:102FF00090930C0480930B048DEF9FE00E946A3045
:1030000080935305982F91509E3FD8F5809366008A
:1030100080910B0490910C049C0121583C4023307A
:103020003105F8F4109242050E94BC150E94CD189B
:103030000E94A21B0E947F220E940B080E94F4089B
:1030400080910E04882329F480910D04816080937F
:103050000D040E94B5160E94C7230E94DA0D7894D1
:1030600008952CE08038920721F481E08093420596
:10307000DBCF2CE084389207B8F282E080934205DF
:10308000D3CF60916600609353058DEF9FE00E945F
:103090007830BECF1F920F920FB60F9211240F906F
:1030A0000FBE0F901F901895CF93DF939EE1899FDD
:1030B000E0011124809168008D7F809368008091E9
:1030C0006C008F7780936C00D99A10927A0080916F
:1030D0007A00806180937A001092900010929100A3
:1030E0001092710088B3876088BB1092A000109284
:1030F000A1001092720089B3876089BB1092800092
:10310000109281000E94DF160E9417080E94071685
:103110000E94BC1583B78F6083BF81E080937000ED
:103120008091B0008D7F8093B0008091B100876066
:103130008093B100209719F088952197E9F713BE85
:103140008091B100887F8093B100109270008091CF
:10315000B00082608093B0008FEF80930C02809368
:103160000D0280930E021092F4031092F30310925A
:10317000F6031092F5030E94EB17DF91CF910895AB
:1031800060913B0570913C0580913D0590913E0515
:10319000089581E08093C5030895CF93DF93EAE714
:1031A000F0E01082ABE7B0E01C92CCE7D0E01882F0
:1031B000808186608083888180648883808180624A
:1031C00080838C91887F8C938081886080838081CC
:1031D00080688083808180648083DF91CF910895AF
:1031E0001F920F920FB60F920BB60F9211242F93CE
:1031F0003F934F935F936F938F939F93AF93BF933F
:10320000EF93FF9380913B0590913C05A0913D0584
:10321000B0913E050196A11DB11D80933B05909391
:103220003C05A0933D05B0933E052091780030E029
:1032300040917900942F80E0282B392B8091BF0397
:10324000823009F4ACC1833008F445C0833009F4FE
:10325000C9C1843009F468C18091C003823009F487
:103260004FC1833008F0CDC0882309F024C180917C
:103270002A038695809329038091C103882309F04E
:10328000E1C181E08093BF0381E08093C00390910E
:103290002903983008F0EDC090917B00977F9093C0
:1032A0007B0090912903905C90937C00823009F41C
:1032B000EDC0FF91EF91BF91AF919F918F916F9171
:1032C0005F914F913F912F910F900BBE0F900FBECA
:1032D0000F901F901895882309F0FEC060912A0373
:1032E0006E3009F4D0C1462F50E0FA01EE0FFF1FF7
:1032F000E15DFC4F3183208340FF77C0FA01EE0F80
:10330000FF1FE35DFC4F80819181FA01EE0FFF1FEB
:10331000E15DFC4F40815181262F269530E0841BD2
:10332000950B220F331FF901E958FC4F4081518161
:10333000841B950BF901E15AFC4F9183808397FD23
:10334000BDC144E08130940724F080E094E0918393
:103350008083603148F48C3391050CF0B4C129535B
:103360003C4FF9019183808380915005882309F4B3
:1033700075C180916F0390917003F1E0843A9F07CB
:10338000CCF0809171039091720321E0843A92070E
:103390008CF0809173039091740341E0843A940718
:1033A0004CF08091750390917603E1E0843A9E079A
:1033B0000CF054C181E0809351051092F6031092F5
:1033C000F5031092A9001092A8001092AB00109281
:1033D000AA001092F4031092F30310929900109235
:1033E000980010929B0010929A006F5F60932A03DE
:1033F000683108F431CF10922A0381E08093C6032C
:103400002BCF833009F4B7C0843009F040CF9091BE
:103410002C039093290390912D039093C1039091D5
:10342000C203992309F008C183E08093BF0310927F
:10343000C00360912A036E3009F41FC1862F90E00B
:1034400060FFF1C0603108F40CC1209142052223D5
:1034500009F0D5C040979595879521E030E002C0EE
:10346000220F331F8A95E2F7209305018091C00354
:103470000ECF90917B00986090937B0090912903F0
:10348000985C90937C00823009F013CF2091420524
:10349000222351F0213019F0223009F00ACF8FEFAA
:1034A0008093050112B805CF80910501807F80933C
:1034B000050112B8FECE813009F0E9CE80912B03D0
:1034C0008093290380912E038093C2031092BF033F
:1034D00082E08093C003DBCE813009F0BDCE8091C5
:1034E000E1039091E203820F931F96958795909345
:1034F000E2038093E1038091C003823009F0B1CEF2
:1035000080912C038093290380912D038093C10324
:103510008091C203882309F09BC083E08093BF039E
:1035200083E08093C003B3CE80910A02882309F41C
:1035300093CE9091000193FD8FCE9091000194FD68
:103540008BCE482F4F5F40930A02453008F484CE5B
:103550008091EB039091EC03820F931F9093EC0307
:103560008093EB03483009F077CE10920A0281E095
:103570008093070271CE80912B0380932903809161
:103580002E038093C2038091C103882309F04EC0AB
:1035900081E08093BF0384E08093C00378CE809164
:1035A0000902882309F458CE639956CE649954CE03
:1035B000482F4F5F40930902453008F44DCE80916B
:1035C000ED039091EE03820F931F9093EE0380938F
:1035D000ED03483009F040CE1092090281E080935B
:1035E00008023ACE8091DF039091E003820F931F8F
:1035F000969587959093E0038093DF032DCE21303D
:1036000011F0223081F440910501409795958795FE
:1036100021E030E002C0220F331F8A95E2F72095A7
:103620002423209305018091C00331CE8130D1F154
:1036300085E08093BF03AFCF913009F085E08093A0
:10364000BF03F5CE8130B1F185E08093BF031CCE7E
:10365000813061F185E08093BF0362CF1092510504
:10366000C4CE669581E090E002C0880F991F6A95EC
:10367000E2F782B98091C0030ACE8091C503813000
:10368000A1F180E004CE8091C503823009F02BCEF9
:103690003093C4032093C3031092C50346984EE0B1
:1036A00050E02ACE82E08093BF0375CF84E0809300
:1036B000BF0336CF82E08093BF03E6CD1182108234
:1036C00080E090E046CEAC01445C5F4F5595479555
:1036D000483751057CF429533C4FCC9795958795F5
:1036E000CC96F901918380833FCE82E08093C5031D
:1036F000469AA4CEAC01445D5E4F559547955595CD
:103700004795443B510574F429533C4F845B9040EA
:10371000959587959595879588589F4FF901918341
:10372000808322CE29533C4F845A914095958795AA
:1037300095958795959587958C549F4FF901918321
:10374000808312CE0F931F93CF93DF93E0E9F0E0D5
:10375000108241E950E0DA011C9221E730E0E901F2
:103760001882A0EAB0E01C9281EA90E0EC01188295
:1037700002E710E0E801188260816368608360817D
:1037800063606083EA0168816B6068834091F30342
:103790005091F403509399004093980010929B002D
:1037A00010929A00E90148814160488320812F7579
:1037B00020832EB1277E2EB92C9123682C93FC01F7
:1037C00020812B6020838091F5039091F6039093E4
:1037D000A9008093A8001092AB001092AA00E80103
:1037E0008881816088838C918F758C93E2E0F1E011
:1037F0008081877E8083DF91CF911F910F91089503
:1038000080910702882309F041C06091F90370910B
:10381000FA0380910802882309F073C0E091F7034E
:10382000F091F803F0930404E0930304962F872F9C
:10383000609305047093060420914F05222309F03C
:10384000A3C09093E9038093EA03F093E803E09325
:10385000E7039093F5038093F603F093F403E0936A
:10386000F3031E161F060CF09EC0F0939900E09320
:1038700098008091F5039091F603181619060CF044
:1038800077C09093A9008093A80008952091EB033E
:103890003091EC0336952795369527953093F003B4
:1038A0002093EF03109207021092EC031092EB03A7
:1038B0006091F9037091FA0377FDA0C035952795C3
:1038C0003595279535952795442737FD4095542FF5
:1038D0008091DB039091DC03A091DD03B091DE03C6
:1038E000820F931FA41FB51F8093DB039093DC030B
:1038F000A093DD03B093DE0380910802882309F4CE
:103900008DCF2091ED033091EE03369527953695B6
:1039100027953093F2032093F1031092080210923E
:10392000EE031092ED03E091F703F091F803F7FD39
:1039300046C0359527953595279535952795442784
:1039400037FD4095542F8091D7039091D803A091D3
:10395000D903B091DA03820F931FA41FB51F809380
:10396000D7039093D803A093D903B093DA035ACF27
:10397000009709F06AC01092A9001092A800109256
:10398000AB001092AA00089585E094E063E074E033
:103990000E946B209091050480910604E09103043D
:1039A000F09104044ECF309709F047C0109299006F
:1039B0001092980010929B0010929A005ACF359561
:1039C00027953595279535952795442737FD4095BB
:1039D000542F8091D7039091D803A091D903B0912F
:1039E000DA03821B930BA40BB50B8093D703909340
:1039F000D803A093D903B093DA0314CF3595279554
:103A00003595279535952795442737FD4095542FB3
:103A10008091DB039091DC03A091DD03B091DE0384
:103A2000821B930BA40BB50B8093DB039093DC03F9
:103A3000A093DD03B093DE03ECCEF095E195FF4F4C
:103A4000F0939B00E0939A0014CF909581959F4F3F
:103A50009093AB008093AA0008958091F903909110
:103A6000FA0390930604809305042091F7033091A4
:103A7000F803309304042093030440914F0544233A
:103A800009F0B8C09093EA038093E9033093E80308
:103A90002093E70320910702222309F44BC02091D1
:103AA000EB033091EC0336952795369527953093A7
:103AB000F0032093EF03109207021092EC03109290
:103AC000EB0397FDCEC03595279535952795359510
:103AD0002795442737FD4095542F8091DB03909123
:103AE000DC03A091DD03B091DE03820F931FA41FBE
:103AF000B51F8093DB039093DC03A093DD03B093A9
:103B0000DE0380911702813009F4CEC085E094E095
:103B10000E94661180910504909106049093F6032B
:103B20008093F503181619060CF0C3C09093A900F2
:103B30008093A80080910802882309F45AC020913C
:103B4000ED033091EE033695279536952795309302
:103B5000F2032093F103109208021092EE031092E8
:103B6000ED038091E7039091E80397FD52C03595EE
:103B700027953595279535952795442737FD409509
:103B8000542F8091D7039091D803A091D903B0917D
:103B9000DA03820F931FA41FB51F8093D70390935E
:103BA000D803A093D903B093DA0380911702813030
:103BB00009F452C083E094E00E94AC1280910304A7
:103BC000909104049093F4038093F303181619065C
:103BD0002CF490939900809398000895009709F031
:103BE00073C0109299001092980010929B0010924E
:103BF0009A00089585E094E063E074E00E946B20F1
:103C000080910504909106042091030430910404EE
:103C100039CF35952795359527953595279544279F
:103C200037FD4095542F8091D7039091D803A091F0
:103C3000D903B091DA03821B930BA40BB50B8093CD
:103C4000D7039093D803A093D903B093DA0380915C
:103C50001702813009F0AECF83E094E00E94F213A6
:103C6000ADCF3595279535952795359527954427DB
:103C700037FD4095542F8091DB039091DC03A09198
:103C8000DD03B091DE03821B930BA40BB50B809375
:103C9000DB039093DC03A093DD03B093DE038091FC
:103CA0001702813009F032CF85E094E00E94D714EA
:103CB00031CF009789F41092A9001092A8001092B9
:103CC000AB001092AA0036CF909581959F4F9093AC
:103CD0009B0080939A000895909581959F4F9093B3
:103CE000AB008093AA0026CF282F332727FD3095DD
:103CF00037FD30C0309308042093070487FD1EC0B1
:103D0000220F331F220F331F3093FA032093F9033E
:103D100082E0213038073CF080E092E09093FA0393
:103D20008093F90308958EEF2030380734F480E053
:103D30009EEF9093FA038093F9030895220F331FA7
:103D4000220F331F309521953F4F3093FA03209374
:103D5000F903DECF309521953F4FCCCF282F332765
:103D600027FD309537FD30C030930A0420930904B5
:103D700087FD1EC0220F331F220F331F3093F8031D
:103D80002093F70382E0213038073CF080E092E096
:103D90009093F8038093F70308958EEF203038074F
:103DA00034F480E09EEF9093F8038093F703089536
:103DB000220F331F220F331F309521953F4F309331
:103DC000F8032093F703DECF309521953F4FCCCFFA
:103DD0001F920F920FB60F9211248F939F93809191
:103DE0005105882361F01092F6031092F5031092AA
:103DF000A9001092A8001092AB001092AA00109295
:103E0000E0031092DF038091F5039091F603009791
:103E100041F58091E9039091EA0397FD69C081E043
:103E200080932E038EE080932B0381E080930A021F
:103E30008091A0008F758093A00080910201877E01
:103E40008093020180917200897F8093720089B310
:103E5000866089BB9F918F910F900FBE0F901F902E
:103E60001895181619062CF510922E038FE08093E2
:103E70002B038091A0008F7D8093A0008091720021
:103E80008B7F80937200809102018F7E809302016C
:103E90008091A00080688093A00080917200826071
:103EA000809372009F918F910F900FBE0F901F9083
:103EB000189510922E038EE080932B038091A00022
:103EC0008F778093A000809172008D7F8093720025
:103ED00080910201877F809302018091A00080621F
:103EE0008093A00080917200846080937200B2CFB2
:103EF00081E080932E038FE080932B0396CF1F9257
:103F00000F920FB60F9211248F939F9381E08093AD
:103F10002E039EE090932B0380930A029F918F9132
:103F20000F900FBE0F901F9018951F920F920FB613
:103F30000F9211248F939F9381E080932E039FE033
:103F400090932B0380930A029F918F910F900FBE45
:103F50000F901F9018951F920F920FB60F92112479
:103F60008F939F9380915105882361F01092F40301
:103F70001092F303109299001092980010929B00F7
:103F800010929A001092E2031092E1038091F303E1
:103F90009091F403009731F58091E7039091E80345
:103FA00097FD5FC081E080932D038CE080932C030C
:103FB00081E080930902809190008F75809390003A
:103FC0008EB1877E8EB980917100897F8093710058
:103FD00088B3866088BB9F918F910F900FBE0F9022
:103FE0001F901895181619060CF510922D038DE0E8
:103FF00080932C03809190008F7D8093900080911E
:1040000071008B7F8093710074988091900080681C
:1040100080939000809171008260809371009F91E5
:104020008F910F900FBE0F901F90189510922D0337
:104030008CE080932C03809190008F778093900088
:10404000809171008D7F80937100739880919000B2
:1040500080628093900080917100846080937100F1
:10406000BACF81E080932D038DE080932C03A0CF05
:104070001F920F920FB60F9211248F939F9381E09E
:1040800080932D039CE090932C03809309029F91D1
:104090008F910F900FBE0F901F9018951F920F9247
:1040A0000FB60F9211248F939F9381E080932D037D
:1040B0009DE090932C03809309029F918F910F9024
:1040C0000FBE0F901F9018958091940090919500CD
:1040D0000E94B62E08952F923F924F925F926F9258
:1040E0007F928F929F92AF92BF92CF92DF92EF9288
:1040F000FF920F931F93DF93CF93CDB7DEB728972F
:104100000FB6F894DEBF0FBECDBF2C017A83698352
:10411000FC010190F081E02DFC83EB83FB01019019
:10412000F081E02DFE83ED836091C7037091C80399
:104130006530710534F41092C8031092C70360E033
:1041400070E04091C9035091CA034530510534F4E1
:104150001092CA031092C90340E050E08091CB0353
:104160009091CC038530910524F41092CC031092E9
:10417000CB030091CD031091CE030530110534F42B
:104180001092CE031092CD0300E010E06090CF03B8
:104190007090D003F5E06F16710434F41092D003E0
:1041A0001092CF03662477242091D1033091D2035B
:1041B0002530310534F41092D2031092D10320E05F
:1041C00030E08091D3039091D4038530910524F49D
:1041D0001092D4031092D3038091D5039091D6030B
:1041E0008530910534F41092D6031092D50380E007
:1041F00090E0EE24FF24E61AF70A5A01B594A7943A
:10420000159507956901D594C7944C0195948794A9
:104210000E94B12E93012E5130402E0D3F1D200FD4
:10422000311F2C0D3D1D2A193B09281939094CE372
:10423000242E312CB1010E94192E280F391F3887E6
:104240002F83E090C903F090CA03F594E79400919E
:10425000CB031091CC031595079515950795C09044
:10426000CD03D090CE03D594C7948090D103909085
:10427000D203959487946090D3037090D40375947F
:10428000679475946794A090D503B090D603B594C5
:10429000A7940E94B12E9701200F311F2E5130405C
:1042A0002C0D3D1D2A193B092819390926193709F2
:1042B000B1010E94192E280F391F4B815C8157FDD7
:1042C00097C05A01CC24B7FCC094DC2C8F81988510
:1042D0003C01882477FC8094982C79010027F7FC16
:1042E0000095102FC401B3016E197F09800B910B4B
:1042F000A60195010E94E62DF6E0959587957795A4
:104300006795FA95D1F76A0D7B1D8C1D9D1DF201F5
:10431000718360832D813E8137FD99C05901CC2482
:10432000B7FCC094DC2CC801B701660D771D881D51
:10433000991DA60195010E94E62D36E09595879579
:10434000779567953A95D1F76A0D7B1D8C1D9D1D5C
:104350009B01E981FA8171836083F2E021303F079C
:1043600044F080E092E0E981FA819183808320E04B
:1043700032E0F20180819181F2E081309F074CF0C0
:1043800080E092E0F20191838083E981FA812081CB
:104390003181FEEF20303F074CF480E09EEFE98151
:1043A000FA8191838083F20180819181FEEF8030D8
:1043B0009F072CF480E09EEFF20191838083289682
:1043C0000FB6F894DEBF0FBECDBFCF91DF911F9126
:1043D0000F91FF90EF90DF90CF90BF90AF909F90A4
:1043E0008F907F906F905F904F903F902F900895A7
:1043F0004D815E815A01CC24B7FCC094DC2C8F81A6
:1044000098853C01882477FC8094982C79010027BA
:10441000F7FC0095102FC801B701660D771D881DA8
:10442000991DA60195010E94E62DE6E095958795D8
:1044300077956795EA95D1F7261B370B480B590BF3
:10444000F201318320832D813E8137FF67CF2B819D
:104450003C815901CC24B7FCC094DC2CC401B301CD
:104460006E197F09800B910BA60195010E94E62D24
:1044700026E095958795779567952A95D1F7A61AA1
:10448000B70AC80AD90A9501E981FA81B182A082E6
:1044900064CF80916F039091700321E0843A92077A
:1044A000D4F0809171039091720321E0843A9207D5
:1044B00094F0809173039091740321E0843A920701
:1044C00074F081E0209175033091760391E0243AF5
:1044D00039071CF4089581E0089580E0089581E093
:1044E000089581E080934F05089510924F05089537
:1044F00081E0809350050895109250050895A0E83A
:10450000B0E01C92E1E8F0E010828C91896A8C9313
:1045100080818960808380910C0290E09093890073
:104520008093880080910D0290E090938B0080939F
:104530008A0080910E0290E090938D0080938C0011
:10454000089581E090910F04891B80930F048823C4
:1045500039F480918000877F809380002F980895A0
:10456000809180008860809380008FEF90E090932E
:104570008D0080938C000895882359F090918000DD
:1045800090689093800090E09093890080938800D9
:104590000895809180008F77809380002D980895F2
:1045A000882359F09091800090629093800090E071
:1045B00090938B0080938A000895809180008F7D76
:1045C000809380002E980895882359F09091800060
:1045D00098609093800090E090938D0080938C0081
:1045E000089580918000877F809380002F980895A0
:1045F000833009F45AC0843080F0853009F441C01A
:104600008530D0F4662309F468C080910B018F7E59
:1046100080930B0180910B0108958130E1F182308C
:1046200080F0662309F446C080910B018B7F809354
:104630000B0180910B0108958630C9F0873061F03D
:104640000895662309F451C080910B018E7F8093F9
:104650000B0180910B010895662309F05EC08091E3
:104660000B01806880930B0180910B0108956623F4
:1046700049F180910B018F7B80930B0180910B019D
:1046800008956623D1F180910B018F7D80930B01FA
:1046900080910B0108956623C1F180910B018D7FFC
:1046A00080930B0180910B010895662399F0A398E4
:1046B00084B3089580910B01846080930B018091F5
:1046C0000B01089580910B01806480930B01809110
:1046D0000B010895A39A84B3089580910B01806122
:1046E00080930B0180910B01089580910B018160F3
:1046F00080930B0180910B01089580910B018062E2
:1047000080930B0180910B01089580910B018260D1
:1047100080930B0180910B01089580910B018F779D
:1047200080930B0180910B010895EBE0F1E0808113
:1047300081608083808182608083808184608083C7
:10474000A39A808180618083808180628083808160
:10475000806480838081806880830895EBE0F1E04D
:1047600080818E7F808380818D7F808380818B7F1D
:104770008083A39880818F7E808380818F7D8083DA
:1047800080818F7B808380818F77808308950E94D2
:104790000C16809114020E941416882349F486E1B5
:1047A0000E948F1685E40E948F160E948716089536
:1047B0000E94871686EA90E0909315028093140277
:1047C00086EA0E941416882341F58DE20E948F1616
:1047D00088E00E948F160E948716809114020E9422
:1047E00014168823D1F481E30E948F1680E00E9482
:1047F0008F160E948716809114020E941416882337
:1048000061F48CE20E948F1689E00E948F160E944C
:10481000871681E080931F0508950E94871682E025
:1048200080931F050895809114020E941416882316
:1048300051F486E10E948F1685E40E948F160E9433
:10484000871680E008950E94871681E00895809180
:1048500014020E941416882331F58DE20E948F16EF
:1048600088E00E948F160E948716809114020E9491
:1048700014168823C1F481E30E948F1680E00E9401
:104880008F160E948716809114020E9414168823A6
:1048900051F48CE20E948F1689E00E948F160E94CC
:1048A000871680E008950E94871681E00895FF92A0
:1048B0000F931F93DF93CF930F92CDB7DEB7809105
:1048C0001F05882391F0813009F488C010922105DA
:1048D0001092200510922305109222050F90CF917F
:1048E000DF911F910F91FF900895809114020E9413
:1048F000141680E00E948F16809114028F5F0E9430
:1049000061160E94A116082F0E94A116F82E0E947F
:10491000A116182F0E94AB1689830E9487169091CA
:104920007F058981992339F14F2D552747FD5095F2
:10493000542F4427602F772767FD7095462B572B00
:104940005093210540932005282F332727FD3095CC
:10495000322F2227812F992787FD9095282B392BDD
:1049600030932305209322050F90CF91DF911F9163
:104970000F91FF9008954F2D552747FD5095542FC7
:104980004427602F772767FD7095462B572B609142
:10499000260570912705461B570B50932105409320
:1049A0002005282F332727FD3095322F2227812FEE
:1049B000992787FD9095282B392B80912805909178
:1049C0002905281B390B30932305209322050F90CE
:1049D000CF91DF911F910F91FF9008958091140264
:1049E0000E94141682E386CFDF93CF9300D000D0CD
:1049F000CDB7DEB780911F058823C1F0813009F45F
:104A0000ADC010922105109220051092230510923E
:104A10002205109225051092240526960FB6F894CB
:104A2000DEBF0FBECDBFCF91DF91089580911402FC
:104A30000E94141680E00E948F16809114028F5FEE
:104A40000E9461160E94A11689830E94A1168A8382
:104A50000E94A1168B830E94A1168C830E94A1162E
:104A60008D830E94AB168E830E94871680917F05EE
:104A7000882389F18A81992787FD9095982F882727
:104A80002981332727FD3095822B932B9093210585
:104A9000809320058C81992787FD9095982F8827F2
:104AA0002B81332727FD3095822B932B9093230561
:104AB000809322058E81992787FD9095982F8827CE
:104AC0002D81332727FD3095822B932B909325053D
:104AD00080932405A2CF8A81992787FD9095982FEE
:104AE00088272981332727FD3095822B932B20910E
:104AF000260530912705821B930B90932105809307
:104B000020058C81992787FD9095982F88272B81E8
:104B1000332727FD3095822B932B20912805309148
:104B20002905821B930B90932305809322058E8188
:104B3000992787FD9095982F88272D81332727FD6A
:104B40003095822B932B20912A0530912B05821BC7
:104B5000930B90932505809324055FCF80911402D9
:104B60000E94141682E367CFCF93DF9310920C025A
:104B700010920D0210920E0280E00E94BC228091E1
:104B80000D020E94D02280910E020E94E422109217
:104B900041051092400581E080937F05C1E0D0E09F
:104BA0000E94F424209140053091410521313105C6
:104BB0000CF435C180918F0390919003A0919103E3
:104BC000B091920354E0B695A795979587955A951D
:104BD000D1F790937803809377038091930390911A
:104BE0009403A0919503B091960344E0B695A795E0
:104BF000979587954A95D1F790937A038093790397
:104C00008091970390919803A0919903B0919A0392
:104C100034E0B695A795979587953A95D1F79093F7
:104C20007C0380937B0380919B0390919C03A091D4
:104C30009D03B0919E0324E0B695A795979587951F
:104C40002A95D1F790937E0380937D0380919F03F3
:104C50009091A003A091A103B091A203F4E0B695B6
:104C6000A79597958795FA95D1F7909380038093B0
:104C70007F038091A3039091A403A091A503B09119
:104C8000A603E4E0B695A79597958795EA95D1F7A1
:104C900090938203809381038091A7039091A8034E
:104CA000A091A903B091AA0374E0B695A795979532
:104CB00087957A95D1F790938403809383038091AD
:104CC000AB039091AC03A091AD03B091AE0364E04F
:104CD000B695A795979587956A95D1F79093860392
:104CE000809385038091B3039091B403A091B503A1
:104CF000B091B60354E0B695A795979587955A95C8
:104D0000D1F79C018091B7039091B803A091B903AA
:104D1000B091BA0344E0B695A795979587954A95C3
:104D2000D1F7BC018091BB039091BC03A091BD035E
:104D3000B091BE03F4E0B695A79597958795FA953F
:104D4000D1F7AC018091AF039091B003A091B10372
:104D5000B091B203E4E0B695A79597958795EA954B
:104D6000D1F780509240909388038093870320501E
:104D7000324030938A0320938903605072407093CD
:104D80008C0360938B034050524050938E034093AA
:104D90008D0380912C0590912D059595879595957E
:104DA00087959595879595958795909327058093F9
:104DB000260580912E0590912F05959587959595BF
:104DC00087959595879595958795909329058093D7
:104DD0002805809130059091310595958795959599
:104DE0008795959587959595879590932B058093B5
:104DF0002A0510927F058FEF80930C0280930D029D
:104E000080930E020E94BC2280910D020E94D0224B
:104E100080910E020E94E422DF91CF91089580914B
:104E2000C603882309F486C11092C60321153105F3
:104E300009F486C180915F0390916003AA2797FDD2
:104E4000A095BA2F40918F035091900360919103E8
:104E500070919203840F951FA61FB71F80938F0335
:104E600090939003A0939103B09392038091610378
:104E700090916203AA2797FDA095BA2F40919303C2
:104E8000509194036091950370919603840F951F40
:104E9000A61FB71F8093930390939403A093950349
:104EA000B09396038091630390916403AA2797FDC2
:104EB000A095BA2F40919703509198036091990360
:104EC00070919A03840F951FA61FB71F80939703B5
:104ED00090939803A0939903B0939A0380916503EC
:104EE00090916603AA2797FDA095BA2F40919B0346
:104EF00050919C0360919D0370919E03840F951FB8
:104F0000A61FB71F80939B0390939C03A0939D03C0
:104F1000B0939E038091670390916803AA2797FD41
:104F2000A095BA2F40919F035091A0036091A103D7
:104F30007091A203840F951FA61FB71F80939F0334
:104F40009093A003A093A103B093A203809169035F
:104F500090916A03AA2797FDA095BA2F4091A303C9
:104F60005091A4036091A5037091A603840F951F2F
:104F7000A61FB71F8093A3039093A403A093A50338
:104F8000B093A60380916B0390916C03AA2797FDC1
:104F9000A095BA2F4091A7035091A8036091A9034F
:104FA0007091AA03840F951FA61FB71F8093A703B4
:104FB0009093A803A093A903B093AA0380916D03D3
:104FC00090916E03AA2797FDA095BA2F4091AB034D
:104FD0005091AC036091AD037091AE03840F951FA7
:104FE000A61FB71F8093AB039093AC03A093AD03B0
:104FF000B093AE0380916F0390917003AA2797FD41
:10500000A095BA2F4091AF035091B0036091B103C6
:105010007091B203840F951FA61FB71F8093AF0333
:105020009093B003A093B103B093B2038091710346
:1050300090917203AA2797FDA095BA2F4091B303D0
:105040005091B4036091B5037091B603840F951F1E
:10505000A61FB71F8093B3039093B403A093B50327
:10506000B093B6038091730390917403AA2797FDC0
:10507000A095BA2F4091B7035091B8036091B9033E
:105080007091BA03840F951FA61FB71F8093B703B3
:105090009093B803A093B903B093BA0380917503BA
:1050A00090917603AA2797FDA095BA2F4091BB0354
:1050B0005091BC036091BD037091BE03840F951F96
:1050C000A61FB71F8093BB039093BC03A093BD039F
:1050D000B093BE0380912C0590912D054091200541
:1050E00050912105840F951F90932D0580932C05D9
:1050F00080912E0590912F05409122055091230516
:10510000840F951F90932F0580932E058091300575
:10511000909131054091240550912505840F951FEC
:1051200090933105809330052F5F3F4F30934105B9
:105130002093400580917F05882309F031CD5BCE17
:1051400010928F0310929003109291031092920389
:1051500010927803109277031092930310929403A5
:10516000109295031092960310927A03109279038D
:1051700010929703109298031092990310929A0339
:1051800010927C0310927B0310929B0310929C035D
:1051900010929D0310929E0310927E0310927D0345
:1051A00010929F031092A0031092A1031092A203E9
:1051B0001092800310927F031092A3031092A40315
:1051C0001092A5031092A6031092820310928103FD
:1051D0001092A7031092A8031092A9031092AA0399
:1051E00010928403109283031092AB031092AC03CD
:1051F0001092AD031092AE031092860310928503B5
:105200001092AF031092B0031092B1031092B20348
:1052100010928803109287031092B3031092B40384
:105220001092B5031092B60310928A03109289036C
:105230001092B7031092B8031092B9031092BA03F8
:1052400010928C0310928B031092BB031092BC033C
:105250001092BD031092BE0310928E0310928D0324
:1052600010922D0510922C0510922F0510922E05EC
:105270001092310510923005D0934105C09340053E
:1052800080917F0559CF80911F05882379F0813067
:1052900011F1109221051092200510922305109211
:1052A000220510922505109224050895809114027C
:1052B0000E94141680E00E948F16809114028F5F66
:1052C0000E9461160E94A116809335050E94A116C6
:1052D000809336050895809114020E94141682E38B
:1052E0000E948F16809114028F5F0E9461160E94A7
:1052F000A116809335050E94A116809336050E9461
:10530000A11680933705089580911F05882309F021
:105310004EC00E94A116809337050E94A11680936B
:1053200038050E94A116809339050E94AB16809320
:105330003A050E94871680917F05882309F447C0AB
:1053400080913605992787FD9095982F8827209181
:105350003505332727FD3095822B932B909321051C
:105360008093200580913805992787FD9095982F87
:10537000882720913705332727FD3095822B932BE3
:10538000909323058093220580913A05992787FD04
:105390009095982F882720913905332727FD309540
:1053A000822B932B909325058093240508958130BB
:1053B00009F4B3CF10922105109220051092230515
:1053C00010922205109225051092240508958091CF
:1053D0003605992787FD9095982F882720913505C8
:1053E000332727FD3095822B932B20912605309172
:1053F0002705821B930B90932105809320058091B4
:105400003805992787FD9095982F88272091370593
:10541000332727FD3095822B932B2091280530913F
:105420002905821B930B909323058093220580917D
:105430003A05992787FD9095982F8827209139055F
:10544000332727FD3095822B932B20912A0530910D
:105450002B05821B930B90932505809324050895BB
:10546000EF92FF920F931F93809124059091250551
:1054700097FD5BC08031910508F042C081E08093C8
:10548000160290911502981709F442C01092340543
:10549000809315026091200570912105882777FD82
:1054A0008095982F0E94982B7B018C01609122059A
:1054B00070912305882777FD8095982F0E94982B5F
:1054C0009B01AC01C801B7010E94D02E21EE3EE243
:1054D00045E652E40E94992A0E94F62B9B017093A4
:1054E00033056093320577FF06C028593E4F30934D
:1054F0003305209332051F910F91FF90EF9008958F
:105500001092160280E090911502981709F0BECF14
:10551000909134059F5F90933405953008F4B8CF8F
:105520001092340580931702B3CF909581959F4FC9
:10553000A1CFA0E2B0E0EFE9FAE20C942E2E69834D
:105540007A838B839C832D833E834F83588799E096
:10555000E92EF12CEC0EFD1EB701CE0101960E9442
:10556000762D8E010F5E1F4FB801CE0105960E9469
:10557000762D9985923088F089898230C0F09430F8
:1055800019F4823029F009C0843029F4923079F47A
:1055900068E172E0C6C0923041F420E09A858A89C1
:1055A000981321E02A87B701BCC0823041F420E083
:1055B0009A858A89981321E02A8BB801B2C0CD84DC
:1055C000DE84EF84F8880D891E892F89388D882420
:1055D0009924540140E050E060E070E044245524F8
:1055E0003201E0E0F0E0C60181709070892BD9F0C3
:1055F000800E911EA21EB31EDB01CA01840D951DF3
:10560000A61DB71D40E050E060E070E080169106F6
:10561000A206B30620F441E050E060E070E0480FDD
:10562000591F6A1F7B1F440C551C661C771C37FFD3
:1056300008C081E090E0A0E0B0E0482A592A6A2A38
:105640007B2A3196E032F10549F0000F111F221F2D
:10565000331FF694E794D794C794C5CF8B899C8960
:105660002B853C85820F931F02969C8F8B8F1A8E01
:105670009A858A89981711F081E08A8F2B8D3C8D4D
:1056800017C0CA0181709070892B61F0B694A794FD
:105690009794879480E090E0A0E0B0E8882A992A67
:1056A000AA2ABB2A76956795579547952F5F3F4F56
:1056B00077FDE7CFC9010BC0440F551F661F771F49
:1056C000B7FC4160880C991CAA1CBB1C0197403098
:1056D000A0E05A07A0E06A07A0E47A0768F39C8F6D
:1056E0008B8FDB01CA018F779070A070B07080340F
:1056F0009105A105B10561F447FD0AC0811491042B
:10570000A104B10429F0405C5F4F6F4F7F4F407898
:105710004D8F5E8F6F8F78A383E0898FBE01675EA8
:105720007F4FCB010E94962CE0E1A0960C944A2E6C
:10573000A8E0B0E0EEE9FBE20C94352E9B01AC0151
:1057400083E08983DA01C9018827B7FD839599270A
:10575000AA27BB27B82E211531054105510519F49B
:1057600082E089833AC08823A9F0203080E038079E
:1057700080E0480780E8580729F460E070E080E0A6
:105780009FEC30C0EE24FF248701E21AF30A040BD9
:10579000150B02C079018A018EE1C82ED12CDC8262
:1057A000CB82ED82FE820F831887C801B7010E9469
:1057B000492C01971816190684F4082E04C0EE0C23
:1057C000FF1C001F111F0A94D2F7ED82FE820F8387
:1057D0001887C81AD90ADC82CB82BA82CE01019618
:1057E0000E94962CE9E028960C94512EACE0B0E093
:1057F000ECEFFBE20C943C2E69837A838B839C83D1
:10580000BE016B5F7F4FCE0101960E94762D8D8188
:105810008230A9F1823098F1843021F48E8188237E
:1058200059F40FC02F81388537FD29C06E812F3183
:10583000310564F0662329F020E030E040E050E8D4
:1058400022C02FEF3FEF4FEF5FE71DC08EE190E0EA
:10585000821B930B29853A854B855C8504C0569540
:105860004795379527958A95D2F7662361F050952D
:105870004095309521953F4F4F4F5F4F04C020E03A
:1058800030E040E050E0CA01B901E2E02C960C940F
:10589000582EEF92FF920F931F939B01AC01203083
:1058A00080E0380781E0480780E0580780F42F3F08
:1058B00031054105510509F020F4EE24FF2487014C
:1058C00019C068E0E62EF12C012D112D13C02030F7
:1058D00080E0380780E0480781E0580730F490E125
:1058E000E92EF12C012D112D05C088E1E82EF12CB7
:1058F000012D112D80E290E0A0E0B0E08E199F090B
:10590000A00BB10B04C05695479537952795EA949F
:10591000D2F7F901E05EFD4F2081821B9109A109B8
:10592000B1091F910F91FF90EF9008959F92AF9250
:10593000BF92CF92DF92EF92FF920F931F93EE24CC
:10594000FF248701FC0124813581468157819180A4
:105950008081823010F44061A2C0843009F49BC081
:10596000823029F420E030E040E050E005C021150D
:1059700031054105510519F4E0E0F0E092C0828163
:1059800093816FEF823896070CF05AC062E87FEF80
:10599000681B790B6A3171052CF020E030E040E0A3
:1059A00050E02AC0AA24BB24650181E090E0A0E079
:1059B000B0E0062E04C0880F991FAA1FBB1F0A94CF
:1059C000D2F70197A109B10982239323A423B52318
:1059D0000097A105B10529F071E0A72EB12CC12CCB
:1059E000D12C04C056954795379527956A95D2F7DF
:1059F0002A293B294C295D29DA01C9018F7790704A
:105A0000A070B07080349105A105B10539F427FF6D
:105A100009C0205C3F4F4F4F5F4F04C0215C3F4F98
:105A20004F4F5F4F80E090E0203060E0360760E04D
:105A3000460760E4560710F081E090E0FC0123C0C7
:105A40008038910544F5FC01E158FF4FDA01C901A6
:105A50008F779070A070B07080349105A105B1056A
:105A600039F427FF09C0205C3F4F4F4F5F4F04C000
:105A7000215C3F4F4F4F5F4F57FF05C056954795ED
:105A800037952795319687E0569547953795279511
:105A90008A95D1F706C020E030E040E050E0EFEF1B
:105AA000F0E0E22EF32E942F9F77802F8078892BC1
:105AB0009E2F9795992797958F77082F092B9E2FC3
:105AC0009695812F8078892B9794992497948F7736
:105AD000182F1929C801B7011F910F91FF90EF905E
