:10000000CCC00000EAC00000E8C00000E6C000006C
:10001000E4C00000E2C00000E0C00000DEC000005C
:10002000DCC00000DAC000000C946C17D6C00000E1
:10003000D4C000000C94A017D0C000000C94621F24
:10004000CCC00000CAC00000C8C00000C6C000008C
:10005000C4C00000C2C00000C0C00000BEC000009C
:10006000BCC000000C949C1EB8C00000B6C00000CC
:10007000B4C000000C949920B0C00000AEC00000D5
:100080000C94CF320C94E532A8C000000C943832A6
:10009000A4C00000A2C00000A0C000009EC00000DC
:1000A0009CC000009AC000000C940C320C942232C8
:1000B00094C000000C946B3190C000008EC0000012
:1000C0008CC000008AC0000088C0000086C000000C
:1000D00084C0000082C0000080C000007EC000001C
:1000E0007CC00000871A721A491A2E1A091AD319ED
:1000F000A519E91972195619F618F618F618F6180E
:10010000F618F6184A193F19F618F618F618F618E0
:10011000F618F618F618F618F618F618F618F6186F
:100120007219491A33192619F618F618F618F6181E
:10013000F618F618F618F618F618F618F618F6184F
:10014000091AA519F618F618871AD3191619084AA4
:10015000D73B3BCE016E84BCBFFDC12F3D6C7431DB
:100160009ABD56833DDA3D00C77F11BED9E4BB4C32
:100170003E916BAAAABE000000803F05A84CCDB2FC
:10018000D44EB93836A9020C50B9918688083CA6DD
:10019000AAAA2ABE000000803F0011241FBECFEF94
:1001A000D1E2DEBFCDBF00E00CBF12E0A0E0B2E0C4
:1001B000E6EBFCEB00E00BBF02C007900D92AA310A
:1001C000B107D9F71AE0AAE1B2E001C01D92AB383D
:1001D000B107E1F7E7D30C94595E12CF1F9310E0FB
:1001E00086ED0E94F81D882331F080E0193609F071
:1001F00081E01F9108958FE00E94261E8823A9F7B1
:1002000087ED0E944C1E882381F70E94421E182F02
:100210000E941E1EEACFCF93DF93EC0186ED0E9471
:10022000F81D882321F081E0DF91CF91089582E2CB
:100230000E94261E8823B9F787ED0E944C1E882352
:1002400091F70E94381E88830E94381E89830E947D
:10025000381E8A830E94381E8B830E94381E8C832E
:100260000E94381E8D830E94381E8E830E94381E85
:100270008F830E94381E88870E94381E89870E94BB
:10028000381E8A870E94381E8B870E94381E8C87F2
:100290000E94381E8D870E94381E8E870E94381E4D
:1002A0008F870E94381E888B0E94421E898B0E9475
:1002B0001E1E80E0B9CF1F9310E086ED0E94F81D4E
:1002C000882379F086ED0E94F81D80E10E94261EA9
:1002D0001F70812F80640E94261E0E941E1E1F9187
:1002E000089580E10E94261E882361F787ED0E9411
:1002F0004C1E882339F70E94421E182F0E941E1E92
:10030000E1CF0F931F9386ED0E94F81D80E10E94BC
:10031000261E80E00E94261E0E941E1E86ED0E9460
:10032000F81D81E00E94261E80E80E94261E0E9481
:100330001E1E86ED0E94F81D82E00E94261E8CE3A0
:100340000E94261E0E941E1E86ED0E94F81D83E05C
:100350000E94261E80E60E94261E0E941E1E86ED1A
:100360000E94F81D8EE00E94261E8CE80E94261E28
:100370000E941E1E86ED0E94F81D84E00E94261E2B
:1003800080E10E94261E0E941E1E86ED0E94F81D1E
:1003900087E00E94261E80E20E94261E0E941E1EEA
:1003A00086ED0E94F81D81E00E94261E80E00E94DA
:1003B000261E0E941E1E86ED0E94F81D89E10E94E5
:1003C000261E84E00E94261E0E941E1E86ED0E94AC
:1003D000F81D8AE10E94261E89E00E94261E0E94C6
:1003E0001E1E86ED0E94F81D80E10E94261E80E8F8
:1003F0000E94261E0E941E1E86ED0E94F81D882364
:1004000009F406C186ED0E94F81D8AE10E94261EAD
:1004100089E00E94261E0E941E1E86ED0E94F81D85
:1004200080E10E94261E80E80E94261E0E941E1E59
:1004300086ED0E94F81D882309F4FEC086ED0E9417
:10044000F81D8AE10E94261E89E00E94261E0E9455
:100450001E1E86ED0E94F81D80E10E94261E80E887
:100460000E94261E0E941E1E86ED0E94F81D8823F3
:1004700009F4F6C086ED0E94F81D89E10E94261E4F
:1004800080E00E94261E0E941E1E86ED0E94F81D1E
:100490008AE10E94261E80E00E94261E0E941E1EE7
:1004A00086ED0E94F81D80E10E94261E80E00E94D9
:1004B000261E0E941E1E86ED0E94F81D81E00E94ED
:1004C000261E80E80E94261E0E941E1E86ED0E94A7
:1004D000F81D82E00E94261E8DE30E94261E0E94C7
:1004E0001E1E86ED0E94F81D83E00E94261E88E6EF
:1004F0000E94261E0E941E1E86ED0E94F81D84E0AA
:100500000E94261E86E00E94261E0E941E1E00914A
:10051000560310915703012F110F110B86ED0E9406
:10052000F81D8EE20E94261E802F0E94261E0E9429
:100530001E1E1091560386ED0E94F81D8DE20E944A
:10054000261E812F0E94261E0E941E1E0091580307
:1005500010915903012F110F110B86ED0E94F81D08
:1005600080E30E94261E802F0E94261E0E941E1ECF
:100570001091580386ED0E94F81D8FE20E94261EFE
:10058000812F0E94261E0E941E1E00915A03109168
:100590005B03012F110F110B86ED0E94F81D82E302
:1005A0000E94261E802F0E94261E0E941E1E109151
:1005B0005A0386ED0E94F81D81E30E94261E812FBA
:1005C0000E94261E0E941E1E86ED0E94F81D81E0DC
:1005D0000E94261E80E00E94261E0E941E1E86ED9E
:1005E0000E94F81D89E10E94261E8CE30E94261EAF
:1005F0000E941E1E86ED0E94F81D8AE10E94261EA2
:100600008BE00E94261E0E941E1E1F910F910895CE
:1006100083E50E94261E882309F0F4CE87ED0E9410
:100620004C1E882309F0EECE0E94421E182F0E9415
:100630001E1E10FD1FCFE6CE83E50E94261E8823D6
:1006400009F0FCCE87ED0E944C1E882309F0F6CEFF
:100650000E94421E182F0E941E1E10FD0BCFEECED0
:1006600083E50E94261E882309F004CF87ED0E94AF
:100670004C1E882309F0FECE0E94421E0E941E1EC0
:10068000F9CE1F9310E086ED0E94F81D8823C9F073
:1006900086ED0E94F81D82E10E94261E812F806453
:1006A0000E94261E0E941E1E86ED0E94F81D81E1FA
:1006B0000E94261E84E40E94261E0E941E1E1F9178
:1006C000089582E10E94261E882311F787ED0E947B
:1006D0004C1E8823E9F60E94421E182F0E941E1EFF
:1006E000D7CF1F9386ED0E94F81D80E10E94261E41
:1006F00080E00E94261E0E941E1E86ED0E94F81DAC
:1007000081E00E94261E80E80E94261E0E941E1E76
:1007100086ED0E94F81D82E00E94261E8CE30E9456
:10072000261E0E941E1E86ED0E94F81D83E00E9478
:10073000261E80E60E94261E0E941E1E86ED0E9436
:10074000F81D8EE00E94261E8CE80E94261E0E9444
:100750001E1E86ED0E94F81D84E00E94261E80E188
:100760000E94261E0E941E1E86ED0E94F81D87E034
:100770000E94261E80E20E94261E0E941E1E86EDFA
:100780000E94F81D81E00E94261E80E00E94261E25
:100790000E941E1E86ED0E94F81D89E10E94261E01
:1007A00084E00E94261E0E941E1E86ED0E94F81DF7
:1007B0008AE10E94261E89E00E94261E0E941E1EBB
:1007C00086ED0E94F81D80E10E94261E80E80E94AE
:1007D000261E0E941E1E86ED0E94F81D882309F425
:1007E000A8C086ED0E94F81D8AE10E94261E89E0BD
:1007F0000E94261E0E941E1E86ED0E94F81D80E1AA
:100800000E94261E80E80E94261E0E941E1E86ED63
:100810000E94F81D882309F4A0C086ED0E94F81DEF
:100820008AE10E94261E89E00E94261E0E941E1E4A
:1008300086ED0E94F81D80E10E94261E80E80E943D
:10084000261E0E941E1E86ED0E94F81D882309F4B4
:1008500098C086ED0E94F81D89E10E94261E80E066
:100860000E94261E0E941E1E86ED0E94F81D8AE12F
:100870000E94261E80E00E94261E0E941E1E86EDFB
:100880000E94F81D80E10E94261E80E00E94261E24
:100890000E941E1E86ED0E94F81D81E00E94261E09
:1008A00080E80E94261E0E941E1E86ED0E94F81DF2
:1008B00082E00E94261E8DE30E94261E0E941E1EBC
:1008C00086ED0E94F81D83E00E94261E88E60E94A5
:1008D000261E0E941E1E86ED0E94F81D84E00E94C6
:1008E000261E86E00E94261E0E941E1E86ED0E9485
:1008F000F81D81E00E94261E80E00E94261E0E94B4
:100900001E1E86ED0E94F81D89E10E94261E8CE3C2
:100910000E94261E0E941E1E86ED0E94F81D8AE17E
:100920000E94261E89E00E94261E0E941E1E1F9104
:10093000089583E50E94261E882309F052CF87ED93
:100940000E944C1E882309F04CCF0E94421E182F93
:100950000E941E1E10FD7DCF44CF83E50E94261EFF
:10096000882309F05ACF87ED0E944C1E882309F096
:1009700054CF0E94421E182F0E941E1E10FD69CFE8
:100980004CCF83E50E94261E882309F062CF87EDB5
:100990000E944C1E882309F05CCF0E94421E0E94D8
:1009A0001E1E57CF2F923F924F925F926F927F926F
:1009B0008F929F92AF92BF92CF92DF92EF92FF926F
:1009C0000F931F93DF93CF9300D000D0CDB7DEB746
:1009D0000E94B61F0E94FB430E946C1F9B01AC014A
:1009E00060937403309375034093760350937703B9
:1009F000109278031092790310927A0310927B037D
:100A00000E946C1F7B018C010E946C1F6E197F0974
:100A1000800B910B65547B4080409040A8F30E946E
:100A2000C7480E946C1F7B018C014424552432016D
:100A3000CC24882499241E821D8280E090E0A0E0CE
:100A4000B0E089839A83AB83BC83DD24DA94BEEF64
:100A50002B2E332433940E943C1F809360030E940A
:100A60003F460E94C0450E94344580916003873014
:100A700009F45DC10E946C1F6E197F09800B910BF8
:100A80006E517B448040904008F0F7C00E94C71828
:100A90000E94241390916003973009F40AC19830A2
:100AA00008F061C0933009F499C1943008F06AC12C
:100AB000913009F418C2923008F092C10E942D3D85
:100AC00090916003992309F0D3C0C91609F449C075
:100AD0000E94EC410E94F34180910B018160809360
:100AE0000B0180910B01826080930B0180910B01BF
:100AF000846080930B01A39A80910B0180618093A5
:100B00000B0180910B01806280930B0180910B019E
:100B1000806480930B0180910B01806880930B01AE
:100B2000D0920C02D0920D02D0920E028FEF0E9452
:100B3000234480910D020E94394480910E020E944C
:100B40004F4480E00E94632780E00E94302710928B
:100B50000C0310927D03109264031092D6039091BF
:100B60006003C92E78CF9B3009F497C19C3008F000
:100B7000F1C0993009F4EDC19A3008F4DEC18091DA
:100B80006403813009F4A7C4813008F0F3C30E94E4
:100B90006C1F609368037093690380936A0390935A
:100BA0006B030E946C1F60937003709371038093BA
:100BB0007203909373030E946C1F60936C03709395
:100BC0006D0380936E0390936F030E94E84184E16C
:100BD0000E94302784E10E94632730926403809151
:100BE0007F03813009F4F4C3813008F08DC3D092C3
:100BF0000C02D0920D02D0920E020E946C1F209126
:100C00007003309171034091720350917303621B22
:100C1000730B840B950B615C73408040904010F027
:100C20000C945D0F0E946C1F20916C0330916D033A
:100C300040916E0350916F03621B730B840B950BF5
:100C40006E517B448040904010F00C944F0F809187
:100C50000C020E94234480910D020E94394480912D
:100C60000E020E944F4490916003992309F42DCF06
:100C70000E9474389091600328CF0E94751F909154
:100C80006003892F8450823008F491C1973009F4B1
:100C9000BDC1963009F4A9C00E946C1F7B018C0174
:100CA0000E94C7180E94241390916003973009F0A6
:100CB000F6CE1092100280916403823011F40C94ED
:100CC000680E833008F0C3C2882309F045C70E942C
:100CD000024580910B018E7F80930B01109265037A
:100CE0000E94E84184E10E94632784E10E9430274A
:100CF0000E946C1F60937003709371038093720362
:100D000090937303209168033091690340916A03C3
:100D100050916B03621B730B840B950B63537F4ED7
:100D20008240904008F493CF3092640390CF0E94A9
:100D30006C1F6419750986099709685C72418040C7
:100D4000904008F497CED0920C02D0920D02D0922F
:100D50000E0290CE9D3009F487C09D3008F46EC01D
:100D60009E3009F45BC09F3009F0ACCE80916403E3
:100D7000882309F0B3C1309264030E9474389091C3
:100D80006003A3CE953009F4FBC0963008F4B0C0E0
:100D900080910D03813009F4C6C3813008F095C2FB
:100DA00080E00E94632780E00E9430270E94024575
:100DB000D0920C02D0920D02D0920E028FEF0E94C0
:100DC000234480910D020E94394480910E020E94BA
:100DD0004F44449A459A9091600374CE0E94E84132
:100DE0000E94EF41909160036DCE90910D03913080
:100DF00009F052CF80910903823008F04DCF8091E5
:100E00000C03882311F00C94011020920C02D09254
:100E10000D02D0920E0290930C033ECF809164039A
:100E2000882309F049C10E94D4593092640330925A
:100E300016041092EC039091600344CE80916403F9
:100E4000813009F44CC6813008F09FC10E94D4590A
:100E5000F4E0F093EA0323E02093E90332E03093D7
:100E60006403909160032ECE80916403813009F475
:100E70000EC3813008F0C7C10E94D4590E94E841D6
:100E80008AE00E9430278AE00E9463273092640340
:100E9000882499249091600315CE80916403823058
:100EA00009F4B0C6833008F041C1882309F48BC629
:100EB000813009F0DDCE0E94E8418AE00E943027AF
:100EC0008AE00E946327B2E0B09364030E946C1F23
:100ED000609368037093690380936A0390936B0334
:100EE00090916003EFCD0E94E84190916003EACDBC
:100EF00080910B018E7F80930B0180910B018D7F80
:100F000080930B0180910B018B7F80930B01A39841
:100F100080910B018F7E80930B0180910B018F7D5F
:100F200080930B0180910B018F7B80930B0180914B
:100F30000B018F7780930B018ACE30921002809143
:100F40007C04813009F0BECD0E94A93490916003E9
:100F5000B9CD80916403813009F4A3C2813008F0D7
:100F60007DC20E946C1F6093680370936903809335
:100F70006A0390936B033092640390916003A2CD57
:100F800080910C020E94234480910D020E943944FA
:100F900080910E020E944F440E94E84189E10E9424
:100FA000302789E10E946327909160038BCD0E94D6
:100FB000F15D6EE170E00E944C5DED81FE81E80F15
:100FC000F91FEF77F070FE83ED8380910C03813081
:100FD00009F455C5813008F050C28D818095809309
:100FE0000C0230920C032D813E812032310508F035
:100FF00085C080910D028F3F09F44ECE80910E0284
:101000008F3F09F449CED0920C0246CE80919400D5
:10101000909195000E94F45D0E94F15D6EE170E098
:101020000E944C5D0D811E81080F191F0F771070F3
:10103000802F809580930C02809194009091950070
:101040000E94F45D0E94F15D6EE170E00E944C5DD3
:10105000080F191F0F771070802F809580930D0255
:1010600080919400909195000E94F45D0E94F15D42
:101070006EE170E00E944C5D800F911F8F77907041
:101080009E838D838D81809580930E028091940044
:10109000909195000E94F45D0E94F15D60E870E01F
:1010A0000E944C5D80329105D0F5D0920C020E94D6
:1010B0006C1F2B013C01F0CD813009F0D9CD0E948D
:1010C000344F0E94444E813009F496C70E944C4E22
:1010D000813009F462C790916003F4CC813009F04B
:1010E000C7CD8091110361E00E948E1E8091660041
:1010F00080935F0461E00E948E1EEDCF20343105A5
:1011000008F0ACC480910C028F3F09F4C5CD8091EA
:101110000E028F3F09F4C0CDD0920D02BDCD8034B8
:10112000910508F012C5D0920D02C1CF833009F4A9
:1011300052C5843009F09CCD0E94344F69817A8178
:101140008B819C8120918703309188034091890392
:1011500050918A030E94D35A18160CF4BCCF80E039
:101160000E94302780E00E946327E2E0E09364035E
:101170000E946C1F609368037093690380936A03F5
:1011800090936B03909160039DCC823009F47FC4EF
:10119000833009F097CC0E94344F0E94444E813036
:1011A00009F099CF0E944C4E982F813009F093CFCF
:1011B0008091EB03882311F00C94F6119093EB03CC
:1011C0008FEF0E944F448FEF0E94234480E80E94DB
:1011D00039440E944F4EA82EBB248091E9038823F6
:1011E00011F48091EA03882E9924089481089108CB
:1011F0008A149B0409F426C58FEF0E943B4E4501DB
:10120000909160035FCC823009F032CD0E94344F60
:101210000E94444E813009F437C60E944C4E813002
:1012200009F059CF0E944F4EB7E08B16910408F495
:10123000CDC78FEF0E9423448FEF0E9439448FEF78
:101240000E944F4488249924909160033BCC8430C1
:1012500009F4B0C5843008F4FBC4853009F0F7CC3C
:101260000E94024580910B018F7B80930B0180913E
:101270000B018F7780930B010E946C1F60937003AA
:1012800070937103809372039093730320916803AA
:101290003091690340916A0350916B03621B730B99
:1012A000840B950B6B527C418040904008F4CFCC6E
:1012B0000E946C1F609368037093690380936A03B4
:1012C00090936B0310926403C2CC823009F0FACB86
:1012D00080910E03882309F4F5CB0E941B45609191
:1012E0000703709108038EEF9FE00E94565E0E94F4
:1012F00002458AEA61E00E948E1E10920E0310924F
:101300000D0390916003DECB823009F0E4CE0E94A1
:101310006C1F20916C0330916D0340916E035091CE
:101320006F03621B730B840B950B675C72418040EB
:10133000904008F4D0CE10927F030E946C1F6093FF
:101340006C0370936D0380936E0390936F030E9400
:101350006C1F60937003709371038093720390937A
:10136000730310927E0380E061E00E9465449091D7
:101370006003A8CB823009F032CC0E946C1F209110
:1013800068033091690340916A0350916B03621BBB
:10139000730B840B950B6A5977478140904008F492
:1013A0001ECC84E10E94632784E10E9430270E94C2
:1013B0006C1F609368037093690380936A03909332
:1013C0006B033092640380917F03813009F00CCC71
:1013D0000E9402450E94F15D60E870E00E944C5D51
:1013E0008036910508F44DC5D0920C020E94F15D43
:1013F00060E870E00E944C5D8036910508F43EC5BF
:10140000D0920D020E94F15D60E870E00E944C5D98
:101410008036910508F42FC5D0920E020E94F15D2E
:1014200068EC70E00E944C5D9E838D838233910551
:1014300008F01AC5D0920C0280910C020E9423443D
:1014400080910D020E94394480910E020E944F4407
:1014500092E090937F039091600334CB823009F047
:1014600007CC80917D03882309F002CC30927D0364
:101470000E94FB329091600325CB823009F0B3CDFE
:101480008D81809580930E0210920C03ACCD8091DB
:1014900016040E943B4EA2E0A09364039091600367
:1014A00011CB0E946C1F2091680330916903409119
:1014B0006A0350916B03621B730B840B950B6E5187
:1014C0007B448040904008F406CE22E020936403E1
:1014D00090916003F7CA0E946C1F209168033091BD
:1014E000690340916A0350916B03621B730B840B79
:1014F000950B6E5376498040904008F470CB80E0A5
:101500000E94632780E00E9430270E946C1F609336
:1015100068037093690380936A0390936B0362E09E
:10152000609364035CCB0E941B4580910C020E9477
:10153000234480910D020E94394480910E020E9442
:101540004F444498459880911003882309F4C3CDF3
:10155000109210038091570261E00E948E1E8091CC
:10156000580261E00E948E1E80912702909128020D
:1015700061E00E948E1E8091270290912802892F9F
:1015800061E00E948E1E8091590261E00E948E1ED1
:1015900080915A0261E00E948E1E80912B029091F0
:1015A0002C0261E00E948E1E80912B0290912C02F1
:1015B000892F61E00E948E1E80915B0261E00E9493
:1015C0008E1E80915C0261E00E948E1E80912F022F
:1015D0009091300261E00E948E1E80912F029091C6
:1015E0003002892F61E00E948E1E80915D0261E0D1
:1015F0000E948E1E80915E0261E00E948E1E80918C
:1016000033029091340261E00E948E1E8091330279
:1016100090913402892F61E00E948E1E80915F02BA
:1016200061E00E948E1E8091600261E00E948E1E29
:10163000809137029091380261E00E948E1E809165
:10164000370290913802892F61E00E948E1E8091AE
:10165000610261E00E948E1E8091620261E00E9440
:101660008E1E80913B0290913C0261E00E948E1E92
:1016700080913B0290913C02892F61E00E948E1E76
:101680008091630261E00E948E1E8091640261E09D
:101690000E948E1E80913F029091400261E00E9464
:1016A0008E1E80913F0290914002892F61E00E943E
:1016B0008E1E8091650261E00E948E1E80916602FE
:1016C00061E00E948E1E809143029091440261E08D
:1016D0000E948E1E8091430290914402892F61E006
:1016E0000E948E1E8091670261E00E948E1E809192
:1016F000680261E00E948E1E80914702909148022C
:1017000061E00E948E1E8091470290914802892FCD
:1017100061E00E948E1E8091690261E00E948E1E2F
:1017200080916A0261E00E948E1E80914B0290912E
:101730004C0261E00E948E1E80914B0290914C02FF
:10174000892F61E00E948E1E80916B0261E00E94F1
:101750008E1E80916C0261E00E948E1E80914F026D
:101760009091500261E00E948E1E80914F029091F4
:101770005002892F61E00E948E1E80916D0261E00F
:101780000E948E1E80916E0261E00E948E1E8091EA
:1017900053029091540261E00E948E1E8091530288
:1017A00090915402892F61E00E948E1E80911A034D
:1017B00061E00E948E1E80911B0361E00E948E1EDC
:1017C00080911C0361E00E948E1E80911D0361E0E8
:1017D0000E948E1E80911E0361E00E948E1E8091E9
:1017E0001F0361E00E948E1E8091110361E00E9440
:1017F0008E1E8091600361E00E948E1E8091030125
:1018000090E08072907095958795959587959595C0
:101810008795959587959595879561E00E948E1E91
:101820008091090361E00E948E1E60918703709190
:1018300088038091890390918A0320E030E44FE08F
:1018400054E40E948E5C0E94475BDC01CB0161E0A6
:101850000E948E1E60918703709188038091890396
:1018600090918A0320E030E44FE054E40E948E5CC3
:101870000E94475B872F61E00E948E1E60918F035C
:101880007091900380919103909192030E94475B25
:10189000DC01CB0161E00E948E1E60918F0370918C
:1018A000900380919103909192030E94475B872F50
:1018B00061E00E948E1E6091930370919403809169
:1018C0009503909196030E94475BDC01CB0161E098
:1018D0000E948E1E609193037091940380919503F2
:1018E000909196030E94475B872F61E00E948E1EB5
:1018F0006091D3027091D4028091D5029091D6026A
:101900000E94425BDC01CB0161E00E948E1E60916F
:10191000D3027091D4028091D5029091D6020E9498
:10192000425BDC01CB01892F9A2FAB2FBB27A7FD90
:10193000BA9561E00E948E1E6091D3027091D4022C
:101940008091D5029091D6020E94425BDC01CB01CE
:10195000CD01BB2797FDB095AB2F61E00E948E1E95
:101960006091D3027091D4028091D5029091D602F9
:101970000E94425BDC01CB018B2FBB2787FDB0951A
:101980009B2FAB2F61E00E948E1E6091CF02709161
:10199000D0028091D1029091D2020E94425BDC0180
:1019A000CB0161E00E948E1E6091CF027091D00247
:1019B0008091D1029091D2020E94425BDC01CB0166
:1019C000892F9A2FAB2FBB27A7FDBA9561E00E9404
:1019D0008E1E6091CF027091D0028091D1029091C1
:1019E000D2020E94425BDC01CB01CD01BB2797FDF7
:1019F000B095AB2F61E00E948E1E6091CF02709176
:101A0000D0028091D1029091D2020E94425BDC010F
:101A1000CB018B2FBB2787FDB0959B2FAB2F61E0B0
:101A20000E948E1E8091ED029091EE029595879511
:101A30009595879561E00E948E1E8091EB029091B2
:101A4000EC02959587959595879561E00E948E1E8D
:101A50008CE0882E912C9091600334C8203631059B
:101A600008F01AC980910C028F3F09F415C98091C2
:101A70000D028F3F09F410C9D0920E020DC98D815D
:101A8000809580930D02F2E0F0930C03ACCA0E94A3
:101A9000344F0E94444E813009F4F6C20E944C4EED
:101AA000982F813009F017CB8091EB03882309F040
:101AB000F0C29093EB038FEF0E9423440E944F4E9D
:101AC000282F30E08091E903882E9924821693060E
:101AD00009F42DC44901909160030C9462050E94A1
:101AE000344F0E94444E813009F446C20E944C4E4D
:101AF000982F813009F0EFCA8091EB03882309F019
:101B0000CEC29093EB038FEF0E944F448FEF0E9461
:101B1000234480E80E9439440E944F4E882E992425
:101B20006FEF8616910409F0D6CA82E080936403B1
:101B30008FEF0E944F448FEF0E9423448FEF0E944B
:101B40003944909160030C9462058036910508F049
:101B5000AECAD0920E02ABCA813009F078C80E949A
:101B6000024580910B018B7F80930B0110926603DD
:101B70000E94E8418FE00E9463278FE00E94302797
:101B80008091690290916A02805991400CF450C191
:101B900080916B0290916C02805991400CF448C185
:101BA0008091670290916802805991400CF440C185
:101BB00080916D0290916E02805991400CF438C171
:101BC0001092650344C80E94D459309264039091E6
:101BD00060030C9462050E94344F69817A818B8185
:101BE0009C81209187033091880340918903509113
:101BF0008A030E94835C87FD6ECA80E00E943027C2
:101C000080E05FC90E94344F0E94444E813009F445
:101C1000B9C20E944C4E813009F451C20E946C1F1F
:101C2000209168033091690340916A0350916B03DE
:101C3000621B730B840B950B6D5C7B4B804090405B
:101C400008F449CA30926403909160030C946205D1
:101C50000E94024580910B018F7B80930B010E94B3
:101C60006C1F609370037093710380937203909361
:101C70007303209168033091690340916A03509186
:101C80006B03621B730B840B950B6D5C7646844073
:101C9000904008F431C18091BB029091BC028A57F8
:101CA000934008F436C183EF0E94632783EF0E94BC
:101CB00030270E946C1F60936803709369038093C0
:101CC0006A0390936B0334E0309364030C9427060B
:101CD0000E94024580910B018F7E80930B010E9430
:101CE000EC410E946C1F60937003709371038093AA
:101CF00072039093730320916803309169034091BC
:101D00006A0350916B03621B730B840B950B635337
:101D10007F4E8240904008F09FC18091030184FF74
:101D200081C110926603809167038F5F8093670380
:101D3000853108F0B6C2409167025091680231E0E7
:101D4000423C53070CF0F1C02091690230916A02C5
:101D500061E0233C36070CF4ECC080916B0290915B
:101D60006C02835C91400CF4E4C080916D02909110
:101D70006E02B1E0833C9B070CF04DC3825C914046
:101D80000CF0DFC0435C51400CF4DBC0235C3140FD
:101D90000CF4DBC080916B0290916C02835C9140EB
:101DA0000CF031C38FE00E9430278BEF0E94632735
:101DB0000C9427060E94024580910B018F7B809333
:101DC0000B0180910B018F7780930B010E946C1F98
:101DD0006093700370937103809372039093730305
:101DE000209168033091690340916A0350916B031D
:101DF000621B730B840B950B6F58754280409040AB
:101E000010F40C94270684E10E9463278CEE0E9454
:101E100030270E946C1F609368037093690380935E
:101E20006A0390936B03B5E0B09364030C942706A8
:101E3000809165038F5F809365038B3010F40C9461
:101E4000270610926603109267030E946C1F60932E
:101E500068037093690380936A0390936B0382E035
:101E6000809364030C9427068436910508F07DC0A6
:101E7000D0920D02E1CA80930E02D0CA80930D0267
:101E8000C1CA80930C02B2CA809364038091160485
:101E90008F3F09F490C18F5F80931604BEC93092C2
:101EA0007F030E946C1F60936C0370936D0380939B
:101EB0006E0390936F030C94270680917E0360E07D
:101EC0000E94654480917E038F5F80937E038830FB
:101ED00020F010927E0380917E0361E00E946544B1
:101EE0000E946C1F60937003709371038093720360
:101EF000909373030C9412068091030184FF02C037
:101F00000C942706109267031092660362E06093B8
:101F100064030E946C1F609368037093690380934D
:101F20006A0390936B030C94270620916902309109
:101F30006A0280916D0290916E02825C91400CF475
:101F400021CF235C31400CF02DCF80916B0290911A
:101F50006C02835C91400CF431C18BEF0E943027FE
:101F60008FE00E9463270C9427068639910508F0BC
:101F700063CAD0920E0260CA4091E903242F30E078
:101F80008091EA0390E00197281739070CF093C07D
:101F9000842F8F5F0E943B4EA9CD0E944F4E582F39
:101FA000882E992440911604242F30E028153905F5
:101FB00009F43BC1473009F4A5C1C40101972817B2
:101FC000390709F4CEC1433009F444C1443008F064
:101FD0004EC1413009F4ECC1423008F49BC18FEF8F
:101FE0000E9423448BEE0E9439448FEF0E944F449D
:101FF000909160030C946205809116040E943B4E00
:1020000065C8813009F406C1823011F00C944C0689
:10201000D0920C02D0920D0220920E0210920C036C
:102020000C944C06109267038091690290916A02A9
:10203000835C914034F180916B0290916C02835CDF
:102040009140FCF0809166038F5F809366038B3F25
:1020500008F471CE0C9494068CEE0E9463278CEEEB
:102060000E9430270E946C1F60936803709369037D
:1020700080936A0390936B03B4E0B09364030C9471
:1020800027061092660357CE8091E9030E943B4ECB
:1020900005CD1092EB038BEE0E9423440FCD1092DE
:1020A000EB038FEF0E944F448FEF0E9423448BEE8F
:1020B0000E94394431CD80E00E943B4E17CD0E94F2
:1020C0006C1F609368037093690380936A03909315
:1020D0006B030E944F4E90E0AA2797FDA095BA2F60
:1020E000BC01CD010E94755B26EA3BE944EB5FE34E
:1020F0000E948E5C0E94425B7093E3036093E20354
:102100000E94544E809318020E94EC418091180264
:102110000E94574E9093E5038093E40397FD1AC104
:102120002091E4033091E5032C543F4F8091E2036A
:102130009091E303281B390B3093E7032093E603C8
:10214000253B310534F0285631403093E703209386
:10215000E6038091E6039091E703EFEF8C349E074E
:1021600034F488599E4F9093E7038093E6030996D1
:10217000439708F0ABC080E00E94302780E00E94C7
:1021800063274CCD6091E4037091E503882777FDC8
:102190008095982F0E94755B24EB39E545E35FE35A
:1021A0000E948E5C0E94475BDC01CB018093E803B8
:1021B0000E943B4E2ECD109216042FC88FE00E9435
:1021C00063278FE00E9430270C9427060894811C17
:1021D000911CE3E08E16910409F4F7C0F4E08F1629
:1021E000910408F0C4C021E08216910409F4E8C00B
:1021F00032E08316910408F41CC88FEF0E94234438
:1022000080E00E9439448FEF0E944F449091600318
:102210000C946205D0920C0220920D02D0920E0214
:10222000B2E0B0930C030C944C068091EC038F5FEA
:102230008093EC03843008F4C6CE1092EC03473050
:1022400008F0C0C0842F8F5F80931604482F43305E
:1022500009F0BCCE8FEF0E9423448FEF0E943944D7
:102260008BEE0E944F44909160030C9462054530C0
:1022700009F4A4C0453008F49FC0463009F49AC060
:10228000473011F00C946B088BEE0E9423448BEEC8
:102290000E9439448BEE0E944F44909160030C944D
:1022A000620580E00E94302780E00E9463270E9440
:1022B0006C1F609368037093690380936A03909323
:1022C0006B03E3E0E09364030C9427060E94791FFC
:1022D0008091E6039091E703181619060CF0A3C04D
:1022E00089EF0E94302787E00E946327F4E0F09393
:1022F00064038CEE91E5A8EBBDE389839A83AB83FD
:10230000BC838CCC8114910409F0BECF10921604CA
:102310001092EC038FEF0E9423448FEF0E94394408
:102320008FEF0E944F44909160030C9462058FEFF1
:102330000E944F448FEF0E94234480E80E9439445A
:102340008FEF0E943B4E93E0909364039091600363
:102350000C94620588599E4F9093E5038093E403A3
:10236000DFCE509316041092EC03452F2CCE65E07F
:1023700086169104C9F185E08816910498F196E0DB
:102380008916910441F0A7E08A16910411F00C948B
:102390006B0880E001C08FEF0E94234480E00E9420
:1023A000394480E00E944F44909160030C94620590
:1023B0008BEEB1CF8FEF69CF8BEE12CE8BEE4BCF82
:1023C00080E0A9CF10921604A5CF8FEF0E9423447E
:1023D0008FEF0E94394480E00E944F449091600347
:1023E0000C94620580E00ACF80E0F0CF1092EB03FE
:1023F0008FEF0E944F448FEF0E9423448BEE0E9488
:1024000039440C94E9088FE00E94302786EF0E943F
:1024100063270C94270686EF0E9430278FE00E94E6
:1024200063270C94270687E00E94302789EF0E94DB
:10243000632793E0909364038CEE91E5A8EBBDEBEA
:1024400089839A83AB83BC83E9CB84B1807F84B9D1
:1024500084B1876084B980E58CBD8DB581608DBD08
:1024600008951CBC1DBC0895482F6623E9F09C010B
:10247000F90180818EBD20910A0381E090E00DB4C6
:1024800007FC09C0019637E280319307C0F321E0D1
:102490000DB407FEF7CF20930A03222329F43196C7
:1024A0008E2F841B861728F30895CF93DF93EC01BA
:1024B000442321F1A0E0B0E0FE01EA0FFB1F808180
:1024C0008EBD80910A0321E030E00DB407FC0AC004
:1024D0002F5F3F4F97E220313907B8F381E00DB409
:1024E00007FEF6CF80930A03882341F48EB5FB01E3
:1024F000EA0FFB1F80831196A417F0F2DF91CF91B2
:1025000008958EBD20910A0381E090E00DB407FC90
:1025100009C0019637E280319307C0F321E00DB482
:1025200007FEF7CF20930A038EB50895FF920F930D
:102530001F93CF93DF93082FF92E162F289881EE43
:10254000E0DF289A289888EADCDF112351F0802FF9
:102550009F2D9C01E9018991D4DF9E01201B211749
:10256000D0F3289ADF91CF911F910F91FF9008959A
:102570000F931F93DF93CF9300D0CDB7DEB728988A
:1025800080E2BFDF8DE0BDDF289A289883E2B9DFC3
:1025900081E0B7DF289A809107039091080399831F
:1025A0008A831B82289880E3ACDF8E010F5F1F4F68
:1025B000C80163E059DF289A28988AE2A2DFC8019F
:1025C00063E052DF289A289881E29BDF81E099DF5F
:1025D000289A289882E295DF81E093DF289A28984C
:1025E00084E28FDF82E18DDF289A289885E289DFF7
:1025F00088E287DF289A289881E383DF8DE081DFF6
:10260000289A289880E57DDF83E77BDF289A289841
:102610008CE377DF81E075DF289A28988DE371DFFE
:1026200086E06FDF289A289880E26BDF8FE069DF11
:10263000289A0F900F900F90CF91DF911F910F91DB
:1026400008952C9A289A94CF0F931F93DF93CF93DA
:102650000F92CDB7DEB780914404882331F00F90FC
:10266000CF91DF911F910F91089528988FEF49DF47
:10267000289A86FFF4CF8091090382608093090332
:10268000289887E23EDF80E73CDF289A1982289865
:1026900087E137DFBE016F5F7F4FCB0141E005DF90
:1026A000289A898180FDDBCF289881E62ADF88E996
:1026B00098E0BC014DE0F9DE289A289887E221DFF6
:1026C00080E41FDF289A289882EE1BDF289A8091E9
:1026D0000B03813009F49EC2809198088823B9F4D5
:1026E00080919908882399F480919A08882379F435
:1026F00080919B08883059F480919C08882339F494
:1027000080919D08882319F48CE30E941020809109
:102710007C04882341F580919C08282F30E02F7796
:102720003070309306032093050360919D08462F77
:1027300050E04F775070509304034093030387FD9C
:1027400034C288279927821B930B9093EC028093C5
:10275000EB0267FD95C388279927841B950B9093FF
:10276000EE028093ED022091980830E030938108CA
:1027700020938008E0919908F0E0F0938308E093BB
:10278000820800919A0810E010938508009384084D
:10279000922F8827821B930B64E670E00E94385DBD
:1027A000262F209520930C029E2F88278E1B9F0B8F
:1027B00064E670E00E94385D609560930E02902F91
:1027C0008827801B910B64E670E00E94385D60955D
:1027D00060930D02822F0E94234480910D020E947B
:1027E000394480910E020E944F4420919B08922F01
:1027F00020FF13C1449891FF3EC1459892FF38C114
:1028000081E08093100294FDF3C196FF2EC181E018
:102810008093840327FDFAC11092850380919E085E
:1028200080FF1DC180910B018E7F80930B018091F1
:102830009E0881FF0EC180910B018D7F80930B015B
:1028400080919E0882FFFFC080910B018B7F809357
:102850000B0180919E0883FFF4C0A39880919E088D
:1028600084FFE9C080910B018F7E80930B018091E2
:102870009E0885FFDAC080910B018F7D80930B014C
:1028800080919E0886FFCBC080910B018F7B809347
:102890000B0180919E0887FDB3C180910B01806878
:1028A00080930B0180916003883009F483C180918B
:1028B0000B028093D007853009F42BC2863008F4D0
:1028C000DCC0863009F481C2873009F030C16091E4
:1028D000D3027091D4028091D5029091D6020E94C9
:1028E000425B6093D107272F382F492F552747FD8B
:1028F0005A952093D2079C01552737FD5095452FB7
:102900002093D307692F992767FD9095792F892FF9
:102910006093D4076091CF027091D0028091D10270
:102920009091D2020E94425B6093D507272F382FE7
:10293000492F552747FD5A952093D6079C015527C7
:1029400037FD5095452F2093D707692F992767FDAD
:102950009095792F892F6093D807609187037091A4
:1029600088038091890390918A0360938B0370930D
:102970008C0380938D0390938E0320E030E44FE02E
:1029800054E40E948E5C0E94425B6093D907672FDB
:10299000770F770B6093DA0760918F037091900344
:1029A00080919103909192030E94475B6093DB07B3
:1029B0007093DC0760919303709194038091950369
:1029C000909196030E94475B6093DD077093DE074A
:1029D00080913C0390913D0390931B0280931A02D7
:1029E00020E2803092070CF450C28FEF9FE1909369
:1029F0001B0280931A0280911A0290911B02082EEA
:102A0000892F000C881F990B000C881F991F809339
:102A1000DF0783E080930B028AC0449AECCE80915A
:102A20000B01806480930B0134CF80910B01806295
:102A300080930B0125CF80910B01806180930B0166
:102A400016CFA39A0BCF80910B01846080930B016A
:102A500000CF80910B01826080930B01F1CE8091B9
:102A60000B01816080930B01E2CE10928403D2CEE1
:102A700010921002C8CE459AC1CE833009F4CFC05F
:102A8000843009F054C080915F029091600280937D
:102A9000D107892F990F990B8093D20780916702F4
:102AA000909168028093D307892F990F990B809397
:102AB000D4078091690290916A028093D507892F8B
:102AC000990F990B8093D60780916B0290916C02BD
:102AD0008093D707892F990F990B8093D8078091FE
:102AE0006D0290916E028093D907892F990F990BEF
:102AF0008093DA0780911A0390911B038093DB0780
:102B0000892F990F990B8093DC0780911C0390917A
:102B10001D038093DD07892F990F990B8093DE07A2
:102B2000809111038093DF0785E080930B02289842
:102B300081EEE7DC289A289888EAE3DC8091D007C8
:102B4000E0DC8091D107DDDC8091D207DADC809176
:102B5000D307D7DC8091D407D4DC8091D507D1DCB2
:102B60008091D607CEDC8091D707CBDC8091D80747
:102B7000C8DC8091D907C5DC8091DA07C2DC80917E
:102B8000DB07BFDC8091DC07BCDC8091DD07B9DCB2
:102B90008091DE07B6DC8091DF07B3DC289A0F90C6
:102BA000CF91DF911F910F9108953093EC02209304
:102BB000EB02CFCD80917C04882309F078CE809100
:102BC0009F0880FF74CE0E94C7488FEF93E09093D8
:102BD00068028093670290936E0280936D0286E094
:102BE00080936F0A81E08093C90780937C045FCE55
:102BF0000E94C7480E94791F20919B08922F05CE02
:102C000080910B018F7780930B014CCE81E08093F4
:102C1000850304CE80ED97E060E188DC20CD8091D3
:102C20005702909158028093D107892F990F990BE1
:102C30008093D2078091590290915A028093D307D2
:102C4000892F990F990B8093D40780915B02909103
:102C50005C028093D507892F990F990B8093D60733
:102C600080915D0290915E028093D707892F990F22
:102C7000990B8093D80780916102909162028093B2
:102C8000D907892F990F990B8093DA0780916302F6
:102C9000909164028093DB07892F990F990B8093A1
:102CA000DC0780916502909166028093DD07892F91
:102CB000990F990B8093DE07209103018091030106
:102CC0004091030190E0807290709595879595955D
:102CD0008795959587959595879595958795880F6F
:102CE000991F441F4427441F440F440F482B30E0D2
:102CF0002071307035952795359527953595279511
:102D000035952795422B4093DF0784E080930B0293
:102D10000ECF80912702909128028093D107809155
:102D20002702909128029093D20780912B029091D4
:102D30002C028093D30780912B0290912C029093C8
:102D4000D40780912F02909130028093D507809113
:102D50002F02909130029093D60780913302909188
:102D600034028093D707809133029091340290937C
:102D7000D80780913B0290913C028093D9078091C3
:102D80003B0290913C029093DA0780913F02909130
:102D900040028093DB0780913F0290914002909324
:102DA000DC0780914302909144028093DD0780917B
:102DB0004302909144029093DE07809160038093D8
:102DC000DF0786E080930B02B2CE809137029091AC
:102DD00038028093D1078091370290913802909306
:102DE000D20780914702909148028093D307809147
:102DF0004702909148029093D40780914B029091A2
:102E00004C028093D50780914B0290914C02909395
:102E1000D60780914F02909150028093D7078091FE
:102E20004F02909150029093D80780915302909155
:102E300054028093D9078091530290915402909349
:102E4000DA0780911E0390911F038093DB07892F7F
:102E5000990F990B8093DC078091BB029091BC0283
:102E60008093DD079093DE078091440390914503A2
:102E7000959587958093DF0787E080930B0257CE67
:102E80005093EE024093ED026ECC8050904E0CF0C9
:102E9000B2CD80E090EE90931B0280931A02ABCDEE
:102EA000CF93DF93E8E6F0E01082ACE6B0E01C924E
:102EB00020EB30E0E90118821092B100109270000E
:102EC0008081826080838C9180688C93888182600D
:102ED0008883DF91CF9108951F920F920FB60F92C2
:102EE00011248F9380911002882321F18091030196
:102EF00086FD20C0809168008D7F8093680080915E
:102F00006C008F7780936C0081E0809311028DE0DC
:102F10008093B3008091B10086608093B10080916E
:102F2000700082608093700010921E0210921F0247
:102F3000109220028F910F900FBE0F901F90189546
:102F40001F920F920FB60F9211242F933F934F931E
:102F50005F938F939F938091B100887F8093B1009E
:102F600080911102882359F18091030186FD69C087
:102F70001092110283E38093B3008091B1008660C8
:102F80008093B10080917000826080937000809186
:102F90000502909106022FEF8F3F920729F00196CC
:102FA00090930602809305029F918F915F914F91BC
:102FB0003F912F910F900FBE0F901F901895409149
:102FC0000502509106028FEF4F3F580709F44AC09F
:102FD0004130510509F480C0CA010297059708F4F1
:102FE00050C0CA010797069708F0ABC086E38093EC
:102FF000B3008091B10086608093B1008091700031
:103000008260809370002091030130E02074307062
:103010000024220F331F001C220F331F001C232FFC
:10302000302D8CE090E0841B950B02C0220F331FE3
:103030008A95E2F780911E02820F80931E02CA01D8
:10304000AECF8091680082608093680080916C00B0
:10305000806880936C008FEF9FEF909306028093BF
:103060000502A2CF8091030186FF54C080916800C1
:1030700082608093680080916C00806880936C000F
:1030800093CF86E38093B3008091B10086608093F4
:10309000B1008091700082608093700020910301E4
:1030A00030E0207430700024220F331F001C220FE8
:1030B000331F001C232F302D86E090E0841B950BDE
:1030C00002C0220F331F8A95E2F780911F02820F00
:1030D00080931F02CA0163CF8091030190E0807446
:1030E0009070082E892F000C881F990B000C881FE8
:1030F000991F8093200286E38093B3008091B100F2
:1031000086608093B100809170008260809370002F
:10311000CA0145CF8CE18093B3008091B1008660F5
:103120008093B10080917000826080937000109253
:103130001E0210921F021092200240E050E0CA01CD
:103140002ECF4D30510509F07ACF1092700080914A
:10315000680082608093680080916C008068809332
:103160006C008FEF9FEF9093060280930502809191
:1031700020028093040280911F0280931C028091A0
:103180001E0280931D0281E0809312030DCF809177
:103190001002882321F080911203882309F40895F6
:1031A0001092120399D62091150330911603409185
:1031B000170350911803621B730B840B950B635814
:1031C00077408040904058F387D660931503709302
:1031D0001603809317039093180380911D02809328
:1031E0001103E82FF0E0E533F105C0F04091EB0268
:1031F0005091EC022091ED023091EE02CA01642F51
:10320000892F57FDB7C1609305038093060337FDEF
:10321000A8C130930403209303030895EE58FF4F91
:10322000EE0FFF1F0590F491E02D19948091140387
:1032300090E001968370907080931403813009F4BC
:10324000CAC1813008F0BBC110928403109285037B
:103250004091EB025091EC022091ED023091EE0290
:10326000CDCF1092840381E0809385034091EB02DF
:103270005091EC022091ED023091EE02BFCF1092FE
:1032800084034091EB025091EC022091ED023091C9
:10329000EE02B4CF81E0809384034091EB02509121
:1032A000EC022091ED023091EE02A8CF2091ED02C8
:1032B0003091EE02225030403093EE022093ED0226
:1032C0008FEF213838070CF05AC181E89FEF9093B7
:1032D000EE028093ED024091EB025091EC0221E866
:1032E0003FEF8CCF4091EB025091EC028091E902CC
:1032F0009091EA02481759070CF05BC19A014250BD
:1033000050405093EC024093EB02225030403093F7
:10331000EE022093ED028FEF4138580744F481E824
:103320009FEF9093EC028093EB0241E85FEF8FEF09
:10333000213838070CF062CF81E89FEF9093EE02BE
:103340008093ED0221E83FEF59CF4091EB0250917D
:10335000EC02425050405093EC024093EB026091DB
:10336000ED027091EE026E5F7F4F9B017093EE0253
:103370006093ED028FEF4138580744F481E89FEFE6
:103380009093EC028093EB0241E85FEF60387105A7
:103390000CF434CF8FE790E09093EE028093ED022F
:1033A0002FE730E02BCF1092EC021092EB0210923C
:1033B000EE021092ED0280916003883009F418C18A
:1033C0006091EB028091EC022091ED023091EE02CF
:1033D0001ACF4091EB025091EC0242505040509372
:1033E000EC024093EB022FEF413852070CF002CF72
:1033F00081E89FEF9093EC028093EB028FE790E0DF
:103400002091ED023091EE02909306038093050324
:10341000FECE4091EB025091EC024E5F5F4F509315
:10342000EC024093EB026091ED027091EE0262506B
:1034300070409B017093EE026093ED02403851059D
:1034400044F08FE790E09093EC028093EB024FE71B
:1034500050E061587F4F0CF0D1CE6ECF2091ED023D
:103460003091EE022E5F3F4F3093EE022093ED023B
:10347000203831050CF483C08FE790E09093EE0282
:103480008093ED024091EB025091EC022FE730E087
:10349000B5CE4091EB025091EC022091ED023091BB
:1034A000EE02241735070CF082C09A014E5F5F4F81
:1034B0005093EC024093EB022E5F3F4F3093EE02AD
:1034C0002093ED024038510544F08FE790E090934F
:1034D000EC028093EB024FE750E0203831050CF40A
:1034E0008DCE58CF4091EB025091EC024E5F5F4F72
:1034F0005093EC024093EB02403851050CF47ACE25
:103500008FE790E09093EC028093EB0259CF80918B
:10351000130390E0019665E070E00E944C5D80939B
:103520001303882389F5449A459A10920E028FEF6F
:1035300080930D0280930C0280910C020E94234420
:1035400080910D020E94394480910E020E944F44E6
:103550004091EB025091EC022091ED023091EE028D
:103560004DCE88279927821B930B90930403809359
:103570000303089588279927841B950B45CF409115
:10358000EB025091EC023ACE813009F44EC0823009
:1035900009F453C0833009F45AC0843069F68FEFC0
:1035A00080930E0280930D0280930C02C5CFA90177
:1035B0007DCF2091ED023091EE02A901A0CE8230A4
:1035C00009F44FCE833009F051CE81E0809384031B
:1035D000809385030BCE80938403109285034091E2
:1035E000EB025091EC022091ED023091EE0206CEFA
:1035F0000E94C7488FEF93E0909368028093670220
:1036000090936E0280936D0286E080936F0A81E052
:103610008093C90780937C044091EB025091EC02A7
:103620002091ED023091EE02E9CD8FEF80930E02F2
:1036300010920D0280930C027FCF449845988FEF33
:1036400080930E0280930D0210920C0275CF10929F
:103650000E0210920D0210920C026ECFEF92FF92AA
:103660000F931F93CF93DF93EC0188819981892B6E
:1036700009F4B2C0E090350AF090360AF092CF0714
:10368000E092CE072881398137FDE4C08091E502C0
:103690009091E602281B390B3093360A2093350AA5
:1036A000F9012091FD023091FE022E0F3F1F309351
:1036B000FE022093FD0286E0213438070CF4ADC0F1
:1036C00080E496E09093FE028093FD0220E436E0D1
:1036D00008811981C901880F991F820F931FAC01BE
:1036E000662757FD6095762FCF01880F991F9F01A0
:1036F000220F331F220F331F220F331F820F931FFE
:10370000AA2797FDA095BA2F480F591F6A1F7B1F44
:10371000EE19FF09EE0FFF1FCF01AA2797FDA09515
:10372000BA2F480F591F6A1F7B1FC801880F991FA6
:10373000880F991F880F991FAA2797FDA095BA2F68
:10374000480F591F6A1F7B1F4093F3025093F402E6
:103750006093F5027093F60277FD6DC0141615069E
:103760001606170614F417FD68C0415C5D456040FD
:1037700070400CF480C080EC9DE5A0E0B0E0809348
:10378000F3029093F402A093F502B093F60224E0C2
:10379000B595A795979587952A95D1F79C0199831B
:1037A00088838091DB029091DC02181619060CF0D8
:1037B0005DC0C90101969983888322E08030920719
:1037C000F4F08FEF91E099838883DF91CF911F917F
:1037D0000F91FF90EF9008951092FE021092FD025B
:1037E0001092360A1092350A1092CF071092CE0727
:1037F000DF91CF911F910F91FF90EF90089581502D
:103800009E4F1CF781E09EEF99838883DF91CF91D3
:103810001F910F91FF90EF90089589EF203C38079A
:103820000CF056CF80EC99EF9093FE028093FD024E
:1038300020EC39EF4DCF17FD98CF1092F302109284
:10384000F4021092F5021092F60280E090E0A0E0FF
:10385000B0E09DCF8091E5029091E602280F391FDC
:103860003093360A2093350AF9011BCFC90101971D
:1038700099838883A2CF8091F3029091F402A09162
:10388000F502B091F602803422EA92072FEFA207E8
:103890002FEFB2070CF07BCF80E492EAAFEFBFEFDF
:1038A0008093F3029093F402A093F502B093F60292
:1038B0006ECFEF92FF920F931F93CF93DF93EC01A4
:1038C00088819981892B09F4B2C0E0908104F0903D
:1038D0008204F0929708E09296082881398137FD9A
:1038E000E4C08091E3029091E402281B390B3093ED
:1038F000820420938104F9012091FB023091FC02A3
:103900002E0F3F1F3093FC022093FB0286E02134F0
:1039100038070CF4ADC080E496E09093FC028093ED
:10392000FB0220E436E008811981C901880F991F44
:10393000820F931FAC01662757FD6095762FCF014C
:10394000880F991F9F01220F331F220F331F220F51
:10395000331F820F931FAA2797FDA095BA2F480FF8
:10396000591F6A1F7B1FEE19FF09EE0FFF1FCF01C2
:10397000AA2797FDA095BA2F480F591F6A1F7B1FD2
:10398000C801880F991F880F991F880F991FAA27B0
:1039900097FDA095BA2F480F591F6A1F7B1F4093B0
:1039A000F7025093F8026093F9027093FA0277FDE0
:1039B0006DC0141615061606170614F417FD68C018
:1039C000415C5D45604070400CF480C080EC9DE53A
:1039D000A0E0B0E08093F7029093F802A093F90280
:1039E000B093FA0254E0B595A795979587955A95A7
:1039F000D1F79C01998388838091DD029091DE024A
:103A0000181619060CF05DC0C901019699838883C8
:103A100022E080309207F4F08FEF91E09983888361
:103A2000DF91CF911F910F91FF90EF900895109229
:103A3000FC021092FB0210928204109281041092F8
:103A4000970810929608DF91CF911F910F91FF90E8
:103A5000EF90089581509E4F1CF781E09EEF99836F
:103A60008883DF91CF911F910F91FF90EF90089580
:103A700089EF203C38070CF056CF80EC99EF9093FB
:103A8000FC028093FB0220EC39EF4DCF17FD98CF5D
:103A90001092F7021092F8021092F9021092FA02B4
:103AA00080E090E0A0E0B0E09DCF8091E3029091B3
:103AB000E402280F391F3093820420938104F90116
:103AC0001BCFC901019799838883A2CF8091F70208
:103AD0009091F802A091F902B091FA02803422EAA2
:103AE00092072FEFA2072FEFB2070CF07BCF80E4F5
:103AF00092EAAFEFBFEF8093F7029093F802A093A2
:103B0000F902B093FA026ECF85B7806185BF2FEFBF
:103B100021B912B887EF84B980EE85B980EF87B9F3
:103B200080EB88B98CEF8AB983E08BB92DB91EB8C8
:103B300010BA23BB90916303992399F414BA20938C
:103B40000101109202018FE0809304018091050130
:103B5000109205011092070120930A0110920B01A7
:103B60000895913089F414BA209301011092020152
:103B70008FE0809304018093050110920701209348
:103B80000A0110920B010895923099F488E084BBE9
:103B900020930101109202018FE080930401809331
:103BA00005011092070120930A0187EF80930B0112
:103BB000089520930101109202018FE08093040187
:103BC0001092070120930A01992341F2913031F2BA
:103BD000923059F308951092B8001092BC000895E5
:103BE000589A599A1092B90081E08093B8000895CC
:103BF000982F84EA8093BC008091BC0087FFFCCFA3
:103C00008091B900887F883021F0803111F081E007
:103C100008959093BB0084E88093BC008091BC0021
:103C200087FFFCCF9091B900987F983129F080E010
:103C3000903409F081E0089580E0089584E980934C
:103C4000BC008091BC0084FDFCCF08958093BB0034
:103C500084E88093BC008091BC0087FFFCCF8091FA
:103C6000B90090E0887F883209F091E0892F0895AB
:103C700084EC8093BC008091BC0087FFFCCF8091D6
:103C8000BB00089584E88093BC008091BC0087FF4E
:103C9000FCCF8091BB000895982F84EA8093BC00EC
:103CA0008091BC0087FFFCCF8091B900887F88306D
:103CB00021F0803111F081E008959093BB0084E8F9
:103CC0008093BC008091BC0087FFFCCF9091B9002D
:103CD000987F983129F080E0903409F081E00895D0
:103CE00080E008951092C50080E18093C400E0EC6C
:103CF000F0E0808182608083E1ECF0E0808188697F
:103D00008083E2ECF0E080818660808308951092E9
:103D1000C0001092C1001092C2000895982F8091A7
:103D2000C00085FFFCCF9093C600662321F08091F0
:103D3000C00086FFFCCF08951F920F920FB60F921E
:103D40000BB60F9211242F933F934F935F936F9372
:103D50007F938F939F93AF93BF93EF93FF93909134
:103D6000C600809160038E30C1F18F3031F18091B7
:103D70000F02882309F046C080910D03813009F4B9
:103D800046C0823061F540910F03442309F45EC0C0
:103D9000413029F5392F20E08091070390910803E5
:103DA000822B932B909308038093070340930E0379
:103DB00010920F0340930F0212C09B3289F19D3283
:103DC000E9F1973609F44AC0933749F48DEF9FE043
:103DD00060915F040E94485E02C09A3A59F1FF91D7
:103DE000EF91BF91AF919F918F917F916F915F9173
:103DF0004F913F912F910F900BBE0F900FBE0F90E0
:103E00001F90189510920F0290930D03E8CF9A3AE5
:103E100081F1953521F780930F0210920D03DFCFCA
:103E200080915F048F3F19F08F5F80935F048093D0
:103E30006600D5CF81E08093D903D1CF80915F0414
:103E40008823A9F3815080935F04F1CF90930703F7
:103E50001092080381E080930F03C1CF809111037A
:103E600061E05CDF8091660080935F0461E056DF73
:103E7000B6CF80931003B3CF86B146B126B166B1F9
:103E800030E0287030703595279535952795359514
:103E90002795220F331F50E0447050705595479579
:103EA00055954795240F351F220F331F70E0627020
:103EB000707075956795260F371F220F331F81701D
:103EC000820F08951F920F920FB60F9211240F9038
:103ED0000FBE0F901F90189560915C0370915D0369
:103EE00080915E0390915F03089581E08093BD020D
:103EF000089580E090E0A0E0B0E08093D30290933A
:103F0000D402A093D502B093D6028093CF029093AF
:103F1000D002A093D102B093D202809387039093F2
:103F20008803A0938903B0938A0380938F039093AF
:103F30009003A0939103B093920380939303909383
:103F40009403A0939503B093960380939F0390935B
:103F5000A003A093A103B093A20380939B0390932B
:103F60009C03A0939D03B0939E030895F89414BC02
:103F700015BC10926E0010922001109221018EEF5C
:103F80009FE00E941E5E90930803809307038DEFCD
:103F90009FE00E94165E982F80935F0481508E3FB1
:103FA00090F5909366002091070330910803C901B2
:103FB00081589C40039710F4109263038CE02038E2
:103FC000380751F124583C4018F082E08093630395
:103FD0000E942F4099DD8CD0E5D60E9401440E94BA
:103FE00025120E94211380910A03882329F48091CD
:103FF000090381608093090375DE0E94994D0E9438
:104000005017789408956091660060935F048DEF77
:104010009FE00E94485EC7CF81E080936303D8CFC2
:10402000CF93DF939EE1899FE00111248091680086
:104030008D7F8093680080916C008F7780936C00F7
:10404000D99A10927A0080917A00806180937A00E8
:1040500010929000109291001092710088B38760C6
:1040600088BB1092A0001092A1001092720089B338
:10407000876089BB109280001092810048DE0E9408
:104080003112A9DD41DD83B78F6083BF81E080936A
:1040900070008091B0008D7F8093B0008091B1005E
:1040A00087608093B100209719F088952197E9F7F0
:1040B00013BE8091B100887F8093B1001092700090
:1040C0008091B00082608093B0008FEF80930C02EB
:1040D00080930D0280930E021092E8021092E70284
:1040E0001092EA021092E90241DFDF91CF91089528
:1040F000EAE7F0E010822BE730E0D9011C92ACE750
:10410000B0E01C928081866080838C9180648C9367
:10411000808180628083D9018C91887F8C9380819B
:1041200088608083808180688083808180648083D0
:1041300008951F920F920FB60F920BB60F92112493
:104140001F932F933F934F935F936F937F938F931F
:104150009F93AF93BF93EF93FF9380915C039091F4
:104160005D03A0915E03B0915F038F3F2FEF920735
:104170002FEFA2072FEFB20709F4B9C00196A11DD6
:10418000B11D80935C0390935D03A0935E03B09395
:104190005F0380917800482F50E020917900922FA2
:1041A00080E0482B592B8091B702823009F4BDC1C1
:1041B000833008F44CC0843009F4E0C1843008F046
:1041C0002FC18091D7029091D802480F591F569560
:1041D00047955093D8024093D7029091D5039230DF
:1041E00009F04BC080912204813009F47BC28130F8
:1041F00008F0F1C180912404813009F407C3909143
:10420000B80280912102883008F050C180917B0073
:10421000877F80937B0080912102805C80937C006B
:10422000923009F450C1FF91EF91BF91AF919F91EE
:104230008F917F916F915F914F913F912F911F913E
:104240000F900BBE0F900FBE0F901F9018958823F4
:1042500009F456C0813061F48091D9029091DA025C
:10426000480F591F569547955093DA024093D9024B
:104270009091D503923009F4B5CF913009F434C14F
:10428000992309F0BCCF9091B802923009F432C35F
:10429000933008F0D5C1992309F471C2913009F027
:1042A000B0CF8091230280932102809126028093D7
:1042B000BA021092B70282E08093B8021091D30341
:1042C000113009F410C4123009F099CF8091220204
:1042D000873109F094CF1093D50380912404813065
:1042E00009F494C21092D5039091B8028ACF10922B
:1042F0005C0310925D0310925E0310925F0349CF3E
:10430000609122026E3009F4D1C2E62FF0E0DF01A5
:10431000AA0FBB1FA95DBD4F11965C934E9360FF22
:1043200072C0EE0FFF1FEB5DFD4F408151812D915B
:104330003C91862F8695A82FB0E0421B530BAA0F05
:10434000BB1FFD01E159FD4F80819181481B590B35
:10435000FD01E95AFD4F5183408357FDE8C24150AA
:10436000544024F080E094E091838083603170F4C5
:10437000FD01E95AFD4F0190F081E02DEC33F1058C
:104380000CF0F4C2A154BD4FED93FC9380918503D2
:10439000882309F406C28091670290916802845ACA
:1043A0009140B4F08091690290916A02845A9140E0
:1043B0007CF080916B0290916C02845A914044F0A1
:1043C00080916D0290916E02845A91400CF0E9C187
:1043D00081E0809386031092EA021092E902109223
:1043E000A9001092A8001092AB001092AA0010929F
:1043F000E8021092E7021092990010929800109231
:104400009B0010929A00862F8F5F80932202883142
:1044100008F42ECF1092220281E08093BE0228CFB2
:10442000863009F025CF8091010490E0209122028E
:10443000880F991F880F991F880F991F820F911D50
:10444000880F991FE0917707F0917807E80FF91F1F
:104450005183408320912202822F90E0880F991F80
:10446000E091450AF091460AE80FF91F8081918199
:104470008417950720F45183408320912202822FD4
:1044800090E0880F991FE091D504F091D604E80FD1
:10449000F91F808191814817590720F45183408387
:1044A000209122022F5F20932202E2CE80917B0096
:1044B000886080937B0080912102885C80937C00DF
:1044C000923009F0B0CE8091D503882309F0ABCEAD
:1044D00080916303882309F0ABC080910501807F40
:1044E0008093050112B89FCE20910004263009F474
:1044F0004EC2273008F0D4C0223009F455C2233010
:1045000008F470C1243009F4D5C2253008F4C4C2BF
:10451000809122028F5F8093210286E08093B70210
:10452000809300049091B8026CCE80910902882398
:1045300009F49ECE63999CCE64999ACE282F2F5F62
:1045400020930902253008F493CE8091E7029091E0
:10455000E802892B51F08091E1029091E202840FF0
:10456000951F9093E2028093E102283009F080CEFB
:104570001092090281E0809308027ACE90910A029B
:10458000992309F475CE8091000183FD71CE80914D
:10459000000184FD6DCE292F2F5F20930A02253064
:1045A00008F466CE8091E9029091EA02892B51F0DD
:1045B0008091DF029091E002840F951F9093E002BA
:1045C0008093DF02283009F053CE10920A0281E076
:1045D000809307024DCE833009F4ABC0843009F0DC
:1045E0000ECE809130048F5F8093300490E0209154
:1045F0002C0430912D048217930709F40CC180918B
:10460000230280932102809126028093BA02809136
:10461000B902882309F4D3C0813009F4C2C285E00D
:104620008093B70283E0809322049091B802E9CD91
:10463000813009F073C18FEF8093050112B8F3CD7B
:10464000933009F443C1943009F0DBCD809124020A
:1046500080932102809125028093B9028091BA0251
:10466000882309F075C183E08093B7021092B802E5
:10467000209122022E3009F42BC2422F50E020FF5D
:10468000BECD203108F058C2269581E090E002C0EE
:10469000880F991F2A95E2F782B99091B802B1CD9F
:1046A000293009F48FC12A3008F08DC0273009F471
:1046B000E2C1283009F0A3CD809124028093210229
:1046C000809125028093B9028091BA02882309F073
:1046D0007EC283E08093B70289E0809300049091CA
:1046E000B8028FCD80916303882309F45DC08130C7
:1046F00009F01EC28FEF8093050112B8809123024A
:1047000080932102809126028093BA0285E08093F3
:10471000B7028093D60382E0809322048091310413
:10472000882309F0FFC081E0809331049091B802A2
:1047300068CD809130048F5F8093300490E02091A9
:104740002C0430912D048217930709F493C08091B3
:10475000240280932102809125028093B9028091E6
:10476000BA02882341F1813009F41FC285E08093A9
:10477000B70284E0809322049091B80242CD8091E8
:1047800022028695809321028091B902882309F044
:10479000E6C081E08093B70281E08093B80291E0A7
:1047A00030CD109286032FCE80910501807F8093BB
:1047B000050112B8A3CF83E08093B702DACF81E07E
:1047C0008093B7022FCF2B3009F447C12B3008F468
:1047D0001AC12C3009F013CD85E08093B702909177
:1047E000B8020FCD222309F402C1213009F007CD10
:1047F000809122028F5F8093210286E08093B7022E
:1048000082E0809300049091B802FBCC8093220454
:104810009091B802F6CC1092300480912B0488233A
:1048200009F09FC181E080932B048091310488239B
:1048300009F001C28AEA82B980912F048F5F8093C8
:104840002F0490912E04891709F0D9CE80912A0463
:104850008F5F80932A048C3009F473C282E08093C6
:10486000D60382E08093220485E08093B702909182
:10487000B802C7CC1092300480912B04882309F031
:1048800074C181E080932B0480913104882309F066
:10489000D5C18AEA82B980912F048F5F80932F045B
:1048A00090912E04891709F052CFD0CF8091BD028C
:1048B000823009F02ACD5093BC024093BB02109283
:1048C000BD0246988FE080932202D2CC80912302D1
:1048D00080932102809126028093BA028091B902CE
:1048E000882341F581E08093B70284E08093B80289
:1048F00094E087CC8091240280932102809125024C
:104900008093B9028091BA028823D9F483E080931E
:10491000B70283E08093B80293E073CC823009F44D
:104920008ACE81CC109231049091B8026ACC118267
:1049300010821CCD813009F460C185E08093B702FC
:10494000D4CF813009F451C185E08093B702E1CF23
:10495000813009F456C185E08093B70287CE81305B
:1049600009F447C185E08093B70216CFCF01CC96FA
:1049700095958795883791050CF0FBC0A154BD4FE4
:10498000FC97F595E795FC96ED93FC93FFCC809111
:1049900022028F5F809321022093B70287E08093E9
:1049A00000049091B8022DCC809122028F5F8093F9
:1049B000210286E08093B70283E080930004909107
:1049C000B8021FCC8091230280932102809126029D
:1049D0008093BA028091B902882309F0F1C09093C4
:1049E000B7028AE0809300049091B8020ACC10923A
:1049F00022029093210286E08093B70290930004F4
:104A00009091B802FECB8091240280932102809184
:104A100025028093B9028091BA02882309F0C9C0A7
:104A200083E08093B702809119048E3F18F48F5F62
:104A300080931904909101049F5F909301048091E9
:104A4000D603843009F4FDC0943109F416C18BE01B
:104A5000809300049091B802D4CB109221028091EF
:104A6000B902882309F0BAC09093B70210920004EB
:104A70009091B802C6CB809123028093210280914D
:104A800026028093BA0286E08093B70288E0809382
:104A900000049091B802B5CB809122028F5F809381
:104AA000210286E08093B70284E080930004909115
:104AB000B802A7CB809122028F5F8093210286E00B
:104AC0008093B70285E0809300049091B80299CB5F
:104AD0008091BD02813009F0D0CD82E08093BD028B
:104AE000469A90E08ECB80912202873109F0EBCB81
:104AF000109221021092BD02109200041092010443
:104B0000E091450AF091460A80E1DF011D928A9505
:104B1000E9F78091D5049091D6046FEF70E040E101
:104B200050E00E94FF5D1093D5031091D303CBCBCF
:104B3000823009F4DFCDE2CD80916303882309F050
:104B400063C0405150405595479581E090E002C0C8
:104B5000880F991F4A95E2F7809305019091B8025A
:104B600050CB10922B0412B867CE10922B0412B8BF
:104B700092CECF01845D9E4F9595879595958795AB
:104B8000843B91050CF06AC0A154BD4FE45BF0403A
:104B9000F595E795F595E795E858FF4FED93FC936C
:104BA000F5CB82E08093B7023DCD84E08093B702DD
:104BB000E0CD813009F4C1C085E08093B70233CFE6
:104BC000813009F4AEC085E08093B7020ACF81300E
:104BD00009F4ABC085E08093B7027ECD813009F443
:104BE000A8C085E08093B70241CF84E08093B702EC
:104BF00090CE82E08093B702CFCD82E08093B7025F
:104C000074CE9093B70232CD813009F0B0C02091BC
:104C10000501405150405595479581E090E002C014
:104C2000880F991F4A95E2F78095822380930501AA
:104C30009091B802E6CA85E582B9FECD85E582B9D4
:104C40002ACE109201049091190480910B049817B8
:104C500008F4FDCE85E08093D603F9CEA154BD4F74
:104C6000E45AF140F595E795F595E795F595E795C3
:104C7000EC54FF4FED93FC9389CB109201042091EB
:104C80005B0730915C07809177079091780790934C
:104C90005C0780935B0730937807209377074091F8
:104CA000590450915A048091450A9091460A909374
:104CB0005A04809359044093450A5093460A209120
:104CC0004504309146043093870A2093860A8091E8
:104CD000D5049091D6049093460480934504309374
:104CE000D6042093D504FA0180E1DF011D928A9554
:104CF000E9F78091D5049091D6046FEF70E040E120
:104D000050E00E94FF5D8091D603813009F444C0D9
:104D10008091D603853009F09ACE86E08093D60341
:104D200096CE82E08093B7025CCE84E08093B70297
:104D3000D3CC82E08093B70299CE84E08093B7020F
:104D400072CE81E08093D603109224041092B802B0
:104D50001092D5030E94334E12B8BED8609325043A
:104D60007093260480932704909328047ACD823090
:104D700009F045CA2091050140515040559547958D
:104D800081E090E002C0880F991F4A95E2F7809574
:104D900082238093050133CA82E08093D603109268
:104DA0001904B6CF0F931F93CF93DF93E0E9F0E0A0
:104DB0001082A1E9B0E01C9221E730E0E9011882FD
:104DC00040EA50E0EA01188261EA70E0EB011882E3
:104DD00002E710E0E8011882808183688083808187
:104DE000836080838C918B608C938091E70290919B
:104DF000E802909399008093980010929B00109283
:104E00009A00D9018C9181608C9380818F75808309
:104E10008EB1877E8EB9EA01888183688883FB0121
:104E200080818B6080838091E9029091EA02909367
:104E3000A9008093A8001092AB001092AA00D8019C
:104E40008C9181608C9388818F758883E2E0F1E09A
:104E50008081877E8083DF91CF911F910F9108958C
:104E6000282F332727FD309537FD29C030930403C1
:104E70002093030387FD1AC03093EE022093ED02C6
:104E8000C90122E0803092073CF08FEF91E09093CF
:104E9000EE028093ED02089581509E4F34F481E03C
:104EA0009EEF9093EE028093ED0208958827992754
:104EB000821B930B9093EE028093ED02E2CF30952C
:104EC00021953F4FD3CF282F332727FD309537FD2E
:104ED00029C0309306032093050387FD1AC0309341
:104EE000EC022093EB02C90122E0803092073CF0F3
:104EF0008FEF91E09093EC028093EB020895815044
:104F00009E4F34F481E09EEF9093EC028093EB028D
:104F1000089588279927821B930B9093EC02809326
:104F2000EB02E2CF309521953F4FD3CF8091B00374
:104F3000882309F03FC0E091C907E23008F477C048
:104F40004E2F50E0FA01EE0FFF1FEE0FFF1FEE0F86
:104F5000FF1FEE0FFF1FEE52F84F808191812091CD
:104F6000840A3091850A8217930734F00196909352
:104F7000850A8093840A9C01FA013197DF01A2958A
:104F8000B295B07FBA27A07FBA27A051B84F8091C1
:104F9000BD039091BE038D939C93EE0FFF1FEE0F08
:104FA000FF1FEE0FFF1FEE0FFF1FEE50F84F318374
:104FB00020830895813031F0823009F470C083304D
:104FC000E9F10895E091C907E23008F49EC04E2F40
:104FD00050E0FA01E295F295F07FFE27E07FFE2790
:104FE000E053F84F868197812091840A3091850A99
:104FF0008217930734F001969093850A8093840A70
:105000009C01FA013197E295F295F07FFE27E07F4F
:10501000FE27DF01AC50B84F8091BF039091C003D1
:105020008D939C93E051F84F3783268308954E2F3C
:1050300050E02091840A3091850A9ECFE091C90703
:10504000E23008F470C04E2F50E0FA01E295F2957C
:10505000F07FFE27E07FFE27E053F84F8685978597
:105060002091840A3091850A8217930734F00196C3
:105070009093850A8093840A9C01FA01E295F29547
:10508000F07FFE27E07FFE27E052F84F8091BF03BC
:105090009091C00395878487378726870895E0918C
:1050A000C907E230C8F14E2F50E0FA01E295F295BF
:1050B000F07FFE27E07FFE27E053F84F828593853F
:1050C0002091840A3091850A8217930734F0019663
:1050D0009093850A8093840A9C01FA013197EE0F20
:1050E000FF1FEE0FFF1FEE0FFF1FEE0FFF1FDF0171
:1050F000A850B84F8091BD039091BE038D939C93AF
:10510000E051F84F3387228708954E2F50E02091C9
:10511000840A3091850A75CF4E2F50E02091840A81
:105120003091850ADACF4E2F50E02091840A3091D9
:10513000850AA3CF8F929F92AF92BF92CF92DF92B8
:10514000EF92FF920F931F93CF93DF93462F9C0113
:10515000220F331F220F331F280F391F211531054E
:1051600009F492C0862F8250823008F49DC04423F7
:1051700009F077C06091F2077091F3076217730727
:105180000CF099C080910208909103088217930750
:105190000CF01EC280911208909113088217930799
:1051A0000CF066C380912208909123088217930720
:1051B0000CF05BC3809132089091330882179307FB
:1051C0000CF059C3809142089091430882179307CD
:1051D0000CF054C3809152089091530882179307A2
:1051E0000CF052C380916208909163088217930774
:1051F0000CF047C38091720890917308821793074F
:105200000CF045C3B901882777FD8095982F0E943F
:10521000755B7B018C016091700870917108882723
:1052200077FD8095982F0E94755B9B01AC01C801AA
:10523000B7010E948E5C7B018C01609172087091B5
:105240007308882777FD8095982F0E94755B9B01D6
:10525000AC01C801B7010E94DA5A0E94425B9B016F
:1052600015C04330C1F1423009F424C1413009F482
:10527000ACC0442339F2413009F4EFC0423009F4A4
:1052800061C1433009F46FC020E030E0C901DF9113
:10529000CF911F910F91FF90EF90DF90CF90BF9033
:1052A000AF909F908F900895309521953F4F442364
:1052B00009F460CFD6CF8091F0079091F107AC014F
:1052C000249FC001259F900D349F900D11240E94B2
:1052D0004C5D9B01DBCF6091FE077091FF07621769
:1052E00073070CF062C180910E0890910F0882172D
:1052F00093070CF06DC180911E0890911F088217D2
:1053000093070CF0B5C280912E0890912F08821758
:1053100093070CF0AAC280913E0890913F08821733
:1053200093070CF0A8C280914E0890914F08821705
:1053300093070CF0A3C280915E0890915F088217DA
:1053400093070CF0A1C280916E0890916F088217AC
:1053500093070CF096C280917E0890917F08821787
:1053600093070CF094C2B901882777FD8095982F98
:105370000E94755B7B018C0160917C0870917D08B7
:10538000882777FD8095982F0E94755B9B01AC0163
:10539000C801B7010E948E5C7B018C0160917E0880
:1053A00070917F08882777FD8095982F0E94755B04
:1053B0009B01AC01C801B7010E94DA5A0E94425B0E
:1053C00022273327261B370B61CF6091F607709198
:1053D000F707621773070CF060C080910608909180
:1053E0000708821793070CF0F3C08091160890917C
:1053F0001708821793070CF03BC280912608909102
:105400002708821793070CF030C2809136089091DC
:105410003708821793070CF02EC2809146089091AE
:105420004708821793070CF029C280915608909183
:105430005708821793070CF027C280916608909155
:105440006708821793070CF01CC280917608909130
:105450007708821793070CF01AC2B901882777FDE5
:105460008095982F0E94755B7B018C016091740878
:1054700070917508882777FD8095982F0E94755B3D
:105480009B01AC01C801B7010E948E5C7B018C01BD
:105490006091760870917708D4CE8091F40790914E
:1054A000F507FC012E9FC0012F9F900D3E9F900D90
:1054B00011240DCF6091FA077091FB0762177307F3
:1054C0000CF060C080910A0890910B088217930736
:1054D0000CF07EC080911A0890911B0882179307E8
:1054E0000CF0C6C180912A0890912B08821793076F
:1054F0000CF0BBC180913A0890913B08821793074A
:105500000CF0B9C180914A0890914B08821793071B
:105510000CF0B4C180915A0890915B0882179307F0
:105520000CF0B2C180916A0890916B0882179307C2
:105530000CF0A7C180917A0890917B08821793079D
:105540000CF0A5C1B901882777FD8095982F0E949E
:10555000755B7B018C0160917808709179088827D0
:1055600077FD8095982F0E94755B9B01AC01C80167
:10557000B7010E948E5C7B018C0160917A0870916A
:105580007B0810CF8091F8079091F907AC01249F18
:10559000C001259F900D349F900D11240E944C5DF9
:1055A00022273327261B370B71CE8091FC07909161
:1055B000FD07FC012E9FC0012F9F900D3E9F900D77
:1055C00011240E944C5D22273327261B370B5ECE09
:1055D000C1E0D0E0C930D10509F44BCE442309F035
:1055E00059C0FE013197EE0FFF1FEE0FFF1FEE0FA8
:1055F000FF1FEE0FFF1FDF01AE50B84FCD90DC90C4
:10560000E051F84FA080B1802C193D09B9018827DD
:1056100077FD8095982F0E94755B7B018C01FE01C0
:10562000E295F295F07FFE27E07FFE27E051F84FEC
:10563000608171816A197B09882777FD8095982F91
:105640000E94755B9B01AC01C801B7010E948E5C92
:105650007B018C01CC0FDD1FCC0FDD1FCC0FDD1FBC
:10566000CC0FDD1FCE50D84F688179816C197D0930
:10567000882777FD8095982F0E94755B9B01AC0170
:10568000C801B7010E94DA5A0E94425B9B012A0DB1
:105690003B1DFCCD413009F44EC0423009F489C0B5
:1056A000433009F0F1CDC295D295D07FDC27C07F81
:1056B000DC27FE01E052F84FA684B78484849584E9
:1056C0002A193B09B901882777FD8095982F0E94F8
:1056D000755B6B017C018E010051184FF8016485E8
:1056E000758568197909882777FD8095982F0E941C
:1056F000755B9B01AC01C701B6010E948E5C6B011A
:105700007C01F801668577856A197B09882777FD12
:105710008095982F0E94755B9B01AC01C701B60173
:105720000E94DA5A0E94425B680D791D22273327B6
:10573000261B370BABCDFE013197E295F295F07F3A
:10574000FE27E07FFE27DF01A051B84F1696CD90CF
:10575000DC901797EC50F84FA080B1802C193D09D0
:10576000B901882777FD8095982F0E94755B7B0192
:105770008C01C295D295D07FDC27C07FDC27FE014B
:10578000EC50F84F608171816A197B09882777FD99
:105790008095982F0E94755B9B01AC01C801B701F1
:1057A0000E948E5C7B018C01C051D84F6E817F813D
:1057B0005DCFDE011197FD01E295F295F07FFE27A6
:1057C000E07FFE27E051F84FC284D384AA0FBB1FAD
:1057D000AA0FBB1FAA0FBB1FAA0FBB1FA850B84F11
:1057E000AD90BC902C193D09B901882777FD8095B3
:1057F000982F0E94755B7B018C01CC0FDD1FCC0FB5
:10580000DD1FCC0FDD1FCC0FDD1FFE01E850F84F70
:10581000608171816A197B09882777FD8095982FAF
:105820000E94755B9B01AC01C801B7010E948E5CB0
:105830007B018C01C051D84F6A857B856C197D092D
:10584000882777FD8095982F0E94755B9B01AC019E
:10585000C801B7010E94DA5A0E94425B6A0D7B1DA3
:1058600022273327261B370B11CDC3E0D0E0B2CE61
:10587000C2E0D0E0AFCEC4E0D0E0ACCEC5E0D0E036
:10588000A9CEC7E0D0E0A6CEC6E0D0E0A3CEC8E067
:10589000D0E0A0CE8F929F92AF92BF92CF92DF9234
:1058A000EF92FF920F931F93CF93DF93C091E50286
:1058B000D091E6028091E7029091E80297FDEAC05C
:1058C0006091F4077091F5076C177D070CF067C1C4
:1058D00088248A94982C80910408909105088C174C
:1058E0009D074CF080E09FEF89169FEF990609F421
:1058F00075C1882E992480911408909115088C17F1
:105900009D0734F0EFEF8E16EFEF9E0609F462C1AB
:1059100080912408909125088C179D0734F0FFEFA3
:105920008F16FFEF9F0609F451C1809134089091C2
:1059300035088C179D0734F02FEF82162FEF920653
:1059400009F440C180914408909145088C179D0747
:1059500034F03FEF83163FEF930609F42FC1809197
:105960005408909155088C179D0734F08FEF8816D6
:105970008FEF980609F41EC1809164089091650824
:105980008C179D0734F09FEF89169FEF990609F455
:105990000DC1C0907408D0907508CC16DD0634F0A7
:1059A000EFEF8E16EFEF9E0609F4FCC0209709F486
:1059B00060C08114910409F442C13FEF83163FEFA8
:1059C000930609F40DC1F4013197E295F295F07F49
:1059D000FE27E07FFE27DF01AC50B84FCD90DC9072
:1059E000E051F84FA680B780CC19DD09BE018827A9
:1059F00077FD8095982F0E94755B7B018C018294C6
:105A00009294B0EF9B2298248B229824F401E051C9
:105A1000F84F668177816A197B09882777FD809521
:105A2000982F0E94755B9B01AC01C801B7010E94D1
:105A30008E5C7B018C0184EF97E0880E991EF40147
:105A4000608171816C197D09882777FD8095982F79
:105A50000E94755B9B01AC01C801B7010E94DA5A34
:105A60000E94425B6A0D7B1D7093C4036093C30365
:105A700004C01092C4031092C303DF91CF911F9111
:105A80000F91FF90EF90DF90CF90BF90AF909F90DD
:105A90008F9008956091FC077091FD076C177D074A
:105AA0000CF02BC10FEF1FEF80910C0890910D08A7
:105AB0008C179D072CF02FEF0F3F120709F420C120
:105AC00080911C0890911D088C179D072CF03FEFCA
:105AD0000F3F130709F426C180912C0890912D08DF
