:100000000C94CD000C94EC000C94EC000C94EC00DF
:100010000C94EC000C94EC000C94EC000C94EC00B0
:100020000C94EC000C94EC000C9416100C94EC0066
:100030000C94EC000C944A100C94EC000C94FB1BF8
:100040000C94EC000C94EC000C94EC000C94EC0080
:100050000C94EC000C94EC000C94EC000C94EC0070
:100060000C94EC000C94C61A0C94EC000C94EC006C
:100070000C94EC000C94CD1C0C94EC000C94EC0053
:100080000C94A5320C94BB320C94EC000C941832F6
:100090000C94EC000C94EC000C94EC000C94EC0030
:1000A0000C94EC000C94EC000C94EC310C940232A7
:1000B0000C94EC000C9455310C94EC000C94EC0076
:1000C0000C94EC000C94EC000C94EC000C94EC0000
:1000D0000C94EC000C94EC000C94EC000C94EC00F0
:1000E0000C94EC0027130B13D912C4129B12891223
:1000F000601244120B12F3118C118C118C118C11A3
:100100008C118C113812E8118C118C118C118C11FE
:100110008C118C118C118C118C118C118C118C11F7
:100120000B12D912C011B3118C118C118C118C11BE
:100130008C118C118C118C118C118C118C118C11D7
:100140009B1260128C118C1127138912CC11084A52
:10015000D73B3BCE016E84BCBFFDC12F3D6C7431DB
:100160009ABD56833DDA3D00C77F11BED9E4BB4C32
:100170003E916BAAAABE000000803F05A84CCDB2FC
:10018000D44EB93836A9020C50B9918688083CA6DD
:10019000AAAA2ABE000000803F0011241FBECFEF94
:1001A000D1E2DEBFCDBF00E00CBF12E0A0E0B2E0C4
:1001B000EEEDF2E802C005900D92AC31B107D9F72F
:1001C00015E0ACE1B2E001C01D92A538B107E1F73E
:1001D0000E94EE000C946E410C9400002F923F920E
:1001E0004F925F926F927F928F929F92AF92BF9247
:1001F000CF92DF92EF92FF920F931F93DF93CF93F3
:1002000000D00F92CDB7DEB70E949A1B0E941D3816
:100210000E94D1320E94711C6B017C010E94711CF2
:100220009B01AC01609358043093590440935A04E5
:1002300050935B0410925C0410925D0410925E0473
:1002400010925F04AA24BB2400E019821A821B8248
:100250001C821FEF222423940E94751B8093480464
:100260000E945D370E94993C80914804873009F4D0
:10027000B3C10E94711C6C197D098E099F096E31F2
:100280004BE4740740E0840740E0940708F090C115
:100290000E947A110E942B0C8091C004882309F4DB
:1002A00072C080914804863009F45CC18F3009F037
:1002B0004AC00E94A32C80914804081769F20E944A
:1002C000DE340E94E53480910B01816080930B0144
:1002D00080910B01826080930B0180910B018460FF
:1002E00080930B01A39A80910B01806180930B0195
:1002F00080910B01806280930B0180910B018064DF
:1003000080930B0180910B01806880930B01109307
:100310000C0210930D0210930E028FEF0E942535F0
:1003200080910D020E94393580910E020E944D3558
:1003300080E00E94462180E00E942921109218034B
:100340000091480489CF60E00E94951A909148047A
:10035000892F963009F406C1973008F05EC19230BB
:1003600009F456C1933008F063C2992309F49BC184
:10037000913021F40E94DA3490914804992309F0D5
:1003800098CF80E09ACF0E94711C9B01AC0160E085
:1003900070E0CB01F0915804E091590480905A0428
:1003A00040905B0430905C0450905D0460905E046B
:1003B00070905F04B22FBF1BA1E02B1708F0A0E0E4
:1003C000F32FFE1BEF2FF1E03E1708F0F0E09E2E1A
:1003D0009A1AA92D99249394EA1708F09924F929D7
:1003E000E42FE8198E2EE1E0481508F0E0E0982CA3
:1003F0009F1AF1E0891408F0F0E0EF2BF52FF419C3
:100400004F2EF1E0541508F0F0E0842C8E1AE1E054
:10041000481408F0E0E0FE2B3194E1E0631508F0A9
:10042000E0E0432C4F1AF1E0341408F0F0E0EF2B39
:100430005194F1E0751508F0F0E0352C3E1AE1E03A
:10044000531408F0E0E0FE2B6194E1E0861508F01B
:10045000E0E0962D9F1B81E0691608F080E0E82B14
:1004600071947E1691F4992381F4332071F4442021
:1004700061F4882051F4992041F4A23030F4A13085
:1004800009F00FCFB03908F40CCF0E94711C9B010A
:10049000AC01609358043093590440935A0450932C
:1004A0005B0410925C0410925D0410925E04109242
:1004B0005F0480916004882309F4FBC18091F702F6
:1004C0009091F802009709F48CC22091FB023091C0
:1004D000FC02289FA001299F500D389F500D112428
:1004E00057FD7FC2281739070CF0E6C64091170266
:1004F000240F311D3093FC022093FB0282179307D7
:1005000024F49093FC028093FB028091F902909175
:10051000FA02009709F460C22091FD023091FE02B8
:10052000289FA001299F500D389F500D112457FD81
:1005300053C2281739070CF0D0C640911702240F78
:10054000311D3093FE022093FD02821793070CF0B9
:10055000A8CE9093FE028093FD02809148048630DD
:1005600009F0A4CE90911F04913009F4BAC29130E1
:1005700008F03CC280E00E94462180E00E942921D0
:100580000E94FE3510930C0210930D0210930E0280
:100590008FEF0E94253580910D020E9439358091A0
:1005A0000E020E944D35449A459A90914804E6CE39
:1005B0000E947A1C80914804982F9450923008F43D
:1005C00085C1873009F4ADC1863009F4E4C00E94CA
:1005D000711C6B017C015CCE0E94711C29813A81E7
:1005E0004B815C81621B730B840B950B683C32E181
:1005F000730730E0830730E0930708F43ACE109396
:100600000C0210930D0210930E0233CE0E94DA34C6
:100610000E94E13490914804B1CE9A3009F4A1C00F
:100620009B30F8F4983009F490C0993008F440C039
:100630006091D3027091D4028091D5029091D6023C
:1006400020E030E84BE355E40E94F23D181614F523
:1006500080E00E94292180E00E9446219091480478
:100660008DCE9C3009F4CAC09C3008F4ADC09D30DA
:1006700009F084CE6091D3027091D4028091D502AA
:100680009091D60220E030EC4AED55E40E94F23D14
:100690001816F4F288E20E94292188E20E9446217D
:1006A000909148046BCE0E94F91F9091480466CE49
:1006B00080914C04823009F450C5833008F0B5C1F4
:1006C000882309F081C40E94FE3580910B018E7F42
:1006D00080930B0110924D040E94DA3484E10E9451
:1006E000462184E10E9429210E94711C9B01AC01DA
:1006F0006093540470935504809356049093570468
:100700008091500490915104A0915204B0915304EF
:10071000281B390B4A0B5B0B23336FEE360762E065
:10072000460760E0560710F020924C0480910C02BE
:100730000E94253580910D020E94393580910E026C
:100740000E944D359091480419CE2092120280915A
:10075000C004813009F0ADCD0E944A229091480436
:100760000DCE6091D3027091D4028091D502909108
:10077000D60220E030E04AE755E40E94F23D181628
:100780000CF466CF88E20E94292188E20E9446216B
:1007900090914804F3CD80911F04813009F017CF68
:1007A00090911503923008F012CF9091180399237D
:1007B00009F004C64EEF40930C0210930D02109303
:1007C0000E028093180303CF6091D3027091D4027C
:1007D0008091D5029091D60220E030E44CE955E4B6
:1007E0000E94F23D18160CF433CF88E20E942921B2
:1007F00088E20E94462190914804C0CD6091D302C6
:100800007091D4028091D5029091D60220E030E818
:100810004BEB55E40E94F23D18160CF03BCF80E004
:100820000E94292180E00E94462190914804A6CD93
:100830009430D1F0953008F4E9CE80910C020E94FA
:10084000253580910D020E94393580910E020E945B
:100850004D350E94DA3489E10E94292189E10E9404
:100860004621909148048ACD80910B018E7F809320
:100870000B0180910B018D7F80930B0180910B0107
:100880008B7F80930B01A39880910B018F7E8093C7
:100890000B0180910B018F7D80930B0180910B01E7
:1008A0008F7B80930B0180910B018F7780930B01DD
:1008B0003DCF8091F7029091F8029093FC028093D3
:1008C000FB028091F9029091FA0243CE0E94054109
:1008D0006EE170E00E946740A80EB91E5FE7A52296
:1008E000BB2480911803813009F4EEC3813008F0F5
:1008F00061C38A2D809580930C022092180380E2B8
:10090000A816B10408F0D4C080910D028F3F09F4FD
:100910005ECE80910E028F3F09F459CE10930C02E7
:1009200056CE80919400909195000E940A410E94B9
:1009300005416EE170E00E9467404C018A0C9B1CEF
:10094000FFE78F229924882D809580930C02809157
:100950009400909195000E940A410E9405416EE129
:1009600070E00E9467406C01C80CD91C2FE7C222BE
:10097000DD248C2D809580930D02809194009091C0
:1009800095000E940A410E9405416EE170E00E94BC
:1009900067405C01AC0CBD1C3FE7A322BB248A2D41
:1009A000809580930E0280919400909195000E9412
:1009B0000A410E94054160E870E00E946740803271
:1009C000910508F087C010930C020E94711C698386
:1009D0007A838B839C83FBCD1092FE021092FD02E2
:1009E00060CC1092FC021092FB028FCD923011F07D
:1009F000982FC4CC909120049923D1F30E941736EC
:100A000060911303709114038EEF9FE00E9469417F
:100A10000E94FE358AEA61E00E94951A1092200435
:100A200010921F0490914804A9CC843009F454C357
:100A3000843008F404C3853009F078CE0E94FE3576
:100A400080910B018F7B80930B0180910B018F773D
:100A500080930B010E94711C9B01AC0160935404B4
:100A600070935504809356049093570480915004DA
:100A700090915104A0915204B0915304281B390B5A
:100A80004A0B5B0B2B329CE1390790E0490790E061
:100A9000590708F44BCE0E94711C60935004709368
:100AA0005104809352049093530410924C043ECE10
:100AB00090E4A916B10408F0CCC380910C028F3FDA
:100AC00009F485CD80910E028F3F09F480CD1093FB
:100AD0000D027DCD8034910508F0E7C310930D021F
:100AE00074CF0E94173680910C020E9425358091A8
:100AF0000D020E94393580910E020E944D354498B6
:100B0000459880912204882309F4A8CD10922204EC
:100B10008091570261E00E94951A8091580261E02D
:100B20000E94951A809127029091280261E00E940C
:100B3000951A8091270290912802892F61E00E94E6
:100B4000951A8091590261E00E94951A80915A028B
:100B500061E00E94951A80912B0290912C0261E035
:100B60000E94951A80912B0290912C02892F61E0AE
:100B70000E94951A80915B0261E00E94951A809113
:100B80005C0261E00E94951A80912F0290913002E0
:100B900061E00E94951A80912F0290913002892F76
:100BA00061E00E94951A80915D0261E00E94951AB1
:100BB00080915E0261E00E94951A809133029091CB
:100BC000340261E00E94951A8091330290913402C0
:100BD000892F61E00E94951A80915F0261E00E9476
:100BE000951A8091600261E00E94951A8091370207
:100BF0009091380261E00E94951A8091370290919D
:100C00003802892F61E00E94951A8091610261E0AB
:100C10000E94951A8091620261E00E94951A80916B
:100C20003B0290913C0261E00E94951A80913B0248
:100C300090913C02892F61E00E94951A8091630295
:100C400061E00E94951A8091640261E00E94951A09
:100C500080913F029091400261E00E94951A80913C
:100C60003F0290914002892F61E00E94951A809185
:100C7000650261E00E94951A8091660261E00E941F
:100C8000951A809143029091440261E00E94951A66
:100C90008091430290914402892F61E00E94951A4D
:100CA0008091670261E00E94951A8091680261E07C
:100CB0000E94951A809147029091480261E00E943B
:100CC000951A8091470290914802892F61E00E9415
:100CD000951A8091690261E00E94951A80916A02DA
:100CE00061E00E94951A80914B0290914C0261E064
:100CF0000E94951A80914B0290914C02892F61E0DD
:100D00000E94951A80916B0261E00E94951A809171
:100D10006C0261E00E94951A80914F0290915002FE
:100D200061E00E94951A80914F0290915002892FA4
:100D300061E00E94951A80916D0261E00E94951A0F
:100D400080916E0261E00E94951A80915302909109
:100D5000540261E00E94951A8091530290915402CE
:100D6000892F61E00E94951A8091280461E00E9419
:100D7000951A8091290461E00E94951A80912A04B5
:100D800061E00E94951A80912B0461E00E94951AFF
:100D900080912C0461E00E94951A80912D0461E0FD
:100DA0000E94951A8091230461E00E94951A809117
:100DB000480461E00E94951A8091030190E08072DE
:100DC0009070959587959595879595958795959527
:100DD00087959595879561E00E94951A80911503F6
:100DE00061E00E94951A609164047091650480919D
:100DF00066049091670420E030E44FE054E40E94E0
:100E0000A93F0E94663E862F61E00E94951A60917C
:100E1000640470916504809166049091670420E0F9
:100E200030E44FE054E40E94A93F0E94663E872FC1
:100E300061E00E94951A60916C0470916D0480913C
:100E40006E0490916F040E94663E862F61E00E94BE
:100E5000951A60916C0470916D0480916E0490916C
:100E60006F040E94663E872F61E00E94951A609190
:100E700070047091710480917204909173040E94C7
:100E8000663E862F61E00E94951A60917004709111
:100E9000710480917204909173040E94663E872FC2
:100EA00061E00E94951A6091D3027091D402809102
:100EB000D5029091D6020E94613E862F61E00E9489
:100EC000951A6091D3027091D4028091D5029091CD
:100ED000D6020E94613E872F61E00E94951A6091C0
:100EE000D3027091D4028091D5029091D6020E94D3
:100EF000613E61E00E94951A6091D3027091D40224
:100F00008091D5029091D6020E94613E892F61E0C6
:100F10000E94951A6091CF027091D0028091D10207
:100F20009091D2020E94613E862F61E00E94951A44
:100F30006091CF027091D0028091D1029091D20243
:100F40000E94613E872F61E00E94951A6091CF0256
:100F50007091D0028091D1029091D2020E94613EA4
:100F600061E00E94951A6091CF027091D002809149
:100F7000D1029091D2020E94613E892F61E00E94CD
:100F8000951A8091F9029091FA0295958795959519
:100F9000879561E00E94951A8091F7029091F8027E
:100FA000959587959595879561E00E94951A909102
:100FB0004804E4C9823009F0A2CC8A2D8095809340
:100FC0000E02109218039BCC813009F0AFCB0E9427
:100FD000FE3580910B018B7F80930B0110924E04A4
:100FE0000E94DA348FE00E9446218FE00E9429217E
:100FF0008091690290916A02E1E080399E070CF4C9
:101000003AC180916B0290916C02F1E080399F07A8
:101010000CF431C1809167029091680221E080391F
:1010200092070CF428C180916D0290916E0231E01C
:10103000803993070CF41FC110924D0477CB0E94A6
:10104000FE3580910B018F7B80930B010E94711CF8
:101050009B01AC0160935404709355048093560433
:10106000909357048091500490915104A0915204A0
:10107000B0915304281B390B4A0B5B0B2D3C66E6E1
:10108000360764E0460760E0560708F439C18091EE
:10109000BB029091BC02E3E08A379E0708F43CC192
:1010A00083EF0E94462183EF0E9429210E94711C38
:1010B00060935004709351048093520490935304AE
:1010C000F4E0F0934C0432CB8A2D809580930D028E
:1010D00062E06093180313CC0E94FE3580910B01EF
:1010E0008F7B80930B0180910B018F7780930B0195
:1010F0000E94711C9B01AC016093540470935504D1
:101100008093560490935704809150049091510419
:10111000A0915204B0915304281B390B4A0B5B0B6E
:101120002F3865E2360760E0460760E0560708F4AE
:10113000FDCA84E10E9446218CEE0E9429210E9472
:10114000711C6093500470935104809352049093E7
:10115000530485E080934C04E9CA0E94FE358091D7
:101160000B018F7E80930B010E94DE340E94711C64
:101170009B01AC0160935404709355048093560412
:10118000909357048091500490915104A09152047F
:10119000B0915304281B390B4A0B5B0B23336FEEC2
:1011A000360762E0460760E0560708F0F0C080911D
:1011B000030184FFD1C010924E0480914F048F5FD1
:1011C00080934F04853108F00FC18091690290919E
:1011D0006A02209167023091680241E0223C3407A4
:1011E000ACF451E0833C95078CF040916B02509138
:1011F0006C0261E0433C56074CF040916D02509107
:101200006E02E1E0433C5E070CF00DC140916D02BF
:1012100050916E02F1E0423C5F070CF088C041E063
:10122000233C34070CF483C051E0833C95070CF455
:1012300083C080916B0290916C0261E0833C9607C1
:101240000CF0F8C08FE00E9429218BEF0E9446210C
:101250006DCAE0E6AE16B10408F0B9C980910C027F
:101260008F3F09F4B4C980910D028F3F09F4AFC9D3
:1012700010930E02ACC980914D048F5F80934D0492
:101280008B3008F453CA10924E0410924F040E94FF
:10129000711C609350047093510480935204909396
:1012A000530442E040934C0441CA8036910508F053
:1012B0008CCB10930E0289CB821793070CF025C9B3
:1012C00040911702241B31093093FC022093FB024A
:1012D000281739070CF019C914C98217930714F09D
:1012E0000C94510140911702241B31093093FE02E6
:1012F0002093FD022817390714F00C94510129C9D5
:101300008091030184FD12CA10924F0410924E0482
:1013100082E0982E90924C040E94711C60935004BD
:10132000709351048093520490935304FFC9E1E0F9
:10133000833C9E070CF086CF80916B0290916C02EB
:10134000F1E0833C9F070CF448C08BEF0E942921F9
:101350008FE00E944621EAC910924F0480916902F1
:1013600090916A02E1E0833C9E072CF120916B0290
:1013700030916C02F1E0233C3F07ECF020914E04E9
:101380002F5F20934E042B3F08F423CFCDC98CEE62
:101390000E9446218CEE0E9429210E94711C6093BC
:1013A000500470935104809352049093530484E04A
:1013B00080934C04BBC910924E040BCF913041F185
:1013C000923009F004C910930C0210930D028EEFB5
:1013D00080930E0210921803FAC88FE00E944621F3
:1013E0008FE00E942921A2C980E00E94292180E08B
:1013F0000E9446210E94711C609350047093510416
:10140000809352049093530493E090934C048EC9BC
:1014100010930C025EEF50930D0210930E0262E0E7
:1014200060931803D4C886EF0E9429218FE00E94A0
:1014300046217CC98FE00E94292186EF0E94462127
:1014400075C981E090E021E00DB407FC0AC0019667
:1014500037E280319307C0F3209316030DB407FEE3
:10146000F6CF089584B1807F84B984B1876084B950
:1014700080E58CBD8DB581608DBD08951CBC1DBC03
:101480000895442309F1A62FB72FE82FF92F91E0F3
:1014900021912EBD21E030E00DB407FC0BC02F5F81
:1014A0003F4F57E220313507B8F3909316030DB440
:1014B00007FEF5CF20911603222331F42EB52D938C
:1014C0002E2F281B241720F308956623E9F0E82F18
:1014D000F92F91E021912EBD21E030E00DB407FC01
:1014E0000BC02F5F3F4F47E220313407B8F3909392
:1014F00016030DB407FEF5CF20911603222321F425
:101500002E2F281B261730F308958EBD81E090E022
:1015100021E00DB407FC0AC0019637E28031930741
:10152000C0F3209316030DB407FEF6CF8EB50895D1
:101530000F931F93DF93CF9300D0CDB7DEB72898DA
:1015400080E20E94850A8DE00E94850A289A2898E8
:1015500083E20E94850A81E00E94850A289A809190
:1015600013039091140399838A831B82289880E344
:101570000E94850A8E010F5F1F4FC80163E00E9421
:10158000650A289A28988AE20E94850AC80163E0C1
:101590000E94650A289A289881E20E94850A81E0C3
:1015A0000E94850A289A289882E20E94850A81E092
:1015B0000E94850A289A289884E20E94850A82E17E
:1015C0000E94850A289A289885E20E94850A88E266
:1015D0000E94850A289A289881E30E94850A8DE056
:1015E0000E94850A289A289880E50E94850A83E748
:1015F0000E94850A289A28988CE30E94850A81E037
:101600000E94850A289A28988DE30E94850A86E020
:101610000E94850A289A289880E20E94850A8FE015
:101620000E94850A289A0F900F900F90CF91DF911A
:101630001F910F9108952C9A289A0E94980A089554
:10164000CF93DF93EC012C9828988AE20E94850AB8
:10165000CE0165E00E94650A289A2C9ADF91CF910D
:101660000895CF93DF93EC01289880E30E94850AC8
:10167000CE0165E00E94650A289ADF91CF91089516
:101680008091B904882311F080E0089528988FEFA5
:101690000E94850A289A80740895DF93CF930F9251
:1016A000CDB7DEB71982289887E10E94850ABE016E
:1016B0006F5F7F4FCB0141E00E94410A289A8981E8
:1016C00081700F90CF91DF910895289882EE0E944B
:1016D000850A289A0895CF93DF93EC01289881E634
:1016E0000E94850ACE01BE014DE00E94410A289A5F
:1016F000289887E20E94850A80E40E94850A289A39
:10170000DF91CF910895DF93CF930F92CDB7DEB7DE
:1017100028988F71806269830E94850A6981862F6B
:101720000E94850A289A0F90CF91DF9108950F9318
:101730001F93DF93CF930F92CDB7DEB78B0128981D
:101740008F7149830E94850AC801B80149810E94AE
:10175000410A289A0F90CF91DF911F910F91089520
:101760000F931F93DF93CF930F92CDB7DEB78B010B
:1017700028988F71806249830E94850AC801498137
:10178000642F0E94650A289A0F90CF91DF911F91D4
:101790000F9108950F931F93DF93CF930F92CDB7BF
:1017A000DEB78C018091B9048823E1F72C9881E0A1
:1017B0008093B904289880E269830E94850A8AE4AC
:1017C0000E94850A289A289881EE0E94850A289A04
:1017D000289880EA0E94850AC80169810E94650AEA
:1017E000289A2C9A0F90CF91DF911F910F91089515
:1017F000EF92FF920F931F93DF93CF930F92CDB78A
:10180000DEB7182F062F289881EE99830E94850A4B
:10181000289A289888EA0E94850A9981002361F015
:10182000612F792F7B01F70181917F010E94850A49
:101830008E2D811B8017B8F3289A0F90CF91DF91DE
:101840001F910F91FF90EF900895289881EE0E94CC
:10185000850A289A08951F93CF93DF938091B90446
:10186000882321F0DF91CF911F91089528988FEF61
:101870000E94850A289A86FFF5CF80911503826021
:1018800080931503289887E20E94850A80E70E94CA
:10189000850A289A289881E60E94850A8EE695E0B6
:1018A000BC014DE00E94410A289A289887E20E94D4
:1018B000850A80E40E94850A289A289882EE0E9470
:1018C000850A289A40916E05242F442309F46EC19D
:1018D00050916F05E52F609170058091C0048823B9
:1018E00041F5E09172052E2F30E02F773070309364
:1018F00012032093110370917305872F90E08F7767
:1019000090709093100380930F03E7FD03C0309510
:1019100021953F4F3093F8022093F70277FD03C0E3
:10192000909581959F4F9093FA028093F902242F0E
:10193000E52F30E03093670520936605F0E0F093E3
:101940006905E0936805C62FD0E0D0936B05C0937E
:101950006A05922F8827821B930B24E630E0B90199
:101960000E945340162F109510930C025E2F4427AF
:101970004E1B5F0BCA01B9010E94534060956093F2
:101980000E025C2F44274C1B5D0BCA01B9010E945B
:101990005340609560930D02812F0E942535809100
:1019A0000D020E94393580910E020E944D358091C2
:1019B000710580FF0EC1449881FF0EC14598982F94
:1019C00082FF0EC121E02093120284FD0DC186FF2B
:1019D00014C181E08093610497FD13C110926204E9
:1019E0008091740580FF14C180910B018E7F8093DC
:1019F0000B018091740581FF14C180910B018D7FD3
:101A000080930B018091740582FF14C180910B01BA
:101A10008B7F80930B018091740583FF14C1A39881
:101A20008091740584FF14C180910B018F7E809397
:101A30000B018091740585FF14C180910B018F7D8E
:101A400080930B018091740586FF14C180910B0176
:101A50008F7B80930B018091740587FD14C1809169
:101A60000B01806880930B0180914804883009F451
:101A700014C180910B028093C604853009F44BC2D7
:101A8000863008F027C1833009F48DC1843009F015
:101A90003FC090915F02809160029093C704809351
:101AA000C80490916702809168029093C904809362
:101AB000CA049091690280916A029093CB0480934A
:101AC000CC0490916B0280916C029093CD04809332
:101AD000CE0490916D0280916E029093CF0480931A
:101AE000D00490912804809129049093D10480938C
:101AF000D20490912A0480912B049093D304809374
:101B0000D404809123048093D50485E080930B0254
:101B1000289881EE0E94850A289A289888EA0E94CF
:101B2000850A8091C6040E94850A8091C7040E949C
:101B3000850A8091C8040E94850A8091C9040E9488
:101B4000850A8091CA040E94850A8091CB040E9474
:101B5000850A8091CC040E94850A8091CD040E9460
:101B6000850A8091CE040E94850A8091CF040E944C
:101B7000850A8091D0040E94850A8091D1040E9438
:101B8000850A8091D2040E94850A8091D3040E9424
:101B9000850A8091D4040E94850A8091D5040E9410
:101BA000850A289ADF91CF911F91089550916F0572
:101BB000E52F552309F08FCE60917005662309F05B
:101BC00006C280917105883009F403C2E62F262FE2
:101BD00084CE449A81FDF2CE459A982F82FDF2CEB2
:101BE0001092120284FFF3CE0E941D380E947E1CC8
:101BF00090917105892F86FDECCE1092610497FFBC
:101C0000EDCE81E0809362048091740580FDECCE7E
:101C100080910B01816080930B018091740581FD9F
:101C2000ECCE80910B01826080930B018091740552
:101C300082FDECCE80910B01846080930B0180913A
:101C4000740583FDECCEA39A8091740584FDECCEDF
:101C500080910B01806180930B018091740585FD5B
:101C6000ECCE80910B01806280930B018091740512
:101C700086FDECCE80910B01806480930B018091F6
:101C8000740587FFECCE80910B018F7780930B0159
:101C900080914804883009F0ECCE8091C0048823FC
:101CA00009F0E7CE8091750580FFE3CE0E941D38D4
:101CB0008FEF93E0909368028093670290936E0297
:101CC00080936D021092810581E08093C30480931C
:101CD000C004CFCE863009F4CCC0873009F018CFCD
:101CE0006091D3027091D4028091D5029091D60276
:101CF0000E94613E6093C7047093C8048093C90436
:101D00009093CA046091CF027091D0028091D10269
:101D10009091D2020E94613E6093CB047093CC04F8
:101D20008093CD049093CE04609164047091650417
:101D300080916604909167046093680470936904CD
:101D400080936A0490936B0420E030E44FE054E405
:101D50000E94A93F0E94613E262F2093CF047093DA
:101D6000D00460916C0470916D0480916E04909128
:101D70006F040E94663E6093D1047093D204609118
:101D800070047091710480917204909173040E94A8
:101D9000663E6093D3047093D4041092D50483E01C
:101DA00080930B02B5CE9091570280915802909388
:101DB000C7048093C8049091590280915A0290936D
:101DC000C9048093CA0490915B0280915C02909355
:101DD000CB048093CC0490915D0280915E0290933D
:101DE000CD048093CE049091610280916202909321
:101DF000CF048093D0049091630280916402909309
:101E0000D1048093D20490916502809166029093F0
:101E1000D3048093D4043091030180910301209175
:101E2000030190E0807290709595879595958795C0
:101E3000959587959595879595958795880F991F81
:101E4000221F2227221F220F220F282B832F90E0F0
:101E500080719070959587959595879595958795BF
:101E600095958795282B2093D50484E080930B02C9
:101E70004FCE80913702909138028093C7048091B1
:101E80003702909138029093C80480914702909154
:101E900048028093C9048091470290914802909330
:101EA000CA0480914B0290914C028093CB048091A4
:101EB0004B0290914C029093CC0480914F029091F0
:101EC00050028093CD0480914F02909150029093E4
:101ED000CE0480915302909154028093CF0480915C
:101EE0005302909154029093D00490912C048091CD
:101EF0002D049093D1048093D2049091BB028091E1
:101F0000BC029093D3048093D4041092D50487E04C
:101F100080930B02FDCD809127029091280280933F
:101F2000C70480912702909128029093C804809161
:101F30002B0290912C028093C90480912B029091E6
:101F40002C029093CA0480912F02909130028093CA
:101F5000CB0480912F02909130029093CC04809119
:101F60003302909134028093CD048091330290919A
:101F700034029093CE0480913B0290913C02809376
:101F8000CF0480913B0290913C029093D0048091C9
:101F90003F02909140028093D10480913F02909142
:101FA00040029093D2048091430290914402809326
:101FB000D30480914302909144029093D404809181
:101FC00048048093D50486E080930B02A1CD252F91
:101FD00084CC80917205882309F0F8CD8091730537
:101FE000882311F0252F79CC8CE30E94051C4091A9
:101FF0006E05242F6DCCCF93DF93C8E6D0E0188216
:10200000ACE6B0E01C92E0EBF0E010821092B10080
:10201000109270008881826088838C9180688C9394
:10202000808182608083DF91CF9108951F920F920B
:102030000FB60F9211248F9380911202882321F101
:102040008091030186FD20C0809168008D7F809380
:10205000680080916C008F7780936C0081E08093A2
:1020600013028DE08093B3008091B100866080936D
:10207000B1008091700082608093700010921E0207
:1020800010921F02109220028F910F900FBE0F909E
:102090001F9018951F920F920FB60F9211242F9335
:1020A0003F934F935F938F939F938091B100887F6D
:1020B0008093B100809113028823A9F080910301DD
:1020C00086FF65C08091680082608093680080917F
:1020D0006C00806880936C008FEF9FEF90930202FA
:1020E0008093010249C080910102909102022FEF7A
:1020F0008F3F920709F463C08130910509F498C0BD
:102100009C01225030402530310508F467C09C0105
:10211000275030402630310508F0BDC026E320931B
:10212000B3002091B10026602093B100209170008F
:102130002260209370002091030130E02074307001
:102140000024220F331F001C220F331F001C232FDB
:10215000302D4CE050E0481B590B02C0220F331FBA
:102160004A95E2F740911E02420F40931E020196EB
:1021700090930202809301029F918F915F914F9102
:102180003F912F910F900FBE0F901F9018951092B6
:10219000130283E38093B3008091B1008660809343
:1021A000B100809170008260809370008091010284
:1021B000909102022FEF8F3F9207C9F6DDCF209159
:1021C000030126FF52C0209168002260209368001E
:1021D00020916C00206820936C00CECF26E32093E2
:1021E000B3002091B10026602093B10020917000CF
:1021F0002260209370002091030130E02074307041
:102200000024220F331F001C220F331F001C232F1A
:10221000302D46E050E0481B590B02C0220F331FFF
:102220004A95E2F740911F02420F40931F029FCF51
:102230002091030130E020743070022E232F000C17
:10224000221F330B000C221F331F2093200226E392
:102250002093B3002091B10026602093B10020911B
:10226000700022602093700082CF8CE18093B300D5
:102270008091B10086608093B1008091700082608F
:102280008093700010921E0210921F021092200282
:1022900081E090E06DCF8D30910509F068CF10920C
:1022A00070008091680082608093680080916C006B
:1022B000806880936C008FEF9FEF90930202809371
:1022C0000102809120028093000280911F0280937E
:1022D0001C0280911E0280931D0281E080932404E1
:1022E0004BCF80910002089580911C020895809147
:1022F0001D02089580911202882351F180912404D7
:10230000882331F1E0911D02E0932304109224040C
:10231000F0E0E533F105E8F02091F7023091F802A2
:102320008091F9029091FA0237FDB9C130931203FE
:102330002093110397FD05C09093100380930F0322
:102340000895909581959F4F9093100380930F036C
:102350000895EE58FF4FEE0FFF1F0590F491E02D0A
:10236000199480936104109262042091F7023091D5
:10237000F8028091F9029091FA02D6CF109261048E
:1023800081E0809362042091F7023091F8028091FD
:10239000F9029091FA02C8CF8091260490E001964C
:1023A0008370907080932604823041F3833009F467
:1023B0008AC18130B1F210926104109262042091BE
:1023C000F7023091F8028091F9029091FA02ACCFB5
:1023D000109261042091F7023091F8028091F90285
:1023E0009091FA02A1CF8091F9029091FA0202979E
:1023F0009093FA028093F9022EEF803092079CF5B9
:1024000080E09EEF9093FA028093F9022091F70208
:102410003091F80289CF2091F7023091F802809133
:10242000F5029091F6022817390724F02091F9025D
:102430003091FA02225030403093F8022093F70294
:10244000C9013093FA022093F9024EEF203034078D
:1024500034F440E05EEF5093F8024093F7024EEF01
:10246000203034076CF22091F7023091F8025CCFF3
:1024700081E0809361042091F7023091F80280910D
:10248000F9029091FA0250CF2091F7023091F802B0
:10249000225030403093F8022093F7024EEF203064
:1024A00034070CF03DCF80E09EEF9093F8028093CC
:1024B000F7028091F9029091FA0220E032E036CFE3
:1024C0002091F7023091F802225030403093F80208
:1024D0002093F7028091F9029091FA02029690936C
:1024E000FA028093F9024EEF2030340734F420E0F2
:1024F0003EEF3093F8022093F70242E081309407D8
:102500000CF412CF80E092E09093FA028093F902EB
:102510000BCF1092F8021092F7021092FA0210926A
:10252000F90280914804883009F4DBC080E090E033
:1025300020E030E0FBCE2091F7023091F8022E5FD0
:102540003F4F3093F8022093F7028091F902909167
:10255000FA0202979093FA028093F90242E0213046
:10256000340734F020E032E03093F8022093F70291
:102570004EEF803094070CF0D7CE80E09EEF909322
:10258000FA028093F902D0CE8091F9029091FA027A
:1025900002969093FA028093F90222E0813092072A
:1025A0000CF461CF80E092E09093FA028093F902FC
:1025B0005ACF2091F7023091F8028091F902909160
:1025C000FA02821793070CF46EC09C012E5F3F4FF6
:1025D0003093F8022093F70202969093FA028093C8
:1025E000F90242E02130340734F020E032E0309349
:1025F000F8022093F70222E0813092070CF433CFE7
:1026000080E092E09093FA028093F9022091F70221
:102610003091F80289CE2091F7023091F8022E5FB6
:102620003F4F3093F8022093F70242E02130340705
:102630000CF476CE80E092E09093F8028093F7025B
:102640008091F9029091FA0220E032E06FCE809101
:10265000250490E0019665E070E00E946740809359
:102660002504882311F5449A459A10920E028FEFA3
:1026700080930D0280930C020E94253580910D02FB
:102680000E94393580910E020E944D352091F7024B
:102690003091F8028091F9029091FA0245CE30957E
:1026A00021953F4F43CEC90191CF813091F08230C7
:1026B000A1F18330E9F18FEF80930E0280930D0238
:1026C00080930C02D9CF81E08093610480936204EF
:1026D00023CE8FEF80930E0210920D0280930C0296
:1026E000CBCF0E941D388FEF93E0909368028093C8
:1026F000670290936E0280936D021092810581E0D3
:102700008093C3048093C0042091F7023091F802B3
:102710008091F9029091FA0207CE449845988FEF84
:1027200080930E0280930D0210920C0280E0A4CFE1
:1027300010920E0210920D0210920C0280E09CCFBB
:102740000895CF92DF92EF92FF920F931F93CF9352
:10275000DF93FC0180819181009709F4F7C02091FB
:102760003A0430913B0441E02E3034070CF4C7C0EA
:10277000181619060CF068C188E691E0821B930BCD
:10278000959587959595879529E130E0281B390B1C
:102790003093040220930302C091C104D091C2047B
:1027A000D0936D05C0936C058081918197FD2EC1FA
:1027B0002091EF023091F002DC01A21BB30BB09329
:1027C000C204A093C10480910703909108038A0F6B
:1027D0009B1F909308038093070366E0813496075C
:1027E0000CF4CBC080E496E0909308038093070339
:1027F00010ECC12E12E1D12EE12CF12C00811181BF
:102800009D01220F331F2A0F3B1F220F331F220F60
:10281000331F220F331F2A0F3B1F442737FD4095DC
:10282000542F8091030290910402089FB001099FE8
:10283000700D189F700D1124882777FD8095982FB3
:10284000260F371F481F591FAC1BBD0BAA0FBB1FFC
:10285000BD01CB01AA2797FDA095BA2F280F391FDC
:102860004A1F5B1F2C0D3D1D4E1D5F1D2093030352
:1028700030930403409305035093060357FD9DC016
:1028800012161306140615060CF0A4C017FDC9C0D5
:10289000213C7DE5370770E0470770E057070CF4EF
:1028A00099C080EC9DE5A0E0B0E080930303909395
:1028B0000403A0930503B09306032CED35E03183A8
:1028C00020838091E9029091EA02181619060CF013
:1028D00098C02F5F3F4F3183208342E0213034077F
:1028E0000CF441C080E092E091838083DF91CF912E
:1028F0001F910F91FF90EF90DF90CF900895243BB0
:10290000310594F42A3531057CF4181619060CF0BB
:10291000A9C03595279535952795275E3F4F30936C
:1029200004022093030238CF181619060CF042C097
:1029300084EB90E0821B930B9595879595958795F1
:102940004996909304028093030226CF10920803C5
:10295000109207031092C2041092C10410926D05E8
:1029600010926C05C3CF6EEF203036070CF0BECF4F
:1029700080E09EEF91838083B9CF79EF803C970709
:102980007CF480EC99EF909308038093070360E454
:10299000C62E6DEED62E6FEFE62E6FEFF62E2ECFF3
:1029A0006C01CC0CDD1CC80ED91EEE24D7FCE094C3
:1029B000FE2C24CF84EB90E0E1CE17FD0BC01092EB
:1029C000030310920403109205031092060320E003
:1029D00030E0A901203482EA38078FEF48078FEFF3
:1029E000580754F580E492EAAFEFBFEF80930303FA
:1029F00090930403A0930503B093060324E23AEFF7
:102A00005ECF215030403183208367CFA091EF0209
:102A1000B091F002A80FB91FB093C204A093C104F3
:102A2000D2CE109203031092040310920503109269
:102A3000060320E030E0A90184E0559547953795DD
:102A400027958A95D1F73BCF88E691E0821B930BBF
:102A500095958795959587954996909304028093CF
:102A600003029ACE359527953595279589E190E013
:102A7000821B930B90930402809303028DCECF921E
:102A8000DF92EF92FF920F931F93CF93DF93FC019E
:102A900080819181009709F4F7C020913A04309128
:102AA0003B0441E02E3034070CF4C7C01816190659
:102AB0000CF068C188E691E0821B930B9595879591
:102AC0009595879529E130E0281B390B3093060254
:102AD00020930502C0917B05D0917C05D093C5045D
:102AE000C093C4048081918197FD2EC12091F10291
:102AF0003091F202DC01A21BB30BB0937C05A093D2
:102B00007B058091090390910A038A0F9B1F909384
:102B10000A038093090366E0813496070CF4CBC066
:102B200080E496E090930A038093090340ECC42E5E
:102B300042E1D42EE12CF12C008111819D01220F64
:102B4000331F2A0F3B1F220F331F220F331F220F69
:102B5000331F2A0F3B1F442737FD4095542F809188
:102B6000050290910602089FB001099F700D189F01
:102B7000700D1124882777FD8095982F260F371F19
:102B8000481F591FAC1BBD0BAA0FBB1FBD01CB01BA
:102B9000AA2797FDA095BA2F280F391F4A1F5B1F40
:102BA0002C0D3D1D4E1D5F1D2093FF023093000331
:102BB000409301035093020357FD9DC01216130664
:102BC000140615060CF0A4C017FDC9C0213C7DE514
:102BD000370770E0470770E057070CF499C080ECA6
:102BE0009DE5A0E0B0E08093FF0290930003A093E6
:102BF0000103B09302032CED35E0318320838091F3
:102C0000E7029091E802181619060CF098C02F5FA1
:102C10003F4F3183208342E0213034070CF441C020
:102C200080E092E091838083DF91CF911F910F919B
:102C3000FF90EF90DF90CF900895243B310594F4FE
:102C40002A3531057CF4181619060CF0A9C0359503
:102C5000279535952795275E3F4F309306022093A1
:102C6000050238CF181619060CF042C084EB90E02C
:102C7000821B930B9595879595958795499690938B
:102C800006028093050226CF10920A0310920903D0
:102C900010927C0510927B051092C5041092C4041A
:102CA000C3CF6EEF203036070CF0BECF80E09EEF32
:102CB00091838083B9CF79EF803C97077CF480ECD7
:102CC00099EF90930A038093090320E4C22E2DEE1E
:102CD000D22E2FEFE22E2FEFF22E2ECF6C01CC0C46
:102CE000DD1CC80ED91EEE24D7FCE094FE2C24CFA8
:102CF00084EB90E0E1CE17FD0BC01092FF02109222
:102D00000003109201031092020320E030E0A901B9
:102D1000203482EA38078FEF48078FEF580754F5C1
:102D200080E492EAAFEFBFEF8093FF02909300033D
:102D3000A0930103B093020324E23AEF5ECF215047
:102D400030403183208367CFA091F102B091F2022D
:102D5000A80FB91FB0937C05A0937B05D2CE10922B
:102D6000FF0210920003109201031092020320E070
:102D700030E0A90164E055954795379527956A9508
:102D8000D1F73BCF88E691E0821B930B9595879511
:102D900095958795499690930602809305029ACE61
:102DA000359527953595279589E190E0821B930B02
:102DB00090930602809305028DCECF92DF92EF9220
:102DC000FF920F931F93CF93DF93FC01808191813A
:102DD000009709F4B8C0C0917B05D0917C05D093D1
:102DE000C504C093C4048081918197FDCDC020911A
:102DF000F1023091F202DC01A21BB30BB0937C050F
:102E0000A0937B05C0900903D0900A03CA0EDB1E75
:102E1000D0920A03C092090381E4C81686E0D8065E
:102E20000CF49EC080E496E090930A03809309031B
:102E300010E8C12E1CE0D12EE12CF12C0081118173
:102E4000CD01880F991F8A0F9B1F9C01220F331FF2
:102E5000220F331F280F391F442737FD4095542F69
:102E6000B801660F771F660F771F660F771F8827D9
:102E700077FD8095982F260F371F481F591FAC1BD1
:102E8000BD0BCD01880F991F8A0F9B1FAA2797FDA5
:102E9000A095BA2F280F391F4A1F5B1F2C0D3D1D0F
:102EA0004E1D5F1D2093FF023093000340930103EA
:102EB0005093020357FD7AC0121613061406150626
:102EC0000CF081C017FDADC0213C8DE5380780E0D6
:102ED000480780E058070CF476C080EC9DE5A0E040
:102EE000B0E08093FF0290930003A0930103B0939E
:102EF00002032CED35E0318320838091E70290912D
:102F0000E802181619060CF087C02F5F3F4F318377
:102F10002083121613060CF06DC0225E3F4F3183E2
:102F2000208382E0213038070CF46CC080E092E00E
:102F300091838083DF91CF911F910F91FF90EF904C
:102F4000DF90CF90089510920A0310920903109217
:102F50007C0510927B051092C5041092C404EACF40
:102F600080ECC81689EFD806D4F480EC99EF9093E2
:102F70000A038093090360E8C62E63EFD62E6FEF35
:102F8000E62E6FEFF62E5ACFA091F102B091F20229
:102F9000A80FB91FB0937C05A0937B0533CFCC0C51
:102FA000DD1CEE24D7FCE094FE2C48CF17FD0BC0AF
:102FB0001092FF021092000310920103109202037C
:102FC00020E030E0A901203482EA38078FEF48077B
:102FD0008FEF58078CF580E492EAAFEFBFEF809354
:102FE000FF0290930003A0930103B093020324E235
:102FF0003AEF81CF2115310509F49CCF2E51304095
:10300000318320838EEF203038070CF093CF80E09F
:103010009EEF918380838ECF215030403183208377
:1030200078CF1092FF0210920003109201031092C9
:10303000020320E030E0A90114E05595479537954B
:1030400027951A95D1F757CFCF92DF92EF92FF9243
:103050000F931F93CF93DF93FC01808191810097A1
:1030600009F4B8C0C091C104D091C204D0936D05D9
:10307000C0936C058081918197FDCDC02091EF02B6
:103080003091F002DC01A21BB30BB093C204A093F9
:10309000C104C0900703D0900803CA0EDB1ED09273
:1030A0000803C092070381E4C81686E0D8060CF432
:1030B0009EC080E496E0909308038093070310E895
:1030C000C12E1CE0D12EE12CF12C00811181CD010B
:1030D000880F991F8A0F9B1F9C01220F331F220FFD
:1030E000331F280F391F442737FD4095542FB8014F
:1030F000660F771F660F771F660F771F882777FD8C
:103100008095982F260F371F481F591FAC1BBD0BEA
:10311000CD01880F991F8A0F9B1FAA2797FDA095A5
:10312000BA2F280F391F4A1F5B1F2C0D3D1D4E1D46
:103130005F1D2093030330930403409305035093D2
:10314000060357FD7AC012161306140615060CF076
:1031500081C017FDADC0213C8DE5380780E04807F0
:1031600080E058070CF476C080EC9DE5A0E0B0E06C
:103170008093030390930403A0930503B093060385
:103180002CED35E0318320838091E9029091EA02B1
:10319000181619060CF087C02F5F3F4F318320832C
:1031A000121613060CF06DC0225E3F4F3183208350
:1031B00082E0213038070CF46CC080E092E091830B
:1031C0008083DF91CF911F910F91FF90EF90DF905F
:1031D000CF90089510920803109207031092C20432
:1031E0001092C10410926D0510926C05EACF80EC2C
:1031F000C81689EFD806D4F480EC99EF90930803B1
:103200008093070360E8C62E63EFD62E6FEFE62E9D
:103210006FEFF62E5ACFA091EF02B091F002A80FF7
:10322000B91FB093C204A093C10433CFCC0CDD1CF2
:10323000EE24D7FCE094FE2C48CF17FD0BC0109273
:10324000030310920403109205031092060320E07A
:1032500030E0A901203482EA38078FEF48078FEF6A
:1032600058078CF580E492EAAFEFBFEF8093030339
:1032700090930403A0930503B093060324E23AEF6E
:1032800081CF2115310509F49CCF2E513040318377
:1032900020838EEF203038070CF093CF80E09EEF34
:1032A000918380838ECF215030403183208378CF2B
:1032B0001092030310920403109205031092060368
:1032C00020E030E0A90104E0559547953795279512
:1032D0000A95D1F757CF85B7806185BF8FEF81B948
:1032E00012B897EF94B990EE95B990EF97B990EB2B
:1032F00098B99CEF9AB993E09BB98DB91EB810BAF2
:1033000083BB80914B048823E1F08130D1F082307F
:1033100051F19FEF90930101109202019FE0909371
:1033200004018823A9F490910501109205011092DF
:1033300007019FEF90930A01882329F410920B0153
:10334000089514BAE6CF8130C9F3823041F0089570
:10335000813011F0823059F790930501E8CF87EF63
:1033600080930B01089598E094BBD3CF1092B800DE
:103370001092BC000895589A599A1092B90081E0B1
:103380008093B800089594EA9093BC009091BC009B
:1033900097FFFCCF9091B900987F983021F0903141
:1033A00011F081E008958093BB0084E88093BC0015
:1033B0008091BC0087FFFCCF9091B900987F983135
:1033C00021F081E0903419F0089580E0089580E0C4
:1033D000089524EA34E844E92093BC009091BC00AD
:1033E00097FFFCCF9091B900987F983011F0903101
:1033F00099F78093BB003093BC009091BC0097FF7D
:10340000FCCF9091B900987F903219F0983509F06F
:1034100008954093BC009091BC0094FDFCCFDCCF9C
:1034200094EA9093BC009091BC0097FFFCCF9091E0
:10343000B900987F983021F0903111F081E0089523
:103440008093BB0084E88093BC008091BC0087FF20
:10345000FCCF9091B900987F983121F081E09034B1
:1034600019F0089580E0089580E0089584E980933C
:10347000BC008091BC0084FDFCCF08958093BB000C
:1034800084E88093BC008091BC0087FFFCCF9091C2
:10349000B900987F81E0983209F0089580E008959E
:1034A00084EC8093BC008091BC0087FFFCCF8091AE
:1034B000BB00089584E88093BC008091BC0087FF26
:1034C000FCCF8091BB0008951092C50080E18093ED
:1034D000C400E0ECF0E0808182608083E1ECF0E009
:1034E000808188698083E2ECF0E08081866080835F
:1034F00008951092CD0080E18093CC00E8ECF0E0DC
:10350000808182608083E9ECF0E080818861808343
:10351000EAECF0E080818660808308951092C0001C
:103520001092C1001092C20008959091C00095FFC2
:10353000FCCF8093C600662321F08091C00086FFF7
:10354000FCCF08959091C80095FFFCCF8093CE00EA
:10355000662321F08091C80086FFFCCF08958091FA
:10356000C0008095881F8827881F089587E990E00C
:103570002091C00027FD07C00197D1F781E080931B
:103580001A0380E008958091C60008951F920F925B
:103590000FB60F920BB60F9211242F933F934F93B8
:1035A0005F936F937F938F939F93AF93BF93EF93AB
:1035B000FF938091C600909148049F3021F1909133
:1035C00011029923D9F490911F04913009F460C03D
:1035D000923009F443C0FF91EF91BF91AF919F9159
:1035E0008F917F916F915F914F913F912F910F90AC
:1035F0000BBE0F900FBE0F901F90189510921102E6
:1036000080931F04E8CF8B3209F44CC08D32F1F067
:10361000873609F05BC0909123048091C00085FF3C
:10362000FCCF9093C6008091C00086FFFCCF9091A4
:1036300066009093BE048091C00085FFFCCF9093FC
:10364000C6008091C00086FFFCCFC5CF8091BE042C
:103650008823D1F181508093BE042BC04091210476
:10366000442351F1413009F0B6CF382F20E080914A
:10367000130390911403822B932B90931403809344
:103680001303409320041092210440931102A3CF0E
:103690008A3A31F1853509F09ECF9093110210924C
:1036A0001F0499CF8091BE048F3FE9F08F5F809314
:1036B000BE04809366008FCF80931303109214038F
:1036C00081E08093210487CF80E0F3CF833709F036
:1036D00082CF8DEF9FE06091BE040E945B417BCF63
:1036E0009093220478CF8FEFE4CF86B166B126B1F4
:1036F00046B130E02870307035952795359527957F
:1037000035952795220F331F70E0647070707595A2
:10371000679575956795260F371F220F331F50E069
:103720004270507055954795240F351F220F8170B8
:10373000820F0895F89414BC15BC10926E0010927C
:103740002001109221018EEF9FE00E942D41909365
:103750001403809313038DEF9FE00E942541809313
:10376000BE04982F91509E3FE8F5809366008091AB
:103770001303909114039C0121583C4023303105E0
:1037800008F510924B040E94862F0E946B190E942C
:10379000AA1C0E948B1F0E94E8340E94320A0E94D9
:1037A0001B0B80911603882329F4809115038160F7
:1037B000809315030E94641A0E9430360E94FB0F0A
:1037C000789408952CE08038920721F481E080936A
:1037D0004B04D9CF2CE084389207A8F282E0809382
:1037E0004B04D1CF609166006093BE048DEF9FE0E3
:1037F0000E945B41BCCF1F920F920FB60F92112413
:103800000F900FBE0F901F901895CF93DF939EE1FE
:10381000899FE0011124809168008D7F809368006A
:1038200080916C008F7780936C00D99A10927A0007
:1038300080917A00806180937A00109290001092BB
:1038400091001092710088B3876088BB1092A0002D
:103850001092A1001092720089B3876089BB109208
:103860008000109281000E948E1A0E943E0A0E94DF
:10387000B6190E946B1983B78F6083BF81E0809374
:1038800070008091B0008D7F8093B0008091B10076
:1038900087608093B100209719F088952197E9F708
:1038A00013BE8091B100887F8093B10010927000A8
:1038B0008091B00082608093B0008FEF80930C0203
:1038C00080930D0280930E021092F4021092F30284
:1038D0001092F6021092F5020E949A1BDF91CF918E
:1038E000089560914404709145048091460490913C
:1038F0004704089581E08093BD02089580E090E040
:10390000DC018093D3029093D402A093D502B093AC
:10391000D6028093CF029093D002A093D102B093AD
:10392000D2028093640490936504A0936604B093DC
:10393000670480936C0490936D04A0936E04B0931D
:103940006F048093700490937104A0937204B093F9
:1039500073040895CF93DF93EAE7F0E01082ABE7BA
:10396000B0E01C92CCE7D0E0188280818660808332
:103970008881806488838081806280838C91887F45
:103980008C9380818860808380818068808380813F
:1039900080648083DF91CF9108951F920F920FB6BC
:1039A0000F920BB60F9211242F933F934F935F9377
:1039B0006F938F939F93AF93BF93EF93FF938091F8
:1039C000440490914504A0914604B09147040196A7
:1039D000A11DB11D8093440490934504A093460417
:1039E000B09347042091780030E040917900942F03
:1039F00080E0282B392B8091B702823009F4B2C1C4
:103A0000833008F445C0833009F4D5C1843009F40B
:103A100068C18091B802823009F44FC1833008F048
:103A2000CDC0882309F024C180912202869580931D
:103A300021028091B902882309F0EDC181E08093D1
:103A4000B70281E08093B80290912102983008F08B
:103A5000EDC090917B00977F90937B009091210225
:103A6000905C90937C00823009F4EDC0FF91EF915F
:103A7000BF91AF919F918F916F915F914F913F91C6
:103A80002F910F900BBE0F900FBE0F901F901895A7
:103A9000882309F0FEC0609122026E3009F4DCC177
:103AA000462F50E0FA01EE0FFF1FE95DFD4F318315
:103AB000208340FF77C0FA01EE0FFF1FEB5DFD4F43
:103AC00080819181FA01EE0FFF1FE95DFD4F40817A
:103AD0005181262F269530E0841B950B220F331F32
:103AE000F901E159FD4F40815181841B950BF9018A
:103AF000E95AFD4F9183808397FDC9C144E081302D
:103B0000940724F080E094E091838083603148F44E
:103B10008C3391050CF0C0C121543D4FF9019183C4
:103B2000808380916204882309F481C180916702B7
:103B300090916802F1E0843A9F07CCF0809169028D
:103B400090916A0221E0843A92078CF080916B0296
:103B500090916C0241E0843A94074CF080916D02A0
:103B600090916E02E1E0843A9E070CF060C181E022
:103B7000809363041092F6021092F5021092A9004D
:103B80001092A8001092AB001092AA001092F402BA
:103B90001092F302109299001092980010929B00DC
:103BA00010929A006F5F60932202683108F431CF5F
:103BB0001092220281E08093BE022BCF833009F461
:103BC000BDC0843009F040CF90912402909321022F
:103BD000909125029093B9029091BA02992309F02D
:103BE00014C183E08093B7021092B8026091220260
:103BF0006E3009F42BC1862F90E060FFFDC060316C
:103C000008F418C120914B04222309F0E1C0409729
:103C10009595879521E030E002C0220F331F8A95E9
:103C2000E2F7209305018091B8020ECF90917B00BE
:103C3000986090937B0090912102985C90937C0017
:103C4000823009F013CF20914B04222351F0213010
:103C500019F0223009F00ACF8FEF8093050112B8D6
:103C600005CF80910501807F8093050112B8FECEBB
:103C7000813009F0E9CE8091230280932102809166
:103C800026028093BA021092B70282E08093B802B3
:103C9000DBCE813009F0BDCE8091E1029091E2024D
:103CA000820F931F969587959093E2028093E1028D
:103CB0008091B802823009F0B1CE809124028093C5
:103CC0002102809125028093B9028091BA02882353
:103CD00009F0A7C083E08093B70283E08093B80225
:103CE000B3CE80910A02882309F493CE909100010B
:103CF00093FD8FCE9091000194FD8BCE482F4F5FA6
:103D000040930A02453008F484CE8091F5029091E8
:103D1000F602009751F08091EB029091EC02820F35
:103D2000931F9093EC028093EB02483009F071CE20
:103D300010920A0281E0809307026BCE80912302E9
:103D400080932102809126028093BA028091B90269
:103D5000882309F054C081E08093B70284E0809307
:103D6000B80272CE80910902882309F452CE639979
:103D700050CE64994ECE482F4F5F40930902453094
:103D800008F447CE8091F3029091F402009751F02D
:103D90008091ED029091EE02820F931F9093EE02BC
:103DA0008093ED02483009F034CE1092090281E090
:103DB000809308022ECE8091DF029091E002820F64
:103DC000931F969587959093E0028093DF0221CE12
:103DD000213011F0223081F44091050140979595F2
:103DE000879521E030E002C0220F331F8A95E2F769
:103DF00020952423209305018091B80225CE81309F
:103E0000D1F185E08093B702A9CF913009F085E028
:103E10008093B702E9CE8130B1F185E08093B7029B
:103E200010CE813061F185E08093B70256CF1092B9
:103E30006304B8CE669581E090E002C0880F991FB8
:103E40006A95E2F782B98091B802FECD8091BD02F9
:103E50008130A1F180E0F8CD8091BD02823009F07F
:103E60001FCE3093BC022093BB021092BD02469835
:103E70004EE050E01ECE82E08093B7026FCF84E028
:103E80008093B7022ACF82E08093B702DACD118205
:103E9000108280E090E03ACEAC01445C5F4F5595D3
:103EA0004795483751057CF421543D4FCC97959563
:103EB0008795CC96F9019183808333CE82E08093FD
:103EC000BD02469A98CEAC01445D5E4F559547952C
:103ED00055954795443B510574F421543D4F845BFF
:103EE0009040959587959595879588589F4FF901AE
:103EF0009183808316CE21543D4F845A91409595ED
:103F0000879595958795959587958C549F4FF90141
:103F10009183808306CE0F931F93CF93DF93E0E9C5
:103F2000F0E0108241E950E0DA011C9221E730E034
:103F3000E9011882A0EAB0E01C9281EA90E0EC016D
:103F4000188202E710E0E8011882608163686083EC
:103F5000608163606083EA0168816B60688340917F
:103F6000F3025091F40250939900409398001092FC
:103F70009B0010929A00E9014881416048832081AA
:103F80002F7520832EB1277E2EB92C9123682C9378
:103F9000FC0120812B6020838091F5029091F60234
:103FA0009093A9008093A8001092AB001092AA00F1
:103FB000E8018881816088838C918F758C93E2E021
:103FC000F1E08081877E8083DF91CF911F910F91F7
:103FD0000895282F392F8EEF2030380714F420E071
:103FE0003EEF82E02130380714F020E032E0C901D2
:103FF0000895809107028823C1F16091EB027091CE
:10400000EC0276956795769567957093F0026093CC
:10401000EF02109207021092EC021092EB028091D4
:10402000F9029091FA0297FDE3C075956795759531
:10403000679575956795882777FD8095982F0E94DD
:10404000943E9B01AC016091D3027091D4028091A7
:10405000D5029091D6020E942C3D6093D3027093BA
:10406000D4028093D5029093D602809108028823CF
:10407000C1F16091ED027091EE02769567957695AB
:1040800067957093F2026093F10210920802109209
:10409000EE021092ED028091F7029091F80297FDE6
:1040A00086C0759567957595679575956795882709
:1040B00077FD8095982F0E94943E9B01AC01609102
:1040C000CF027091D0028091D1029091D2020E94D1
:1040D0002C3D6093CF027093D0028093D1029093D5
:1040E000D2022091FB023091FC02C901880F991F76
:1040F000880F991F820F931F90930C0380930B03DB
:104100004091FD025091FE029A01220F331F220FAF
:10411000331F240F351F522F432F20930D0330934D
:104120000E0320916104222339F55093F502409348
:10413000F6029093F4028093F302181619065CF5C8
:1041400090939900809398008091F5029091F602E7
:10415000181619062CF49093A9008093A8000895CE
:10416000009709F06EC01092A9001092A80010925A
:10417000AB001092AA0008958DE093E06BE073E02D
:104180000E94D83250910D0340910E0380910B0391
:1041900090910C03CACF009709F04BC01092990080
:1041A0001092980010929B0010929A00CDCF7595B6
:1041B00067957595679575956795882777FD8095BF
:1041C000982F0E94943E9B01AC016091CF027091A8
:1041D000D0028091D1029091D2020E942B3D609337
:1041E000CF027093D0028093D1029093D20279CF04
:1041F000759567957595679575956795882777FD8A
:104200008095982F0E94943E9B01AC016091D3024F
:104210007091D4028091D5029091D6020E942B3DDC
:104220006093D3027093D4028093D5029093D60208
:104230001CCF909581959F4F90939B0080939A00FF
:1042400083CF909581959F4F9093AB008093AA0068
:104250000895282F332727FD309537FD13C030935D
:10426000100320930F0387FD05C03093FA022093BB
:10427000F9020895309521953F4F3093FA0220932B
:10428000F9020895309521953F4FE9CF282F332724
:1042900027FD309537FD13C030931203209311038F
:1042A00087FD05C03093F8022093F70208953095FA
:1042B00021953F4F3093F8022093F70208953095EF
:1042C00021953F4FE9CF8091BF04882389F5E09184
:1042D000C304E23008F496C0F0E0DF01A295B29585
:1042E000B07FBA27A07FBA27AA54BB4F12962D9150
:1042F0003C91139780918205909183052817390787
:1043000034F0C90101969093830580938205E2956C
:10431000F295F07FFE27E07FFE27EA53FB4F2091C6
:10432000A9043091AA043183208393838283089562
:10433000813031F0823009F46BC0833091F10895FF
:10434000E091C304E23008F493C0F0E0DF01A295ED
:10435000B295B07FBA27A07FBA27AA54BB4F169652
:104360002D913C9117978091820590918305281794
:10437000390734F0C9010196909383058093820533
:10438000E295F295F07FFE27E07FFE27EA53FB4F90
:104390002091AB043091AC043583248397838683CA
:1043A0000895E091C304E23008F468C0F0E0DF0152
:1043B000A295B295B07FBA27A07FBA27AA54BB4F67
:1043C0001E962D913C911F978091820590918305B7
:1043D0002817390734F0C90101969093830580931B
:1043E0008205E295F295F07FFE27E07FFE27EA53F3
:1043F000FB4F2091AB043091AC043587248797871D
:1044000086870895F0E080918205909183057FCFA3
:10441000E091C304E230C0F1F0E0DF01A295B29573
:10442000B07FBA27A07FBA27AA54BB4F1A962D9106
:104430003C911B978091820590918305281739073D
:1044400034F0C90101969093830580938205E2952B
:10445000F295F07FFE27E07FFE27EA53FB4F209185
:10446000A9043091AA043187208793878287089511
:10447000F0E0809182059091830582CFF0E08091F9
:10448000820590918305ADCFF0E0809182059091F7
:104490008305DDCF80918105823009F4D0C083305F
:1044A00008F43FC0843009F491C0843008F063C040
:1044B0008091BF04882309F4E1C0823009F4DEC092
:1044C00080916D0290916E0221E08A3692070CF481
:1044D0008AC10E94711C20917D0530917E0540911A
:1044E0007F0550918005621B730B840B950B6C3913
:1044F0002DEC720728E0820720E09207D8F1109295
:104500008305109282051092AA041092A9041092B9
:10451000AC041092AB040E94632185E08093810576
:104520000895882329F58091BF04882309F03CC1B0
:104530001092FC021092FB029091C30485E0989FB8
:10454000C0011124880F991F880F991F9093FE02B4
:104550008093FD0281E0809381050E94711C60932D
:104560007D0570937E0580937F0590938005089567
:10457000813071F008958530E9F78091C3048F5F31
:104580008093C3048A3009F48BC110928105089589
:104590008091BF04882309F4D0C0823009F4CDC0D3
:1045A00080916D0290916E0221E08A3692070CF0A4
:1045B00090CF1092A8041092A7041092A104109218
:1045C000A2041092A3041092A404CCC08091BF0452
:1045D000882349F1823039F180916D0290916E0209
:1045E00021E0863B92073CF50E94711C20917D05DD
:1045F00030917E0540917F0550918005621B730BC1
:10460000840B950B6C392DEC720728E0820720E0B3
:10461000920708F4AFCF109283051092820585E0CF
:10462000809381050895809167029091680221E04E
:10463000863B9207CCF285E080938105D5CF8091AF
:10464000BF04882309F4A6C0823009F4A3C0809176
:104650006D0290916E0221E0863B92070CF439CFF7
:1046600083E0809381050E94711C60937D057093A7
:104670007E0580937F05909380052BCF8091670204
:104680009091680221E08A3692070CF022CF0E94B6
:10469000711C2091BA043091BB044091BC0450912C
:1046A000BD04621B730B840B950B6093BA0470936B
:1046B000BB048093BC049093BD040E94923E20E012
:1046C00030E040ED52E40E94A93F20E034E244E7AC
:1046D00059E40E94F93D9B01AC0164E17EE288E768
:1046E00093E40E94F93D0E94663E709383056093B7
:1046F00082052091A5043091A60440E050E060912D
:104700009D0470919E0480919F049091A0040E944A
:104710007A403093AA042093A9040E94632184E084
:10472000809381050E94711C60937D0570937E05C6
:1047300080937F0590938005CCCE80916702909105
:10474000680221E08A3692070CF0C3CE1092A604CC
:104750001092A50410929D0410929E0410929F0442
:104760001092A0040E94711C6093BA047093BB0461
:104770008093BC049093BD0482E0809381050E94E5
:10478000711C60937D0570937E0580937F059093E7
:1047900080059FCE809167029091680221E0863B60
:1047A00092070CF496CE5CCF813009F484C082303D
:1047B00009F460C0833009F0CDCE9091C30485E048
:1047C000989FC0011124880F991F880F991F9095F9
:1047D00081959F4F9093FC028093FB021092FE0202
:1047E0001092FD02B7CE0E94711C2091BA04309144
:1047F000BB044091BC045091BD04621B730B840B3D
:10480000950B6093BA047093BB048093BC0490939F
:10481000BD040E94923E20E030E040ED52E40E9450
:10482000A93F20E034E244E759E40E94F93D9B01AE
:10483000AC0164E17EE288E793E40E94F93D0E94C6
:10484000663E70938305609382052091A7043091A2
:10485000A80440E050E06091A1047091A20480910E
:10486000A3049091A4040E947A403093AC04209356
:10487000AB0453CF1092FC021092FB029091C30440
:1048800085E0989FC0011124880F991F880F991FF8
:10489000909581959F4F9093FE028093FD025ACE92
:1048A00091E09093C3048091BF048823B9F482E01F
:1048B0008093BF046ACE9091C30485E0989FC001A5
:1048C0001124880F991F880F991F9093FC028093E1
:1048D000FB021092FE021092FD023CCE813061F08C
:1048E000823071F0833009F050CE1092BF040E94E4
:1048F000133D1092C00449CE83E08093BF0445CE9F
:104900009093BF041092C00440CEAF92BF92CF925A
:10491000DF92EF92FF920F931F93CF93DF939C014F
:10492000220F331F220F331F280F391F2115310586
:1049300009F47BC0862F8250823008F484C066233D
:1049400009F084C08091D8049091D904821793070C
:104950000CF01BC28091E8049091E9048217930740
:104960000CF01CC28091F8049091F904821793070F
:104970000CF017C2809108059091090582179307E2
:104980000CF012C2809118059091190582179307B7
:104990000CF0FEC18091280590912905821793079C
:1049A0000CF0F9C180913805909139058217930771
:1049B0000CF002C280914805909149058217930737
:1049C0000CF0FDC1C0915805D0915905C217D3070D
:1049D0000CF07AC1B901882777FD8095982F0E9445
:1049E000943E7B018C016091560570915705882794
:1049F00077FD8095982F0E94943E9B01AC01C801E1
:104A0000B7010E94A93F7B018C01BE01882777FD79
:104A10008095982F0E94943E9B01AC01C801B7017C
:104A20000E94F93D0E94613E02C060E070E0CB014F
:104A3000DF91CF911F910F91FF90EF90DF90CF907A
:104A4000BF90AF900895309521953F4F633009F4A2
:104A5000F3C0623001F1613009F498C0662309F4B3
:104A600090C0613009F48CC1623009F4A0C1633098
:104A7000E1F6C0916405D0916505B901882777FDFD
:104A80008095982F0E94943E7B018C016091620575
:104A90007091630555C08091E0049091E104821704
:104AA00093070CF072C18091F0049091F104821789
:104AB00093070CF073C18091000590910105821756
:104AC00093070CF06EC1809110059091110582172B
:104AD00093070CF069C18091200590912105821700
:104AE00093070CF055C180913005909131058217E4
:104AF00093070CF050C180914005909141058217B9
:104B000093070CF059C1809150059091510582177F
:104B100093070CF054C1C0916005D0916105C21794
:104B2000D3070CF0D1C0B901882777FD8095982F65
:104B30000E94943E7B018C0160915E0570915F053F
:104B4000882777FD8095982F0E94943E9B01AC01A9
:104B5000C801B7010E94A93F7B018C01BE018827D3
:104B600077FD8095982F0E94943E9B01AC01C8016F
:104B7000B7010E94F93D0E94613E709561957F4F9B
:104B800056CFC0915805D091590524CF8091DC04AF
:104B90009091DD04821793070CF0F7C08091EC042C
:104BA0009091ED04821793070CF0F8C08091FC04FB
:104BB0009091FD04821793070CF0F3C080910C05CF
:104BC00090910D05821793070CF0EEC080911C05A3
:104BD00090911D05821793070CF0DAC080912C0587
:104BE00090912D05821793070CF0D5C080913C055C
:104BF00090913D05821793070CF0DEC080914C0523
:104C000090914D05821793070CF0D9C0C0915C05B7
:104C1000D0915D05C217D3070CF056C0B9018827A3
:104C200077FD8095982F0E94943E7B018C016091C6
:104C30005A0570915B05DBCE8091E4049091E50408
:104C4000821793070CF0A1C08091F4049091F504B1
:104C5000821793070CF0A2C080910405909105057E
:104C6000821793070CF09DC0809114059091150553
:104C7000821793070CF098C0809124059091250528
:104C8000821793070CF084C080913405909135050C
:104C9000821793070CF07FC08091440590914505E1
:104CA000821793070CF088C08091540590915505A8
:104CB000821793070CF083C0C0916405D0916505FD
:104CC000C217D3070CF4D9CEC8E0D0E0209709F082
:104CD00079C0662391F44091D6045091D704249F63
:104CE000C001259F900D349F900D11246091D80430
:104CF0007091D9040E9467409ACE6130D1F0623041
:104D000051F1633009F091CE4091E2045091E304F7
:104D1000249FC001259F900D349F900D1124609118
:104D2000E4047091E5040E946740709561957F4F9F
:104D30007ECE4091DA045091DB04249FC001259F70
:104D4000900D349F900D11246091DC047091DD046E
:104D50000E9467406CCE4091DE045091DF04249F96
:104D6000C001259F900D349F900D11246091E004A7
:104D70007091E1040E946740709561957F4F57CE16
:104D8000C0915C05D0915D0549CFC0E0D0E09ECFD9
:104D9000C4E0D0E09BCFC5E0D0E098CFC1E0D0E048
:104DA00095CFC2E0D0E092CFC3E0D0E08FCFC091EA
:104DB0006005D0916105B7CEC6E0D0E087CFC7E0EF
:104DC000D0E084CFC930D10509F448CE662309F07C
:104DD00047C0FE01E295F295F07FFE27E07FFE27B7
:104DE000EA53FB4FC280D380A080B1802C193D09CB
:104DF000B901882777FD8095982F0E94943E7B010A
:104E00008C01C295D295D07FDC27C07FDC27CA52A7
:104E1000DB4F688179816A197B09882777FD809546
:104E2000982F0E94943E9B01AC01C801B7010E94DB
:104E3000A93F7B018C016A817B816C197D098827E0
:104E400077FD8095982F0E94943E9B01AC01C8018C
:104E5000B7010E94F93D0E94613E6A0D7B1DE7CDBE
:104E6000613009F450C0623009F482C0633009F047
:104E7000DCCDFE01E295F295F07FFE27E07FFE2774
:104E8000EA53FB4FC684D784A484B5842C193D090A
:104E9000B901882777FD8095982F0E94943E7B0169
:104EA0008C01C295D295D07FDC27C07FDC27CA5207
:104EB000DB4F6C857D856A197B09882777FD809596
:104EC000982F0E94943E9B01AC01C801B7010E943B
:104ED000A93F7B018C016E857F856C197D09882730
:104EE00077FD8095982F0E94943E9B01AC01C801EC
:104EF000B7010E94F93D0E94613E6A0D7B1D7095CD
:104F000061957F4F94CDFE01E295F295F07FFE27EB
:104F1000E07FFE27EA53FB4FC680D780A480B58090
:104F20002C193D09B901882777FD8095982F0E949B
:104F3000943E7B018C01C295D295D07FDC27C07F47
:104F4000DC27CA52DB4F6C817D816A197B09882777
:104F500077FD8095982F0E94943E9B01AC01C8017B
:104F6000B7010E94A93F7B018C016E817F8165CFD3
:104F7000FE01E295F295F07FFE27E07FFE27EA53DF
:104F8000FB4FC284D384A084B1842C193D09B9019C
:104F9000882777FD8095982F0E94943E7B018C0195
:104FA000C295D295D07FDC27C07FDC27CA52DB4F69
:104FB000688579856A197B09882777FD8095982F00
:104FC0000E94943E9B01AC01C801B7010E94A93F19
:104FD0007B018C016A857B8580CF8F929F92AF92F7
:104FE000BF92CF92DF92EF92FF920F931F93CF93D6
:104FF000DF93C091F102D091F2028091F30290917F
:10500000F40297FDD9C06091DA047091DB046C174B
:105010007D070CF0BDC00FEF1FEF8091EA04909167
:10502000EB048C179D0744F081E09FEF0F3F1907B9
:1050300009F080E0082F10E08091FA049091FB04C1
:105040008C179D072CF08FEF0F3F180709F46CC1E8
:1050500080910A0590910B058C179D072CF09FEF0E
:105060000F3F190709F472C180911A0590911B0531
:105070008C179D072CF08FEF0F3F180709F463C1C1
:1050800080912A0590912B058C179D072CF09FEF9E
:105090000F3F190709F454C180913A0590913B05DF
:1050A0008C179D072CF08FEF0F3F180709F445C1AF
:1050B00080914A0590914B058C179D072CF09FEF2E
:1050C0000F3F190709F436C1E0905A05F0905B05CF
:1050D000EC16FD062CF08FEF0F3F180709F427C1DF
:1050E000209709F458C00115110509F432C19FEF4A
:1050F0000F3F190709F4E9C0F801E295F295F07F36
:10510000FE27E07FFE27EA53FB4FA480B580868010
:105110009780CA19DB09BE01882777FD8095982FF3
:105120000E94943E6B017C01E801C295D295D07F2C
:10513000DC27C07FDC27CA52DB4F6E817F81681974
:105140007909882777FD8095982F0E94943E9B01CE
:10515000AC01C701B6010E94A93F7B018C016C81A3
:105160007D816A197B09882777FD8095982F0E9499
:10517000943E9B01AC01C801B7010E94F93D0E9419
:10518000613E680D791D7093B0046093AF0407C051
:1051900000E010E042CF1092B0041092AF04DF9113
:1051A000CF911F910F91FF90EF90DF90CF90BF9024
:1051B000AF909F908F9008956091E2047091E30406
:1051C0006C177D070CF07EC00FEF1FEF8091F2048B
:1051D0009091F3048C179D0744F081E09FEF0F3FFF
:1051E000190709F080E0082F10E0809102059091E6
:1051F00003058C179D072CF08FEF0F3F180709F45C
:1052000019C180911205909113058C179D072CF000
:105210009FEF0F3F190709F40AC180912205909171
:1052200023058C179D072CF08FEF0F3F180709F40B
:10523000FBC080913205909133058C179D072CF0AF
:105240009FEF0F3F190709F4ECC080914205909140
:1052500043058C179D072CF08FEF0F3F180709F4BB
:10526000DDC080915205909153058C179D072CF05D
:105270009FEF0F3F190709F4CEC0E0906205F09050
:105280006305EC16FD062CF08FEF0F3F180709F4AD
:10529000BFC00115110509F06EC02091E4043091E2
:1052A000E504C29FC001C39F900DD29F900D1124B1
:1052B0000E946740709561957F4F7093B004609332
:1052C000AF046DCF00E010E081CF60915C0570917C
:1052D0005D05882777FD8095982F0E94943E5B019D
:1052E0006C01BE01882777FD8095982F0E94943E1F
:1052F0009B01AC01C601B5010E94A93F5B016C0195
:10530000B701882777FD8095982F0E94943E9B01D6
:10531000AC01C601B5010E94F93D0E94613E709347
:10532000B0046093AF043BCF02E010E091CE08E000
:1053300010E0D6CE07E010E0C7CE06E010E0B8CE11
:1053400005E010E0A9CE04E010E09ACE03E010E002
:105350008BCE2091DC043091DD04C29FC001C39F3D
:10536000900DD29F900D11240E9467407093B0045D
:105370006093AF0414CF8FEF0F3F180709F45DC09F
:10538000F801E295F295F07FFE27E07FFE27EA53D1
:10539000FB4FA484B58486849784CA19DB09BE01B7
:1053A000882777FD8095982F0E94943E6B017C01A1
:1053B000E801C295D295D07FDC27C07FDC27CA5296
:1053C000DB4F6E857F8568197909882777FD809581
:1053D000982F0E94943E9B01AC01C701B6010E9428
:1053E000A93F7B018C016C857D856A197B09882723
:1053F00077FD8095982F0E94943E9B01AC01C801D7
:10540000B7010E94F93D0E94613E680D791D52CF9F
:1054100008E010E03ECF07E010E02FCF06E010E0FC
:1054200020CF05E010E011CF04E010E002CF03E050
:1054300010E0F3CE02E010E0E4CE609164057091DC
:105440006505882777FD8095982F0E94943E5B0123
:105450006C01BE01882777FD8095982F0E94943EAD
:105460009B01AC01C601B5010E94A93F5B016C0123
:10547000B701882777FD8095982F0E94943E9B0165
:10548000AC01C601B5010E94F93D0E94613E12CFF8
:105490008F929F92AF92BF92CF92DF92EF92FF9244
:1054A0000F931F93CF93DF93C091EF02D091F0023F
:1054B0008091F5029091F60297FDD9C06091D604D3
:1054C0007091D7046C177D070CF0BDC00FEF1FEF74
:1054D0008091E6049091E7048C179D0744F081E0E9
:1054E0009FEF0F3F190709F080E0082F10E080912F
:1054F000F6049091F7048C179D072CF08FEF0F3F67
:10550000180709F46CC180910605909107058C1766
:105510009D072CF09FEF0F3F190709F472C180918E
:105520001605909117058C179D072CF08FEF0F3FF4
:10553000180709F463C180912605909127058C17FF
:105540009D072CF09FEF0F3F190709F454C180917C
:105550003605909137058C179D072CF08FEF0F3F84
:10556000180709F445C180914605909147058C17AD
:105570009D072CF09FEF0F3F190709F436C1E0900B
:105580005605F0905705EC16FD062CF08FEF0F3FF7
:10559000180709F427C1209709F458C0011511050F
:1055A00009F432C19FEF0F3F190709F4E9C0F80170
:1055B000E295F295F07FFE27E07FFE27EA53FB4F4E
:1055C000A080B18082809380CA19DB09BE01882740
:1055D00077FD8095982F0E94943E6B017C01E80135
:1055E000C295D295D07FDC27C07FDC27CA52DB4F23
:1055F0006A817B8168197909882777FD8095982FC2
:105600000E94943E9B01AC01C701B6010E94A93FD4
:105610007B018C01688179816A197B09882777FD74
:105620008095982F0E94943E9B01AC01C801B70160
:105630000E94F93D0E94613E680D791D7093AE0491
:105640006093AD0407C000E010E042CF1092AE04BA
:105650001092AD04DF91CF911F910F91FF90EF90C9
:10566000DF90CF90BF90AF909F908F900895609102
:10567000DE047091DF046C177D070CF07EC00FEF25
:105680001FEF8091EE049091EF048C179D0744F07A
:1056900081E09FEF0F3F190709F080E0082F10E02D
:1056A0008091FE049091FF048C179D072CF08FEFE2
:1056B0000F3F180709F419C180910E0590910F054D
:1056C0008C179D072CF09FEF0F3F190709F40AC1B3
:1056D00080911E0590911F058C179D072CF08FEF70
:1056E0000F3F180709F4FBC080912E0590912F05FC
:1056F0008C179D072CF09FEF0F3F190709F4ECC0A2
:1057000080913E0590913F058C179D072CF08FEFFF
:105710000F3F180709F4DDC080914E0590914F05A9
:105720008C179D072CF09FEF0F3F190709F4CEC08F
:10573000E0905E05F0905F05EC16FD062CF08FEF13
:105740000F3F180709F4BFC00115110509F06EC01D
:105750002091E0043091E104C29FC001C39F900DED
:10576000D29F900D11240E946740709561957F4FE4
:105770007093AE046093AD046DCF00E010E081CF74
:105780006091580570915905882777FD8095982F6D
:105790000E94943E5B016C01BE01882777FD8095D5
:1057A000982F0E94943E9B01AC01C601B5010E9456
:1057B000A93F5B016C01B701882777FD8095982F81
:1057C0000E94943E9B01AC01C601B5010E94F93DC7
:1057D0000E94613E7093AE046093AD043BCF02E043
:1057E00010E091CE08E010E0D6CE07E010E0C7CE82
:1057F00006E010E0B8CE05E010E0A9CE04E010E02D
:105800009ACE03E010E08BCE2091D8043091D904D9
:10581000C29FC001C39F900DD29F900D11240E9482
:1058200067407093AE046093AD0414CF8FEF0F3FC9
:10583000180709F45DC0F801E295F295F07FFE27A4
:10584000E07FFE27EA53FB4FA084B18482849384D7
:10585000CA19DB09BE01882777FD8095982F0E9421
:10586000943E6B017C01E801C295D295D07FDC2784
:10587000C07FDC27CA52DB4F6A857B8568197909AE
:10588000882777FD8095982F0E94943E9B01AC015C
:10589000C701B6010E94A93F7B018C01688579850B
:1058A0006A197B09882777FD8095982F0E94943E7E
:1058B0009B01AC01C801B7010E94F93D0E94613E05
:1058C000680D791D52CF08E010E03ECF07E010E0F0
:1058D0002FCF06E010E020CF05E010E011CF04E06C
:1058E00010E002CF03E010E0F3CE02E010E0E4CEDF
:1058F0006091600570916105882777FD8095982FEC
:105900000E94943E5B016C01BE01882777FD809563
:10591000982F0E94943E9B01AC01C601B5010E94E4
:10592000A93F5B016C01B701882777FD8095982F0F
:105930000E94943E9B01AC01C601B5010E94F93D55
:105940000E94613E12CF2F923F924F925F926F92D0
:105950007F928F929F92AF92BF92CF92DF92EF92FF
:10596000FF920F931F938091C004813009F428C2E5
:105970008091FB029091FC0297FD9AC261E00E9427
:10598000852490930C0380930B038091FD029091EA
:10599000FE0297FD85C260E00E94852490930E036D
:1059A00080930D0320916104222309F0FEC190939E
:1059B000EA028093E90280910B0390910C0390938B
:1059C000E8028093E70280910702882309F493C0DC
:1059D0002091EB023091EC0236952795369527956C
:1059E0003093F0022093EF02109207021092EC0223
:1059F0001092EB028091C004813009F408C20E9429
:105A0000482A8091880490918904A0918A04B091D9
:105A10008B048093900490939104A0939204B0938C
:105A200093046091AD047091AE04882777FD809552
:105A3000982F0E94943E7B018C010E94711C209142
:105A4000B1043091B2044091B3045091B404621B8C
:105A5000730B840B950B0E94923E20E030E040EDEA
:105A600052E40E94A93F9B01AC01C801B7010E940A
:105A7000A93F20E034E244E759E40E94F93D9B014C
:105A8000AC01609188047091890480918A0490919E
:105A90008B040E942C3D609388047093890480934A
:105AA0008A0490938B040E94711C6093B1047093DC
:105AB000B2048093B3049093B404809116028130B1
:105AC00009F4C7C18DE093E00E94A11380910D03FA
:105AD00090910E039093F6028093F5021816190622
