:100000000C94BE000C94DD000C94DD000C94DD001B
:100010000C94DD000C94DD000C94DD000C94DD00EC
:100020000C94DD000C94DD000C943E0F0C94DD006C
:100030000C94DD000C94720F0C94DD000C94931959
:100040000C94DD000C94DD000C94DD000C94DD00BC
:100050000C94DD000C94DD000C94DD000C94DD00AC
:100060000C94DD000C9460180C94DD000C94DD0001
:100070000C94DD000C94391A0C94DD000C94DD0016
:100080000C94A4210C94BA210C94DD000C9417213B
:100090000C94DD000C94DD000C94DD000C94DD006C
:1000A0000C94DD000C94DD000C94EB200C940121E9
:1000B0000C94DD000C9454200C94DD000C94DD00B5
:1000C0000C94DD000C94DD000C94DD000C94DD003C
:1000D0000C94DD000C94DD000C94DD000C94DD002C
:1000E0000C94DD00EB11CF119D1160122A125312F6
:1000F000741158112B111311B410B410B410B410A2
:10010000B410B4100711FC10B410B410B410B41033
:10011000B410B410B410B410B410B410B410B410BF
:100120002B119D11F010EB10B410B410B410B410DA
:10013000B410B410B410B410B410B410B410B4109F
:100140002A127411B410B410EB1153121412084A8D
:10015000D73B3BCE016E84BCBFFDC12F3D6C7431DB
:100160009ABD56833DDA3D00C77F11BED9E4BB4C32
:100170003E916BAAAABE000000803F0011241FBE62
:10018000CFEFD1E2DEBFCDBF00E00CBF13E0A0E0B7
:10019000B2E0E8E5F5E602C005900D92A632B1079F
:1001A000D9F715E0A6E2B3E001C01D92A339B1076B
:1001B000E1F70E94DF000C94AB320C9400002F9208
:1001C0003F924F925F926F927F928F929F92AF92E7
:1001D000BF92CF92DF92EF92FF920F931F93DF9324
:1001E000CF9300D00F92CDB7DEB70E9434190E9492
:1001F00020270E94D0210E94091A6B017C010E94D5
:10020000091A9B01AC016093590530935A0540933C
:100210005B0550935C0510925D0510925E0510928F
:100220005F0510926005AA24BB2400E019821A829F
:100230001B821C821FEF222423940E940F1980939B
:1002400049050E9460260E949C2B809149058730B9
:1002500009F4C3C10E94091A6C197D098E099F090E
:100260006E314BE4740740E0840740E0940708F0E7
:1002700093C10E94A2100E944D0B0E94091A9B017B
:10028000AC0160E070E0CB01F0915905E0915A05B6
:1002900080905B0540905C0530905D0550905E0558
:1002A00060905F0570906005B22FBF1BA1E02B1717
:1002B00008F0A0E0F32FFE1BEF2FF1E03E1708F04F
:1002C000F0E09E2E9A1AA92D99249394EA1708F02B
:1002D0009924F929E42FE8198E2EE1E0481508F059
:1002E000E0E0982C9F1AF1E0891408F0F0E0EF2B81
:1002F000F52FF4194F2EF1E0541508F0F0E0842C9E
:100300008E1AE1E0481408F0E0E0FE2B3194E1E0C1
:10031000631508F0E0E0432C4F1AF1E0341408F0C4
:10032000F0E0EF2B5194F1E0751508F0F0E0352C7A
:100330003E1AE1E0531408F0E0E0FE2B6194E1E0A6
:10034000861508F0E0E0962D9F1B81E0691608F005
:1003500080E0E82B71947E1609F08BC0992309F098
:1003600088C0332009F085C0442009F082C088206D
:1003700009F07FC0992009F07CC0A23008F079C054
:10038000A13009F473C080914905863009F4DEC0BC
:100390008F3009F04BC00E94991E809149050817C3
:1003A00009F44BCF0E94E1230E94E82380910B01C6
:1003B000816080930B0180910B01826080930B011F
:1003C00080910B01846080930B01A39A80910B01B3
:1003D000806180930B0180910B01806280930B01FF
:1003E00080910B01806480930B0180910B018068E8
:1003F00080930B0110930C0210930D0210930E02C8
:100400008FEF0E94282480910D020E943C2480914D
:100410000E020E94502480E00E941A2080E00E9478
:10042000E01F109216040091490507CF60E00E947A
:100430002F1890914905892F963009F487C097307D
:1004400008F0ECC0923009F4E4C0933008F0DBC14E
:10045000992309F4BAC1913021F40E94DD239091CF
:100460004905992309F097CF80E099CFB03908F476
:100470008ACF0E94091A9B01AC0160935905309301
:100480005A0540935B0550935C0510925D051092F0
:100490005E0510925F0510926005809161058823CA
:1004A00009F48EC08091F9039091FA03009709F442
:1004B000FBC02091FD033091FE03289FA001299FDE
:1004C000500D389F500D112457FDEEC028173907E5
:1004D0000CF094C240911802240F311D3093FE039A
:1004E0002093FD038217930724F49093FE038093D7
:1004F000FD038091FB039091FC03009709F4DFC09A
:100500002091FF0330910004289FA001299F500DE6
:10051000389F500D112457FDD2C0281739070CF011
:100520007EC240911802240F311D309300042093A5
:10053000FF03821793070CF026CF9093000480935B
:10054000FF0380914905863009F022CF90911D0567
:10055000913009F4F0C2913008F0B5C280E00E94F9
:100560001A2080E00E94E01F0E94012510930C02D7
:1005700010930D0210930E028FEF0E942824809199
:100580000D020E943C2480910E020E945024449A45
:10059000459A9091490565CF0E94121A80914905AC
:1005A000982F9450923008F4A3C1873009F4CBC13E
:1005B000863009F40FC10E94091A6B017C0159CEE3
:1005C0008091F9039091FA039093FE038093FD03C9
:1005D0008091FB039091FC03B0CF0E94091A2981FE
:1005E0003A814B815C81621B730B840B950B683CD9
:1005F00032E1730730E0830730E0930708F42ACE36
:1006000010930C0210930D0210930E0223CE0E9441
:10061000DD230E94E4239091490523CF9A3009F409
:1006200053C09B30F8F4983009F468C0993008F44E
:100630007FC08091DD039091DE03A091DF03B09134
:10064000E003893BFBE09F07F0E0AF07F0E0BF0766
:1006500014F180E00E94E01F80E00E941A20909137
:100660004905FFCE9C3009F429C19C3008F40CC127
:100670009D3009F0F6CE8091DD039091DE03A091CC
:10068000DF03B091E00389355BE1950750E0A507F2
:1006900050E0B507F4F688E20E94E01F88E20E946D
:1006A0001A2090914905DDCE1092FE031092FD03B1
:1006B0008091FB039091FC03009709F021CF1092E9
:1006C00000041092FF035FCE8091DD039091DE0362
:1006D000A091DF03B091E003813A2FE0920720E080
:1006E000A20720E0B2070CF0B4CF88E20E94E01F1E
:1006F00088E20E941A2090914905B3CE8091DD03D3
:100700009091DE03A091DF03B091E003813DE7E02B
:100710009E07E0E0AE07E0E0BE070CF09ACF88E26B
:100720000E94E01F88E20E941A209091490599CE0C
:1007300080914D05823009F4D0C3833008F080C128
:10074000882309F087C30E94012580910B018E7FC9
:1007500080930B0110924E050E94DD2384E10E94DC
:100760001A2084E10E94E01F0E94091A9B01AC013B
:1007700060935505709356058093570590935805DF
:100780008091510590915205A0915305B091540567
:10079000281B390B4A0B5B0B23336FEE360762E0E5
:1007A000460760E0560710F020924D0580910C023C
:1007B0000E94282480910D020E943C2480910E0208
:1007C0000E945024909149054CCE0E94791D909131
:1007D000490547CE80911D05813009F0ECCE9091FE
:1007E0001304923008F0E7CE90911604992309F093
:1007F00007C54EEF40930C0210930D0210930E02AA
:1008000080931604D8CE9430D1F0953008F4FFCE02
:1008100080910C020E94282480910D020E943C24A9
:1008200080910E020E9450240E94DD2389E10E94E3
:10083000E01F89E10E941A209091490512CE809113
:100840000B018E7F80930B0180910B018D7F809334
:100850000B0180910B018B7F80930B01A3988091FA
:100860000B018F7E80930B0180910B018F7D809314
:100870000B0180910B018F7B80930B0180910B0109
:100880008F7780930B0192CF8091DD039091DE03EF
:10089000A091DF03B091E003893833E1930730E0A2
:1008A000A30730E0B3070CF0D4CE88E20E94E01F2B
:1008B00088E20E941A2090914905D3CD8091DD03F2
:1008C0009091DE03A091DF03B091E003813747E10F
:1008D000940740E0A40740E0B4070CF4DCCE80E0CD
:1008E0000E94E01F80E00E941A2090914905B9CD36
:1008F0000E941D306EE170E00E94852FA80EB91E87
:100900005FE7A522BB2480911604813009F4DDC283
:10091000813008F095C28A2D809580930C02209238
:10092000160480E2A816B10408F0ECC080910D0214
:100930008F3F09F440CE80910E028F3F09F43BCEE9
:1009400010930C0238CE80919400909195000E94F3
:1009500022300E941D306EE170E00E94852F4C0114
:100960008A0C9B1CFFE78F229924882D8095809309
:100970000C0280919400909195000E9422300E9478
:100980001D306EE170E00E94852F6C01C80CD91CEF
:100990002FE7C222DD248C2D809580930D0280915B
:1009A0009400909195000E9422300E941D306EE1CB
:1009B00070E00E94852F5C01AC0CBD1C3FE7A322B8
:1009C000BB248A2D809580930E0280919400909193
:1009D00095000E9422300E941D3060E870E00E9465
:1009E000852F8032910508F09FC010930C020E9461
:1009F000091A69837A838B839C83DDCD82179307E1
:100A00000CF077CD40911802241B31093093FE037E
:100A10002093FD03281739070CF06BCD66CD8217A4
:100A200093070CF0B0CC40911802241B310930938D
:100A300000042093FF03281739070CF0A4CC7DCDC8
:100A4000843009F41DC3843008F4C3C2853009F032
:100A5000ADCE0E94012580910B018F7B80930B010D
:100A600080910B018F7780930B010E94091A9B01E3
:100A7000AC0160935505709356058093570590938C
:100A800058058091510590915205A0915305B09160
:100A90005405281B390B4A0B5B0B2B329CE13907A1
:100AA00090E0490790E0590708F480CE0E94091AA7
:100AB00060935105709352058093530590935405AC
:100AC00010924D0573CE923011F0982FCACC9091B0
:100AD0001E059923D1F30E941A256091110470918B
:100AE00012048EEF9FE00E94F2310E9401258AEAF3
:100AF00061E00E942F1810921E0510921D05909122
:100B00004905AFCC90E4A916B10408F0A7C28091C2
:100B10000C028F3F09F44FCD80910E028F3F09F4F4
:100B20004ACD10930D0247CD8034910508F003C3E0
:100B300010930D025CCF0E941A2580910C020E9436
:100B4000282480910D020E943C2480910E020E9474
:100B500050244498459880912005882309F47FCD3E
:100B6000109220058091610361E00E942F1880910E
:100B7000620361E00E942F1880913103909132034B
:100B800061E00E942F188091310390913203892FE8
:100B900061E00E942F188091630361E00E942F188A
:100BA0008091640361E00E942F1880913503909139
:100BB000360361E00E942F1880913503909136032F
:100BC000892F61E00E942F188091650361E00E94E7
:100BD0002F188091660361E00E942F1880913903DD
:100BE00090913A0361E00E942F188091390390910F
:100BF0003A03892F61E00E942F188091670361E01A
:100C00000E942F188091680361E00E942F18809144
:100C10003D0390913E0361E00E942F1880913D03B7
:100C200090913E03892F61E00E942F188091690303
:100C300061E00E942F1880916A0361E00E942F18E2
:100C4000809141039091420361E00E942F188091AE
:100C5000410390914203892F61E00E942F188091F7
:100C60006B0361E00E942F1880916C0361E00E9489
:100C70002F18809145039091460361E00E942F1840
:100C80008091450390914603892F61E00E942F18BF
:100C900080916D0361E00E942F1880916E0361E0E6
:100CA0000E942F188091490390914A0361E00E94AD
:100CB0002F188091490390914A03892F61E00E9487
:100CC0002F1880916F0361E00E942F1880917003AC
:100CD00061E00E942F1880914D0390914E0361E0D6
:100CE0000E942F1880914D0390914E03892F61E04F
:100CF0000E942F188091710361E00E942F1880914B
:100D0000720361E00E942F18809151039091520369
:100D100061E00E942F188091510390915203892F16
:100D200061E00E942F188091730361E00E942F18E8
:100D30008091740361E00E942F1880915503909177
:100D4000560361E00E942F1880915503909156033D
:100D5000892F61E00E942F188091750361E00E9445
:100D60002F188091760361E00E942F18809159031B
:100D700090915A0361E00E942F188091590390913D
:100D80005A03892F61E00E942F188091770361E058
:100D90000E942F188091780361E00E942F188091A3
:100DA0005D0390915E0361E00E942F1880915D03C6
:100DB00090915E03892F61E00E942F188091260593
:100DC00061E00E942F188091270561E00E942F1892
:100DD0008091280561E00E942F188091290561E02B
:100DE0000E942F1880912A0561E00E942F1880919F
:100DF0002B0561E00E942F188091210561E00E947F
:100E00002F188091490561E00E942F1880910301FD
:100E100090E08072907095958795959587959595BA
:100E20008795959587959595879561E00E942F18F0
:100E30008091130461E00E942F189091490511CB15
:100E4000823009F06ECD8A2D809580930E0210922B
:100E5000160467CD813009F0A9CC0E94012580914C
:100E60000B018B7F80930B0110924F050E94DD23B5
:100E700084E10E941A2084E10E94E01F80917303A4
:100E800090917403E1E080399E070CF43AC180919F
:100E9000750390917603F1E080399F070CF431C11E
:100EA000809171039091720321E0803992070CF4D4
:100EB00028C1809177039091780331E080399307BE
:100EC0000CF41FC110924E0571CC8A2D8095809331
:100ED0000D0262E06093160424CD0E9401258091EA
:100EE0000B018F7E80930B010E94E1230E94091A5F
:100EF0009B01AC016093550570935605809357058F
:100F0000909358058091510590915205A0915305F9
:100F1000B0915405281B390B4A0B5B0B23336FEE42
:100F2000360762E0460760E0560708F052C180913C
:100F3000030184FF33C110924F05809150058F5FEC
:100F400080935005853108F071C1809173039091B1
:100F50007403209171033091720341E0223C340705
:100F6000ACF451E0833C95078CF0409175035091AF
:100F7000760361E0433C56074CF040917703509173
:100F80007803E1E0433C5E070CF076C140917703C3
:100F900050917803F1E0423C5F070CF0EAC041E079
:100FA000233C34070CF4E5C051E0833C95070CF476
:100FB000E5C0809175039091760361E0833C9607CC
:100FC0000CF053C184E10E94E01F86EF0E941A20BA
:100FD000EDCB0E94012580910B018F7B80930B014B
:100FE0000E94091A9B01AC01609355057093560548
:100FF0008093570590935805809151059091520523
:10100000A0915305B0915405281B390B4A0B5B0B7B
:101010002D3C66E6360764E0460760E0560708F4B4
:1010200091C08091C5039091C603E3E08A379E0783
:1010300008F494C08CEE0E941A208CEE0E94E01FEF
:101040000E94091A609351057093520580935305CD
:1010500090935405F4E0F0934D05A8CBE0E6AE166E
:10106000B10408F0A8CA80910C028F3F09F4A3CA0A
:1010700080910D028F3F09F49ECA10930E029BCA05
:101080000E94012580910B018F7B80930B01809141
:101090000B018F7780930B010E94091A9B01AC0111
:1010A00060935505709356058093570590935805A6
:1010B0008091510590915205A0915305B09154052E
:1010C000281B390B4A0B5B0B2F3865E2360760E0B3
:1010D000460760E0560708F469CB84E10E941A20B5
:1010E0008CEE0E94E01F0E94091A609351057093D4
:1010F0005205809353059093540585E080934D05E8
:1011000055CB80914E058F5F80934E058B3008F450
:101110004DCB10924F05109250050E94091A609312
:10112000510570935205809353059093540542E006
:1011300040934D053BCB8036910508F058CC109379
:101140000E0255CC8091030184FD30CB10925005E6
:1011500010924F0582E0982E90924D050E94091A38
:1011600060935105709352058093530590935405F5
:101170001DCBE1E0833C9E070CF024CF80917503EA
:1011800090917603F1E0833C9F070CF448C086EF12
:101190000E94E01F84E10E941A2008CB10925005A3
:1011A0008091730390917403E1E0833C9E072CF1DE
:1011B0002091750330917603F1E0233C3F07ECF07A
:1011C00020914F052F5F20934F052B3F08F4C1CE90
:1011D000EBCA8CEE0E941A208CEE0E94E01F0E9447
:1011E000091A6093510570935205809353059093AB
:1011F000540584E080934D05D9CA10924F05A9CEBD
:10120000913041F1923009F0D6C910930C0210933D
:101210000D028EEF80930E0210921604CCC984E169
:101220000E941A2084E10E94E01FC0CA80E00E9450
:10123000E01F80E00E941A200E94091A6093510565
:1012400070935205809353059093540593E09093C7
:101250004D05ACCA10930C025EEF50930D02109333
:101260000E0262E060931604A6C984E10E94E01FAA
:1012700081EF0E941A209ACA81EF0E94E01F84E148
:101280000E941A2093CA81E090E021E00DB407FC8F
:101290000AC0019637E280319307C0F3209314040B
:1012A0000DB407FEF6CF089584B1807F84B984B170
:1012B000876084B980E58CBD8DB581608DBD089552
:1012C0001CBC1DBC0895442309F1A62FB72FE82F9D
:1012D000F92F91E021912EBD21E030E00DB407FC03
:1012E0000BC02F5F3F4F57E220313507B8F3909383
:1012F00014040DB407FEF5CF20911404222331F419
:101300002EB52D932E2F281B241720F30895662326
:10131000E9F0E82FF92F91E021912EBD21E030E096
:101320000DB407FC0BC02F5F3F4F47E2203134075D
:10133000B8F3909314040DB407FEF5CF2091140474
:10134000222321F42E2F281B261730F308958EBD5B
:1013500081E090E021E00DB407FC0AC0019637E27D
:1013600080319307C0F3209314040DB407FEF6CF29
:101370008EB508950F931F93DF93CF9300D0CDB711
:10138000DEB7289880E20E94A7098DE00E94A70995
:10139000289A289883E20E94A70981E00E94A70961
:1013A000289A809111049091120499838A831B8258
:1013B000289880E30E94A7098E010F5F1F4FC80184
:1013C00063E00E948709289A28988AE20E94A70968
:1013D000C80163E00E948709289A289881E20E9448
:1013E000A70981E00E94A709289A289882E20E9412
:1013F000A70981E00E94A709289A289884E20E9400
:10140000A70982E10E94A709289A289885E20E94EC
:10141000A70988E20E94A709289A289881E30E94D8
:10142000A7098DE00E94A709289A289880E50E94C4
:10143000A70983E70E94A709289A28988CE30E94AD
:10144000A70981E00E94A709289A28988DE30E94A5
:10145000A70986E00E94A709289A289880E20E949E
:10146000A7098FE00E94A709289A0F900F900F906C
:10147000CF91DF911F910F9108952C9A289A0E9485
:10148000BA090895CF93DF93EC012C9828988AE24B
:101490000E94A709CE0165E00E948709289A2C9A2C
:1014A000DF91CF910895CF93DF93EC01289880E3EB
:1014B0000E94A709CE0165E00E948709289ADF9162
:1014C000CF91089580916505882311F080E00895FB
:1014D00028988FEF0E94A709289A80740895DF93B7
:1014E000CF930F92CDB7DEB71982289887E10E947B
:1014F000A709BE016F5F7F4FCB0141E00E946309E6
:10150000289A898181700F90CF91DF910895289852
:1015100082EE0E94A709289A0895CF93DF93EC01E9
:10152000289881E60E94A709CE01BE014DE00E94E5
:101530006309289A289887E20E94A70980E40E94FC
:10154000A709289ADF91CF910895DF93CF930F9247
:10155000CDB7DEB728988F71806269830E94A70992
:101560006981862F0E94A709289A0F90CF91DF9159
:1015700008950F931F93DF93CF930F92CDB7DEB7EC
:101580008B0128988F7149830E94A709C801B8016F
:1015900049810E946309289A0F90CF91DF911F9192
:1015A0000F9108950F931F93DF93CF930F92CDB7B1
:1015B000DEB78B0128988F71806249830E94A7094A
:1015C000C8014981642F0E948709289A0F90CF9102
:1015D000DF911F910F9108950F931F93DF93CF9386
:1015E0000F92CDB7DEB78C01809165058823E1F7B6
:1015F0002C9881E080936505289880E269830E9499
:10160000A7098AE40E94A709289A289881EE0E94D7
:10161000A709289A289880EA0E94A709C801698129
:101620000E948709289A2C9A0F90CF91DF911F91E1
:101630000F910895EF92FF920F931F93DF93CF9333
:101640000F92CDB7DEB7182F062F289881EE998319
:101650000E94A709289A289888EA0E94A7099981D8
:10166000002361F0612F792F7B01F70181917F01C8
:101670000E94A7098E2D811B8017B8F3289A0F901E
:10168000CF91DF911F910F91FF90EF9008952898CF
:1016900081EE0E94A709289A08951F93CF93DF93A4
:1016A00080916505882321F0DF91CF911F910895E6
:1016B00028988FEF0E94A709289A86FFF5CF80917E
:1016C0001304826080931304289887E20E94A7097C
:1016D00080E70E94A709289A289881E60E94A70916
:1016E00083E895E0BC014DE00E946309289A2898A0
:1016F00087E20E94A70980E40E94A709289A2898F7
:1017000082EE0E94A709289A60918305662309F456
:1017100095C15091870540918805E09184057091AD
:101720008505252F30E02F773070309310042093FB
:101730000F04842F90E08F77907090930E04809325
:101740000D0457FD7FC2220F331F220F331F309528
:1017500021953F4F3093FA032093F90347FD7CC254
:10176000880F991F880F991F909581959F4F90938F
:10177000FC038093FB0342E02130340744F040E057
:1017800052E05093FA034093F90320E032E042E044
:101790008130940734F080E092E09093FC038093D2
:1017A000FB034EEF2030340734F440E05EEF5093FB
:1017B000FA034093F9032EEF8030920734F480E06F
:1017C0009EEF9093FC038093FB03262F30E0309331
:1017D0007C0520937B05F0E0F0937E05E0937D058A
:1017E000C72FD0E0D0938005C0937F05922F882724
:1017F000821B930B24E630E0B9010E94712F162F53
:10180000109510930C025E2F44274E1B5F0BCA01EC
:10181000B9010E94712F609560930E025C2F4427DE
:101820004C1B5D0BCA01B9010E94712F609560933A
:101830000D02812F0E94282480910D020E943C24D9
:1018400080910E020E9450248091860580FF02C183
:10185000449881FF02C14598982F82FF02C121E080
:101860002093120284FD01C186FF06C181E08093AE
:10187000620597FD05C1109263058091890580FF7F
:1018800006C180910B018E7F80930B0180918905A9
:1018900081FF06C180910B018D7F80930B018091A8
:1018A000890582FF06C180910B018B7F80930B011C
:1018B0008091890583FF06C1A3988091890584FFE3
:1018C00006C180910B018F7E80930B018091890569
:1018D00085FF06C180910B018F7D80930B01809164
:1018E000890586FF06C180910B018F7B80930B01D8
:1018F0008091890587FD06C180910B0180688093E6
:101900000B0180910B0280936B05853009F406C1B1
:10191000863008F05FC1833009F40EC2843009F0CC
:101920003FC09091690380916A0390936C05809306
:101930006D05909171038091720390936E05809371
:101940006F05909173038091740390937005809359
:101950007105909175038091760390937205809341
:101960007305909177038091780390937405809329
:1019700075059091260580912705909376058093B3
:10198000770590912805809129059093780580939B
:1019900079058091210580937A0585E080930B027B
:1019A000289881EE0E94A709289A289888EA0E9420
:1019B000A70980916B050E94A70980916C050E9480
:1019C000A70980916D050E94A70980916E050E946C
:1019D000A70980916F050E94A709809170050E9458
:1019E000A709809171050E94A709809172050E9444
:1019F000A709809173050E94A709809174050E9430
:101A0000A709809175050E94A709809176050E941B
:101A1000A709809177050E94A709809178050E9407
:101A2000A709809179050E94A70980917A050E94F3
:101A3000A709289ADF91CF911F910895E09184051D
:101A4000EE2309F412C150918705409188057091E9
:101A5000850567CE449A81FDFECE459A982F82FD7A
:101A6000FECE1092120284FFFFCE0E94202790919A
:101A70008605892F86FDFACE1092620597FFFBCE70
:101A800081E0809363058091890580FDFACE809185
:101A90000B01816080930B018091890581FDFACE55
:101AA00080910B01826080930B018091890582FDFA
:101AB000FACE80910B01846080930B01809189059F
:101AC00083FDFACEA39A8091890584FDFACE809198
:101AD0000B01806180930B018091890585FDFACE11
:101AE00080910B01806280930B018091890586FDB6
:101AF000FACE80910B01806480930B01809189055F
:101B000087FFFACE80910B018F7780930B01809134
:101B10000B0280936B05853009F0FACE809131037A
:101B20009091320380936C05809131039091320340
:101B300090936D05809135039091360380936E05E7
:101B4000809135039091360390936F05809139030E
:101B500090913A03809370058091390390913A03F4
:101B60009093710580913D0390913E03809372059F
:101B700080913D0390913E039093730580914503BE
:101B8000909146038093740580914503909146039C
:101B9000909375058091490390914A03809376054F
:101BA0008091490390914A039093770580914D036A
:101BB00090914E038093780580914D0390914E0350
:101BC000909379058091490580937A0586E080930A
:101BD0000B02E6CE863009F45DC0873009F0E0CE16
:101BE0003091DD032091DE039091DF038091E003CB
:101BF00030936C0520936D0590936E0580936F056F
:101C00003091D9032091DA039091DB038091DC03BA
:101C1000309370052093710590937205809373053E
:101C20001092740510927505109276051092770542
:101C3000109278051092790510927A0583E08093CE
:101C40000B02AECE220F331F220F331F3093FA0345
:101C50002093F90347FF84CD880F991F880F991FA0
:101C60009093FC038093FB0386CD709185057723C9
:101C700061F480918605883041F4509187055523A1
:101C800009F4C0C0409188054CCD50918705409122
:101C9000880547CD809141039091420380936C0564
:101CA000809141039091420390936D05809151037F
:101CB0009091520380936E0580915103909152034D
:101CC00090936F0580915503909156038093700512
:101CD000809155039091560390937105809159031B
:101CE00090915A03809372058091590390915A0301
:101CF0009093730580915D0390915E0380937405CA
:101D000080915D0390915E039093750590912A05F3
:101D100080912B0590937605809377059091C5036C
:101D20008091C603909378058093790510927A0587
:101D300087E080930B0234CE90916103809162031F
:101D400090936C0580936D0590916303809164037B
:101D500090936E0580936F05909165038091660363
:101D6000909370058093710590916703809168034B
:101D7000909372058093730590916B0380916C032F
:101D8000909374058093750590916D0380916E0317
:101D9000909376058093770590916F0380917003FF
:101DA0009093780580937905309103018091030128
:101DB0002091030190E0807290709595879595959C
:101DC0008795959587959595879595958795880F8E
:101DD000991F221F2227221F220F220F282B832F19
:101DE00090E08071907095958795959587959595DC
:101DF000879595958795282B20937A0584E0809385
:101E00000B02CECD40918805442379F01092100446
:101E100010920F04842F90E08F77907090930E04AF
:101E200080930D0420E030E08ECC8CE30E949D195D
:101E3000509187054091880560918305E091840564
:101E4000709185056ECCCF93DF93C8E6D0E0188201
:101E5000ACE6B0E01C92E0EBF0E010821092B10032
:101E6000109270008881826088838C9180688C9346
:101E7000808182608083DF91CF9108951F920F92BD
:101E80000FB60F9211248F9380911202882321F1B3
:101E90008091030186FD20C0809168008D7F809332
:101EA000680080916C008F7780936C0081E0809354
:101EB00013028DE08093B3008091B100866080931F
:101EC000B1008091700082608093700010922803AE
:101ED0001092290310922A038F910F900FBE0F903A
:101EE0001F9018951F920F920FB60F9211242F93E7
:101EF0003F934F935F938F939F938091B100887F1F
:101F00008093B100809113028823A9F0809103018E
:101F100086FF65C080916800826080936800809130
:101F20006C00806880936C008FEF9FEF90930202AB
:101F30008093010249C080910102909102022FEF2B
:101F40008F3F920709F463C08130910509F498C06E
:101F50009C01225030402530310508F467C09C01B7
:101F6000275030402630310508F0BDC026E32093CD
:101F7000B3002091B10026602093B1002091700041
:101F80002260209370002091030130E020743070B3
:101F90000024220F331F001C220F331F001C232F8D
:101FA000302D4CE050E0481B590B02C0220F331F6C
:101FB0004A95E2F740912803420F40932803019687
:101FC00090930202809301029F918F915F914F91B4
:101FD0003F912F910F900FBE0F901F901895109268
:101FE000130283E38093B3008091B10086608093F5
:101FF000B100809170008260809370008091010236
:10200000909102022FEF8F3F9207C9F6DDCF20910A
:10201000030126FF52C020916800226020936800CF
:1020200020916C00206820936C00CECF26E3209393
:10203000B3002091B10026602093B1002091700080
:102040002260209370002091030130E020743070F2
:102050000024220F331F001C220F331F001C232FCC
:10206000302D46E050E0481B590B02C0220F331FB1
:102070004A95E2F740912903420F409329039FCFED
:102080002091030130E020743070022E232F000CC9
:10209000221F330B000C221F331F20932A0326E339
:1020A0002093B3002091B10026602093B1002091CD
:1020B000700022602093700082CF8CE18093B30087
:1020C0008091B10086608093B10080917000826041
:1020D00080937000109228031092290310922A0313
:1020E00081E090E06DCF8D30910509F068CF1092BE
:1020F00070008091680082608093680080916C001D
:10210000806880936C008FEF9FEF90930202809322
:10211000010280912A038093000280912903809319
:102120002603809128038093270381E08093220572
:102130004BCF8091000208958091260308958091ED
:1021400027030895809112028823B1F1809122051E
:10215000882391F1E0912703E09321051092220555
:10216000F0E0E533F10548F12091F9033091FA03ED
:102170008091FB039091FC0337FD27C0359527958F
:10218000359527953093100420930F0497FD09C0CF
:10219000959587959595879590930E0480930D045A
:1021A0000895909581959F4F9595879595958795DD
:1021B00090930E0480930D040895EE58FF4FEE0F98
:1021C000FF1F0590F491E02D1994309521953F4F14
:1021D000D5CF8093620510926305C6CF1092620539
:1021E00081E0809363052091F9033091FA03809197
:1021F000FB039091FC03C0CF109262052091F9037C
:102200003091FA038091FB039091FC03B5CF81E0FC
:10221000809362052091F9033091FA038091FB03CA
:102220009091FC03A9CF8091FB039091FC030F9741
:102230009093FC038093FB032EEF803092079CF574
:1022400080E09EEF9093FC038093FB032091F903C1
:102250003091FA0391CF2091F9033091FA038091E4
:10226000F7039091F8032817390724F02091FB0316
:102270003091FC032F5030403093FA032093F90340
:10228000C9013093FC032093FB034EEF2030340749
:1022900034F440E05EEF5093FA034093F9034EEFBD
:1022A000203034076CF22091F9033091FA0364CFA7
:1022B0002091F9033091FA032F5030403093FA0304
:1022C0002093F9034EEF203034070CF017C180E063
:1022D0009EEF9093FA038093F9038091FB03909112
:1022E000FC0320E830E04ECF2091F9033091FA034F
:1022F0002F5030403093FA032093F9038091FB0371
:102300009091FC030F969093FC038093FB034EEF98
:102310002030340734F420E03EEF3093FA0320936A
:10232000F90342E0813094070CF426CF80E092E07C
:102330009093FC038093FB031FCF2091F90330910E
:10234000FA038091FB039091FC03821793070CF42E
:10235000DAC09C01215F3F4F3093FA032093F903C9
:102360000F969093FC038093FB0342E021303407E7
:1023700034F020E032E03093FA032093F90322E0B6
:10238000813092070CF48FCF80E092E09093FC03B1
:102390008093FB032091F9033091FA03EDCE209155
:1023A000F9033091FA03215F3F4F3093FA032093F2
:1023B000F90342E0213034070CF4A0C080E092E041
:1023C0009093FA038093F9038091FB039091FC03AF
:1023D00020E830E0D7CE8091230590E0019665E0BB
:1023E00070E00E94852F80932305882309F08DC01B
:1023F000449A459A10920E028FEF80930D028093BB
:102400000C020E94282480910D020E943C2480919D
:102410000E020E9450242091F9033091FA0380911A
:10242000FB039091FC03A8CE8091240590E00196D7
:102430008370907080932405823009F4CFCE83306E
:1024400009F453C0813009F4C4CE10926205109291
:1024500063058ACE2091F9033091FA03215F3F4F43
:102460003093FA032093F9038091FB039091FC03CE
:102470000F979093FC038093FB0342E021303407D5
:1024800034F020E032E03093FA032093F9034EEF6A
:10249000803094070CF070CE80E09EEF9093FC03A8
:1024A0008093FB0369CE1092FA031092F903109205
:1024B000FC031092FB0380E090E020E030E05ECE71
:1024C0008091FB039091FC030F969093FC03809303
:1024D000FB0322E0813092070CF4E5CE80E092E02D
:1024E0009093FC038093FB03DECE81E08093620532
:1024F000809363052091F9033091FA038091FB03E7
:102500009091FC0339CEC90125CF813061F0823032
:1025100091F08330D9F08FEF80930E0280930D02FB
:1025200080930C026ECF8FEF80930E0210920D02FB
:1025300080930C0266CF449845988FEF80930E02EB
:1025400080930D0210920C0280E05BCF10920E027D
:1025500010920D0210920C0280E053CF08950F9359
:102560001F93CF93DF93FC0180819181009709F441
:10257000B8C0209138053091390541E02E3034073C
:102580000CF489C0181619060CF014C188E691E005
:10259000821B930B959587959595879529E130E05A
:1025A000281B390B309304022093030280916705A6
:1025B00090916805909382058093810520813181F7
:1025C00037FDD3C04091F1035091F203B901641B70
:1025D000750BAB0170936805609367052091050446
:1025E00030910604240F351F309306042093050410
:1025F00076E0213437070CF485C020E436E03093D0
:1026000006042093050460EC72E19A01220F331F47
:10261000240F351F220F331F220F331F220F331FAA
:10262000240F351F00811181C0910302D091040253
:102630000C9FD0010D9FB00D1C9FB00D11242A0FCF
:102640003B1F841B950B880F991F280F391F260FDE
:10265000371F309304042093030437FD69C012161A
:1026600013060CF06FC08081918197FD89C07DE5D4
:10267000213C37070CF466C080EC9DE59093040480
:102680008093030480E092E091838083DF91CF9177
:102690001F910F910895243B310594F42A3531059B
:1026A0007CF4181619060CF093C0359527953595CE
:1026B0002795275E3F4F309304022093030276CF85
:1026C0001816190694F584EB90E0821B930B9595F0
:1026D0008795959587954996909304028093030278
:1026E00065CF1092060410920504109268051092AE
:1026F00067051092820510928105DF91CF911F919D
:102700000F91089569EF203C36074CF420EC39EF27
:10271000309306042093050460E47DEE76CFB90182
:10272000660F771F620F731F70CF84EB90E030CF7E
:102730008081918197FD06C01092040410920304D9
:1027400020E030E082EA2034380704F580E492EAA1
:10275000909304048093030480E09EEF9183808330
:10276000DF91CF911F910F9108954091F103509106
:10277000F203420F531F50936805409367052ECF15
:10278000109204041092030420E030E03595279560
:102790003595279535952795359527953183208350
:1027A00042E0213034070CF06DCF6EEF2030360759
:1027B0009CF26CCF88E691E0821B930B95958795F0
:1027C0009595879549969093040280930302EECEE7
:1027D000359527953595279589E190E0821B930BD8
:1027E0009093040280930302E1CE0F931F93CF9343
:1027F000DF93FC0180819181009709F4B8C020919A
:1028000038053091390541E02E3034070CF489C089
:10281000181619060CF014C188E691E0821B930B80
:10282000959587959595879529E130E0281B390B7B
:1028300030930602209305028091900590919105B6
:1028400090936A05809369052081318137FDD3C05B
:102850004091F3035091F403B901641B750BAB0174
:1028600070939105609390052091070430910804BE
:10287000240F351F309308042093070476E0213499
:1028800037070CF485C020E436E030930804209329
:10289000070460EC72E19A01220F331F240F351FE9
:1028A000220F331F220F331F220F331F240F351F18
:1028B00000811181C0910502D09106020C9FD001C8
:1028C0000D9FB00D1C9FB00D11242A0F3B1F841BC0
:1028D000950B880F991F280F391F260F371F30932C
:1028E00002042093010437FD69C0121613060CF090
:1028F0006FC08081918197FD89C07DE5213C3707BC
:102900000CF466C080EC9DE5909302048093010472
:1029100080E092E091838083DF91CF911F910F91AE
:102920000895243B310594F42A3531057CF41816BA
:1029300019060CF093C03595279535952795275E98
:102940003F4F309306022093050276CF18161906E2
:1029500094F584EB90E0821B930B95958795959564
:1029600087954996909306028093050265CF109251
:10297000080410920704109291051092900510928D
:102980006A0510926905DF91CF911F910F9108950B
:1029900069EF203C36074CF420EC39EF3093080403
:1029A0002093070460E47DEE76CFB901660F771FB0
:1029B000620F731F70CF84EB90E030CF80819181E4
:1029C00097FD06C0109202041092010420E030E04E
:1029D00082EA2034380704F580E492EA90930204F6
:1029E0008093010480E09EEF91838083DF91CF91FB
:1029F0001F910F9108954091F3035091F403420FFA
:102A0000531F50939105409390052ECF10920204CE
:102A10001092010420E030E03595279535952795F3
:102A200035952795359527953183208342E02130D0
:102A300034070CF06DCF6EEF203036079CF26CCF70
:102A400088E691E0821B930B9595879595958795E0
:102A500049969093060280930502EECE3595279510
:102A60003595279589E190E0821B930B90930602A0
:102A700080930502E1CEFC0180819181009709F4E9
:102A80007BC0A0919005B0919105B0936A05A09389
:102A900069052081318137FD89C08091F3039091D0
:102AA000F403A901481B590BCA01509391054093A7
:102AB00090052091070430910804280F391F3093A6
:102AC00008042093070456E0213435070CF461C054
:102AD00020E436E0309308042093070460E87CE0AB
:102AE0009C01220F331F280F391F220F331F220F83
:102AF000331F220F331F280F391F40815181440F8C
:102B0000551F440F551F440F551F240F351FAD018E
:102B1000481B590BCA01880F991F840F951F280F56
:102B2000391F260F371F309302042093010437FD0D
:102B30004CC0121613060CF052C08081918197FD93
:102B400067C05DE5213C35070CF449C080EC9DE58C
:102B500090930204809301042CED35E0225E3F4FF8
:102B60003183208342E0213034070CF448C080E0F8
:102B700092E09183808308951092080410920704D4
:102B8000109291051092900510926A0510926905B5
:102B9000089549EF203C3407A4F420EC39EF30933A
:102BA00008042093070460E873EF9ACF8091F30341
:102BB0009091F403820F931F909391058093900559
:102BC00078CFB901660F771F8BCF8081918197FDF8
:102BD00006C0109202041092010420E030E082EA64
:102BE00020343807DCF480E492EA90930204809366
:102BF000010424E23AEF2E513040318320835EEF0E
:102C00002030350724F480E09EEF9183808308957F
:102C1000109202041092010420E030E035952795CF
:102C200035952795359527953595279531832083BB
:102C3000121613060CF492CF21153105E1F6089512
:102C4000FC0180819181009709F47BC0A091670508
:102C5000B0916805B0938205A093810520813181F0
:102C600037FD89C08091F1039091F203A901481BBF
:102C7000590BCA01509368054093670520910504DC
:102C800030910604280F391F309306042093050461
:102C900056E0213435070CF461C020E436E030936F
:102CA00006042093050460E87CE09C01220F331F9A
:102CB000280F391F220F331F220F331F220F331FFC
:102CC000280F391F40815181440F551F440F551F54
:102CD000440F551F240F351FAD01481B590BCA0166
:102CE000880F991F840F951F280F391F260F371F34
:102CF000309304042093030437FD4CC012161306CE
:102D00000CF052C08081918197FD67C05DE5213C48
:102D100035070CF449C080EC9DE590930404809342
:102D200003042CED35E0225E3F4F3183208342E0E7
:102D3000213034070CF448C080E092E09183808316
:102D400008951092060410920504109268051092DE
:102D500067051092820510928105089549EF203C85
:102D60003407A4F420EC39EF3093060420930504D3
:102D700060E873EF9ACF8091F1039091F203820F94
:102D8000931F909368058093670578CFB901660F0C
:102D9000771F8BCF8081918197FD06C0109204042C
:102DA0001092030420E030E082EA20343807DCF49B
:102DB00080E492EA909304048093030424E23AEFBF
:102DC0002E513040318320835EEF2030350724F4CC
:102DD00080E09EEF91838083089510920404109206
:102DE000030420E030E035952795359527953595F6
:102DF00027953595279531832083121613060CF4F9
:102E000092CF21153105E1F6089585B7806185BF20
:102E10008FEF81B912B897EF94B990EE95B990EF12
:102E200097B990EB98B99CEF9AB993E09BB98DB99B
:102E30001EB810BA83BB80914C058823E1F0813025
:102E4000D1F0823051F19FEF909301011092020175
:102E50009FE0909304018823A9F4909105011092BA
:102E60000501109207019FEF90930A01882329F42E
:102E700010920B01089514BAE6CF8130C9F3823065
:102E800041F00895813011F0823059F79093050197
:102E9000E8CF87EF80930B01089598E094BBD3CFE0
:102EA0001092B8001092BC000895589A599A109246
:102EB000B90081E08093B800089594EA9093BC0033
:102EC0009091BC0097FFFCCF9091B900987F98300B
:102ED00021F0903111F081E008958093BB0084E8E7
:102EE0008093BC008091BC0087FFFCCF9091B9001B
:102EF000987F983121F081E0903419F0089580E0B6
:102F0000089580E0089524EA34E844E92093BC0061
:102F10009091BC0097FFFCCF9091B900987F9830BA
:102F200011F0903199F78093BB003093BC009091E1
:102F3000BC0097FFFCCF9091B900987F903219F0B8
:102F4000983509F008954093BC009091BC0094FD21
:102F5000FCCFDCCF94EA9093BC009091BC0097FF2B
:102F6000FCCF9091B900987F983021F0903111F00A
:102F700081E008958093BB0084E88093BC00809139
:102F8000BC0087FFFCCF9091B900987F983121F069
:102F900081E0903419F0089580E0089580E008956C
:102FA00084E98093BC008091BC0084FDFCCF08952F
:102FB0008093BB0084E88093BC008091BC0087FFB5
:102FC000FCCF9091B900987F81E0983209F0089584
:102FD00080E0089584EC8093BC008091BC0087FF62
:102FE000FCCF8091BB00089584E88093BC00809161
:102FF000BC0087FFFCCF8091BB0008951092C500F4
:1030000080E18093C400E0ECF0E080818260808306
:10301000E1ECF0E0808188698083E2ECF0E080817F
:103020008660808308951092CD0080E18093CC006B
:10303000E8ECF0E0808182608083E9ECF0E0808160
:1030400088618083EAECF0E0808186608083089567
:103050001092C0001092C1001092C2000895909189
:10306000C00095FFFCCF8093C600662321F08091BD
:10307000C00086FFFCCF08959091C80095FFFCCF5B
:103080008093CE00662321F08091C80086FFFCCF9C
:1030900008958091C0008095881F8827881F089513
:1030A00087E990E02091C00027FD07C00197D1F784
:1030B00081E08093180480E008958091C60008950F
:1030C0001F920F920FB60F920BB60F9211242F93EF
:1030D0003F934F935F936F937F938F939F93AF93A0
:1030E000BF93EF93FF938091C600909149059F3065
:1030F00021F1909111029923D9F490911D059130FD
:1031000009F460C0923009F443C0FF91EF91BF9180
:10311000AF919F918F917F916F915F914F913F916F
:103120002F910F900BBE0F900FBE0F901F90189510
:103130001092110280931D05E8CF8B3209F44CC028
:103140008D32F1F0873609F05BC0909121058091B6
:10315000C00085FFFCCF9093C6008091C00086FF21
:10316000FCCF90916600909366058091C00085FF2A
:10317000FCCF9093C6008091C00086FFFCCFC5CFE6
:10318000809166058823D1F18150809366052BC01C
:1031900040911F05442351F1413009F0B6CF382F3B
:1031A00020E08091110490911204822B932B909334
:1031B00012048093110440931E0510921F05409342
:1031C0001102A3CF8A3A31F1853509F09ECF909351
:1031D000110210921D0599CF809166058F3FE9F08D
:1031E0008F5F80936605809366008FCF8093110474
:1031F0001092120481E080931F0587CF80E0F3CF07
:10320000833709F082CF8DEF9FE0609166050E94C1
:10321000E4317BCF9093200578CF8FEFE4CF86B158
:1032200066B126B146B130E02870307035952795EB
:103230003595279535952795220F331F70E06470DB
:1032400070707595679575956795260F371F220FD6
:10325000331F50E04270507055954795240F351F2D
:10326000220F8170820F0895F89414BC15BC10923F
:103270006E0010922001109221018EEF9FE00E94BB
:10328000DE3190931204809311048DEF9FE00E9431
:10329000D63180936605982F91509E3FD8F5809344
:1032A000660080911104909112049C0121583C40C9
:1032B00023303105F8F410924C050E9405170E9446
:1032C000161A0E941B1D0E94EB230E9454090E94A3
:1032D0003D0A80911404882329F4809113048160AD
:1032E000809313040E94FE170E9433250E94230F2F
:1032F000789408952CE08038920721F481E080933F
:103300004C05DBCF2CE084389207B8F282E0809342
:103310004C05D3CF60916600609366058DEF9FE00A
:103320000E94E431BECF1F920F920FB60F9211246C
:103330000F900FBE0F901F901895CF93DF939EE1D3
:10334000899FE0011124809168008D7F809368003F
:1033500080916C008F7780936C00D99A10927A00DC
:1033600080917A00806180937A0010929000109290
:1033700091001092710088B3876088BB1092A00002
:103380001092A1001092720089B3876089BB1092DD
:103390008000109281000E9428180E9460090E94FB
:1033A00050170E94051783B78F6083BF81E0809319
:1033B00070008091B0008D7F8093B0008091B1004B
:1033C00087608093B100209719F088952197E9F7DD
:1033D00013BE8091B100887F8093B100109270007D
:1033E0008091B00082608093B0008FEF80930C02D8
:1033F00080930D0280930E021092F6031092F50353
:103400001092F8031092F7030E943419DF91CF91C4
:103410000895609141057091420580914305909116
:103420004405089581E08093C7030895CF93DF9307
:10343000EAE7F0E01082ABE7B0E01C92CCE7D0E026
:1034400018828081866080838881806488838081FF
:10345000806280838C91887F8C9380818860808358
:10346000808180688083808180648083DF91CF91B8
:1034700008951F920F920FB60F920BB60F92112460
:103480002F933F934F935F936F937F938F939F936C
:10349000EF93FF9340914105309142052091430500
:1034A0009091440580914505E0914605709147054E
:1034B000F0914805642F6F5F51E0641708F050E009
:1034C000530F41E0531708F040E0420F31E042173C
:1034D00008F030E0390F21E0391708F020E0280F1C
:1034E00091E0281708F090E09E0F81E09E1708F009
:1034F00080E0870FE1E0871708F0E0E0EF0F6093CE
:103500004105509342054093430530934405209371
:1035100045059093460580934705E0934805209123
:10352000780030E040917900942F80E0282B392BEF
:103530008091C103823009F4ABC1833008F444C0E8
:10354000833009F4C8C1843009F467C18091C20393
:10355000823009F44EC1833008F0CCC0882309F0D2
:1035600023C180912C03869580932B038091C30304
:10357000882309F0E0C181E08093C10381E080935A
:10358000C20390912B03983008F0ECC090917B001F
:10359000977F90937B0090912B03905C90937C009D
:1035A000823009F4ECC0FF91EF919F918F917F9150
:1035B0006F915F914F913F912F910F900BBE0F90A4
:1035C0000FBE0F901F901895882309F0FEC06091E0
:1035D0002C036E3009F4D0C1462F50E0FA01EE0FF3
:1035E000FF1FEF5CFC4F3183208340FF77C0FA015F
:1035F000EE0FFF1FE15DFC4F80819181FA01EE0F1C
:10360000FF1FEF5CFC4F40815181262F269530E053
:10361000841B950B220F331FF901E758FC4F4081A3
:103620005181841B950BF901EF59FC4F91838083E5
:1036300097FDBDC144E08130940724F080E094E020
:1036400091838083603148F48C3391050CF0B4C1D0
:1036500027533C4FF9019183808380916305882330
:1036600009F475C18091710390917203F1E0843A7D
:103670009F07CCF0809173039091740321E0843A0A
:1036800092078CF0809175039091760341E0843A23
:1036900094074CF08091770390917803E1E0843AAD
:1036A0009E070CF054C181E0809364051092F803EA
:1036B0001092F7031092A9001092A8001092AB008C
:1036C0001092AA001092F6031092F503109299003E
:1036D0001092980010929B0010929A006F5F609376
:1036E0002C03683108F432CF10922C0381E08093D0
:1036F000C8032CCF833009F4B7C0843009F041CF20
:1037000090912E0390932B0390912F039093C303DA
:103710009091C403992309F008C183E08093C10309
:103720001092C20360912C036E3009F41FC1862FE2
:1037300090E060FFF1C0603108F40CC120914C05AD
:10374000222309F0D5C040979595879521E030E078
:1037500002C0220F331F8A95E2F720930501809162
:10376000C2030FCF90917B00986090937B00909163
:103770002B03985C90937C00823009F014CF209149
:103780004C05222351F0213019F0223009F00BCFE3
:103790008FEF8093050112B806CF80910501807FDD
:1037A0008093050112B8FFCE813009F0EACE8091F6
:1037B0002D0380932B03809130038093C4031092D8
:1037C000C10382E08093C203DCCE813009F0BECE1B
:1037D0008091E3039091E403820F931F9695879560
:1037E0009093E4038093E3038091C203823009F055
:1037F000B2CE80912E0380932B0380912F03809370
:10380000C3038091C403882309F09BC083E08093A5
:10381000C10383E08093C203B4CE80910A0288235F
:1038200009F494CE9091000193FD90CE9091000107
:1038300094FD8CCE482F4F5F40930A02453008F428
:1038400085CE8091ED039091EE03820F931F9093AC
:10385000EE038093ED03483009F078CE10920A020F
:1038600081E08093070272CE80912D0380932B0319
:10387000809130038093C4038091C303882309F0AF
:103880004EC081E08093C10384E08093C20379CE6F
:1038900080910902882309F459CE639957CE64991F
:1038A00055CE482F4F5F40930902453008F44ECE65
:1038B0008091EF039091F003820F931F9093F00398
:1038C0008093EF03483009F041CE1092090281E065
:1038D000809308023BCE8091E1039091E203820F36
:1038E000931F969587959093E2038093E1032ECEE4
:1038F000213011F0223081F44091050140979595D7
:10390000879521E030E002C0220F331F8A95E2F74D
:1039100020952423209305018091C20332CE81306B
:10392000D1F185E08093C103AFCF913009F085E0FC
:103930008093C103F5CE8130B1F185E08093C1035E
:103940001DCE813061F185E08093C10362CF10927A
:103950006405C4CE669581E090E002C0880F991F8F
:103960006A95E2F782B98091C2030BCE8091C703BA
:103970008130A1F180E005CE8091C703823009F04B
:103980002BCE3093C6032093C5031092C7034698ED
:103990004EE050E02ACE82E08093C10375CF84E0F0
:1039A0008093C10336CF82E08093C103E7CD1182BB
:1039B000108280E090E046CEAC01445C5F4F5595AC
:1039C0004795483751057CF427533C4FCC97959544
:1039D0008795CC96F901918380833FCE82E08093D6
:1039E000C703469AA4CEAC01445D5E4F55954795FA
:1039F00055954795443B510574F427533C4F845BE0
:103A00009040959587959595879588589F4FF90192
:103A10009183808322CE27533C4F845A91409595C1
:103A2000879595958795959587958C549F4FF90126
:103A30009183808312CE0F931F93CF93DF93E0E99E
:103A4000F0E0108241E950E0DA011C9221E730E019
:103A5000E9011882A0EAB0E01C9281EA90E0EC0152
:103A6000188202E710E0E8011882608163686083D1
:103A7000608163606083EA0168816B606883409164
:103A8000F5035091F60350939900409398001092DB
:103A90009B0010929A00E90148814160488320818F
:103AA0002F7520832EB1277E2EB92C9123682C935D
:103AB000FC0120812B6020838091F7039091F80313
:103AC0009093A9008093A8001092AB001092AA00D6
:103AD000E8018881816088838C918F758C93E2E006
:103AE000F1E08081877E8083DF91CF911F910F91DC
:103AF0000895809107028823B1F12091ED03309160
:103B0000EE0336952795369527953093F20320934B
:103B1000F103109207021092EE031092ED038091D0
:103B2000FB039091FC0397FDD5C0359527953595FE
:103B3000279535952795442737FD4095542F80913B
:103B4000DD039091DE03A091DF03B091E003820FCB
:103B5000931FA41FB51F8093DD039093DE03A093F2
:103B6000DF03B093E003809108028823B1F1209134
:103B7000EF033091F00336952795369527953093CE
:103B8000F4032093F303109208021092F0031092B2
:103B9000EF038091F9039091FA0397FD7CC035956E
:103BA00027953595279535952795442737FD4095D9
:103BB000542F8091D9039091DA03A091DB03B09147
:103BC000DC03820F931FA41FB51F8093D90390932A
:103BD000DA03A093DB03B093DC038091FD039091A3
:103BE000FE0390930A04809309042091FF0330910F
:103BF000000430930C0420930B044091620544238D
:103C000079F53093EC032093EB039093EA038093D0
:103C1000E9033093F8032093F7039093F60380931E
:103C2000F503181619065CF5909399008093980097
:103C30008091F7039091F803181619062CF49093CD
:103C4000A9008093A8000895009709F06AC0109217
:103C5000A9001092A8001092AB001092AA0008953B
:103C60008BE094E069E074E00E94D72120910B047E
:103C700030910C048091090490910A04C2CF0097FE
:103C800009F047C0109299001092980010929B0082
:103C900010929A00CDCF3595279535952795359576
:103CA0002795442737FD4095542F8091D903909153
:103CB000DA03A091DB03B091DC03821B930BA40B0E
:103CC000B50B8093D9039093DA03A093DB03B093F1
:103CD000DC0383CF35952795359527953595279521
:103CE000442737FD4095542F8091DD039091DE03EA
:103CF000A091DF03B091E003821B930BA40BB50BE3
:103D00008093DD039093DE03A093DF03B093E00381
:103D10002ACF909581959F4F90939B0080939A0016
:103D200087CF909581959F4F9093AB008093AA0089
:103D300008952091FD033091FE0330930A042093EF
:103D400009048091FF039091000490930C048093E8
:103D50000B0440916205442309F0B8C09093EC0332
:103D60008093EB033093EA032093E9032091070249
:103D7000222309F44BC02091ED033091EE033695D8
:103D80002795369527953093F2032093F1031092EF
:103D900007021092EE031092ED0397FDCEC0359509
:103DA00027953595279535952795442737FD4095D7
:103DB000542F8091DD039091DE03A091DF03B09139
:103DC000E003820F931FA41FB51F8093DD03909320
:103DD000DE03A093DF03B093E003809117028130EC
:103DE00009F4CEC08BE094E00E94AF1280910B04E6
:103DF00090910C049093F8038093F703181619061A
:103E00000CF0C3C09093A9008093A8008091080291
:103E1000882309F45AC02091EF033091F0033695BE
:103E20002795369527953093F4032093F30310924A
:103E300008021092F0031092EF038091E903909131
:103E4000EA0397FD52C03595279535952795359509
:103E50002795442737FD4095542F8091D9039091A1
:103E6000DA03A091DB03B091DC03820F931FA41F40
:103E7000B51F8093D9039093DA03A093DB03B0932B
:103E8000DC0380911702813009F452C089E094E08C
:103E90000E94F5138091090490910A049093F6030F
:103EA0008093F503181619062CF4909399008093CB
:103EB00098000895009709F073C01092990010922D
:103EC000980010929B0010929A0008958BE094E065
:103ED00069E074E00E94D72180910B0490910C045A
:103EE0002091090430910A0439CF359527953595ED
:103EF000279535952795442737FD4095542F809178
:103F0000D9039091DA03A091DB03B091DC03821B0B
:103F1000930BA40BB50B8093D9039093DA03A09372
:103F2000DB03B093DC0380911702813009F0AECF40
:103F300089E094E00E943B15ADCF359527953595E6
:103F4000279535952795442737FD4095542F809127
:103F5000DD039091DE03A091DF03B091E003821BAB
:103F6000930BA40BB50B8093DD039093DE03A0931A
:103F7000DF03B093E00380911702813009F032CF64
:103F80008BE094E00E94201631CF009789F41092C4
:103F9000A9001092A8001092AB001092AA0036CF90
:103FA000909581959F4F90939B0080939A000895E0
:103FB000909581959F4F9093AB008093AA0026CF58
:103FC000282F332727FD309537FD30C030930E045E
:103FD00020930D0487FD1EC0220F331F220F331FB5
:103FE0003093FC032093FB0382E0213038073CF040
:103FF00080E092E09093FC038093FB0308958EEFA2
:104000002030380734F480E09EEF9093FC038093D7
:10401000FB030895220F331F220F331F3095219584
:104020003F4F3093FC032093FB03DECF3095219567
:104030003F4FCCCF282F332727FD309537FD30C099
:104040003093100420930F0487FD1EC0220F331FEE
:10405000220F331F3093FA032093F90382E02130BB
:1040600038073CF080E092E09093FA038093F903E4
:1040700008958EEF2030380734F480E09EEF90935F
:10408000FA038093F9030895220F331F220F331F81
:10409000309521953F4F3093FA032093F903DECFFB
:1040A000309521953F4FCCCF1F920F920FB60F92B4
:1040B00011248F939F9380916405882361F010925F
:1040C000F8031092F7031092A9001092A800109222
:1040D000AB001092AA001092E2031092E1038091CB
:1040E000F7039091F803009741F58091EB039091CD
:1040F000EC0397FD69C081E0809330038EE08093EC
:104100002D0381E080930A028091A0008F75809337
:10411000A00080910201877E80930201809172004D
:10412000897F8093720089B3866089BB9F918F914C
:104130000F900FBE0F901F901895181619062CF5AA
:10414000109230038FE080932D038091A0008F7D2B
:104150008093A000809172008B7F80937200809189
:1041600002018F7E809302018091A000806880937D
:10417000A000809172008260809372009F918F9165
:104180000F900FBE0F901F901895109230038EE085
:1041900080932D038091A0008F778093A000809161
:1041A00072008D7F8093720080910201877F8093DF
:1041B00002018091A00080628093A0008091720033
:1041C000846080937200B2CF81E0809330038FE0EF
:1041D00080932D0396CF1F920F920FB60F9211244A
:1041E0008F939F9381E0809330039EE090932D0303
:1041F00080930A029F918F910F900FBE0F901F9096
:1042000018951F920F920FB60F9211248F939F93C0
:1042100081E0809330039FE090932D0380930A0206
:104220009F918F910F900FBE0F901F9018951F9226
:104230000F920FB60F9211248F939F938091640574
:10424000882361F01092F6031092F5031092990002
:104250001092980010929B0010929A001092E40322
:104260001092E3038091F5039091F603009731F5E6
:104270008091E9039091EA0397FD5FC081E080930C
:104280002F038CE080932E0381E0809309028091BC
:1042900090008F75809390008EB1877E8EB980914B
:1042A0007100897F8093710088B3866088BB9F917D
:1042B0008F910F900FBE0F901F901895181619062A
:1042C0000CF510922F038DE080932E0380919000C7
:1042D0008F7D80939000809171008B7F809371001F
:1042E0007498809190008068809390008091710014
:1042F0008260809371009F918F910F900FBE0F90FD
:104300001F90189510922F038CE080932E038091BC
:1043100090008F7780939000809171008D7F8093C3
:1043200071007398809190008062809390008091DA
:104330007100846080937100BACF81E080932F0375
:104340008DE080932E03A0CF1F920F920FB60F9295
:1043500011248F939F9381E080932F039CE090938F
:104360002E03809309029F918F910F900FBE0F90A3
:104370001F9018951F920F920FB60F9211248F93D2
:104380009F9381E080932F039DE090932E03809371
:1043900009029F918F910F900FBE0F901F9018955B
:1043A00080919400909195000E94223008952F9260
:1043B0003F924F925F926F927F928F929F92AF92B5
:1043C000BF92CF92DF92EF92FF920F931F93DF93F2
:1043D000CF93CDB7DEB728970FB6F894DEBF0FBEE8
:1043E000CDBF2C017A836983FC010190F081E02D1F
:1043F000FC83EB83FB010190F081E02DFE83ED83D4
:104400006091C9037091CA036530710534F410924C
:10441000CA031092C90360E070E04091CB03509151
:10442000CC034530510534F41092CC031092CB03E9
:1044300040E050E08091CD039091CE03853091050E
:1044400024F41092CE031092CD030091CF0310916B
:10445000D0030530110534F41092D0031092CF032D
:1044600000E010E06090D1037090D203F5E06F1689
:10447000710434F41092D2031092D103662477248D
:104480002091D3033091D4032530310534F41092B8
:10449000D4031092D30320E030E08091D5039091B3
:1044A000D6038530910524F41092D6031092D503DB
:1044B0008091D7039091D8038530910534F4109200
:1044C000D8031092D70380E090E0EE24FF24E61A90
:1044D000F70A5A01B594A794159507956901D594E3
:1044E000C7944C01959487940E941D3093012E51DE
:1044F00030402E0D3F1D200F311F2C0D3D1D2A1960
:104500003B09281939094CE3242E312CB1010E94B2
:10451000852F280F391F38872F83E090CB03F09029
:10452000CC03F594E7940091CD031091CE0315953B
:10453000079515950795C090CF03D090D003D594DB
:10454000C7948090D3039090D403959487946090FF
:10455000D5037090D6037594679475946794A09072
:10456000D703B090D803B594A7940E941D3097014B
:10457000200F311F2E5130402C0D3D1D2A193B09B3
:104580002819390926193709B1010E94852F280FEA
:10459000391F4B815C8157FD97C05A01CC24B7FC71
:1045A000C094DC2C8F8198853C01882477FC809412
:1045B000982C79010027F7FC0095102FC401B30156
:1045C0006E197F09800B910BA60195010E94522F55
:1045D000F6E09595879577956795FA95D1F76A0DE9
:1045E0007B1D8C1D9D1DF201718360832D813E8199
:1045F00037FD99C05901CC24B7FCC094DC2CC8010C
:10460000B701660D771D881D991DA60195010E94B1
:10461000522F36E095958795779567953A95D1F71E
:104620006A0D7B1D8C1D9D1D9B01E981FA817183A3
:104630006083F2E021303F0744F080E092E0E981BE
:10464000FA819183808320E032E0F20180819181C0
:10465000F2E081309F074CF080E092E0F20191831C
:104660008083E981FA8120813181FEEF20303F078C
:104670004CF480E09EEFE981FA8191838083F2011E
:1046800080819181FEEF80309F072CF480E09EEFC7
:10469000F2019183808328960FB6F894DEBF0FBE97
:1046A000CDBFCF91DF911F910F91FF90EF90DF90E1
:1046B000CF90BF90AF909F908F907F906F905F90C2
:1046C0004F903F902F9008954D815E815A01CC24E8
:1046D000B7FCC094DC2C8F8198853C01882477FC42
:1046E0008094982C79010027F7FC0095102FC801C1
:1046F000B701660D771D881D991DA60195010E94C1
:10470000522FE6E09595879577956795EA95D1F7CD
:10471000261B370B480B590BF201318320832D8167
:104720003E8137FF67CF2B813C815901CC24B7FCF8
:10473000C094DC2CC401B3016E197F09800B910B6E
:10474000A60195010E94522F26E0959587957795B1
:1047500067952A95D1F7A61AB70AC80AD90A95010A
:10476000E981FA81B182A08264CF80917103909136
:10477000720321E0843A9207D4F080917303909100
:10478000740321E0843A920794F08091750390912C
:10479000760321E0843A920774F081E02091770358
:1047A0003091780391E0243A39071CF4089581E0B0
:1047B000089580E0089581E0089581E08093620586
:1047C000089510926205089581E08093630508952D
:1047D000109263050895A0E8B0E01C92E1E8F0E0D3
:1047E00010828C91896A8C9380818960808380910A
:1047F0000C0290E0909389008093880080910D02D4
:1048000090E090938B0080938A0080910E0290E05C
:1048100090938D0080938C00089581E09091150411
:10482000891B80931504882339F480918000877F49
:10483000809380002F9808958091800088608093F5
:1048400080008FEF90E090938D0080938C0008950E
:10485000882359F09091800090689093800090E0B8
:1048600090938900809388000895809180008F77CD
:10487000809380002D980895882359F090918000AE
:1048800090629093800090E090938B0080938A00D8
:104890000895809180008F7D809380002E980895E8
:1048A000882359F09091800098609093800090E068
:1048B00090938D0080938C00089580918000877F75
:1048C000809380002F980895833009F45AC0843073
:1048D00080F0853009F441C08530D0F4662309F4B6
:1048E00068C080910B018F7E80930B0180910B013A
:1048F00008958130E1F1823080F0662309F446C0EA
:1049000080910B018B7F80930B0180910B010895A7
:104910008630C9F0873061F00895662309F451C0EC
:1049200080910B018E7F80930B0180910B01089584
:10493000662309F05EC080910B01806880930B01B3
:1049400080910B010895662349F180910B018F7BC3
:1049500080930B0180910B0108956623D1F1809122
:104960000B018F7D80930B0180910B0108956623CD
:10497000C1F180910B018D7F80930B0180910B0120
:104980000895662399F0A39884B3089580910B014C
:10499000846080930B0180910B01089580910B013D
:1049A000806480930B0180910B010895A39A84B3D6
:1049B000089580910B01806180930B0180910B0120
:1049C000089580910B01816080930B0180910B0110
:1049D000089580910B01806280930B0180910B01FF
:1049E000089580910B01826080930B0180910B01EF
:1049F000089580910B018F7780930B0180910B01BB
:104A00000895EBE0F1E080818160808380818260A5
:104A10008083808184608083A39A80818061808389
:104A200080818062808380818064808380818068CF
:104A300080830895EBE0F1E080818E7F8083808128
:104A40008D7F808380818B7F8083A39880818F7E00
:104A5000808380818F7D808380818F7B8083808134
:104A60008F77808308950E945517809114020E94C9
:104A70005D17882349F486E10E94D81785E40E94D7
:104A8000D8170E94D01708950E94D01786EA90E0A8
:104A9000909315028093140286EA0E945D17882382
:104AA00041F58DE20E94D81788E00E94D8170E9435
:104AB000D017809114020E945D178823D1F481E3FE
:104AC0000E94D81780E00E94D8170E94D0178091CA
:104AD00014020E945D17882361F48CE20E94D817AB
:104AE00089E00E94D8170E94D01781E080932505A5
:104AF00008950E94D01782E0809325050895809143
:104B000014020E945D17882351F486E10E94D81791
:104B100085E40E94D8170E94D01780E008950E9473
:104B2000D01781E00895809114020E945D178823B8
:104B300031F58DE20E94D81788E00E94D8170E94B4
:104B4000D017809114020E945D178823C1F481E37D
:104B50000E94D81780E00E94D8170E94D017809139
:104B600014020E945D17882351F48CE20E94D8172A
:104B700089E00E94D8170E94D01780E008950E9413
:104B8000D01781E00895FF920F931F93DF93CF9387
:104B90000F92CDB7DEB780912505882391F0813043
:104BA00009F488C010922705109226051092290555
:104BB000109228050F90CF91DF911F910F91FF90D8
:104BC0000895809114020E945D1780E00E94D8171A
:104BD000809114028F5F0E94AA170E94EA17082F83
:104BE0000E94EA17F82E0E94EA17182F0E94F41765
:104BF00089830E94D017909192058981992339F178
:104C00004F2D552747FD5095542F4427602F772768
:104C100067FD7095462B572B50932705409326052B
:104C2000282F332727FD3095322F2227812F9927D0
:104C300087FD9095282B392B309329052093280543
:104C40000F90CF91DF911F910F91FF9008954F2DFD
:104C5000552747FD5095542F4427602F772767FD30
:104C60007095462B572B60912C0570912D05461B96
:104C7000570B5093270540932605282F332727FDF0
:104C80003095322F2227812F992787FD9095282B49
:104C9000392B80912E0590912F05281B390B3093CD
:104CA0002905209328050F90CF91DF911F910F9137
:104CB000FF900895809114020E945D1782E386CFD1
:104CC000DF93CF9300D000D0CDB7DEB7809125051C
:104CD0008823C1F0813009F4ADC0109227051092ED
:104CE0002605109229051092280510922B05109286
:104CF0002A0526960FB6F894DEBF0FBECDBFCF9122
:104D0000DF910895809114020E945D1780E00E9457
:104D1000D817809114028F5F0E94AA170E94EA1789
:104D200089830E94EA178A830E94EA178B830E9474
:104D3000EA178C830E94EA178D830E94F4178E83F2
:104D40000E94D01780919205882389F18A81992742
:104D500087FD9095982F88272981332727FD309547
:104D6000822B932B90932705809326058C8199277E
:104D700087FD9095982F88272B81332727FD309525
:104D8000822B932B90932905809328058E81992758
:104D900087FD9095982F88272D81332727FD309503
:104DA000822B932B90932B0580932A05A2CF8A8187
:104DB000992787FD9095982F88272981332727FDEC
:104DC0003095822B932B20912C0530912D05821B41
:104DD000930B90932705809326058C81992787FD57
:104DE0009095982F88272B81332727FD3095822B8C
:104DF000932B20912E0530912F05821B930B9093BE
:104E00002905809328058E81992787FD9095982FF5
:104E100088272D81332727FD3095822B932B2091D6
:104E2000300530913105821B930B90932B058093B5
:104E30002A055FCF809114020E945D1782E367CF3D
:104E4000CF93DF9310920C0210920D0210920E027B
:104E500080E00E94282480910D020E943C248091D1
:104E60000E020E94502410924B0510924A0581E0D8
:104E700080939205C1E0D0E00E94602620914A050F
:104E800030914B05213131050CF435C180919103EE
:104E900090919203A0919303B091940354E0B6953E
:104EA000A795979587955A95D1F790937A03809314
:104EB00079038091950390919603A0919703B09107
:104EC000980344E0B695A795979587954A95D1F7AD
:104ED00090937C0380937B038091990390919A0334
:104EE000A0919B03B0919C0334E0B695A79597954C
:104EF00087953A95D1F790937E0380937D038091B7
:104F00009D0390919E03A0919F03B091A00324E084
:104F1000B695A795979587952A95D1F79093800395
:104F200080937F038091A1039091A203A091A3039A
:104F3000B091A403F4E0B695A79597958795FA9557
:104F4000D1F790938203809381038091A503909180
:104F5000A603A091A703B091A803E4E0B695A79596
:104F600097958795EA95D1F790938403809383036F
:104F70008091A9039091AA03A091AB03B091AC03D7
:104F800074E0B695A795979587957A95D1F7909304
:104F90008603809385038091AD039091AE03A09129
:104FA000AF03B091B00364E0B695A7959795879548
:104FB0006A95D1F790938803809387038091B50316
:104FC0009091B603A091B703B091B80354E0B695A1
:104FD000A795979587955A95D1F79C018091B9032C
:104FE0009091BA03A091BB03B091BC0344E0B69585
:104FF000A795979587954A95D1F7BC018091BD03F8
:105000009091BE03A091BF03B091C003F4E0B695A8
:10501000A79597958795FA95D1F7AC018091B10343
:105020009091B203A091B303B091B403E4E0B695BC
:10503000A79597958795EA95D1F7805092409093E0
:105040008A03809389032050324030938C0320934D
:105050008B036050724070938E0360938D034050B9
:1050600052405093900340938F038091320590916A
:1050700033059595879595958795959587959595FC
:10508000879590932D0580932C0580913405909100
:1050900035059595879595958795959587959595DA
:1050A000879590932F0580932E05809136059091DA
:1050B00037059595879595958795959587959595B8
:1050C00087959093310580933005109292058FEF6C
:1050D00080930C0280930D0280930E020E9428247C
:1050E00080910D020E943C2480910E020E94502467
:1050F000DF91CF9108958091C803882309F486C178
:105100001092C8032115310509F486C1809161030D
:1051100090916203AA2797FDA095BA2F4091910321
:10512000509192036091930370919403840F951FA3
:10513000A61FB71F8093910390939203A0939303AC
:10514000B09394038091630390916403AA2797FD21
:10515000A095BA2F409195035091960360919703C3
:1051600070919803840F951FA61FB71F8093950316
:1051700090939603A0939703B0939803809165034F
:1051800090916603AA2797FDA095BA2F40919903A5
:1051900050919A0360919B0370919C03840F951F1B
:1051A000A61FB71F8093990390939A03A0939B0324
:1051B000B0939C038091670390916803AA2797FDA1
:1051C000A095BA2F40919D0350919E0360919F033B
:1051D0007091A003840F951FA61FB71F80939D0396
:1051E00090939E03A0939F03B093A00380916903C3
:1051F00090916A03AA2797FDA095BA2F4091A10329
:105200005091A2036091A3037091A403840F951F92
:10521000A61FB71F8093A1039093A203A093A3039B
:10522000B093A40380916B0390916C03AA2797FD20
:10523000A095BA2F4091A5035091A6036091A703B2
:105240007091A803840F951FA61FB71F8093A50315
:105250009093A603A093A703B093A80380916D0336
:1052600090916E03AA2797FDA095BA2F4091A903AC
:105270005091AA036091AB037091AC03840F951F0A
:10528000A61FB71F8093A9039093AA03A093AB0313
:10529000B093AC0380916F0390917003AA2797FDA0
:1052A000A095BA2F4091AD035091AE036091AF032A
:1052B0007091B003840F951FA61FB71F8093AD0395
:1052C0009093AE03A093AF03B093B00380917103AA
:1052D00090917203AA2797FDA095BA2F4091B10330
:1052E0005091B2036091B3037091B403840F951F82
:1052F000A61FB71F8093B1039093B203A093B3038B
:10530000B093B4038091730390917403AA2797FD1F
:10531000A095BA2F4091B5035091B6036091B703A1
:105320007091B803840F951FA61FB71F8093B50314
:105330009093B603A093B703B093B803809175031D
:1053400090917603AA2797FDA095BA2F4091B903B3
:105350005091BA036091BB037091BC03840F951FF9
:10536000A61FB71F8093B9039093BA03A093BB0302
:10537000B093BC038091770390917803AA2797FD9F
:10538000A095BA2F4091BD035091BE036091BF0319
:105390007091C003840F951FA61FB71F8093BD0394
:1053A0009093BE03A093BF03B093C00380913205D6
:1053B000909133054091260550912705840F951F44
:1053C0009093330580933205809134059091350593
:1053D0004091280550912905840F951F909335051C
:1053E00080933405809136059091370540912A05C8
:1053F00050912B05840F951F9093370580933605A8
:105400002F5F3F4F30934B0520934A0580919205C3
:10541000882309F031CD5BCE109291031092920354
:10542000109293031092940310927A0310927903CE
:10543000109295031092960310929703109298037E
:1054400010927C0310927B031092990310929A039E
:1054500010929B0310929C0310927E0310927D0386
:1054600010929D0310929E0310929F031092A0032E
:105470001092800310927F031092A1031092A20356
:105480001092A3031092A40310928203109281033E
:105490001092A5031092A6031092A7031092A803DE
:1054A00010928403109283031092A9031092AA030E
:1054B0001092AB031092AC031092860310928503F6
:1054C0001092AD031092AE031092AF031092B0038E
:1054D00010928803109287031092B1031092B203C6
:1054E0001092B3031092B40310928A0310928903AE
:1054F0001092B5031092B6031092B7031092B8033E
:1055000010928C0310928B031092B9031092BA037D
:105510001092BB031092BC0310928E0310928D0365
:105520001092BD031092BE031092BF031092C003ED
:105530001092900310928F0310923305109232054F
:1055400010923505109234051092370510923605E9
:10555000D0934B05C0934A058091920559CF809115
:105560002505882379F0813011F1109227051092DA
:105570002605109229051092280510922B051092ED
:105580002A050895809114020E945D1780E00E9410
:10559000D817809114028F5F0E94AA170E94EA1701
:1055A00080933B050E94EA1780933C050895809103
:1055B00014020E945D1782E30E94D81780911402A2
:1055C0008F5F0E94AA170E94EA1780933B050E94F2
:1055D000EA1780933C050E94EA1780933D050895E1
:1055E00080912505882309F04EC00E94EA17809318
:1055F0003D050E94EA1780933E050E94EA178093BA
:105600003F050E94F417809340050E94D0178091B7
:105610009205882309F447C080913C05992787FDAE
:105620009095982F882720913B05332727FD3095AB
:10563000822B932B909327058093260580913E051E
:10564000992787FD9095982F882720913D0533272E
:1056500027FD3095822B932B909329058093280565
:1056600080914005992787FD9095982F8827209154
:105670003F05332727FD3095822B932B90932B05E5
:1056800080932A050895813009F4B3CF109227053D
:1056900010922605109229051092280510922B05CC
:1056A00010922A05089580913C05992787FD9095D1
:1056B000982F882720913B05332727FD3095822B93
:1056C000932B20912C0530912D05821B930B9093E9
:1056D00027058093260580913E05992787FD9095A3
:1056E000982F882720913D05332727FD3095822B61
:1056F000932B20912E0530912F05821B930B9093B5
:1057000029058093280580914005992787FD90956C
:10571000982F882720913F05332727FD3095822B2E
:10572000932B2091300530913105821B930B909380
:105730002B0580932A050895EF92FF920F931F93F4
:1057400080912A0590912B0597FD5BC080319105D2
:1057500008F042C081E080931602909115029817DC
:1057600009F442C010923A05809315026091260513
:1057700070912705882777FD8095982F0E94042D2A
:105780007B018C016091280570912905882777FDA0
:105790008095982F0E94042D9B01AC01C801B70190
:1057A0000E943C3021EE3EE245E652E40E94052C88
:1057B0000E94622D9B01709339056093380577FF35
:1057C00006C028593E4F30933905209338051F9164
:1057D0000F91FF90EF9008951092160280E0909143
:1057E0001502981709F0BECF90913A059F5F9093EC
:1057F0003A05953008F4B8CF10923A058093170215
:10580000B3CF909581959F4FA1CFA0E2B0E0EBE0A0
:10581000FCE20C949A2F69837A838B839C832D837B
:105820003E834F83588799E0E92EF12CEC0EFD1E44
:10583000B701CE0101960E94E22E8E010F5E1F4F2E
:10584000B801CE0105960E94E22E9985923088F02B
:1058500089898230C0F0943019F4823029F009C06F
:10586000843029F4923079F469E172E0C6C0923054
:1058700041F420E09A858A89981321E02A87B701AC
:10588000BCC0823041F420E09A858A89981321E0D7
:105890002A8BB801B2C0CD84DE84EF84F8880D89EC
:1058A0001E892F89388D88249924540140E050E0C6
:1058B00060E070E0442455243201E0E0F0E0C601ED
:1058C00081709070892BD9F0800E911EA21EB31E9C
:1058D000DB01CA01840D951DA61DB71D40E050E0F7
:1058E00060E070E080169106A206B30620F441E065
:1058F00050E060E070E0480F591F6A1F7B1F440CA6
:10590000551C661C771C37FF08C081E090E0A0E0C2
:10591000B0E0482A592A6A2A7B2A3196E032F105FA
:1059200049F0000F111F221F331FF694E794D794FC
:10593000C794C5CF8B899C892B853C85820F931F8B
:1059400002969C8F8B8F1A8E9A858A89981711F0F0
:1059500081E08A8F2B8D3C8D17C0CA0181709070B9
:10596000892B61F0B694A7949794879480E090E097
:10597000A0E0B0E8882A992AAA2ABB2A76956795DA
:10598000579547952F5F3F4F77FDE7CFC9010BC074
:10599000440F551F661F771FB7FC4160880C991C88
:1059A000AA1CBB1C01974030A0E05A07A0E06A0780
:1059B000A0E47A0768F39C8F8B8FDB01CA018F7795
:1059C0009070A070B07080349105A105B10561F4AC
:1059D00047FD0AC081149104A104B10429F0405C80
:1059E0005F4F6F4F7F4F40784D8F5E8F6F8F78A3E3
:1059F00083E0898FBE01675E7F4FCB010E94022E3C
:105A0000E0E1A0960C94B62FA8E0B0E0EAE0FDE259
:105A10000C94A12F9B01AC0183E08983DA01C901B9
:105A20008827B7FD83959927AA27BB27B82E21156C
:105A300031054105510519F482E089833AC0882374
:105A4000A9F0203080E0380780E0480780E8580758
:105A500029F460E070E080E09FEC30C0EE24FF2489
:105A60008701E21AF30A040B150B02C079018A01BF
:105A70008EE1C82ED12CDC82CB82ED82FE820F8398
:105A80001887C801B7010E94B52D0197181619068D
:105A900084F4082E04C0EE0CFF1C001F111F0A9492
:105AA000D2F7ED82FE820F831887C81AD90ADC82EA
:105AB000CB82BA82CE0101960E94022EE9E028969E
:105AC0000C94BD2FACE0B0E0E8E6FDE20C94A82F0A
:105AD00069837A838B839C83BE016B5F7F4FCE018A
