:100000000C94B6000C94D5000C94D5000C94D5003B
:100010000C94D5000C94D5000C94D5000C94D5000C
:100020000C94D5000C94D5000C94BA160C94D50001
:100030000C94D5000C94EE160C94D5000C947D1EF7
:100040000C94D5000C94D5000C94D5000C94D500DC
:100050000C94D5000C94D5000C94D5000C94D500CC
:100060000C94D5000C943A1D0C94D5000C94D5003A
:100070000C94D5000C945F1F0C94D5000C94D50003
:100080000C94243B0C943A3B0C94D5000C94973A76
:100090000C94D5000C94D5000C94D5000C9432012E
:1000A0000C94D5000C94D5000C946B3A0C94813AC6
:1000B0000C94D5000C94D4390C94D5000C94D50034
:1000C0000C94D5000C94D5000C94D5000C94D5005C
:1000D0000C94D5000C94D5000C94D5000C94D5004C
:1000E0000C94D500D519BA198A1976194E193C19EC
:1000F0001419F818BF18A7184818481848184818AD
:1001000048184818EC189C184818481848184818F7
:1001100048184818481848184818481848184818DF
:10012000BF188A19741867184818481848184818CA
:1001300048184818481848184818481848184818BF
:100140004E19141948184818D5193C19801805A8D3
:100150004CCDB2D44EB93836A9020C50B99186882C
:10016000083CA6AAAA2ABE000000803F11241FBE98
:10017000CFEFD1E2DEBFCDBF00E00CBF12E0A0E0C8
:10018000B2E0EAEBF4EA02C005900D92A832B107A2
:10019000D9F71BE0A8E2B2E001C01D92A637B10773
:1001A000E1F70E94CC010C945C520C940000809307
:1001B000BA0084E08093BC0010928D020895809173
:1001C0008D02089520918D022223E1F760938E0223
:1001D000662371F0A82FB92FE9E2F2E06150862F73
:1001E00090E0865D9D4F2D912193E817F907D9F78F
:1001F0001092280288EF8093040285EC8093BC0063
:1002000081E080938D02089580918D028823E1F72B
:100210001092280288EF8093040285EC8093BC0042
:1002200010928D02089520918D022223E1F72091F2
:10023000280220FF14C0662379F0E9E2F2E0A82F3B
:10024000B92F615070E0665D7D4F81918D93E61707
:10025000F707D9F7209128022D7F20932802822FBB
:10026000817008951F920F920FB60F920BB60F92E6
:1002700011248F939F93EF93FF938091B90080395E
:1002800009F472C08139E8F0883A09F44DC0893A1E
:1002900050F5883901F1803A21F08091B9008093BE
:1002A000040285EC8093BC0010928D02FF91EF91C7
:1002B0009F918F910F900BBE0F900FBE0F901F90CC
:1002C0001895803709F441C0813730F1803809F43E
:1002D0004BC0883811F78091B9008093040280E9FF
:1002E0008093BC00E3CF803C19F1883CA1F3883BAC
:1002F000A1F680918F02E82FF0E08F5FE75DFD4F60
:1003000090819093BB0080938F0285EC8093BC001A
:1003100082E080938D02CACF8823E9F2803609F00B
:10032000BCCF8091280214C081E0E0E0F0E0E6CF8D
:1003300090918F0280918E02981709F0AECF809134
:100340002802816080932802ACCF809128028460CB
:1003500082608093280210928F0285EC8093BC000B
:1003600083E080938D02A2CF80918F029091BB0099
:10037000E82FF0E0E75DFD4F90838F5F80938F0261
:100380008091280281608093280285EC8093BC00D4
:1003900084E080938D028ACF2F923F924F925F929A
:1003A0006F927F928F929F92AF92BF92CF92DF9285
:1003B000EF92FF920F931F93DF93CF93CDB7DEB7EA
:1003C0002C970FB6F894DEBF0FBECDBF0E94151E4E
:1003D0000E94503B0E94F31E9B01AC016093AD0351
:1003E0003093AE034093AF035093B0031092B10328
:1003F0001092B2031092B3031092B4030E94F31E42
:100400007B018C010E94F31E6E197F09800B910BFA
:1004100065342BE0720720E0820720E0920790F31A
:100420000E94A63E0E94F31E6B017C0180E090E0DA
:10043000DC018B839C83AD83BE8380E090E01A82D5
:10044000198200E08824992454011FEF62E0662E8F
:100450005EE1452E512C40E8242E312C77247394F4
:100460009C878B870E94F01D809399030E94F64120
:100470000E94034280919903873009F470C10E9461
:10048000F31E6C197D098E099F096E31BBE47B0751
:10049000B0E08B07B0E09B0708F001C10E9415187F
:1004A0000E94CF1280919903873009F414C18830DB
:1004B00008F060C0833009F416C3843008F065C1C9
:1004C000813009F431C3823008F00FC30E94A23892
:1004D00080919903882309F0DDC080E0081711F2AC
:1004E0000E946F3D0E94763D80910B018160809358
:1004F0000B0180910B01826080930B0180910B01B5
:10050000846080930B01A39A80910B01806180939A
:100510000B0180910B01806280930B0180910B0194
:10052000806480930B0180910B01806880930B01A4
:1005300010930D0210930E0210930F028FEF0E9482
:100540009B3D80910E020E94AF3D80910F020E9460
:10055000C33D80E00E94F12580E00E94D4251092E6
:1005600080031092B60310929D0310920A0400912A
:10057000990378CF8B3009F469C38C3008F031C10E
:10058000893009F4E2C28A3008F4D3C280919D0315
:10059000813011F40C94980B813008F0B0C50E94A2
:1005A000F31E6093A1037093A2038093A30390931F
:1005B000A4030E94F31E6093A9037093AA0380937F
:1005C000AB039093AC030E94F31E6093A50370935A
:1005D000A6038093A7039093A8030E946B3D84E138
:1005E0000E94D42584E10E94F12570929D038091A0
:1005F000B803813009F4B6C5813008F017C51093EF
:100600000D0210930E0210930F020E94F31E9B0125
:10061000AC018091A9039091AA03A091AB03B09182
:10062000AC03281B390B4A0B5B0B213CF3E03F0763
:10063000F0E04F07F0E05F0710F00C94E10E0E942D
:10064000F31E9B01AC018091A5039091A603A0919C
:10065000A703B091A803281B390B4A0B5B0B2E3163
:100660006BE4360760E0460760E0560710F00C9434
:10067000D30E80910D020E949B3D80910E020E943C
:10068000AF3D80910F020E94C33D80919903882362
:1006900009F423CF0E94A435809199031FCF0E94B3
:1006A000FC1E80919903982F9450923008F403C354
:1006B000873009F42EC3863009F41CC20E94F31E51
:1006C0006B017C010E9415180E94CF128091990342
:1006D000873009F0ECCE1092110280919D03823098
:1006E00011F40C94290E833008F037C4882311F0DC
:1006F0000C94400C0E94743E80910B018E7F80937D
:100700000B0110929E030E946B3D84E10E94F12533
:1007100084E10E94D4250E94F31E9B01AC016093EA
:10072000A9037093AA038093AB039093AC038091C9
:10073000A1039091A203A091A303B091A403281B4D
:10074000390B4A0B5B0B23339FEE390792E04907C5
:1007500090E0590708F48DCF70929D038ACF0E94D4
:10076000F31E681979098A099B09683CA2E17A0796
:10077000A0E08A07A0E09A0708F481CE10930D024A
:1007800010930E0210930F027ACE853009F419C22D
:10079000863008F4F1C180918103813009F43BC5B2
:1007A000813008F07EC480E00E94F12580E00E9444
:1007B000D4250E94743E10930D0210930E021093E4
:1007C0000F028FEF0E949B3D80910E020E94AF3D71
:1007D00080910F020E94C33D449A459A80919903EB
:1007E00079CE8D3009F419C28D3008F401C28E30F3
:1007F00009F451C28F3009F06DCE0E94DF008823CA
:1008000009F06EC18091280281FF02C00C94C00CD7
:100810009091CB028091CC029093F70A8093F80AD2
:100820009091CD028091CE029093F90A8093FA0ABA
:100830009091CF028091D0029093FB0A8093FC0AA2
:100840009091D1028091D2029093FD0A8093FE0A8A
:100850009091D3028091D4029093FF0A8093000B71
:100860009091D5028091D6029093010B8093020B58
:100870009091D7028091D8029093030B8093040B40
:100880009091D9028091DA029093050B8093060B28
:1008900080919B0290919C028093070B80919B0218
:1008A00090919C029093080B80919F029091A002DE
:1008B0008093090B80919F029091A00290930A0B64
:1008C0008091A3029091A40280930B0B8091A302CC
:1008D0009091A40290930C0B8091A7029091A80292
:1008E00080930D0B8091A7029091A80290930E0B1C
:1008F0008091AB029091AC0280930F0B8091AB0280
:100900009091AC029093100B8091AF029091B00245
:100910008093110B8091AF029091B0029093120BD3
:100920008091B3029091B4028093130B8091B30233
:100930009091B4029093140B8091B7029091B802F9
:100940008093150B8091B7029091B8029093160B8B
:100950009091DB028091DC029093170B8093180B2F
:100960009091DD028091DE029093190B80931A0B17
:100970009091DF028091E00290931B0B80931C0BFF
:100980009091E1028091E20290931D0B80931E0BE7
:100990008091BB029091BC0280931F0B8091BB029F
:1009A0009091BC029093200B8091BF029091C00265
:1009B0008093210B8091BF029091C0029093220BF3
:1009C0008091C3029091C4028093230B8091C30253
:1009D0009091C4029093240B8091C7029091C80219
:1009E0008093250B8091C7029091C8029093260BAB
:1009F00030910301809103012091030190E0807206
:100A000090709595879595958795959587959595EA
:100A1000879595958795880F991F221F2227221F5A
:100A2000220F220F282B832F90E0807190709595D4
:100A30008795959587959595879595958795282B75
:100A40002093270B809185038093280B8091990335
:100A50008093290B90912F038091300390932A0B60
:100A600080932B0B6091BC037091BD038091BE03FA
:100A70009091BF036093C0037093C1038093C2033E
:100A80009093C30320E030E44FE054E40E946E50A2
:100A90000E944E4F262F20932C0B70932D0B6091AC
:100AA000C4037091C5038091C6039091C7030E944F
:100AB000534F60932E0B70932F0B6091C80370916E
:100AC000C9038091CA039091CB030E94534F609356
:100AD000300B7093310B87EF9AE06BE30E94E200DA
:100AE00080919903F7CC0E946B3D0E94723D8091EA
:100AF0009903F0CC80918103813009F0DFCD909192
:100B00007D03923008F0DACD90918003992311F0A3
:100B10000C94DC0FFEEFF0930D0210930E02109375
:100B20000F0280938003CACD0E946B3D8091990390
:100B3000D1CC7092110280919F04813009F0AACD2E
:100B40000E94F52680919903C5CC80919D03813048
:100B500009F4CFC5813008F0C3C20E94F31E609330
:100B6000A1037093A2038093A3039093A4037092B4
:100B70009D0380919903AECC80910B018E7F809371
:100B80000B0180910B018D7F80930B0180910B01F4
:100B90008B7F80930B01A39880910B018F7E8093B4
:100BA0000B0180910B018F7D80930B0180910B01D4
:100BB0008F7B80930B0180910B018F7780930B01CA
:100BC00058CD80910D020E949B3D80910E020E94A3
:100BD000AF3D80910F020E94C33D0E946B3D89E1B1
:100BE0000E94D42589E10E94F1258091990372CC5D
:100BF00080919D03813009F40EC6813008F045C113
:100C00000E94244284E080931E0493E090931D048C
:100C100060929D03809199035DCC80919D0381300A
:100C200009F4B4C5813008F0DBC10E9424420E945F
:100C30006B3D8AE00E94D4258AE00E94F1257092E3
:100C40009D03809199031A82198244CC80919D035F
:100C5000823009F456C1833008F0FAC0882309F4C1
:100C600064C6813009F016CD0E946B3D8AE00E9477
:100C7000D4258AE00E94F12560929D030E94F31E14
:100C80006093A1037093A2038093A3039093A403A2
:100C9000809199031FCC80919D03882309F090C017
:100CA0000E94244270929D0370924A041092200484
:100CB000809199030FCC0E94EC51B2010E944E51D9
:100CC000EB85FC85E80FF91FEF77F070FC87EB8769
:100CD00080918003813009F445C6813008F05BC5FE
:100CE0008B85809580930D02709280032B853C85C7
:100CF0002032310508F077C280910E028F3F09F44F
:100D0000DDCC80910F028F3F09F4D8CC10930D02F7
:100D1000D5CC80919400909195000E94F1510E9451
:100D2000EC51B2010E944E517C01AB85BC85EA0EAC
:100D3000FB1EBFE7EB22FF248E2D809580930D02D2
:100D400080919400909195000E94F1510E94EC5185
:100D5000B2010E944E516C01CE0CDF1CEFE7CE2297
:100D6000DD248C2D809580930E02809194009091CB
:100D700095000E94F1510E94EC51B2010E944E5127
:100D80008C0D9D1D8F7790709C878B878B858095B0
:100D900080930F0280919400909195000E94F151F0
:100DA0000E94EC51B1010E944E518032910508F031
:100DB0002BC210930D020E94F31E4B015C017ECCEE
:100DC000813009F067CC0E9406430E94574E813063
:100DD00011F40C94C10F0E945F4E813009F080CE57
:100DE0000E94624E282F30E03A83298390914A0472
:100DF000492F50E04217530711F40C94D910973043
:100E000011F40C942E1129813A812150304042175F
:100E1000530711F40C944B11933011F40C947F117F
:100E2000943010F00C940911913011F40C9481114C
:100E3000923010F40C9437118FEF0E949B3D8BEE93
:100E40000E94AF3D8FEF0E94C33D8091990342CB3A
:100E5000833009F452C5843009F01CCC0E9406434B
:100E60006091BC037091BD038091BE039091BF035C
:100E70002B813C814D815E810E946A5087FD30CE7E
:100E800080E00E94D42580E0F5CE823009F48DC444
:100E9000833009F0FFCB0E9406430E94574E8130F9
:100EA00009F01ECE0E945F4E813009F019CE90915C
:100EB0001F04992311F00C94A11180931F048FEF4C
:100EC0000E94C33D8FEF0E949B3D80E80E94AF3D92
:100ED0000E94624E282F30E03A83298380911D04BE
:100EE000882311F00C94961180911E0490E00197D4
:100EF0008217930769F18FEF0E944E4E80919903FC
:100F0000E9CA0E9406430E94574E813011F40C94A6
:100F10007A100E945F4E813011F40C9414100E94DC
:100F2000F31E9B01AC018091A1039091A203A091BB
:100F3000A303B091A403281B390B4A0B5B0B2D3C78
:100F40006BEB360760E0460760E0560708F4C8CD53
:100F500070929D0380919903BDCA843009F436C60E
:100F6000843008F4EDC5853009F083CB0E94743ECF
:100F700080910B018F7B80930B0180910B018F7708
:100F800080930B010E94F31E9B01AC016093A903A7
:100F90007093AA038093AB039093AC038091A10359
:100FA0009091A203A091A303B091A403281B390B35
:100FB0004A0B5B0B2B329CE1390790E0490790E02C
:100FC000590708F456CB0E94F31E6093A103709357
:100FD000A2038093A3039093A40310929D0349CB93
:100FE000823009F057CB0E9406430E94574E813051
:100FF00009F470C70E945F4E813009F071CD0E94E4
:10100000624E89819A818730910510F40C94A0106A
:101010008FEF0E949B3D8FEF0E94AF3D8FEF0E94AC
:10102000C33D809199031A82198254CA823009F013
:1010300057CD0E94F31E9B01AC018091A5039091B6
:10104000A603A091A703B091A803281B390B4A0B54
:101050005B0B273CB2E13B07B0E04B07B0E05B071E
:1010600008F43ECD1092B8030E94F31E6093A503CE
:101070007093A6038093A7039093A8030E94F31E86
:101080006093A9037093AA038093AB039093AC037E
:101090001092B70380E061E00E94D73D80919903F0
:1010A00019CA823009F0F6CA80918203882309F4B4
:1010B000F1CA0E948D3E60917B0370917C038EEF9C
:1010C0009FE00E9457520E94743E8AEA61E00E94AB
:1010D0002D1D109282031092810380919903FAC909
:1010E000823009F0D7CA8091B603882309F0D2CAAA
:1010F0007092B6030E943B3280919903EBC9823013
:1011000009F075CA0E94F31E9B01AC018091A103F6
:101110009091A203A091A303B091A403281B390BC3
:101120004A0B5B0B2A39E7E73E07E1E04E07E0E0B8
:101130005E0708F45CCA84E10E94F12584E10E9404
:10114000D4250E94F31E6093A1037093A2038093A1
:10115000A3039093A40370929D038091B803813000
:1011600009F04ACA0E94743E0E94EC51B1010E94EB
:101170004E518036910508F413C610930D020E945B
:10118000EC51B1010E944E518036910508F405C61C
:1011900010930E020E94EC51B1010E944E51803614
:1011A000910508F4F7C510930F020E94EC5168EC0A
:1011B00070E00E944E519C878B878233910508F026
:1011C000E0C510930D028FEF0E949B3D80910E02AF
:1011D0000E94AF3D80910F020E94C33D6092B80310
:1011E0008091990377C92034310508F0A6C3809116
:1011F0000D028F3F09F462CA80910F028F3F09F4FC
:101200005DCA10930E025ACA8034910508F0B1C32A
:1012100010930E02D0CD0E948D3E80910D020E944F
:101220009B3D80910E020E94AF3D80910F020E9473
:10123000C33D4498459880918403882309F450CC99
:10124000109284038091CB0261E00E942D1D809159
:10125000CC0261E00E942D1D80919B0290919C0226
:1012600061E00E942D1D80919B0290919C02892F2C
:1012700061E00E942D1D8091CD0261E00E942D1D34
:101280008091CE0261E00E942D1D80919F0290917D
:10129000A00261E00E942D1D80919F029091A0020A
:1012A000892F61E00E942D1D8091CF0261E00E9494
:1012B0002D1D8091D00261E00E942D1D8091A3021E
:1012C0009091A40261E00E942D1D8091A302909153
:1012D000A402892F61E00E942D1D8091D10261E05E
:1012E0000E942D1D8091D20261E00E942D1D8091EF
:1012F000A7029091A80261E00E942D1D8091A70293
:101300009091A802892F61E00E942D1D8091D30247
:1013100061E00E942D1D8091D40261E00E942D1D8C
:101320008091AB029091AC0261E00E942D1D8091F2
:10133000AB029091AC02892F61E00E942D1D80913B
:10134000D50261E00E942D1D8091D60261E00E94CD
:101350002D1D8091AF029091B00261E00E942D1D81
:101360008091AF029091B002892F61E00E942D1D03
:101370008091D70261E00E942D1D8091D80261E02A
:101380000E942D1D8091B3029091B40261E00E94F1
:101390002D1D8091B3029091B402892F61E00E94CB
:1013A0002D1D8091D90261E00E942D1D8091DA02ED
:1013B00061E00E942D1D8091B7029091B80261E01A
:1013C0000E942D1D8091B7029091B802892F61E093
:1013D0000E942D1D8091DB0261E00E942D1D8091F5
:1013E000DC0261E00E942D1D8091BB029091BC0245
:1013F00061E00E942D1D8091BB029091BC02892F5B
:1014000061E00E942D1D8091DD0261E00E942D1D92
:101410008091DE0261E00E942D1D8091BF029091BB
:10142000C00261E00E942D1D8091BF029091C00218
:10143000892F61E00E942D1D8091DF0261E00E94F2
:101440002D1D8091E00261E00E942D1D8091C3025C
:101450009091C40261E00E942D1D8091C302909181
:10146000C402892F61E00E942D1D8091E10261E09C
:101470000E942D1D8091E20261E00E942D1D80914D
:10148000C7029091C80261E00E942D1D8091C702A1
:101490009091C802892F61E00E942D1D80918D03DB
:1014A00061E00E942D1D80918E0361E00E942D1D40
:1014B00080918F0361E00E942D1D8091900361E077
:1014C0000E942D1D8091910361E00E942D1D80914D
:1014D000920361E00E942D1D8091850361E00E94CE
:1014E0002D1D8091990361E00E942D1D80910301C3
:1014F00090E08072907095958795959587959595D4
:101500008795959587959595879561E00E942D1D06
:1015100080917D0361E00E942D1D6091BC0370915C
:10152000BD038091BE039091BF0320E030E44FE003
:1015300054E40E946E500E94534F862F61E00E9437
:101540002D1D6091BC037091BD038091BE039091ED
:10155000BF0320E030E44FE054E40E946E500E944C
:10156000534F872F61E00E942D1D6091C40370913D
:10157000C5038091C6039091C7030E94534F862FE5
:1015800061E00E942D1D6091C4037091C50380919C
:10159000C6039091C7030E94534F872F61E00E94BA
:1015A0002D1D6091C8037091C9038091CA03909169
:1015B000CB030E94534F862F61E00E942D1D609146
:1015C000C8037091C9038091CA039091CB030E9414
:1015D000534F872F61E00E942D1D6091470370914A
:1015E00048038091490390914A030E944E4F862FF1
:1015F00061E00E942D1D6091470370914803809126
:10160000490390914A030E944E4F872F61E00E9448
:101610002D1D60914703709148038091490390917B
:101620004A030E944E4F61E00E942D1D60914703C6
:10163000709148038091490390914A030E944E4F54
:10164000892F61E00E942D1D609143037091440336
:1016500080914503909146030E944E4F862F61E092
:101660000E942D1D609143037091440380914503B6
:10167000909146030E944E4F872F61E00E942D1DDE
:101680006091430370914403809145039091460318
:101690000E944E4F61E00E942D1D609143037091A6
:1016A000440380914503909146030E944E4F892F39
:1016B00061E00E942D1D80916103909162039595D8
:1016C00087959595879561E00E942D1D80915F0318
:1016D00090916003959587959595879561E00E9417
:1016E0002D1D809199034CE050E05A8349830C945E
:1016F0006A020E94F31E9B01AC018091A1039091AC
:10170000A203A091A303B091A403281B390B4A0B99
:101710005B0B2E31ABE43A07A0E04A07A0E05A0782
:1017200008F4DEC960929D03809199030C946A02CB
:101730000E94F31E9B01AC018091A1039091A20332
:10174000A091A303B091A403281B390B4A0B5B0B98
:101750002E33B6E93B07B0E04B07B0E05B0710F46F
:101760000C94F70280E00E94F12580E00E94D425CD
:101770000E94F31E6093A1037093A2038093A303BE
:101780009093A40360929D030C94F70280914A0405
:101790000E944E4EC7CF823009F0A8CA8B85809533
:1017A00080930F0210928003A1CA0E9406430E94F8
:1017B000574E813009F41BC40E945F4E813009F0FE
:1017C0008FC990911F04992309F00BC480931F04C3
:1017D0008FEF0E949B3D0E94624EE82FF0E0FA835B
:1017E000E98380911D0490E08E179F0709F078C966
:1017F0008FEF0E94C33D8FEF0E949B3D80E80E94C7
:10180000AF3D8FEF0E944E4EF3E0F0939D03809129
:1018100099030C946A020E9406430E94574E81303D
:1018200009F481C30E945F4E813009F059C990913B
:101830001F04992309F0E4C380931F048FEF0E94D3
:10184000C33D8FEF0E949B3D80E80E94AF3D0E9408
:10185000624EA82FB0E0BA83A983AF3FB10509F06B
:101860003FC960929D038FEF0E94C33D8FEF0E949E
:101870009B3D8FEF0E94AF3D809199030C946A02CB
:10188000813011F00C9439030E94743E80910B0159
:101890008B7F80930B0110929F030E946B3D8FE022
:1018A0000E94F1258FE00E94D4258091DD02909165
:1018B000DE02A1E080399A070CF448C28091DF0271
:1018C0009091E002B1E080399B070CF43FC2809117
:1018D000DB029091DC02E1E080399E070CF436C215
:1018E0008091E1029091E202F1E080399F070CF4CF
:1018F0002DC210929E030C9439030E9406436091FE
:10190000BC037091BD038091BE039091BF032B81F6
:101910003C814D815E810E94DF4E18160CF4E0C8B8
:1019200080E00E94D42580E0A5C90E9424427092E4
:101930009D03809199030C946A022036310510F0C2
:101940000C945E0380910D028F3F11F40C945E03A2
:1019500080910E028F3F11F40C945E0310930F02DE
:101960000C945E038B85809580930E0260928003B9
:10197000BDC98036910508F01ECA10930F021BCA1C
:101980008AE997E068E00E94130180919D07883002
:1019900009F4CDC380919F04882349F580912309E0
:1019A00090E08F77907090937A03809379032091E1
:1019B000240930E02F773070309378032093770339
:1019C00040919E0747FD03C0909581959F4F90934E
:1019D000600380935F0380919F0787FDACC38827D6
:1019E0009927821B930B909362038093610320914C
:1019F0009A0730E03093080920930709E0919B078C
:101A0000F0E0F0930A09E093090980919C07A82F60
:101A1000B0E0BA83A983B0930C09A0930B09922F6D
:101A20008827821B930B64E670E00E943A51262FB0
:101A3000209520930D029E2F88278E1B9F0B64E616
:101A400070E00E943A51609560930F02E981FA813B
:101A50009E2F88278E1B9F0B64E670E00E943A51F0
:101A6000609560930E02822F0E949B3D80910E0232
:101A70000E94AF3D80910F020E94C33D80919D075F
:101A800080FF0EC2449881FF09C24598982F82FFBB
:101A9000F9C17092110294FDF9C196FFF0C17092E4
:101AA000B903880F880B87218093BA038091A00720
:101AB00080FFDFC180910B018E7F80930B018091AD
:101AC000A00781FFD0C180910B018D7F80930B0116
:101AD0008091A00782FF93C180910B018B7F80933F
:101AE0000B018091A00783FF93C1A3988091A00769
:101AF00084FF93C180910B018F7E80930B018091B5
:101B0000A00785FF93C180910B018F7D80930B010E
:101B10008091A00786FF93C180910B018F7B8093FA
:101B20000B018091A00787FD93C180910B01806814
:101B300080930B0143E050E05A8349830C940804DE
:101B40000E94743E80910B018F7B80930B010E9459
:101B5000F31E9B01AC016093A9037093AA038093C9
:101B6000AB039093AC038091A1039091A203A09149
:101B7000A303B091A403281B390B4A0B5B0B2D3C2C
:101B800096E6390794E0490790E0590708F48AC1BE
:101B900080912F0390913003A3E08A379A0708F4CD
:101BA0008DC183EF0E94F12583EF0E94D4250E940E
:101BB000F31E6093A1037093A2038093A3039093F9
:101BC000A403B4E0B0939D030C9439030E94743EC7
:101BD00080910B018F7B80930B0180910B018F779C
:101BE00080930B010E94F31E9B01AC016093A9033B
:101BF0007093AA038093AB039093AC038091A103ED
:101C00009091A203A091A303B091A403281B390BC8
:101C10004A0B5B0B2F3895E2390790E0490790E0BB
:101C2000590710F40C94390384E10E94F1258CEEDD
:101C30000E94D4250E94F31E6093A1037093A20317
:101C40008093A3039093A403A5E0A0939D030C9419
:101C500039030E94743E80910B018F7E80930B01AB
:101C60000E946F3D0E94F31E9B01AC016093A9038B
:101C70007093AA038093AB039093AC038091A1036C
:101C80009091A203A091A303B091A403281B390B48
:101C90004A0B5B0B23339FEE390792E0490790E034
:101CA000590708F074C18091030184FF4DC110925F
:101CB0009F038091A0038F5F8093A003853108F07C
:101CC00063C22091DD023091DE024091DB0250912F
:101CD000DC0261E0423C5607ACF481E0233C38076B
:101CE0008CF08091DF029091E002A1E0833C9A07A2
:101CF0004CF08091E1029091E202B1E0833C9B07BD
:101D00000CF043C38091E1029091E202E1E0823C59
:101D10009E070CF0F2C0F1E0433C5F070CF4EDC00D
:101D200041E0233C34070CF4EDC08091DF02909138
:101D3000E00251E0833C95070CF01FC38FE00E9446
:101D4000D4258BEF0E94F1250C94390380919E03DA
:101D50008F5F80939E038B3010F40C9439031092A4
:101D60009F031092A0030E94F31E6093A10370933F
:101D7000A2038093A3039093A40360929D030C9409
:101D800039038436910508F0B0C010930E0280919B
:101D90000D021ACA80930F0208CA80930E02FAC974
:101DA00080930D02ECC97092B8030E94F31E6093F9
:101DB000A5037093A6038093A7039093A8030C94A4
:101DC00039038091B70360E00E94D73D8091B7034B
:101DD0008F5F8093B703883018F01092B70380E0CC
:101DE00061E00E94D73D0E94F31E6093A9037093A7
:101DF000AA038093AB039093AC030C941F038091D0
:101E00000B01846080930B018091A00783FD6DCE50
:101E1000A39A8091A00784FD6DCE80910B01806113
:101E200080930B018091A00785FD6DCE80910B0101
:101E3000806280930B018091A00786FD6DCE80911A
:101E40000B01806480930B018091A00787FF6DCE0A
:101E500080910B018F7780930B0123E030E03A8370
:101E600029830C94080480910B01826080930B01FC
:101E70002FCE80910B01816080930B0120CE1092B8
:101E8000B9030FCE1092110294FF07CE0E94A63E16
:101E90000E94001F80919D07982FFFCD459AF6CD97
:101EA000449AF1CD8091030184FF02C00C94390360
:101EB0001092A00310929F0360929D030E94F31E54
:101EC0006093A1037093A2038093A3039093A40350
:101ED0000C94390380939D0380914A048F3F09F449
:101EE00022C18F5F80934A0485C88639910510F41A
:101EF00010930F0280910D0267C961E0233C360701
:101F00000CF01CCF8091DF029091E002A1E0833CB5
:101F10009A070CF481C08BEF0E94D4258FE00E94B9
:101F2000F1250C94390380911D04482F50E0209135
:101F30001E0430E021503040421753070CF05CC0C3
:101F40008F5F0E944E4E6ECC1092A0032091DD0256
:101F50003091DE02E1E0233C3E070CF43FC080916B
:101F6000DF029091E002F1E0833C9F07BCF1809199
:101F70009F038F5F80939F038B3F08F4A6CE0C9442
:101F8000AC0380914A040E944E4E0C94EB068CEEFA
:101F90000E94F1258CEE0E94D4250E94F31E6093CE
:101FA000A1037093A2038093A3039093A403A4E0DE
:101FB000A0939D030C943903913009F444C19230ED
:101FC00011F00C945E0310930D0210930E023EEF7D
:101FD00030930F02109280030C945E0310929F03C3
:101FE00074CE10921F048BEE0E949B3DF4CB809127
:101FF0001D040E944E4EE0CB80E00E944E4E12CC5B
:1020000010921F048FEF0E94C33D8FEF0E949B3DF3
:102010008BEE0E94AF3D1BCC8FE00E94F1258FE03C
:102020000E94D4250C9439030E94F31E6093A103EF
:102030007093A2038093A3039093A4030E94624E23
:1020400090E0FC01BF01882777FD8095982F0E94C2
:10205000814F26EA3BE944EB5FE30E946E500E9409
:102060004E4F70931704609316040E94674E80933E
:1020700016020E946F3D809116020E946A4E909354
:1020800019048093180497FDFFC020911804309123
:1020900019042C543F4F8091160490911704281B6B
:1020A000390B30931B0420931A04253B31053CF077
:1020B000C9018856914090931B0480931A04809123
:1020C0001A0490911B04FFEF8C349F0734F4885955
:1020D0009E4F90931B0480931A04099683319105B7
:1020E00008F07AC080E00E94D42580E00E94F125AB
:1020F0000C948F076091180470911904882777FD5C
:102100008095982F0E94814F24EB39E545E35FE3EA
:102110000E946E500E94534F862F60931C040E94B1
:102120004E4E0C94890710924A040C94FA078CE3E3
:102130000E94871E2FCC309362032093610357CCFB
:1021400001969A8389838430910509F429C18530E9
:10215000910508F0A7C08230910509F430C18330A1
:10216000910509F42AC180E00E949B3D8FEF0E94F7
:10217000AF3D8FEF0E94C33D80919903E1E0F0E015
:10218000FA83E9830C946A0280E00E94D42580E0FF
:102190000E94F1250E94F31E6093A1037093A20395
:1021A0008093A3039093A403B3E0B0939D030C9496
:1021B0003903809120048F5F80932004843010F4D1
:1021C0000C940C0710922004973008F0E6C09F5F33
:1021D00090934A040C940C070E94001F80911A04EB
:1021E00090911B04181619060CF08DC089EF0E94FF
:1021F000D42587E00E94F12524E020939D038CEEF6
:1022000091E5A8EBBDE38B839C83AD83BE830C94E7
:102210008F07953009F461C0953008F46DC0963091
:1022200009F468C0973011F00C9470058BEE0E9491
:102230009B3D8BEE0E94AF3D8BEE0E94C33D809193
:1022400099030C946A0210930D022EEF20930E0254
:1022500010930F02609280030C945E0349815A81AF
:102260004115510519F710924A04109220048FEF7E
:102270000E949B3D8FEF0E94AF3D8FEF0E94C33DB8
:10228000809199030C946A0288599E4F9093190487
:1022900080931804FACE80934A0410922004982F59
:1022A0000C940C07A981BA81A630B10509F463C06A
:1022B000A630B10508F452C0A730B10509F053CFDC
:1022C00080E00E949B3D80E00E94AF3D80E00E9444
:1022D000C33D809199030C946A028BEE0E949B3D52
:1022E0008FEF0E94AF3D8BEE0E94C33D809199031A
:1022F0000C946A028FEF9BCF8BEE0C941D078FEF2F
:10230000EDCF8BEEB5CF87E00E94D42589EF0E94F8
:10231000F12593E090939D032CEE31E548EB5DEBC6
:102320002B833C834D835E830C948F0790E0019751
:1023300049815A818417950711F00C947B070C94FE
:10234000A80710921F048FEF0E94C33D8FEF0E94D9
:102350009B3D8BEE0E94AF3D0C94680780E00E948D
:102360009B3D8FEF0E94AF3D80E00E94C33D809176
:1023700099030C946A028FEFA4CF8FE00E94D425BA
:1023800086EF0E94F1250C94390386EF0E94D42534
:102390008FE00E94F1250C94390310924A0467CF14
:1023A00080E00E949B3D80E00E94AF3D8FEF0E9445
:1023B000C33D809199030C946A028FEFD0CF8FEFC9
:1023C000F0CF84B1807F84B984B1876084B980E51F
:1023D0008CBD8DB581608DBD08951CBC1DBC08955C
:1023E000442309F1A62FB72FE82FF92F91E021916F
:1023F0002EBD21E030E00DB407FC0BC02F5F3F4F36
:1024000057E220313507B8F390937E030DB407FEF1
:10241000F5CF20917E03222331F42EB52D932E2F5C
:10242000281B241720F308956623E9F0E82FF92FDD
:1024300091E021912EBD21E030E00DB407FC0BC0EE
:102440002F5F3F4F47E220313407B8F390937E036C
:102450000DB407FEF5CF20917E03222321F42E2F09
:10246000281B261730F308958EBD81E090E021E00F
:102470000DB407FC0AC0019637E280319307C0F320
:1024800020937E030DB407FEF6CF8EB508950F930B
:102490001F93DF93CF9300D0CDB7DEB7289880E2AB
:1024A0000E9434128DE00E943412289A289883E208
:1024B0000E94341281E00E943412289A80917B039A
:1024C00090917C0399838A831B82289880E30E94E1
:1024D00034128E010F5F1F4FC80163E00E94141277
:1024E000289A28988AE20E943412C80163E00E9468
:1024F0001412289A289881E20E94341281E00E94E6
:102500003412289A289882E20E94341281E00E94B4
:102510003412289A289884E20E94341282E10E94A0
:102520003412289A289885E20E94341288E20E9488
:102530003412289A289881E30E9434128DE00E9478
:102540003412289A289880E50E94341283E70E946A
:102550003412289A28988CE30E94341281E00E9459
:102560003412289A28988DE30E94341286E00E9443
:102570003412289A289880E20E9434128FE00E9438
:102580003412289A0F900F900F90CF91DF911F91E6
:102590000F9108952C9A289A0E9447120895FF924D
:1025A0000F931F93DF93CF930F92CDB7DEB7809138
:1025B0006604882339F00F90CF91DF911F910F911E
:1025C000FF90089528988FEF0E943412289A86FF72
:1025D000F2CF80917D03826080937D03289887E20B
:1025E0000E94341280E70E943412289A1982289897
:1025F00087E10E943412BE016F5F7F4FCB0141E043
:102600000E94F011289A898180FDD5CF289881E613
:102610000E9434128FE199E0BC014DE00E94F0115C
:10262000289A289887E20E94341280E40E9434128B
:10263000289A289882EE0E943412289A80917F036B
:10264000813009F44BC140911F09242F442309F024
:102650009CC150912009E52F552309F410C2009127
:10266000210980919F04882341F570912309272F28
:1026700030E02F77307030937A03209379036091A4
:102680002409862F90E08F77907090937803809341
:10269000770377FD03C0309521953F4F309360035A
:1026A00020935F0367FD03C0909581959F4F9093A2
:1026B000620380936103242FE52F30E030930809F3
:1026C00020930709F0E0F0930A09E093090910E06C
:1026D00010930C0900930B09922F8827821B930BF0
:1026E00024E630E0B9010E943A51F62EF094F092BF
:1026F0000D025E2F44274E1B5F0BCA01B9010E94D9
:102700003A51609560930F02502F4427401B510BA4
:10271000CA01B9010E943A51609560930E028F2D53
:102720000E949B3D80910E020E94AF3D80910F025E
:102730000E94C33D8091220980FF59C1449881FFC6
:1027400054C14598982F82FF4DC121E0209311027A
:1027500084FDA2C186FF43C181E08093B90397FD48
:10276000C7C11092BA038091250980FF32C18091C0
:102770000B018E7F80930B018091250981FF23C17E
:1027800080910B018D7F80930B018091250982FF41
:1027900014C180910B018B7F80930B0180912509DF
:1027A00083FF09C1A3988091250984FFFEC0809111
:1027B0000B018F7E80930B018091250985FFEFC06F
:1027C00080910B018F7D80930B018091250986FFFD
:1027D000E0C080910B018F7B80930B0180912509D4
:1027E00087FD80C180910B01806880930B018091EF
:1027F0009903883009F458C180910C0280935708DE
:10280000853009F479C1863008F4F3C0863009F4C4
:1028100035C2873009F062C0609147037091480368
:102820008091490390914A030E944E4F609358084B
:102830007093590880935A0890935B086091430302
:102840007091440380914503909146030E944E4F3E
:1028500060935C0870935D0880935E0890935F08B6
:102860006091BC037091BD038091BE039091BF0342
:102870006093C0037093C1038093C2039093C3031A
:1028800020E030E44FE054E40E946E500E944E4F2E
:10289000262F20936008709361086091C4037091A3
:1028A000C5038091C6039091C7030E94534F609364
:1028B0006208709363086091C8037091C9038091A6
:1028C000CA039091CB030E94534F609364087093A6
:1028D00065081092660883E080930C02289881EEC8
:1028E0000E943412289A289888EA0E943412809113
:1028F00057080E943412809158080E943412809127
:1029000059080E94341280915A080E943412809112
:102910005B080E94341280915C080E9434128091FE
:102920005D080E94341280915E080E9434128091EA
:102930005F080E943412809160080E9434128091D6
:1029400061080E943412809162080E9434128091C2
:1029500063080E943412809164080E9434128091AE
:1029600065080E943412809166080E943412289AE9
:102970000F90CF91DF911F910F91FF9008958CE3FD
:102980000E94871E40911F09242F50912009E52F96
:1029900066CE80910B01806480930B011FCF8091E4
:1029A0000B01806280930B0110CF80910B0180613D
:1029B00080930B0101CFA39AF6CE80910B01846026
:1029C00080930B01EBCE80910B01826080930B0111
:1029D000DCCE80910B01816080930B01CDCE1092F3
:1029E000B903BDCE10921102B3CE459AABCE449A34
:1029F000A6CE833009F4DCC0843009F06FCF90910B
:102A0000D3028091D40290935808809359089091F2
:102A1000DB028091DC0290935A0880935B089091CE
:102A2000DD028091DE0290935C0880935D089091B6
:102A3000DF028091E00290935E0880935F0890919E
:102A4000E1028091E2029093600880936108909186
:102A50008D0380918E039093620880936308909118
:102A60008F03809190039093640880936508809110
:102A700085038093660885E080930C022FCF009138
:102A80002109002309F04CC180912209883009F402
:102A900049C1E02F202FE5CD0E94A63E0E94001FD5
:102AA00090912209892F56CE80919F04882309F0A6
:102AB000A3CE8091260980FF9FCE0E94A63E8FEF75
:102AC00093E09093DC028093DB029093E202809388
:102AD000E10286E08093F60A81E0809350088093BB
:102AE0009F048ACE80910B018F7780930B017FCE5C
:102AF00081E08093BA0337CE80919B0290919C0233
:102B00008093580880919B0290919C029093590861
:102B100080919F029091A00280935A0880919F0219
:102B20009091A00290935B088091A3029091A402DF
:102B300080935C088091A3029091A40290935D0819
:102B40008091A7029091A80280935E088091A702CD
:102B50009091A80290935F088091AF029091B0028B
:102B6000809360088091AF029091B00290936108C9
:102B70008091B3029091B402809362088091B30275
:102B80009091B402909363088091B7029091B8023B
:102B9000809364088091B7029091B8029093650881
:102BA000809199038093660886E080930C0296CE0C
:102BB0009091CB028091CC02909358088093590851
:102BC0009091CD028091CE0290935A0880935B0839
:102BD0009091CF028091D00290935C0880935D0821
:102BE0009091D1028091D20290935E0880935F0809
:102BF0009091D5028091D6029093600880936108ED
:102C00009091D7028091D8029093620880936308D4
:102C10009091D9028091DA029093640880936508BC
:102C200030910301809103012091030190E08072B3
:102C30009070959587959595879595958795959598
:102C4000879595958795880F991F221F2227221F08
:102C5000220F220F282B832F90E080719070959582
:102C60008795959587959595879595958795282B23
:102C70002093660884E080930C0230CE8091AB02F2
:102C80009091AC02809358088091AB029091AC0275
:102C9000909359088091BB029091BC0280935A088E
:102CA0008091BB029091BC0290935B088091BF021F
:102CB0009091C00280935C088091BF029091C00205
:102CC00090935D088091C3029091C40280935E0846
:102CD0008091C3029091C40290935F088091C702D3
:102CE0009091C802809360088091C7029091C802B9
:102CF0009093610890919103809192039093620860
:102D00008093630890912F0380913003909364081F
:102D1000809365081092660887E080930C02DECDF0
:102D2000252F9FCC80912309882309F0B2CE809172
:102D30002409882309F423CEE0E020E092CCCF934D
:102D4000DF93C8E6D0E01882ACE6B0E01C92E0EB7E
:102D5000F0E010821092B1001092700088818260C1
:102D600088838C9180688C93808182608083DF91DE
:102D7000CF9108951F920F920FB60F9211248F9347
:102D800080911102882321F18091030186FD20C0EA
:102D9000809168008D7F8093680080916C008F77B0
:102DA00080936C0081E0809312028DE08093B300E9
:102DB0008091B10086608093B10080917000826044
:102DC00080937000109292021092930210929402DB
:102DD0008F910F900FBE0F901F9018951F920F921A
:102DE0000FB60F9211242F933F934F935F938F93BE
:102DF0009F938091B100887F8093B10080911202EF
:102E00008823A9F08091030186FF65C08091680046
:102E100082608093680080916C00806880936C0071
:102E20008FEF9FEF909307028093060249C0809135
:102E30000602909107022FEF8F3F920709F463C0BB
:102E40008130910509F498C09C0122503040253012
:102E5000310508F467C09C01275030402630310509
:102E600008F0BDC026E32093B3002091B100266096
:102E70002093B10020917000226020937000209177
:102E8000030130E0207430700024220F331F001C37
:102E9000220F331F001C232F302D4CE050E0481B25
:102EA000590B02C0220F331F4A95E2F7409192025C
:102EB000420F40939202019690930702809306027C
:102EC0009F918F915F914F913F912F910F900FBEE6
:102ED0000F901F9018951092120283E38093B30015
:102EE0008091B10086608093B10080917000826013
:102EF0008093700080910602909107022FEF8F3F20
:102F00009207C9F6DDCF2091030126FF52C0209120
:102F1000680022602093680020916C002068209354
:102F20006C00CECF26E32093B3002091B100266041
:102F30002093B100209170002260209370002091B6
:102F4000030130E0207430700024220F331F001C76
:102F5000220F331F001C232F302D46E050E0481B6A
:102F6000590B02C0220F331F4A95E2F7409193029A
:102F7000420F409393029FCF2091030130E02074D1
:102F80003070022E232F000C221F330B000C221F47
:102F9000331F2093940226E32093B3002091B100C5
:102FA00026602093B1002091700022602093700071
:102FB00082CF8CE18093B3008091B10086608093D2
:102FC000B100809170008260809370001092920234
:102FD000109293021092940281E090E06DCF8D30B8
:102FE000910509F068CF10927000809168008260AE
:102FF0008093680080916C00806880936C008FEFF4
:103000009FEF909307028093060280919402809331
:1030100005028091930280939002809192028093A6
:10302000910281E0809386034BCF80911102882327
:1030300021F080918603882309F408951092860375
:103040000E94F31E2091890330918A0340918B03E3
:1030500050918C03621B730B840B950B633827E034
:10306000720720E0820720E0920738F30E94F31EE7
:103070006093890370938A0380938B0390938C03EE
:10308000E0919102E0938503F0E0E533F105A8F0CB
:1030900020915F03309160038091610390916203FE
:1030A00037FDB3C130937A032093790397FDA5C10F
:1030B00090937803809377030895EE58FF4FEE0FB7
:1030C000FF1F0590F491E02D19948093B90310929D
:1030D000BA0320915F033091600380916103909166
:1030E0006203DECF1092B90381E08093BA0320918E
:1030F0005F03309160038091610390916203D0CFB0
:103100008091880390E0019683709070809388038B
:10311000823041F3833009F48CC18130B1F21092D6
:10312000B9031092BA0320915F033091600380913C
:10313000610390916203B4CF1092B90320915F03B1
:10314000309160038091610390916203A9CF8091D7
:1031500061039091620302979093620380936103ED
:103160002FEF813892079CF581E89FEF90936203DF
:103170008093610320915F033091600391CF209190
:103180005F033091600380915D0390915E03281787
:10319000390724F0209161033091620322503040BE
:1031A0003093600320935F03C9013093620320933F
:1031B00061034FEF2138340734F441E85FEF509357
:1031C000600340935F034FEF213834076CF2209186
:1031D0005F033091600364CF81E08093B903209155
:1031E0005F0330916003809161039091620358CF37
:1031F00020915F0330916003225030403093600390
:1032000020935F034FEF213834070CF045CF81E85E
:103210009FEF9093600380935F038091610390918F
:1032200062032FE730E03ECF20915F0330916003CF
:10323000225030403093600320935F0380916103FC
:1032400090916203029690936203809361034FEF23
:103250002138340734F421E83FEF309360032093A2
:103260005F03803891050CF41BCF8FE790E09093BB
:1032700062038093610314CF1092600310925F0386
:10328000109262031092610380919903883009F4CF
:10329000D6C080E090E020E030E004CF20915F03D2
:1032A000309160032E5F3F4F3093600320935F03A4
:1032B00080916103909162030297909362038093DF
:1032C00061032038310534F02FE730E0309360039C
:1032D00020935F034FEF813894070CF0E1CE81E833
:1032E0009FEF9093620380936103DACE8091610334
:1032F00090916203029690936203809361038038F9
:1033000091050CF464CF8FE790E090936203809373
:1033100061035DCF20915F03309160038091610371
:1033200090916203821793070CF473C09C012E5F87
:103330003F4F3093600320935F03029690936203A4
:10334000809361032038310534F02FE730E030936B
:10335000600320935F03803891050CF438CF8FE72A
:1033600090E0909362038093610320915F0330911A
:10337000600396CE20915F03309160032E5F3F4F34
:103380003093600320935F03203831050CF484CE22
:103390008FE790E09093600380935F0380916103D7
:1033A000909162032FE730E07DCE8091870390E01B
:1033B000019665E070E00E944E5180938703882358
:1033C00051F5449A459A10920F028FEF80930E02A6
:1033D00080930D020E949B3D80910E020E94AF3DA2
:1033E00080910F020E94C33D20915F0330916003E2
:1033F000809161039091620353CE909581959F4F88
:1034000090937803809377030895309521953F4FEB
:1034100049CEC9018CCF813079F18230A9F1833056
:10342000F1F18FEF80930F0280930E0280930D02D3
:10343000D1CF81E08093B9038093BA0329CE0E9453
:10344000A63E8FEF93E09093DC028093DB02909393
:10345000E2028093E10286E08093F60A81E08093A5
:10346000500880939F0420915F0330916003809106
:1034700061039091620314CE8FEF80930F0210923C
:103480000E0280930D02A6CF449845988FEF80934B
:103490000F0280930E0210920D0280E09BCF1092DB
:1034A0000F0210920E0210920D0280E093CFCF9285
:1034B000DF92EF92FF920F931F93CF93DF93FC0164
:1034C00080819181009709F4ADC0C091BC0AD09170
:1034D000BD0AD0935608C09355088081918197FD0D
:1034E000CAC02091590330915A03DC01A21BB30BCF
:1034F000B093BD0AA093BC0A8091710390917203AE
:103500008A0F9B1F909372038093710326E081348E
:1035100092070CF49DC080E496E090937203809330
:10352000710310ECC12E12E1D12EE12CF12C00819F
:1035300011819D01220F331FCD01880F991F880F24
:10354000991F880F991F280F391F442737FD409571
:10355000542FB801660F771F660F771F660F771F0E
:10356000882777FD8095982F260F371F481F591FF2
:10357000AC1BBD0BAA0FBB1FBD01CB01AA2797FD3A
:10358000A095BA2F280F391F4A1F5B1F2C0D3D1D18
:103590004E1D5F1D209367033093680340936903BA
:1035A00050936A0357FD7CC01216130614061506C5
:1035B0000CF083C017FD9DC0213C7DE5370770E00E
:1035C000470770E057070CF478C080EC9DE5A0E059
:1035D000B0E08093670390936803A0936903B0936E
:1035E0006A032CED35E03183208380914F03909165
:1035F0005003181619060CF077C02F5F3F4F318328
:10360000208362E020303607D4F08FEF91E0918381
:103610008083DF91CF911F910F91FF90EF90DF900A
:10362000CF90089510927203109271031092BD0A08
:103630001092BC0A1092560810925508EACF7EEFFD
:103640002130370734F781E09EEF91838083E1CF0B
:1036500069EF803C9607D4F480EC99EF9093720365
:103660008093710360E4C62E6DEED62E6FEFE62ECA
:103670006FEFF62E5CCFA0915903B0915A03A80FBB
:10368000B91FB093BD0AA093BC0A36CF6C01CC0C15
:10369000DD1CC80ED91EEE24D7FCE094FE2C47CFCB
:1036A00017FD0BC010926703109268031092690314
:1036B00010926A0320E030E0A901203482EA380742
:1036C0008FEF48078FEF5807FCF480E492EAAFEFE2
:1036D000BFEF8093670390936803A0936903B0934F
:1036E0006A0324E23AEF7FCF2150304031832083B8
:1036F00088CF1092670310926803109269031092AA
:103700006A0320E030E0A90184E05595479537959C
:1037100027958A95D1F767CFCF92DF92EF92FF92EC
:103720000F931F93CF93DF93FC01808191810097CA
:1037300009F4ADC0C091A404D091A504D0931E0992
:10374000C0931D098081918197FDCAC020915703C4
:1037500030915803DC01A21BB30BB093A504A093D6
:10376000A40480916F03909170038A0F9B1F909324
:10377000700380936F0326E0813492070CF49DC0A0
:1037800080E496E09093700380936F0310ECC12E59
:1037900012E1D12EE12CF12C008111819D01220F2B
:1037A000331FCD01880F991F880F991F880F991F0C
:1037B000280F391F442737FD4095542FB801660F55
:1037C000771F660F771F660F771F882777FD809515
:1037D000982F260F371F481F591FAC1BBD0BAA0F70
:1037E000BB1FBD01CB01AA2797FDA095BA2F280FBB
:1037F000391F4A1F5B1F2C0D3D1D4E1D5F1D209361
:103800006B0330936C0340936D0350936E0357FD2D
:103810007CC012161306140615060CF083C017FDA3
:103820009DC0213C7DE5370770E0470770E05707F2
:103830000CF478C080EC9DE5A0E0B0E080936B03D1
:1038400090936C03A0936D03B0936E032CED35E061
:1038500031832083809151039091520318161906E9
:103860000CF077C02F5F3F4F3183208362E0203020
:103870003607D4F08FEF91E091838083DF91CF9171
:103880001F910F91FF90EF90DF90CF9008951092CD
:10389000700310926F031092A5041092A40410926A
:1038A0001E0910921D09EACF7EEF2130370734F749
:1038B00081E09EEF91838083E1CF69EF803C9607A2
:1038C000D4F480EC99EF9093700380936F0360E4DD
:1038D000C62E6DEED62E6FEFE62E6FEFF62E5CCF76
:1038E000A0915703B0915803A80FB91FB093A50436
:1038F000A093A40436CF6C01CC0CDD1CC80ED91EDD
:10390000EE24D7FCE094FE2C47CF17FD0BC010929D
:103910006B0310926C0310926D0310926E0320E003
:1039200030E0A901203482EA38078FEF48078FEF93
:103930005807FCF480E492EAAFEFBFEF80936B038B
:1039400090936C03A0936D03B0936E0324E23AEF5F
:103950007FCF215030403183208388CF10926B037A
:1039600010926C0310926D0310926E0320E030E011
:10397000A90104E055954795379527950A95D1F704
:1039800067CF85B7806185BF8FEF81B912B897EF98
:1039900094B990EE95B990EF97B990EB98B99CEFE8
:1039A0009AB993E09BB98DB91EB810BA83BB8091C8
:1039B0009C038823E1F08130D1F0823051F19FEFF8
:1039C00090930101109202019FE0909304018823DB
:1039D000A9F49091050110920501109207019FEF43
:1039E00090930A01882329F410920B01089514BAC8
:1039F000E6CF8130C9F3823041F00895813011F073
:103A0000823059F790930501E8CF87EF80930B013F
:103A1000089598E094BBD3CF1092B8001092BC00E8
:103A200008951092C50080E18093C400E0ECF0E0BE
:103A3000808182608083E1ECF0E08081886980830E
:103A4000E2ECF0E080818660808308951092C000EF
:103A50001092C1001092C20008959091C00095FF8D
:103A6000FCCF8093C600662321F08091C00086FFC2
:103A7000FCCF08951F920F920FB60F920BB60F92C4
:103A800011242F933F934F935F936F937F938F9363
:103A90009F93AF93BF93EF93FF939091C600809154
:103AA00099038E3009F43FC08F3009F442C08091F1
:103AB0001002882309F580918103813009F465C0E3
:103AC0008230F1F440918303442309F474C04130FF
:103AD000B9F4392F20E080917B0390917C03822BF5
:103AE000932B90937C0380937B03409382031092EB
:103AF00083034093100204C010921002909381033C
:103B0000FF91EF91BF91AF919F918F917F916F91B5
:103B10005F914F913F912F910F900BBE0F900FBE71
:103B20000F901F9018959A3A59F781E080930D04F1
:103B3000E7CF9B3201F19D3291F1973609F043C0F6
:103B4000909185038091C00085FFFCCF9093C600C3
:103B50008091C00086FFFCCF909166009093810415
:103B60008091C00085FFFCCF9093C6008091C0007B
:103B700086FFFCCFC5CF809181048F3FD1F08F5F4E
:103B80008093810480936600BBCF9A3A31F19535DA
:103B900009F0B6CF8093100210928103B1CF8091CB
:103BA0008104882321F0815080938104EBCF80E051
:103BB000E9CF8FEFE7CF90937B0310927C0381E0F6
:103BC000809383039DCF933709F09ACF8DEF9FE0C9
:103BD000609181040E94495293CF8093840390CFD7
:103BE00086B166B126B146B130E0287030703595A7
:103BF00027953595279535952795220F331F70E02A
:103C0000647070707595679575956795260F371F69
:103C1000220F331F50E04270507055954795240F86
:103C2000351F220F8170820F0895F89414BC15BCC3
:103C300010926E0010922001109221018EEF9FE0F1
:103C40000E941B5290937C0380937B038DEF9FE037
:103C50000E94135280938104982F91509E3F08F048
:103C600043C08093660080917B0390917C039C010C
:103C700021583C402330310538F510929C030E94B6
:103C8000FC330E94C11C0E943C1F0E9476250E94AA
:103C9000793D0E94E1110E94CA1280917E0388231F
:103CA00029F480917D03816080937D030E94111D22
:103CB0000E949F1680911502880F81600E94D70094
:103CC00078940E94040108952CE08038920721F432
:103CD00081E080939C03D3CF2CE08438920778F264
:103CE00082E080939C03CBCF609166006093810457
:103CF0008DEF9FE00E944952B6CF1F920F920FB6F0
:103D00000F9211240F900FBE0F901F901895CF9314
:103D1000DF939EE1899FE0011124809168008D7FEF
:103D20008093680080916C008F7780936C00D99AA3
:103D300010927A0080917A00806180937A001092CC
:103D40009000109291001092710088B3876088BB38
:103D50001092A0001092A1001092720089B38760A7
:103D600089BB10928000109281000E94261D0E9443
:103D7000ED110E940C1D0E94C11C83B78F6083BF90
:103D800081E0809370008091B0008D7F8093B000BF
:103D90008091B10087608093B100209719F08895D9
:103DA0002197E9F713BE8091B100887F8093B1001D
:103DB000109270008091B00082608093B0008FEF0D
:103DC00080930D0280930E0280930F0210925C0389
:103DD00010925B0310925E0310925D030E94151E09
:103DE000DF91CF9108956091950370919603809132
:103DF000970390919803089581E08093310308958B
:103E000080E090E0DC018093470390934803A09307
:103E10004903B0934A038093430390934403A093D0
:103E20004503B09346038093BC039093BD03A093D6
:103E3000BE03B093BF038093C4039093C503A093C4
:103E4000C603B093C7038093C8039093C903A0939C
:103E5000CA03B093CB038093D4039093D503A0936C
:103E6000D603B093D7038093D0039093D103A0934C
:103E7000D203B093D3030895CF93DF93EAE7F0E042
:103E80001082ABE7B0E01C92CCE7D0E018828081D2
:103E9000866080838881806488838081806280835B
:103EA0008C91887F8C9380818860808380818068FA
:103EB0008083808180648083DF91CF9108951F92F9
:103EC0000F920FB60F920BB60F9211241F932F93E0
:103ED0003F934F935F936F937F938F939F93AF9392
:103EE000BF93EF93FF938091950390919603A091D8
:103EF0009703B09198038F3F2FEF92072FEFA20700
:103F00002FEFB20709F4B8C00196A11DB11D80932F
:103F1000950390939603A0939703B0939803809191
:103F2000780090E040917900342F20E0822B932B91
:103F300020912B03223009F4CAC1233008F44CC06D
:103F4000243009F4EEC1243008F033C120914B0332
:103F500030914C03280F391F3695279530934C0329
:103F600020934B0380910904823009F04BC080916B
:103F70005604813009F4A9C2813008F000C2809152
:103F80005804813009F412C380912C03909195025A
:103F9000983008F054C190917B00977F90937B00FC
:103FA00090919502905C90937C00823009F454C10A
:103FB000FF91EF91BF91AF919F918F917F916F9101
:103FC0005F914F913F912F911F910F900BBE0F90DA
:103FD0000FBE0F901F901895222309F456C0213070
:103FE00061F420914D0330914E03280F391F36950F
:103FF000279530934E0320934D038091090482301E
:1040000009F4B5CF813009F441C1882309F0BCCF50
:1040100080912C03823009F42CC3833008F0DCC17A
:10402000882309F47FC2813009F0B0CF80919702D4
:104030008093950280919A0280932E0310922B0315
:1040400082E080932C0310910704113009F414C40A
:10405000123009F099CF80919602873109F094CF00
:104060001093090480915804813009F49FC2109282
:10407000090480912C038ACF109295031092960325
:1040800010929703109298034ACF609196026E3077
:1040900009F402C3262F30E0F901EE0FFF1FE556A9
:1040A000FD4F9183808320FF78C0F901EE0FFF1F41
:1040B000E756FD4F80819181F901EE0FFF1FE55614
:1040C000FD4F40815181262F269530E0841B950BB2
:1040D000220F331FF901ED51FD4F40815181841BA7
:1040E000950BF901E553FD4F9183808397FDFEC247
:1040F00044E08130940724F080E094E09183808351
:10410000603150F48C3391050CF0F5C22D5C3C4FBE
:10411000D90111969C938E938091BA03882309F458
:1041200012C28091DB029091DC02F1E0843A9F0799
:10413000CCF08091DD029091DE0221E0843A92077A
:104140008CF08091DF029091E00241E0843A940784
:104150004CF08091E1029091E202A1E0843A9A074A
:104160000CF0F1C181E08093BB0310925E031092CA
:104170005D031092A9001092A8001092AB0010925B
:10418000AA0010925C0310925B03109299001092A7
:10419000980010929B0010929A006F5F60939602B5
:1041A000683108F42ACF1092960281E0809332039E
:1041B00024CF263009F021CF2091350430E0409102
:1041C0009602220F331F220F331F220F331F240F9B
:1041D000311D220F331FE091FE07F091FF07E20F20
:1041E000F31F9183808360919602262F30E0220F87
:1041F000331FE091CC0AF091CD0AE20FF31F40810A
:1042000051814817590740F4918380836091960249
:10421000262F30E0220F331FE091F804F091F904CB
:10422000E20FF31F208131818217930720F49183DD
:104230008083609196026F5F60939602DECE9091CC
:104240007B00986090937B0090919502985C90938E
:104250007C00823009F0ACCE80910904882309F0FB
:10426000A7CE20919C03222339F480910501807F01
:104270008093050112B89CCE213019F0223009F04C
:1042800097CE8FEF8093050112B892CE90913404AF
:10429000963009F443C2973008F0CEC0923009F44A
:1042A000A9C2933008F46EC1943009F4D0C295309D
:1042B00008F4BFC2809196028F5F8093950286E0DA
:1042C00080932B038093340480912C035FCE209144
:1042D0000A02222309F491CE63998FCE64998DCE80
:1042E000422F4F5F40930A02453008F486CE20915A
:1042F0005B0330915C032115310551F0209155038A
:1043000030915603280F391F3093560320935503DD
:10431000483009F072CE10920A0281E080930902BF
:104320006CCE20910B02222309F467CE309100015C
:1043300033FD63CE3091000134FD5FCE422F4F5FDD
:1043400040930B02453008F458CE20915D03309124
:104350005E032115310551F0209153033091540330
:10436000280F391F3093540320935303483009F02A
:1043700044CE10920B0281E0809308023ECE83303F
:1043800009F47CC0843009F0FFCD209164042F5FD4
:104390002093640430E080916004909161042817B8
:1043A000390709F408C180919702809395028091A2
:1043B0009A0280932E0380912D03882309F4CFC0A5
:1043C000813009F4B5C285E080932B0383E08093AC
:1043D000560480912C03DACD833009F437C1843040
:1043E00009F0D4CD90919802909395029091990202
:1043F00090932D0390912E03992309F06AC183E0D5
:1044000080932B0310922C03609196026E3009F476
:104410002CC2862F90E060FFB7CD603108F033C228
:10442000669581E090E002C0880F991F6A95E2F7D7
:1044300082B980912C03AACD993009F4C3C19A3076
:1044400008F091C0973009F4E3C1983009F09CCD91
:1044500080919802809395028091990280932D0318
:1044600080912E03882309F067C283E080932B0399
:1044700089E08093340480912C0388CD20916404DA
:104480002F5F2093640430E0809160049091610478
:104490002817390709F4BEC08091980280939502CD
:1044A0008091990280932D0380912E03882309F433
:1044B00052C0813009F438C285E080932B0384E038
:1044C0008093560480912C0361CD20919C0322237C
:1044D00001F580910501807F8093050112B88091DC
:1044E00097028093950280919A0280932E0385E033
:1044F00080932B0380930A0482E08093560480917A
:104500006504882319F581E08093650480912C036C
:104510003DCD213011F0223011F78FEF809305014E
:1045200012B8DDCF80919602869580939502809196
:104530002D03882309F0BFC081E080932B0381E025
:1045400080932C0323CD1092BB0327CE10926504D9
:1045500080912C031BCD83E080932B03B0CF81E0AF
:1045600080932B0333CF9B3009F40FC19B3008F4A9
:10457000E2C09C3009F008CD85E080932B03809148
:104580002C0304CD992309F411C1913009F0FCCC1E
:10459000809196028F5F8093950286E080932B0333
:1045A00082E08093340480912C03F0CC80935604F5
:1045B00080912C03EBCC1092640480915F048823DB
:1045C00009F0A7C181E080935F048091650488238E
:1045D00009F0E2C18AEA82B9809163048F5F809317
:1045E000630490916204891709F0DDCE80915E0426
:1045F0008F5F80935E048C3009F45BC282E080930D
:104600000A0482E08093560485E080932B03809116
:104610002C03BCCC1092640480915F04882309F0C1
:1046200074C181E080935F0480916504882309F060
:10463000B0C18AEA82B9809163048F5F809363047A
:1046400090916204891709F027CFD0CF809197020B
:104650008093950280919A0280932E0380912D037E
:104660008823E9F581E080932B0384E080932C0379
:104670008DCC8091980280939502809199028093CD
:104680002D0380912E038823E9F483E080932B038C
:1046900083E080932C037ACC20913103223009F0FF
:1046A000F9CC9093300380932F03109231034698F6
:1046B0002EE030E0F8CC813009F448C185E08093E9
:1046C0002B033DCF813009F43DC185E080932B035E
:1046D000DFCF913009F085E080932B0393CE8130BA
:1046E00009F438C185E080932B03BFCF118210827B
:1046F00080E090E005CDAC01445C5F4F5595479557
:10470000483751050CF0E8C02D5C3C4FCC9795958F
:104710008795CC96F90191838083FECC8091960297
:104720008F5F8093950290932B0387E080933404EE
:1047300080912C032BCC80919802809395028091DC
:10474000990280932D0380912E03882309F0E5C000
:1047500083E080932B0390914D049E3F18F49F5F5C
:1047600090934D04809135048F5F809335042091A0
:104770000A04243009F402C1843109F421C18BE018
:104780008093340480912C0301CC10929502909177
:104790002D03992321F0913009F40AC185E080931B
:1047A0002B031092340480912C03F0CB10929602CC
:1047B0008093950296E090932B038093340480912C
:1047C0002C03E4CB909197029093950290919A02DA
:1047D00090932E0390912D03992321F0913009F4A9
:1047E000EBC085E080932B038AE0809334048091B2
:1047F0002C03CCCB809196028F5F8093950286E04C
:1048000080932B0383E08093340480912C03BECBF0
:10481000809197028093950280919A0280932E0353
:1048200086E080932B0388E08093340480912C03EE
:10483000ADCB809196028F5F8093950286E0809346
:104840002B0384E08093340480912C039FCB8091D0
:1048500096028F5F8093950286E080932B0385E01C
:104860008093340480912C0391CB8091310381306B
:1048700009F495C080E08ACB80919602873109F4D3
:10488000F8C082E083CB20919C03222379F44097E7
:104890009595879521E030E002C0220F331F8A955D
:1048A000E2F72093050180912C0370CB213019F0A1
:1048B000223009F069CB4091050140979595879585
:1048C00021E030E002C0220F331F8A95E2F72095E5
:1048D00024232093050158CBAC01445D5E4F5595D0
:1048E000479555954795443B5105C4F52D5C3C4F84
:1048F000845B9040959587959595879588589F4FAF
:10490000D90111969C938E9307CC10925F0412B834
:1049100092CE10925F0412B85FCE813009F4A5C028
:1049200085E080932B0317CF84E080932B03C7CDC2
:1049300082E080932B034ACD8130B1F185E08093F2
:104940002B0396CD84E080932B03A2CE82E080934C
:104950002B03F5CD82E080932B0387CE2D5C3C4F5B
:10496000845A9140959587959595879595958795C6
:104970008C549F4FF90191838083CECB10923504E4
:1049800080913F04981708F4FACE85E080930A04DA
:10499000F6CE85E582B94FCE85E582B91DCE82E09F
:1049A00080933103469A35CD84E080932B0360CD0C
:1049B00082E080932B03F5CE82E080932B0314CF0B
:1049C0001092350480917E0790917F072091FE0719
:1049D0003091FF0730937F0720937E079093FF0766
:1049E0008093FE0750917B0440917C048091CC0A17
:1049F0009091CD0A90937C0480937B045093CC0AD1
:104A00004093CD0A80916704909168049093720B53
:104A10008093710B2091F8043091F904309368046D
:104A2000209367049093F9048093F804E52FF42F02
:104A300080E1DF011D928A95E9F78091F804909159
:104A4000F9046FEF70E040E150E00E94FC5180916A
:104A50000A04813009F444C080910A04853009F0C9
:104A60008ECE86E080930A048ACE84E080932B0366
:104A700072CE10929502109231031092340410926B
:104A80003504E091CC0AF091CD0A80E1DF011D925E
:104A90008A95E9F78091F8049091F9046FEF70E03E
:104AA00040E150E00E94FC5110930904109107046A
:104AB000CFCA81E080930A041092580410922C030C
:104AC000109209040E941C4212B80E94F31E6093C7
:104AD000590470935A0480935B0490935C0491CDC5
:104AE00082E080930A0410924D04B6CF0F931F9377
:104AF000CF93DF93E0E9F0E0108241E950E0DA0182
:104B00001C9221E730E0E9011882A0EAB0E01C9293
:104B100081EA90E0EC01188202E710E0E8011882D7
:104B2000608163686083608163606083EA0168819B
:104B30006B60688340915B0350915C0350939900D4
:104B40004093980010929B0010929A00E9014881CE
:104B50004160488320812F7520832EB1277E2EB996
:104B60002C9123682C93FC0120812B602083809161
:104B70005D0390915E039093A9008093A80010922A
:104B8000AB001092AA00E8018881816088838C9133
:104B90008F758C93E2E0F1E08081877E8083DF91E6
:104BA000CF911F910F910895282F332727FD30951E
:104BB00037FD13C0309378032093770387FD05C03A
:104BC00030936203209361030895309521953F4F00
:104BD00030936203209361030895309521953F4FF0
:104BE000E9CF282F332727FD309537FD13C03093A9
:104BF0007A032093790387FD05C0309360032093E7
:104C00005F030895309521953F4F309360032093C3
:104C10005F030895309521953F4FE9CF809184043B
:104C2000882389F5E0915008E23008F496C0F0E05E
:104C3000DF01A295B295B07FBA27A07FBA27A95A03
:104C4000B74F12962D913C91139780916F0B9091D5
:104C5000700B2817390734F0C90101969093700B37
:104C600080936F0BE295F295F07FFE27E07FFE27A1
:104C7000E959F74F2091F1033091F20331832083FA
:104C8000938382830895813031F0823009F46BC0C0
:104C9000833091F10895E0915008E23008F493C018
:104CA000F0E0DF01A295B295B07FBA27A07FBA27C6
:104CB000A95AB74F16962D913C91179780916F0B7B
:104CC0009091700B2817390734F0C9010196909321
:104CD000700B80936F0BE295F295F07FFE27E07FDB
:104CE000FE27E959F74F2091F3033091F403358300
:104CF0002483978386830895E0915008E23008F476
:104D000068C0F0E0DF01A295B295B07FBA27A07F1E
:104D1000BA27A95AB74F1E962D913C911F978091A3
:104D20006F0B9091700B2817390734F0C901019669
:104D30009093700B80936F0BE295F295F07FFE27B6
:104D4000E07FFE27E959F74F2091F3033091F403F8
:104D500035872487978786870895F0E080916F0BC9
:104D60009091700B7FCFE0915008E230C0F1F0E0FD
:104D7000DF01A295B295B07FBA27A07FBA27A95AC2
:104D8000B74F1A962D913C911B9780916F0B909184
:104D9000700B2817390734F0C90101969093700BF6
:104DA00080936F0BE295F295F07FFE27E07FFE2760
:104DB000E959F74F2091F1033091F20331872087B1
:104DC000938782870895F0E080916F0B9091700B2C
:104DD00082CFF0E080916F0B9091700BADCFF0E03F
:104DE00080916F0B9091700BDDCF8091F60A84302B
:104DF00009F4D6C1853080F0863009F483C286304C
:104E0000B0F5809150088F5F809350088A3009F484
:104E1000C3C21092F60A0895813009F472C181303C
:104E200008F073C080918404882309F079C210923D
:104E30006403109263039091500885E0989FC0012D
:104E40001124880F991F880F991F909366038093F0
:104E5000650381E08093F60A0E94F31E6093C60A00
:104E60007093C70A8093C80A9093C90A089587303F
:104E700009F402C2883079F680918404882309F409
:104E8000DCC0823009F4D9C08091E1029091E20245
:104E90002091010430910204821793070CF4D9C0C9
:104EA00020910304309104042817390724F49093C7
:104EB0000404809303040E94F31E2091C60A3091DB
:104EC000C70A4091C80A5091C90A621B730B840B30
:104ED000950B6E3C2BEB720720E0820720E09207D7
:104EE00008F499CF80910304909104042091010467
:104EF00030910204820F931F959587959093060435
:104F0000809305041092F60A0895823009F487C14F
:104F1000833009F080CF80918404882309F49EC0F7
:104F2000823009F49BC02091E1023091E20280912D
:104F3000050490910604281739070CF055C00E940B
:104F4000F31E20917D0430917E0440917F045091A6
:104F50008004621B730B840B950B60937D0470932C
:104F60007E0480937F04909380040E947F4F20E012
:104F700030E040ED52E40E946E5020E034E244E71D
:104F800059E40E94E64E9B01AC0164E17EE288E7B1
:104F900093E40E94E64E0E94534F7093700B60930F
:104FA0006F0B2091EF033091F00340E050E06091EF
:104FB000E9037091EA038091EB039091EC030E9466
:104FC00061513093F4032093F3030E940E2684E092
:104FD0008093F60A0E94F31E6093C60A7093C70A74
:104FE0008093C80A9093C90A0E94F31E2091C60AB2
:104FF0003091C70A4091C80A5091C90A621B730BCD
:10500000840B950B6C392DEC720728E0820720E0A9
:10501000920708F400CF1092700B10926F0B109251
:10502000F2031092F1031092F4031092F3030E9422
:105030000E2685E08093F60A08958091DB02909118
:10504000DC022091010430910204821793070CF0D6
:1050500027CF909302048093010422CF2091DB029A
:105060003091DC02809105049091060428173907DD
:105070000CF0BACF0E94F31E20917D0430917E0483
:1050800040917F0450918004621B730B840B950B3D
:1050900060937D0470937E0480937F0490938004DA
:1050A0000E947F4F20E030E040ED52E40E946E50BD
:1050B00020E034E244E759E40E94E64E9B01AC0153
:1050C00064E17EE288E793E40E94E64E0E94534F3B
:1050D0007093700B60936F0B2091ED033091EE0392
:1050E00040E050E06091E5037091E6038091E703B2
:1050F0009091E8030E9461513093F2032093F103F1
:1051000064CF80918404882391F1823081F12091D1
:10511000E1023091E2028091050490910604281783
:1051200039070CF061CF1092F0031092EF03109248
:10513000E9031092EA031092EB031092EC030E9431
:10514000F31E60937D0470937E0480937F0490939C
:10515000800482E08093F60A0E94F31E6093C60AE0
:105160007093C70A8093C80A9093C90A3DCF2091D3
:10517000DB023091DC02809105049091060428172F
:1051800039070CF031CF1092EE031092ED0310921C
:10519000E5031092E6031092E7031092E803CFCFE5
:1051A00080918404882361F1823051F12091E102E1
:1051B0003091E202809105049091060482179307D2
:1051C00054F10E94F31E2091C60A3091C70A409103
:1051D000C80A5091C90A621B730B840B950B6C397A
:1051E0002DEC720728E0820720E0920708F413CE26
:1051F0001092700B10926F0B85E08093F60A089561
:105200002091DB023091DC0280910504909106042C
:1052100082179307B4F685E08093F60AD2CF809187
:1052200084048823E1F08230D1F02091E1023091B2
:10523000E2028091050490910604821793070CF016
:10524000D3CE83E08093F60A0E94F31E6093C60AD1
:105250007093C70A8093C80A9093C90AC5CE20915B
:10526000DB023091DC0280910504909106048217E4
:1052700093070CF0B9CEE5CF0E94F31E2091C60A29
:105280003091C70A4091C80A5091C90A621B730B3A
:10529000840B950B603925E2720720E0820720E03D
:1052A000920708F4B8CD80918404882309F456C08D
:1052B000813009F4A0C0823009F4A8C0833051F4D1
:1052C00084EC9FEF909364038093630310926603D2
:1052D000109265038FEF93E0909302048093010492
:1052E000109204041092030488E08093F60A0E944E
:1052F000F31E6093C60A7093C70A8093C80A9093FE
:10530000C90A08950E94F31E6093C60A7093C70AE3
:105310008093C80A9093C90A87E08093F60A08959B
:10532000813039F1823009F450C0833009F091CDD9
:105330009091500885E0989FC0011124880F991F13
:10534000880F991F909581959F4F90936403809348
:10535000630310926603109265037BCD1092640381
:10536000109263038CE390E090936603809365034F
:10537000B1CF9091500885E0989FC0011124880F0B
:10538000991F880F991F9093640380936303109271
:105390006603109265035DCD91E090935008809173
:1053A0008404882321F482E08093840432CD813008
:1053B000C1F18230D1F1833009F02BCD10928404F9
:1053C0000E94044210929F0424CD10926403109214
:1053D00063039091500885E0989FC0011124880FC5
:1053E000991F880F991F909581959F4F9093660301
:1053F000809365032ECD8CE390E0909364038093BB
:105400006303109266031092650364CF10926403E5
:105410001092630384EC9FEF90936603809365037F
:1054200059CF83E080938404F4CC90938404109249
:105430009F0486E08093F60A0895AF92BF92CF92C0
:10544000DF92EF92FF920F931F93CF93DF939C0114
:10545000220F331F220F331F280F391F211531054B
:1054600009F47BC0862F8250823008F484C0662302
:1054700009F084C08091790890917A088217930787
:105480000CF01BC28091890890918A0882179307BB
:105490000CF01CC28091990890919A08821793078A
:1054A0000CF017C28091A9089091AA08821793075F
:1054B0000CF012C28091B9089091BA088217930734
:1054C0000CF0FEC18091C9089091CA088217930719
:1054D0000CF0F9C18091D9089091DA0882179307EE
:1054E0000CF002C28091E9089091EA0882179307B4
:1054F0000CF0FDC1C091F908D091FA08C217D3078A
:105500000CF07AC1B901882777FD8095982F0E9409
:10551000814F7B018C016091F7087091F808882712
:1055200077FD8095982F0E94814F9B01AC01C801A7
:10553000B7010E946E507B018C01BE01882777FD68
:105540008095982F0E94814F9B01AC01C801B70143
:105550000E94E64E0E944E4F02C060E070E0CB0118
:10556000DF91CF911F910F91FF90EF90DF90CF903F
:10557000BF90AF900895309521953F4F633009F467
:10558000F3C0623001F1613009F498C0662309F478
:1055900090C0613009F48CC1623009F4A0C163305D
:1055A000E1F6C0910509D0910609B901882777FD78
:1055B0008095982F0E94814F7B018C016091030997
:1055C0007091040955C080918108909182088217DA
:1055D00093070CF072C18091910890919208821704
:1055E00093070CF073C18091A1089091A2088217D3
:1055F00093070CF06EC18091B1089091B2088217A8
:1056000093070CF069C18091C1089091C20882177C
:1056100093070CF055C18091D1089091D208821760
:1056200093070CF050C18091E1089091E208821735
:1056300093070CF059C18091F1089091F2088217FC
:1056400093070CF054C1C0910109D0910209C2170F
:10565000D3070CF0D1C0B901882777FD8095982F2A
:105660000E94814F7B018C016091FF0870910009BD
:10567000882777FD8095982F0E94814F9B01AC0170
:10568000C801B7010E946E507B018C01BE018827C2
:1056900077FD8095982F0E94814F9B01AC01C80136
:1056A000B7010E94E64E0E944E4F709561957F4F64
:1056B00056CFC091F908D091FA0824CF80917D0887
:1056C00090917E08821793070CF0F7C080918D08A7
:1056D00090918E08821793070CF0F8C080919D0876
:1056E00090919E08821793070CF0F3C08091AD084B
:1056F0009091AE08821793070CF0EEC08091BD0820
:105700009091BE08821793070CF0DAC08091CD0803
:105710009091CE08821793070CF0D5C08091DD08D8
:105720009091DE08821793070CF0DEC08091ED089F
:105730009091EE08821793070CF0D9C0C091FD0834
:10574000D091FE08C217D3070CF056C0B9018827C4
:1057500077FD8095982F0E94814F7B018C0160918D
:10576000FB087091FC08DBCE80918508909186083B
:10577000821793070CF0A1C080919508909196082C
:10578000821793070CF0A2C08091A5089091A608FB
:10579000821793070CF09DC08091B5089091B608D0
:1057A000821793070CF098C08091C5089091C608A5
:1057B000821793070CF084C08091D5089091D60889
:1057C000821793070CF07FC08091E5089091E6085E
:1057D000821793070CF088C08091F5089091F60825
:1057E000821793070CF083C0C0910509D091060978
:1057F000C217D3070CF4D9CEC8E0D0E0209709F047
:1058000079C0662391F44091770850917808249FDD
:10581000C001259F900D349F900D1124609179084F
:1058200070917A080E944E519ACE6130D1F0623068
:1058300051F1633009F091CE409183085091840872
:10584000249FC001259F900D349F900D11246091DD
:105850008508709186080E944E51709561957F4F22
:105860007ECE40917B0850917C08249FC001259FEB
:10587000900D349F900D112460917D0870917E08E9
:105880000E944E516CCE40917F0850918008249F19
:10589000C001259F900D349F900D112460918108C7
:1058A000709182080E944E51709561957F4F57CE3E
:1058B000C091FD08D091FE0849CFC0E0D0E09ECF56
:1058C000C4E0D0E09BCFC5E0D0E098CFC1E0D0E00D
:1058D00095CFC2E0D0E092CFC3E0D0E08FCFC091AF
:1058E0000109D0910209B7CEC6E0D0E087CFC7E06A
:1058F000D0E084CFC930D10509F448CE662309F041
:1059000047C0FE01E295F295F07FFE27E07FFE277B
:10591000E959F74FC280D380A080B1802C193D098E
:10592000B901882777FD8095982F0E94814F7B01D0
:105930008C01C295D295D07FDC27C07FDC27C95867
:10594000D74F688179816A197B09882777FD80950F
:10595000982F0E94814F9B01AC01C801B7010E94A2
:105960006E507B018C016A817B816C197D098827CF
:1059700077FD8095982F0E94814F9B01AC01C80153
:10598000B7010E94E64E0E944E4F6A0D7B1DE7CD87
:10599000613009F450C0623009F482C0633009F00C
:1059A000DCCDFE01E295F295F07FFE27E07FFE2739
:1059B000E959F74FC684D784A484B5842C193D09CE
:1059C000B901882777FD8095982F0E94814F7B0130
:1059D0008C01C295D295D07FDC27C07FDC27C958C7
:1059E000D74F6C857D856A197B09882777FD80955F
:1059F000982F0E94814F9B01AC01C801B7010E9402
:105A00006E507B018C016E857F856C197D0988271E
:105A100077FD8095982F0E94814F9B01AC01C801B2
:105A2000B7010E94E64E0E944E4F6A0D7B1D709595
:105A300061957F4F94CDFE01E295F295F07FFE27B0
:105A4000E07FFE27E959F74FC680D780A480B58054
:105A50002C193D09B901882777FD8095982F0E9460
:105A6000814F7B018C01C295D295D07FDC27C07F0E
:105A7000DC27C958D74F6C817D816A197B0988273B
:105A800077FD8095982F0E94814F9B01AC01C80142
:105A9000B7010E946E507B018C016E817F8165CFC2
:105AA000FE01E295F295F07FFE27E07FFE27E9599F
:105AB000F74FC284D384A084B1842C193D09B90165
:105AC000882777FD8095982F0E94814F7B018C015C
:105AD000C295D295D07FDC27C07FDC27C958D74F2D
