:100000000C94BE000C94DD000C94DD000C94DD001B
:100010000C94DD000C94DD000C94DD000C94DD00EC
:100020000C94DD000C94DD000C945A0C0C94DD0053
:100030000C94DD000C948E0C0C94DD000C9437169F
:100040000C94DD000C94DD000C94DD000C94DD00BC
:100050000C94DD000C94DD000C94DD000C94DD00AC
:100060000C94DD000C947A150C94DD000C94DD00EA
:100070000C94DD000C9420170C94DD000C94DD0032
:100080000C94681E0C947E1E0C94DD000C94DB1DF9
:100090000C94DD000C94DD000C94DD000C94DD006C
:1000A0000C94DD000C94DD000C94AF1D0C94C51D68
:1000B0000C94DD000C94181D0C94DD000C94DD00F4
:1000C0000C94DD000C94DD000C94DD000C94DD003C
:1000D0000C94DD000C94DD000C94DD000C94DD002C
:1000E0000C94DD00070FEB0EB90E7C0F460F6F0F5F
:1000F000900E740E470E2F0ED00DD00DD00DD00DDA
:10010000D00DD00D230E180ED00DD00DD00DD00D6A
:10011000D00DD00DD00DD00DD00DD00DD00DD00DF7
:10012000470EB90E0C0E070ED00DD00DD00DD00D10
:10013000D00DD00DD00DD00DD00DD00DD00DD00DD7
:10014000460F900ED00DD00D070F6F0F300F084ADD
:10015000D73B3BCE016E84BCBFFDC12F3D6C7431DB
:100160009ABD56833DDA3D00C77F11BED9E4BB4C32
:100170003E916BAAAABE000000803F0011241FBE62
:10018000CFEFD1E2DEBFCDBF00E00CBF13E0A0E0B7
:10019000B2E0E0EDFEE502C005900D92A432B10799
:1001A000D9F715E0A4E2B3E001C01D92AF37B10763
:1001B000E1F70E94DF000C94672F0C9400008F92EF
:1001C0009F92AF92BF92CF92DF92EF92FF920F93E6
:1001D0001F93CF93DF930E94F1150E94E4230E94A6
:1001E000941E0E94F0167B018C01CC24CFEFD0E04E
:1001F000DD24DA946EEF962E52E0B52E44E0A42E64
:1002000035E0832E0E94CC1580933F050E94242365
:100210000E9460280E94F0166E197F09800B910BD6
:100220006E312BE4720720E0820720E0920708F08D
:100230009AC00E94BE0D0E94690880913F058630D9
:1002400009F06EC090911705913009F449C29130C0
:1002500008F0EEC180E00E94DE1C80E00E94A41C39
:100260000E94C521D0920C02D0920D02D0920E02B3
:100270008FEF0E94EC2080910D020E94002180915E
:100280000E020E941421449A459A90913F059923A9
:1002900009F064C080E0C81609F4B4CF0E94A5201C
:1002A0000E94AC2080910B01816080930B018091B2
:1002B0000B01826080930B0180910B01846080931D
:1002C0000B01A39A80910B01806180930B018091B7
:1002D0000B01806280930B0180910B0180648093FD
:1002E0000B0180910B01806880930B01D0920C026E
:1002F000D0920D02D0920E028FEF0E94EC208091DE
:100300000D020E94002180910E020E94142180E0C3
:100310000E94DE1C80E00E94A41CC0903F0572CFAA
:1003200060E00E94491590913F05892F963009F4AD
:1003300089CF973060F5923009F471C0933008F09E
:10034000FAC0992309F497C0913009F0A0CF0E9418
:10035000A12090913F05992309F49CCF0E945D1B39
:1003600080913F0598CF0E94F91680913F05982F04
:100370009450923008F458C0873009F455C0863044
:1003800009F43EC10E94F0167B018C0152CF9A30D5
:1003900009F4BFC09B30F8F4983009F45BC0993081
:1003A00008F46EC08091DB039091DC03A091DD0323
:1003B000B091DE03893B4BE0940740E0A40740E0A6
:1003C000B40714F588E20E94A41C88E20E94DE1C97
:1003D00090913F055CCF9C3009F400C19C3008F43B
:1003E000EBC09D3009F053CF8091DB039091DC038B
:1003F000A091DD03B091DE0389354BE1940740E025
:10040000A40740E0B407F4F280E00E94A41C80E05E
:100410000E94DE1C90913F053ACF0E94A1200E94CD
:10042000A82090913F0533CF0E94E12CBE010E948D
:10043000492C80930C020E94E12CBE010E94492CA1
:1004400080930D020E94E12CBE010E94492C8093F2
:100450000E0298CF8091DB039091DC03A091DD0325
:10046000B091DE03813D27E0920720E0A20720E063
:10047000B20754F6A7CF0E94301A90913F0507CFDC
:1004800080914305823009F4D4C2833008F0EFC074
:10049000882309F0AAC20E94DE21109244050E941E
:1004A000A12084E10E94DE1C84E10E94A41C0E9421
:1004B000F0169B01AC0160934B0570934C05809343
:1004C0004D0590934E058091470590914805A09168
:1004D0004905B0914A05281B390B4A0B5B0B2333A6
:1004E0008FEE380782E0480780E0580718F081E077
:1004F0008093430580910C020E94EC2080910D02B4
:100500000E94002180910E020E94142190913F05CB
:10051000BECE8091DB039091DC03A091DD03B0910E
:10052000DE03813A2FE0920720E0A20720E0B20725
:100530000CF06ACF47CF9430D1F0953008F46DCFEE
:1005400080910C020E94EC2080910D020E940021FB
:1005500080910E020E9414210E94A12089E10E9434
:10056000A41C89E10E94DE1C90913F0590CE8091F1
:100570000B018E7F80930B0180910B018D7F809307
:100580000B0180910B018B7F80930B01A3988091CD
:100590000B018F7E80930B0180910B018F7D8093E7
:1005A0000B0180910B018F7B80930B0180910B01DC
:1005B0008F7780930B019ECF8091DB039091DC03BA
:1005C000A091DD03B091DE03893843E1940740E058
:1005D000A40740E0B4070CF017CFF4CE8091DB0302
:1005E0009091DC03A091DD03B091DE03813727E118
:1005F000920720E0A20720E0B2070CF005CFE2CE80
:1006000080911705813009F0BDCE90910D04923094
:1006100008F0B8CE90911004992309F025C3909268
:100620000C02D0920D02D0920E0280931004AACE3A
:10063000923011F0982F2BCE909118059923D1F379
:100640000E94DE2160910B0470910C048EEF9FE0FC
:100650000E94A02E0E94C5218AEA61E00E944915ED
:10066000109218051092170590913F0510CE843016
:1006700009F462C2843008F428C2853009F03ACF08
:100680000E94C5210E94F0169B01AC0160934B05AE
:1006900070934C0580934D0590934E0580914705CE
:1006A00090914805A0914905B0914A05281B390B46
:1006B0004A0B5B0B2B328CE1380780E0480780E067
:1006C000580708F417CF0E94F016609347057093FF
:1006D00048058093490590934A05109243050ACF37
:1006E0000E94DE2180910C020E94EC2080910D027C
:1006F0000E94002180910E020E9414214498459886
:1007000080911A05882309F485CE10921A058091EC
:100710005F0361E00E9449158091600361E00E94DF
:10072000491580912F039091300361E00E94491593
:1007300080912F0390913003892F61E00E94491529
:100740008091610361E00E9449158091620361E03C
:100750000E944915809133039091340361E00E9417
:1007600049158091330390913403892F61E00E94F1
:1007700049158091630361E00E94491580916403EB
:1007800061E00E944915809137039091380361E040
:100790000E9449158091370390913803892F61E0B9
:1007A0000E9449158091650361E00E94491580917E
:1007B000660361E00E94491580913B0390913C03E0
:1007C00061E00E94491580913B0390913C03892F81
:1007D00061E00E9449158091670361E00E9449151C
:1007E0008091680361E00E94491580913F039091D8
:1007F000400361E00E94491580913F0390914003BE
:10080000892F61E00E9449158091690361E00E948F
:10081000491580916A0361E00E9449158091430364
:100820009091440361E00E944915809143039091A7
:100830004403892F61E00E94491580916B0361E0B8
:100840000E94491580916C0361E00E9449158091D6
:1008500047039091480361E00E9449158091470346
:1008600090914803892F61E00E94491580916D03A2
:1008700061E00E94491580916E0361E00E94491574
:1008800080914B0390914C0361E00E944915809147
:100890004B0390914C03892F61E00E944915809190
:1008A0006F0361E00E9449158091700361E00E942E
:1008B000491580914F039091500361E00E944915C2
:1008C00080914F0390915003892F61E00E94491558
:1008D0008091710361E00E9449158091720361E08B
:1008E0000E944915809153039091540361E00E9446
:1008F00049158091530390915403892F61E00E9420
:1009000049158091730361E00E9449158091740339
:1009100061E00E944915809157039091580361E06E
:100920000E9449158091570390915803892F61E0E7
:100930000E9449158091750361E00E9449158091DC
:10094000760361E00E94491580915B0390915C03FE
:1009500061E00E94491580915B0390915C03892FAF
:1009600061E00E9449158091200561E00E944915CF
:100970008091210561E00E9449158091220561E086
:100980000E9449158091230561E00E9449158091DC
:10099000240561E00E9449158091250561E00E94CF
:1009A000491580911B0561E00E94491580913F0522
:1009B00061E00E9449158091030190E0807290707F
:1009C000959587959595879595958795959587950F
:1009D0009595879561E00E94491580910D0461E02D
:1009E0000E94491590913F0552CC813009F082CD8B
:1009F0000E94C521109245050E94A12084E10E9419
:100A0000DE1C84E10E94A41C80917103909172030A
:100A100021E0803992070CF4C5C080917303909156
:100A2000740341E0803994070CF4BCC01092440573
:100A300061CD0E94DE210E94A5200E94F0169B013C
:100A4000AC0160934B0570934C0580934D059093DA
:100A50004E058091470590914805A0914905B091B8
:100A60004A05281B390B4A0B5B0B23338FEE3807E3
:100A700082E0480780E0580708F0ADC0809103018C
:100A800084FFC7C010924505809146058F5F809313
:100A90004605853108F0F6C080917103909172038C
:100AA00021E0833C92070CF0CEC0809173039091BB
:100AB000740341E0833C94070CF4CFC086EF0E949E
:100AC000A41C84E10E94DE1C15CD0E94C5210E9459
:100AD000F0169B01AC0160934B0570934C0580931D
:100AE0004D0590934E058091470590914805A09142
:100AF0004905B0914A05281B390B4A0B5B0B2D3C6D
:100B000086E6380784E0480780E0580708F476C096
:100B10008091C3039091C40323E08032920708F0D0
:100B20005AC00E94F0166093470570934805809361
:100B3000490590934A05DECC0E94DE210E94F01602
:100B40009B01AC0160934B0570934C0580934D0560
:100B500090934E058091470590914805A0914905D5
:100B6000B0914A05281B390B4A0B5B0B2F3885E2E5
:100B7000380780E0480780E0580708F4BBCC84E1E0
:100B80000E94DE1C8CEE0E94A41C0E94F016609352
:100B90004705709348058093490590934A058092D4
:100BA0004305A8CC809144058F5F809344058B302A
:100BB00008F4A0CC10924505109246050E94F0164C
:100BC00060934705709348058093490590934A05C3
:100BD000B09243058FCC8CEE0E94DE1C8CEE0E94FE
:100BE000A41C0E94F01660934705709348058093FB
:100BF000490590934A05A09243057CCC809103015E
:100C000084FD78CC1092460510924505B0924305BC
:100C100088CF10924605809171039091720341E054
:100C2000833C9407BCF0209173033091740341E03E
:100C3000233C34077CF0809145058F5F8093450508
:100C40008B3F08F054CC84E10E94A41C86EF0E94E4
:100C5000DE1C50CC1092450523CF84E10E94DE1C9F
:100C600084E10E94A41C46CC913001F1923009F03D
:100C700089CBD0920C02D0920D0290920E0210926B
:100C8000100480CB80E00E94A41C80E00E94DE1C47
:100C90000E94F016609347057093480580934905BC
:100CA00090934A0523E02093430524CCD0920C0274
:100CB00090920D02D0920E02B092100463CB81E0AC
:100CC00090E021E00DB407FC0AC0019637E28031C4
:100CD0009307C0F320930E040DB407FEF6CF0895DA
:100CE00084B1807F84B984B1876084B980E58CBD8C
:100CF0008DB581608DBD08951CBC1DBC0895442335
:100D000009F1A62FB72FE82FF92F91E021912EBDE1
:100D100021E030E00DB407FC0BC02F5F3F4F57E2DE
:100D200020313507B8F390930E040DB407FEF5CFCC
:100D300020910E04222331F42EB52D932E2F281B43
:100D4000241720F308956623E9F0E82FF92F91E0A6
:100D500021912EBD21E030E00DB407FC0BC02F5FC8
:100D60003F4F47E220313407B8F390930E040DB49F
:100D700007FEF5CF20910E04222321F42E2F281BED
:100D8000261730F308958EBD81E090E021E00DB488
:100D900007FC0AC0019637E280319307C0F3209325
:100DA0000E040DB407FEF6CF8EB508950F931F9372
:100DB000DF93CF9300D0CDB7DEB7289880E20E94B2
:100DC000C3068DE00E94C306289A289883E20E94F9
:100DD000C30681E00E94C306289A80910B0490917B
:100DE0000C0499838A831B82289880E30E94C3069F
:100DF0008E010F5F1F4FC80163E00E94A306289A6F
:100E000028988AE20E94C306C80163E00E94A306F4
:100E1000289A289881E20E94C30681E00E94C306B6
:100E2000289A289882E20E94C30681E00E94C306A5
:100E3000289A289884E20E94C30682E10E94C30691
:100E4000289A289885E20E94C30688E20E94C30679
:100E5000289A289881E30E94C3068DE00E94C30669
:100E6000289A289880E50E94C30683E70E94C3065B
:100E7000289A28988CE30E94C30681E00E94C3064A
:100E8000289A28988DE30E94C30686E00E94C30634
:100E9000289A289880E20E94C3068FE00E94C30629
:100EA000289A0F900F900F90CF91DF911F910F9183
:100EB00008952C9A289A0E94D6060895CF93DF931E
:100EC000EC012C9828988AE20E94C306CE0165E0C6
:100ED0000E94A306289A2C9ADF91CF910895CF9370
:100EE000DF93EC01289880E30E94C306CE0165E001
:100EF0000E94A306289ADF91CF9108958091520510
:100F0000882311F080E0089528988FEF0E94C3068F
:100F1000289A80740895DF93CF930F92CDB7DEB7F0
:100F20001982289887E10E94C306BE016F5F7F4F38
:100F3000CB0141E00E947F06289A898181700F9041
:100F4000CF91DF910895289882EE0E94C306289AD7
:100F50000895CF93DF93EC01289881E60E94C306A1
:100F6000CE01BE014DE00E947F06289A289887E2B4
:100F70000E94C30680E40E94C306289ADF91CF91A5
:100F80000895DF93CF930F92CDB7DEB728988F7176
:100F9000806269830E94C3066981862F0E94C3060E
:100FA000289A0F90CF91DF9108950F931F93DF93AD
:100FB000CF930F92CDB7DEB78B0128988F714983FD
:100FC0000E94C306C801B80149810E947F06289A81
:100FD0000F90CF91DF911F910F9108950F931F9361
:100FE000DF93CF930F92CDB7DEB78B0128988F7127
:100FF000806249830E94C306C8014981642F0E9410
:10100000A306289A0F90CF91DF911F910F91089519
:101010000F931F93DF93CF930F92CDB7DEB78C0161
:10102000809152058823E1F72C9881E08093520546
:10103000289880E269830E94C3068AE40E94C3065E
:10104000289A289881EE0E94C306289A289880EA58
:101050000E94C306C80169810E94A306289A2C9A9F
:101060000F90CF91DF911F910F910895EF92FF9212
:101070000F931F93DF93CF930F92CDB7DEB7182F47
:10108000062F289881EE99830E94C306289A2898F3
:1010900088EA0E94C3069981002361F0612F792FAD
:1010A0007B01F70181917F010E94C3068E2D811B78
:1010B0008017B8F3289A0F90CF91DF911F910F916D
:1010C000FF90EF900895289881EE0E94C306289A19
:1010D00008951F93CF93DF9380915205882321F0C9
:1010E000DF91CF911F91089528988FEF0E94C3063A
:1010F000289A86FFF5CF80910D04826080930D04BD
:10110000289887E20E94C30680E70E94C306289AB7
:10111000289881E60E94C3068FE695E0BC014DE069
:101120000E947F06289A289887E20E94C30680E4DE
:101130000E94C306289A289882EE0E94C306289A25
:1011400060916F05662309F495C150917305409134
:101150007405E091700570917105252F30E02F77AF
:10116000307030930A0420930904842F90E08F7725
:101170009070909308048093070457FD7FC2220F5C
:10118000331F220F331F309521953F4F3093F803C3
:101190002093F70347FD7CC2880F991F880F991F82
:1011A000909581959F4F9093FA038093F90342E0C5
:1011B0002130340744F040E052E05093F80340936C
:1011C000F70320E032E042E08130940734F080E021
:1011D00092E09093FA038093F9034EEF20303407A6
:1011E00034F440E05EEF5093F8034093F7032EEFA2
:1011F0008030920734F480E09EEF9093FA0380935E
:10120000F903262F30E03093680520936705F0E05E
:10121000F0936A05E0936905C72FD0E0D0936C0581
:10122000C0936B05922F8827821B930B24E630E036
:10123000B9010E94352C162F109510930C025E2FC9
:1012400044274E1B5F0BCA01B9010E94352C6095E3
:1012500060930E025C2F44274C1B5D0BCA01B90141
:101260000E94352C609560930D02812F0E94EC2026
:1012700080910D020E94002180910E020E94142193
:101280008091720580FF02C1449881FF02C1459898
:10129000982F82FF02C121E02093120284FD01C138
:1012A00086FF06C181E080934F0597FD05C110922E
:1012B00050058091750580FF06C180910B018E7FDE
:1012C00080930B018091750581FF06C180910B0110
:1012D0008D7F80930B018091750582FF06C18091FF
:1012E0000B018B7F80930B018091750583FF06C1F5
:1012F000A3988091750584FF06C180910B018F7EB4
:1013000080930B018091750585FF06C180910B01CB
:101310008F7D80930B018091750586FF06C18091BA
:101320000B018F7B80930B018091750587FD06C1B2
:1013300080910B01806880930B0180910B02809358
:101340005705853009F406C1863008F05FC1833047
:1013500009F40EC2843009F03FC090916703809178
:101360006803909358058093590590916F0380917D
:10137000700390935A0580935B059091710380915F
:10138000720390935C0580935D0590917303809147
:10139000740390935E0580935F059091750380912F
:1013A000760390936005809361059091200580916C
:1013B00021059093620580936305909122058091A9
:1013C0002305909364058093650580911B058093A8
:1013D000660585E080930B02289881EE0E94C30683
:1013E000289A289888EA0E94C306809157050E948F
:1013F000C306809158050E94C306809159050E943A
:10140000C30680915A050E94C30680915B050E9425
:10141000C30680915C050E94C30680915D050E9411
:10142000C30680915E050E94C30680915F050E94FD
:10143000C306809160050E94C306809161050E94E9
:10144000C306809162050E94C306809163050E94D5
:10145000C306809164050E94C306809165050E94C1
:10146000C306809166050E94C306289ADF91CF913A
:101470001F910895E0917005EE2309F412C1509177
:101480007305409174057091710567CE449A81FD92
:10149000FECE459A982F82FDFECE1092120284FF56
:1014A000FFCE0E94E42390917205892F86FDFACE2B
:1014B00010924F0597FFFBCE81E0809350058091FD
:1014C000750580FDFACE80910B01816080930B0140
:1014D0008091750581FDFACE80910B018260809329
:1014E0000B018091750582FDFACE80910B0184601D
:1014F00080930B018091750583FDFACEA39A8091AC
:10150000750584FDFACE80910B01806180930B01FB
:101510008091750585FDFACE80910B0180628093E4
:101520000B018091750586FDFACE80910B018064D8
:1015300080930B018091750587FFFACE80910B0196
:101540008F7780930B0180910B0280935705853034
:1015500009F0FACE80912F039091300380935805C3
:1015600080912F039091300390935905809133031C
:101570009091340380935A05809133039091340302
:1015800090935B05809137039091380380935C05BD
:10159000809137039091380390935D0580913B03D0
:1015A00090913C0380935E0580913B0390913C03B6
:1015B00090935F058091430390914403809360056D
:1015C0008091430390914403909361058091470378
:1015D000909148038093620580914703909148035E
:1015E0009093630580914B0390914C038093640525
:1015F00080914B0390914C039093650580913F053A
:101600008093660586E080930B02E6CE863009F46F
:101610005DC0873009F0E0CE3091DB032091DC0320
:101620009091DD038091DE03309358052093590596
:1016300090935A0580935B053091D7032091D8038E
:101640009091D9038091DA0330935C0520935D0576
:1016500090935E0580935F0510926005109261057E
:101660001092620510926305109264051092650550
:101670001092660583E080930B02AECE220F331FDB
:10168000220F331F3093F8032093F70347FF84CDD5
:10169000880F991F880F991F9093FA038093F9037D
:1016A00086CD70917105772361F480917205883041
:1016B00041F450917305552309F4C0C0409174055D
:1016C0004CCD509173054091740547CD80913F03F7
:1016D000909140038093580580913F03909140037F
:1016E0009093590580914F039091500380935A0530
:1016F00080914F039091500390935B058091530329
:101700009091540380935C0580915303909154030E
:1017100090935D05809157039091580380935E05E7
:10172000809157039091580390935F0580915B03DC
:1017300090915C038093600580915B0390915C03C2
:101740009093610590912405809125059093620501
:10175000809363059091C3038091C40390936405C3
:10176000809365051092660587E080930B0234CE66
:1017700090915F0380916003909358058093590581
:10178000909161038091620390935A0580935B0569
:10179000909163038091640390935C0580935D0551
:1017A000909165038091660390935E0580935F0539
:1017B0009091690380916A0390936005809361051D
:1017C00090916B0380916C03909362058093630505
:1017D00090916D0380916E039093640580936505ED
:1017E00030910301809103012091030190E0807208
:1017F00090709595879595958795959587959595ED
:10180000879595958795880F991F221F2227221F5C
:10181000220F220F282B832F90E0807190709595D6
:101820008795959587959595879595958795282B77
:101830002093660584E080930B02CECD4091740521
:10184000442379F010920A0410920904842F90E046
:101850008F779070909308048093070420E030E025
:101860008ECC8CE30E944116509173054091740513
:1018700060916F05E0917005709171056ECCCF930A
:10188000DF93C8E6D0E01882ACE6B0E01C92E0EB53
:10189000F0E010821092B100109270008881826096
:1018A00088838C9180688C93808182608083DF91B3
:1018B000CF9108951F920F920FB60F9211248F931C
:1018C00080911202882321F18091030186FD20C0BE
:1018D000809168008D7F8093680080916C008F7785
:1018E00080936C0081E0809313028DE08093B300BD
:1018F0008091B10086608093B10080917000826019
:1019000080937000109226031092270310922803F0
:101910008F910F900FBE0F901F9018951F920F92EE
:101920000FB60F9211242F933F934F935F938F9392
:101930009F938091B100887F8093B10080911302C2
:101940008823A9F08091030186FF65C0809168001B
:1019500082608093680080916C00806880936C0046
:101960008FEF9FEF909302028093010249C0809114
:101970000102909102022FEF8F3F920709F463C09A
:101980008130910509F498C09C01225030402530E7
:10199000310508F467C09C012750304026303105DE
:1019A00008F0BDC026E32093B3002091B10026606B
:1019B0002093B1002091700022602093700020914C
:1019C000030130E0207430700024220F331F001C0C
:1019D000220F331F001C232F302D4CE050E0481BFA
:1019E000590B02C0220F331F4A95E2F7409126039C
:1019F000420F4093260301969093020280930102C6
:101A00009F918F915F914F913F912F910F900FBEBA
:101A10000F901F9018951092130283E38093B300E8
:101A20008091B10086608093B100809170008260E7
:101A30008093700080910102909102022FEF8F3FFE
:101A40009207C9F6DDCF2091030126FF52C02091F5
:101A5000680022602093680020916C002068209329
:101A60006C00CECF26E32093B3002091B100266016
:101A70002093B1002091700022602093700020918B
:101A8000030130E0207430700024220F331F001C4B
:101A9000220F331F001C232F302D46E050E0481B3F
:101AA000590B02C0220F331F4A95E2F740912703DA
:101AB000420F409327039FCF2091030130E0207411
:101AC0003070022E232F000C221F330B000C221F1C
:101AD000331F2093280326E32093B3002091B10005
:101AE00026602093B1002091700022602093700046
:101AF00082CF8CE18093B3008091B10086608093A7
:101B0000B100809170008260809370001092260373
:101B1000109227031092280381E090E06DCF8D3062
:101B2000910509F068CF1092700080916800826082
:101B30008093680080916C00806880936C008FEFC8
:101B40009FEF90930202809301028091280380937B
:101B500000028091270380932403809126038093C1
:101B6000250381E080931C054BCF809100020895EE
:101B70008091240308958091250308958091120295
:101B80008823B1F180911C05882391F1E091250310
:101B9000E0931B0510921C05F0E0E533F10548F1D8
:101BA0002091F7033091F8038091F9039091FA03A3
:101BB00037FD27C0359527953595279530930A042D
:101BC0002093090497FD09C095958795959587956C
:101BD00090930804809307040895909581959F4FF2
:101BE000959587959595879590930804809307041C
:101BF0000895EE58FF4FEE0FFF1F0590F491E02D72
:101C00001994309521953F4FD5CF80934F05109271
:101C10005005C6CF10924F0581E08093500520916A
:101C2000F7033091F8038091F9039091FA03C0CF44
:101C300010924F052091F7033091F8038091F9033A
:101C40009091FA03B5CF81E080934F052091F7037F
:101C50003091F8038091F9039091FA03A9CF809114
:101C6000F9039091FA034E979093FA038093F90346
:101C70002EEF803092079CF580E09EEF9093FA0360
:101C80008093F9032091F7033091F80391CF2091CD
:101C9000F7033091F8038091F5039091F60328172C
:101CA000390724F02091F9033091FA032E51304086
:101CB0003093F8032093F703C9013093FA0320937C
:101CC000F9034EEF2030340734F440E05EEF5093D8
:101CD000F8034093F7034EEF203034076CF2209165
:101CE000F7033091F80364CF2091F7033091F803A4
:101CF0002E5130403093F8032093F7034EEF2030FD
:101D000034070CF017C180E09EEF9093F8038093A6
:101D1000F7038091F9039091FA0320E830E04ECF69
:101D20002091F7033091F8032E5130403093F8039F
:101D30002093F7038091F9039091FA034E969093C4
:101D4000FA038093F9034EEF2030340734F420E097
:101D50003EEF3093F8032093F70342E0813094077D
:101D60000CF426CF80E092E09093FA038093F9037D
:101D70001FCF2091F7033091F8038091F9039091E0
:101D8000FA03821793070CF4DAC09C01225E3F4FDE
:101D90003093F8032093F7034E969093FA038093C1
:101DA000F90342E02130340734F020E032E0309390
:101DB000F8032093F70322E0813092070CF48FCFD1
:101DC00080E092E09093FA038093F9032091F70367
:101DD0003091F803EDCE2091F7033091F803225EA5
:101DE0003F4F3093F8032093F70342E0213034074C
:101DF0000CF4A0C080E092E09093F8038093F70386
:101E00008091F9039091FA0320E830E0D7CE8091D9
:101E10001D0590E0019665E070E00E94492C8093DA
:101E20001D05882309F08DC0449A459A10920E0230
:101E30008FEF80930D0280930C020E94EC20809122
:101E40000D020E94002180910E020E941421209117
:101E5000F7033091F8038091F9039091FA03A8CE2B
:101E600080911E0590E001968370907080931E050E
:101E7000823009F4CFCE833009F453C0813009F4A5
:101E8000C4CE10924F05109250058ACE2091F703D0
:101E90003091F803225E3F4F3093F8032093F7030D
:101EA0008091F9039091FA034E979093FA038093EF
:101EB000F90342E02130340734F020E032E030937F
:101EC000F8032093F7034EEF803094070CF070CEA8
:101ED00080E09EEF9093FA038093F90369CE10920D
:101EE000F8031092F7031092FA031092F90380E0BE
:101EF00090E020E030E05ECE8091F9039091FA030B
:101F00004E969093FA038093F90322E08130920772
:101F10000CF4E5CE80E092E09093FA038093F9030D
:101F2000DECE81E080934F05809350052091F7032A
:101F30003091F8038091F9039091FA0339CEC901E9
:101F400025CF813061F0823091F08330D9F08FEF6E
:101F500080930E0280930D0280930C026ECF8FEF60
:101F600080930E0210920D0280930C0266CF44986B
:101F700045988FEF80930E0280930D0210920C0211
:101F800080E05BCF10920E0210920D0210920C02B4
:101F900080E053CF08950F931F93CF93DF93FC01FD
:101FA00080819181009709F4B7C02091320530916A
:101FB000330541E02E3034070CF488C0181619069A
:101FC0000CF013C188E691E0821B930B95958795E1
:101FD0009595879529E130E0281B390B3093040251
:101FE00020930302409153055091540550936E0580
:101FF00040936D052081318137FDD2C08091EF0380
:102000009091F003B901681B790BCB0170935405D3
:10201000609353052091FF0330910004280F391F6E
:10202000309300042093FF0376E0213437070CF44B
:1020300084C020E436E0309300042093FF0360EC7A
:1020400072E19C01220F331FDC01AA0FBB1FAA0FF4
:10205000BB1FAA0FBB1F2A0F3B1F00811181C0911C
:102060000302D09104020C9FD0010D9FB00D1C9F64
:10207000B00D11242A0F3B1F481B590B440F551F4D
:10208000240F351F260F371F3093FE032093FD03C7
:1020900037FD69C0121613060CF06FC08081918164
:1020A00097FD89C07DE5213C37070CF466C080ECC4
:1020B0009DE59093FE038093FD0380E092E0918381
:1020C0008083DF91CF911F910F910895243B3105BB
:1020D00094F42A3531057CF4181619060CF093C0D7
:1020E0003595279535952795275E3F4F3093040208
:1020F0002093030277CF1816190694F584EB90E02D
:10210000821B930B95958795959587954996909306
:1021100004028093030266CF109200041092FF0322
:10212000109254051092530510926E0510926D0591
:10213000DF91CF911F910F91089569EF203C3607F1
:102140004CF420EC39EF309300042093FF0360E45B
:102150007DEE77CFB901660F771F620F731F71CFC6
:1021600084EB90E031CF8081918197FD06C0109281
:10217000FE031092FD0320E030E082EA20343807AD
:1021800004F580E492EA9093FE038093FD0380E0DF
:102190009EEF91838083DF91CF911F910F910895DE
:1021A0008091EF039091F003820F931F9093540559
:1021B000809353052FCF1092FE031092FD0320E071
:1021C00030E03595279535952795359527953595A3
:1021D00027953183208342E0213034070CF06DCF06
:1021E0006EEF203036079CF26CCF88E691E0821BC0
:1021F000930B9595879595958795499690930402AD
:1022000080930302EFCE359527953595279589E183
:1022100090E0821B930B9093040280930302E2CE22
:102220000F931F93CF93DF93FC01808191810097DF
:1022300009F4B7C0209132053091330541E02E30CA
:1022400034070CF488C0181619060CF013C188E680
:1022500091E0821B930B959587959595879529E13C
:1022600030E0281B390B3093060220930502409181
:102270007C0550917D05509356054093550520816E
:10228000318137FDD2C08091F1039091F203B90101
:10229000681B790BCB0170937D0560937C052091C1
:1022A000010430910204280F391F30930204209357
:1022B000010476E0213437070CF484C020E436E0D2
:1022C000309302042093010460EC72E19C01220F20
:1022D000331FDC01AA0FBB1FAA0FBB1FAA0FBB1F16
:1022E0002A0F3B1F00811181C0910502D091060287
:1022F0000C9FD0010D9FB00D1C9FB00D11242A0F13
:102300003B1F481B590B440F551F240F351F260F29
:10231000371F3093FC032093FB0337FD69C012166F
:1023200013060CF06FC08081918197FD89C07DE517
:10233000213C37070CF466C080EC9DE59093FC03CC
:102340008093FB0380E092E091838083DF91CF91C3
:102350001F910F910895243B310594F42A353105DE
:102360007CF4181619060CF093C035952795359511
:102370002795275E3F4F309306022093050277CFC3
:102380001816190694F584EB90E0821B930B959533
:1023900087959595879549969093060280930502B7
:1023A00066CF109202041092010410927D051092E3
:1023B0007C051092560510925505DF91CF911F9123
:1023C0000F91089569EF203C36074CF420EC39EF6B
:1023D000309302042093010460E47DEE77CFB901CD
:1023E000660F771F620F731F71CF84EB90E031CFC0
:1023F0008081918197FD06C01092FC031092FB032F
:1024000020E030E082EA2034380704F580E492EAE4
:102410009093FC038093FB0380E09EEF9183808385
:10242000DF91CF911F910F9108958091F1039091C9
:10243000F203820F931F90937D0580937C052FCF2D
:102440001092FC031092FB0320E030E035952795B5
:102450003595279535952795359527953183208393
:1024600042E0213034070CF06DCF6EEF203036079C
:102470009CF26CCF88E691E0821B930B9595879533
:102480009595879549969093060280930502EFCE25
:10249000359527953595279589E190E0821B930B1B
:1024A0009093060280930502E2CEFC018081918127
:1024B000009709F47BC0A0917C05B0917D05B09395
:1024C0005605A09355052081318137FD89C0809143
:1024D000F1039091F203A901481B590BCA015093D3
:1024E0007D0540937C052091010430910204280F62
:1024F000391F309302042093010456E0213435073C
:102500000CF461C020E436E030930204209301040F
:1025100060E87CE09C01220F331F280F391F220F37
:10252000331F220F331F220F331F280F391F408103
:102530005181440F551F440F551F440F551F240F41
:10254000351FAD01481B590BCA01880F991F840F15
:10255000951F280F391F260F371F3093FC03209338
:10256000FB0337FD4CC0121613060CF052C08081DD
:10257000918197FD67C05DE5213C35070CF449C0AA
:1025800080EC9DE59093FC038093FB032CED35E0FC
:10259000225E3F4F3183208342E0213034070CF428
:1025A00048C080E092E091838083089510920204F5
:1025B0001092010410927D0510927C051092560530
:1025C00010925505089549EF203C3407A4F420ECFF
:1025D00039EF309302042093010460E873EF9ACF3F
:1025E0008091F1039091F203820F931F90937D05E8
:1025F00080937C0578CFB901660F771F8BCF8081E0
:10260000918197FD06C01092FC031092FB0320E01D
:1026100030E082EA20343807DCF480E492EA9093D8
:10262000FC038093FB0324E23AEF2E5130403183C8
:1026300020835EEF2030350724F480E09EEF918305
:10264000808308951092FC031092FB0320E030E099
:102650003595279535952795359527953595279562
:1026600031832083121613060CF492CF2115310505
:10267000E1F60895FC0180819181009709F47BC007
:10268000A0915305B0915405B0936E05A0936D05CC
:102690002081318137FD89C08091EF039091F00353
:1026A000A901481B590BCA01509354054093530587
:1026B0002091FF0330910004280F391F309300044C
:1026C0002093FF0356E0213435070CF461C020E469
:1026D00036E0309300042093FF0360E87CE09C0127
:1026E000220F331F280F391F220F331F220F331FD2
:1026F000220F331F280F391F40815181440F551F6E
:10270000440F551F440F551F240F351FAD01481BA3
:10271000590BCA01880F991F840F951F280F391F65
:10272000260F371F3093FE032093FD0337FD4CC067
:10273000121613060CF052C08081918197FD67C07C
:102740005DE5213C35070CF449C080EC9DE5909394
:10275000FE038093FD032CED35E0225E3F4F318375
:10276000208342E0213034070CF448C080E092E03E
:10277000918380830895109200041092FF031092B9
:1027800054051092530510926E0510926D05089530
:1027900049EF203C3407A4F420EC39EF30930004D7
:1027A0002093FF0360E873EF9ACF8091EF0390913D
:1027B000F003820F931F909354058093530578CFB5
:1027C000B901660F771F8BCF8081918197FD06C07D
:1027D0001092FE031092FD0320E030E082EA2034E4
:1027E0003807DCF480E492EA9093FE038093FD03C3
:1027F00024E23AEF2E513040318320835EEF2030C7
:10280000350724F480E09EEF918380830895109231
:10281000FE031092FD0320E030E0359527953595B5
:102820002795359527953595279531832083121661
:1028300013060CF492CF21153105E1F6089585B702
:10284000806185BF8FEF81B912B897EF94B990EE90
:1028500095B990EF97B990EB98B99CEF9AB993E03E
:102860009BB98DB91EB810BA83BB809142058823ED
:10287000E1F08130D1F0823051F19FEF909301016E
:10288000109202019FE0909304018823A9F4909193
:10289000050110920501109207019FEF90930A0124
:1028A000882329F410920B01089514BAE6CF8130E1
:1028B000C9F3823041F00895813011F0823059F728
:1028C00090930501E8CF87EF80930B01089598E07E
:1028D00094BBD3CF1092B8001092BC000895589AC0
:1028E000599A1092B90081E08093B800089594EA53
:1028F0009093BC009091BC0097FFFCCF9091B900E1
:10290000987F983021F0903111F081E00895809304
:10291000BB0084E88093BC008091BC0087FFFCCFA3
:102920009091B900987F983121F081E0903419F0AE
:10293000089580E0089580E0089524EA34E844E9A9
:102940002093BC009091BC0097FFFCCF9091B90000
:10295000987F983011F0903199F78093BB003093B5
:10296000BC009091BC0097FFFCCF9091B900987F7C
:10297000903219F0983509F008954093BC00909179
:10298000BC0094FDFCCFDCCF94EA9093BC00909106
:10299000BC0097FFFCCF9091B900987F983021F050
:1029A000903111F081E008958093BB0084E880931A
:1029B000BC008091BC0087FFFCCF9091B900987F4C
:1029C000983121F081E0903419F0089580E0089565
:1029D00080E0089584E98093BC008091BC0084FD70
:1029E000FCCF08958093BB0084E88093BC00809165
:1029F000BC0087FFFCCF9091B900987F81E09832AE
:102A000009F0089580E0089584EC8093BC008091E3
:102A1000BC0087FFFCCF8091BB00089584E88093C1
:102A2000BC008091BC0087FFFCCF8091BB00089563
:102A30001092C50080E18093C400E0ECF0E080815A
:102A400082608083E1ECF0E0808188698083E2EC41
:102A5000F0E080818660808308951092CD0080E14F
:102A60008093CC00E8ECF0E0808182608083E9EC28
:102A7000F0E0808188618083EAECF0E0808186600C
:102A8000808308951092C0001092C1001092C2007D
:102A900008959091C00095FFFCCF8093C6006623F7
:102AA00021F08091C00086FFFCCF08959091C8006E
:102AB00095FFFCCF8093CE00662321F08091C80063
:102AC00086FFFCCF08958091C0008095881F8827DD
:102AD000881F089587E990E02091C00027FD07C076
:102AE0000197D1F781E08093120480E008958091EE
:102AF000C60008951F920F920FB60F9211242F93C4
:102B00003F934F938F939F939091C60080911102B2
:102B10008823C9F480911705813061F08230C1F0BB
:102B20009F918F914F913F912F910F900FBE0F90DA
:102B30001F9018959A3A69F1953591F78093110293
:102B400010921705EDCF1092110290931705E8CF60
:102B5000409119054423A9F0413011F7392F20E0A5
:102B600080910B0490910C04822B932B90930C0476
:102B700080930B044093180510921905409311029D
:102B8000CFCF90930B0410920C0481E08093190531
:102B9000C7CF80931A05C4CF86B166B126B146B1BE
:102BA00030E0287030703595279535952795359507
:102BB0002795220F331F70E06470707075956795CC
:102BC00075956795260F371F220F331F50E042700F
:102BD000507055954795240F351F220F8170820F35
:102BE0000895F89414BC15BC10926E001092200148
:102BF000109221018EEF9FE00E949A2E90930C0478
:102C000080930B049C0121583C4023303105F8F49B
:102C1000109242050E941F140E94FD160E94D219B4
:102C20000E94AF200E9470060E94590780910E04F6
:102C3000882329F480910D04816080930D040E9403
:102C400018150E94F7210E943F0C789408952CE0FB
:102C50008038920721F481E080934205DBCF2CE09D
:102C600084389207B8F282E080934205D3CF1F9256
:102C70000F920FB60F9211240F900FBE0F901F905E
:102C80001895CF93DF939EE1899FE00111248091F5
:102C900068008D7F8093680080916C008F778093AF
:102CA0006C00D99A10927A0080917A0080618093AA
:102CB0007A0010929000109291001092710088B3E7
:102CC000876088BB1092A0001092A1001092720041
:102CD00089B3876089BB10928000109281000E94A6
:102CE00042150E947C060E946A140E941F1483B73A
:102CF0008F6083BF81E0809370008091B0008D7FF2
:102D00008093B0008091B10087608093B1002097DC
:102D100019F088952197E9F713BE8091B100887F5B
:102D20008093B100109270008091B0008260809317
:102D3000B0008FEF80930C0280930D0280930E02FF
:102D40001092F4031092F3031092F6031092F5031D
:102D5000F89414BC15BC10926E00109220011092D1
:102D600021018EEF9FE00E949A2E90930C04809395
:102D70000B049C0121583C402330310508F510928A
:102D800042050E941F140E94FD160E94D2190E9443
:102D9000AF200E9470060E94590780910E0488237C
:102DA00029F480910D04816080930D040E94181510
:102DB0000E94F7210E943F0C7894DF91CF910895F3
:102DC0002CE08038920721F481E080934205D9CF2E
:102DD0002CE084389207A8F282E080934205D1CF9C
:102DE00060913B0570913C0580913D0590913E05B9
:102DF000089581E08093C5030895CF93DF93EAE7B8
:102E0000F0E01082ABE7B0E01C92CCE7D0E0188293
:102E100080818660808388818064888380818062ED
:102E200080838C91887F8C9380818860808380816F
:102E300080688083808180648083DF91CF91089552
:102E40001F920F920FB60F920BB60F9211242F9371
:102E50003F934F935F936F938F939F93AF93BF93E2
:102E6000EF93FF9380913B0590913C05A0913D0528
:102E7000B0913E050196A11DB11D80933B05909335
:102E80003C05A0933D05B0933E052091780030E0CD
:102E900040917900942F80E0282B392B8091BF033B
:102EA000823009F4ACC1833008F445C0833009F4A2
:102EB000C9C1843009F468C18091C003823009F42B
:102EC0004FC1833008F0CDC0882309F024C1809120
:102ED0002A038695809329038091C103882309F0F2
:102EE000E1C181E08093BF0381E08093C0039091B2
:102EF0002903983008F0EDC090917B00977F909364
:102F00007B0090912903905C90937C00823009F4BF
:102F1000EDC0FF91EF91BF91AF919F918F916F9114
:102F20005F914F913F912F910F900BBE0F900FBE6D
:102F30000F901F901895882309F0FEC060912A0316
:102F40006E3009F4D0C1462F50E0FA01EE0FFF1F9A
:102F5000E15DFC4F3183208340FF77C0FA01EE0F23
:102F6000FF1FE35DFC4F80819181FA01EE0FFF1F8F
:102F7000E15DFC4F40815181262F269530E0841B76
:102F8000950B220F331FF901E958FC4F4081518105
:102F9000841B950BF901E15AFC4F9183808397FDC7
:102FA000BDC144E08130940724F080E094E0918337
:102FB0008083603148F48C3391050CF0B4C12953FF
:102FC0003C4FF9019183808380915005882309F457
:102FD00075C180916F0390917003F1E0843A9F076F
:102FE000CCF0809171039091720321E0843A9207B2
:102FF0008CF0809173039091740341E0843A9407BC
:103000004CF08091750390917603E1E0843A9E073D
:103010000CF054C181E0809351051092F603109298
:10302000F5031092A9001092A8001092AB00109224
:10303000AA001092F4031092F303109299001092D8
:10304000980010929B0010929A006F5F60932A0381
:10305000683108F431CF10922A0381E08093C603CF
:103060002BCF833009F4B7C0843009F040CF909162
:103070002C039093290390912D039093C103909179
:10308000C203992309F008C183E08093BF03109223
:10309000C00360912A036E3009F41FC1862F90E0AF
:1030A00060FFF1C0603108F40CC120914205222379
:1030B00009F0D5C040979595879521E030E002C092
:1030C000220F331F8A95E2F7209305018091C003F8
:1030D0000ECF90917B00986090937B009091290394
:1030E000985C90937C00823009F013CF20914205C8
:1030F000222351F0213019F0223009F00ACF8FEF4E
:103100008093050112B805CF80910501807F8093DF
:10311000050112B8FECE813009F0E9CE80912B0373
:103120008093290380912E038093C2031092BF03E2
:1031300082E08093C003DBCE813009F0BDCE809168
:10314000E1039091E203820F931F969587959093E8
:10315000E2038093E1038091C003823009F0B1CE95
:1031600080912C038093290380912D038093C103C8
:103170008091C203882309F09BC083E08093BF0342
:1031800083E08093C003B3CE80910A02882309F4C0
:1031900093CE9091000193FD8FCE9091000194FD0C
:1031A0008BCE482F4F5F40930A02453008F484CEFF
:1031B0008091EB039091EC03820F931F9093EC03AB
:1031C0008093EB03483009F077CE10920A0281E039
:1031D0008093070271CE80912B0380932903809105
:1031E0002E038093C2038091C103882309F04EC04F
:1031F00081E08093BF0384E08093C00378CE809108
:103200000902882309F458CE639956CE649954CEA6
:10321000482F4F5F40930902453008F44DCE80910E
:10322000ED039091EE03820F931F9093EE03809332
:10323000ED03483009F040CE1092090281E08093FE
:1032400008023ACE8091DF039091E003820F931F32
:10325000969587959093E0038093DF032DCE2130E0
:1032600011F0223081F440910501409795958795A2
:1032700021E030E002C0220F331F8A95E2F720954B
:103280002423209305018091C00331CE8130D1F1F8
:1032900085E08093BF03AFCF913009F085E0809344
:1032A000BF03F5CE8130B1F185E08093BF031CCE22
:1032B000813061F185E08093BF0362CF10925105A8
:1032C000C4CE669581E090E002C0880F991F6A9590
:1032D000E2F782B98091C0030ACE8091C5038130A4
:1032E000A1F180E004CE8091C503823009F02BCE9D
:1032F0003093C4032093C3031092C50346984EE055
:1033000050E02ACE82E08093BF0375CF84E08093A3
:10331000BF0336CF82E08093BF03E6CD11821082D7
:1033200080E090E046CEAC01445C5F4F55954795F8
:10333000483751057CF429533C4FCC979595879598
:10334000CC96F901918380833FCE82E08093C503C0
:10335000469AA4CEAC01445D5E4F55954795559570
:103360004795443B510574F429533C4F845B90408E
:10337000959587959595879588589F4FF9019183E5
:10338000808322CE29533C4F845A9140959587954E
:1033900095958795959587958C549F4FF9019183C5
:1033A000808312CE0F931F93CF93DF93E0E9F0E079
:1033B000108241E950E0DA011C9221E730E0E90196
:1033C0001882A0EAB0E01C9281EA90E0EC01188239
:1033D00002E710E0E8011882608163686083608121
:1033E00063606083EA0168816B6068834091F303E6
:1033F0005091F403509399004093980010929B00D1
:1034000010929A00E90148814160488320812F751C
:1034100020832EB1277E2EB92C9123682C93FC019A
:1034200020812B6020838091F5039091F603909387
:10343000A9008093A8001092AB001092AA00E801A6
:103440008881816088838C918F758C93E2E0F1E0B4
:103450008081877E8083DF91CF911F910F910895A6
:1034600080910702882309F041C06091F9037091AF
:10347000FA0380910802882309F073C0E091F703F2
:10348000F091F803F0930404E0930304962F872F40
:10349000609305047093060420914F05222309F0E0
:1034A000A3C09093E9038093EA03F093E803E093C9
:1034B000E7039093F5038093F603F093F403E0930E
:1034C000F3031E161F060CF09EC0F0939900E093C4
:1034D00098008091F5039091F603181619060CF0E8
:1034E00077C09093A9008093A80008952091EB03E2
:1034F0003091EC0336952795369527953093F00358
:103500002093EF03109207021092EC031092EB034A
:103510006091F9037091FA0377FDA0C03595279566
:103520003595279535952795442737FD4095542F98
:103530008091DB039091DC03A091DD03B091DE0369
:10354000820F931FA41FB51F8093DB039093DC03AE
:10355000A093DD03B093DE0380910802882309F471
:103560008DCF2091ED033091EE033695279536955A
:1035700027953093F2032093F103109208021092E2
:10358000EE031092ED03E091F703F091F803F7FDDD
:1035900046C0359527953595279535952795442728
:1035A00037FD4095542F8091D7039091D803A09177
:1035B000D903B091DA03820F931FA41FB51F809324
:1035C000D7039093D803A093D903B093DA035ACFCB
:1035D000009709F06AC01092A9001092A8001092FA
:1035E000AB001092AA00089585E094E063E074E0D7
:1035F0000E949B1E9091050480910604E0910304B3
:10360000F09104044ECF309709F047C01092990012
:103610001092980010929B0010929A005ACF359504
:1036200027953595279535952795442737FD40955E
:10363000542F8091D7039091D803A091D903B091D2
:10364000DA03821B930BA40BB50B8093D7039093E3
:10365000D803A093D903B093DA0314CF35952795F7
:103660003595279535952795442737FD4095542F57
:103670008091DB039091DC03A091DD03B091DE0328
:10368000821B930BA40BB50B8093DB039093DC039D
:10369000A093DD03B093DE03ECCEF095E195FF4FF0
:1036A000F0939B00E0939A0014CF909581959F4FE3
:1036B0009093AB008093AA0008958091F9039091B4
:1036C000FA0390930604809305042091F703309148
:1036D000F803309304042093030440914F054423DE
:1036E00009F0B8C09093EA038093E9033093E803AC
:1036F0002093E70320910702222309F44BC0209175
:10370000EB033091EC03369527953695279530934A
:10371000F0032093EF03109207021092EC03109233
:10372000EB0397FDCEC035952795359527953595B3
:103730002795442737FD4095542F8091DB039091C6
:10374000DC03A091DD03B091DE03820F931FA41F61
:10375000B51F8093DB039093DC03A093DD03B0934C
:10376000DE0380911702813009F4CEC085E094E039
:103770000E94CB0F80910504909106049093F6036C
:103780008093F503181619060CF0C3C09093A90096
:103790008093A80080910802882309F45AC02091E0
:1037A000ED033091EE0336952795369527953093A6
:1037B000F2032093F103109208021092EE0310928C
:1037C000ED038091E7039091E80397FD52C0359592
:1037D00027953595279535952795442737FD4095AD
:1037E000542F8091D7039091D803A091D903B09121
:1037F000DA03820F931FA41FB51F8093D703909302
:10380000D803A093D903B093DA03809117028130D3
:1038100009F452C083E094E00E94101180910304E7
:10382000909104049093F4038093F30318161906FF
:103830002CF490939900809398000895009709F0D4
:1038400073C0109299001092980010929B001092F1
:103850009A00089585E094E063E074E00E949B1E66
:103860008091050490910604209103043091040492
:1038700039CF359527953595279535952795442743
:1038800037FD4095542F8091D7039091D803A09194
:10389000D903B091DA03821B930BA40BB50B809371
:1038A000D7039093D803A093D903B093DA03809100
:1038B0001702813009F0AECF83E094E00E945512E8
:1038C000ADCF35952795359527953595279544277F
:1038D00037FD4095542F8091DB039091DC03A0913C
:1038E000DD03B091DE03821B930BA40BB50B809319
:1038F000DB039093DC03A093DD03B093DE038091A0
:103900001702813009F032CF85E094E00E943A132B
:1039100031CF009789F41092A9001092A80010925C
:10392000AB001092AA0036CF909581959F4F90934F
:103930009B0080939A000895909581959F4F909356
:10394000AB008093AA0026CF282F332727FD309580
:1039500037FD30C0309308042093070487FD1EC054
:10396000220F331F220F331F3093FA032093F903E2
:1039700082E0213038073CF080E092E09093FA0337
:103980008093F90308958EEF2030380734F480E0F7
:103990009EEF9093FA038093F9030895220F331F4B
:1039A000220F331F309521953F4F3093FA03209318
:1039B000F903DECF309521953F4FCCCF282F332709
:1039C00027FD309537FD30C030930A042093090459
:1039D00087FD1EC0220F331F220F331F3093F803C1
:1039E0002093F70382E0213038073CF080E092E03A
:1039F0009093F8038093F70308958EEF20303807F3
:103A000034F480E09EEF9093F8038093F7030895D9
:103A1000220F331F220F331F309521953F4F3093D4
:103A2000F8032093F703DECF309521953F4FCCCF9D
:103A30001F920F920FB60F9211248F939F93809134
:103A40005105882361F01092F6031092F50310924D
:103A5000A9001092A8001092AB001092AA00109238
:103A6000E0031092DF038091F5039091F603009735
:103A700041F58091E9039091EA0397FD69C081E0E7
:103A800080932E038EE080932B0381E080930A02C3
:103A90008091A0008F758093A00080910201877EA5
:103AA0008093020180917200897F8093720089B3B4
:103AB000866089BB9F918F910F900FBE0F901F90D2
:103AC0001895181619062CF510922E038FE0809386
:103AD0002B038091A0008F7D8093A00080917200C5
:103AE0008B7F80937200809102018F7E8093020110
:103AF0008091A00080688093A00080917200826015
:103B0000809372009F918F910F900FBE0F901F9026
:103B1000189510922E038EE080932B038091A000C5
:103B20008F778093A000809172008D7F80937200C8
:103B300080910201877F809302018091A0008062C2
:103B40008093A00080917200846080937200B2CF55
:103B500081E080932E038FE080932B0396CF1F92FA
:103B60000F920FB60F9211248F939F9381E0809351
:103B70002E039EE090932B0380930A029F918F91D6
:103B80000F900FBE0F901F9018951F920F920FB6B7
:103B90000F9211248F939F9381E080932E039FE0D7
:103BA00090932B0380930A029F918F910F900FBEE9
:103BB0000F901F9018951F920F920FB60F9211241D
:103BC0008F939F9380915105882361F01092F403A5
:103BD0001092F303109299001092980010929B009B
:103BE00010929A001092E2031092E1038091F30385
:103BF0009091F403009731F58091E7039091E803E9
:103C000097FD5FC081E080932D038CE080932C03AF
:103C100081E080930902809190008F7580939000DD
:103C20008EB1877E8EB980917100897F80937100FB
:103C300088B3866088BB9F918F910F900FBE0F90C5
:103C40001F901895181619060CF510922D038DE08B
:103C500080932C03809190008F7D809390008091C1
:103C600071008B7F809371007498809190008068C0
:103C700080939000809171008260809371009F9189
:103C80008F910F900FBE0F901F90189510922D03DB
:103C90008CE080932C03809190008F77809390002C
:103CA000809171008D7F8093710073988091900056
:103CB0008062809390008091710084608093710095
:103CC000BACF81E080932D038DE080932C03A0CFA9
:103CD0001F920F920FB60F9211248F939F9381E042
:103CE00080932D039CE090932C03809309029F9175
:103CF0008F910F900FBE0F901F9018951F920F92EB
:103D00000FB60F9211248F939F9381E080932D0320
:103D10009DE090932C03809309029F918F910F90C7
:103D20000FBE0F901F901895809194009091950070
:103D30000E94E62C08952F923F924F925F926F92CD
:103D40007F928F929F92AF92BF92CF92DF92EF922B
:103D5000FF920F931F93DF93CF93CDB7DEB72897D2
:103D60000FB6F894DEBF0FBECDBF2C017A836983F6
:103D7000FC010190F081E02DFC83EB83FB010190BD
:103D8000F081E02DFE83ED836091C7037091C8033D
:103D90006530710534F41092C8031092C70360E0D7
:103DA00070E04091C9035091CA034530510534F485
:103DB0001092CA031092C90340E050E08091CB03F7
:103DC0009091CC038530910524F41092CC0310928D
:103DD000CB030091CD031091CE030530110534F4CF
:103DE0001092CE031092CD0300E010E06090CF035C
:103DF0007090D003F5E06F16710434F41092D00384
:103E00001092CF03662477242091D1033091D203FE
:103E10002530310534F41092D2031092D10320E002
:103E200030E08091D3039091D4038530910524F440
:103E30001092D4031092D3038091D5039091D603AE
:103E40008530910534F41092D6031092D50380E0AA
:103E500090E0EE24FF24E61AF70A5A01B594A794DD
:103E6000159507956901D594C7944C01959487944D
:103E70000E94E12C93012E5130402E0D3F1D200F4A
:103E8000311F2C0D3D1D2A193B09281939094CE316
:103E9000242E312CB1010E94492C280F391F38875C
:103EA0002F83E090C903F090CA03F594E794009142
:103EB000CB031091CC031595079515950795C090E8
:103EC000CD03D090CE03D594C7948090D103909029
:103ED000D203959487946090D3037090D403759423
:103EE000679475946794A090D503B090D603B59469
:103EF000A7940E94E12C9701200F311F2E513040D2
:103F00002C0D3D1D2A193B09281939092619370995
:103F1000B1010E94492C280F391F4B815C8157FD4C
:103F200097C05A01CC24B7FCC094DC2C8F819885B3
:103F30003C01882477FC8094982C79010027F7FCB9
:103F40000095102FC401B3016E197F09800B910BEE
:103F5000A60195010E94162CF7E095958795779517
:103F60006795FA95D1F76A0D7B1D8C1D9D1DF20199
:103F7000718360832D813E8137FD99C05901CC2426
:103F8000B7FCC094DC2CC801B701660D771D881DF5
:103F9000991DA60195010E94162C37E095958795ED
:103FA000779567953A95D1F76A0D7B1D8C1D9D1D00
:103FB0009B01E981FA8171836083F2E021303F0740
:103FC00044F080E092E0E981FA819183808320E0EF
:103FD00032E0F20180819181F2E081309F074CF064
:103FE00080E092E0F20191838083E981FA8120816F
:103FF0003181FEEF20303F074CF480E09EEFE981F5
:10400000FA8191838083F20180819181FEEF80307B
:104010009F072CF480E09EEFF20191838083289625
:104020000FB6F894DEBF0FBECDBFCF91DF911F91C9
:104030000F91FF90EF90DF90CF90BF90AF909F9047
:104040008F907F906F905F904F903F902F9008954A
:104050004D815E815A01CC24B7FCC094DC2C8F8149
:1040600098853C01882477FC8094982C790100275E
:10407000F7FC0095102FC801B701660D771D881D4C
:10408000991DA60195010E94162CE7E0959587954C
:1040900077956795EA95D1F7261B370B480B590B97
:1040A000F201318320832D813E8137FF67CF2B8141
:1040B0003C815901CC24B7FCC094DC2CC401B30171
:1040C0006E197F09800B910BA60195010E94162C99
:1040D00027E095958795779567952A95D1F7A61A44
:1040E000B70AC80AD90A9501E981FA81B182A0828A
:1040F00064CF80916F039091700321E0843A92071E
:10410000D4F0809171039091720321E0843A920778
:1041100094F0809173039091740321E0843A9207A4
:1041200074F081E0209175033091760391E0243A98
:1041300039071CF4089581E0089580E0089581E036
:10414000089581E080934F05089510924F050895DA
:1041500081E0809350050895109250050895A0E8DD
:10416000B0E01C92E1E8F0E010828C91896A8C93B7
:1041700080818960808380910C0290E09093890017
:104180008093880080910D0290E090938B00809343
:104190008A0080910E0290E090938D0080938C00B5
:1041A000089581E090910F04891B80930F04882368
:1041B00039F480918000877F809380002F98089544
:1041C000809180008860809380008FEF90E09093D2
:1041D0008D0080938C000895882359F09091800081
:1041E00090689093800090E090938900809388007D
:1041F0000895809180008F77809380002D98089596
:10420000882359F09091800090629093800090E014
:1042100090938B0080938A000895809180008F7D19
:10422000809380002E980895882359F09091800003
:1042300098609093800090E090938D0080938C0024
:10424000089580918000877F809380002F98089543
:10425000833009F45AC0843080F0853009F441C0BD
:104260008530D0F4662309F468C080910B018F7EFD
:1042700080930B0180910B0108958130E1F1823030
:1042800080F0662309F446C080910B018B7F8093F8
:104290000B0180910B0108958630C9F0873061F0E1
:1042A0000895662309F451C080910B018E7F80939D
:1042B0000B0180910B010895662309F05EC0809187
:1042C0000B01806880930B0180910B010895662398
:1042D00049F180910B018F7B80930B0180910B0141
:1042E00008956623D1F180910B018F7D80930B019E
:1042F00080910B0108956623C1F180910B018D7FA0
:1043000080930B0180910B010895662399F0A39887
:1043100084B3089580910B01846080930B01809198
:104320000B01089580910B01806480930B018091B3
:104330000B010895A39A84B3089580910B018061C5
:1043400080930B0180910B01089580910B01816096
:1043500080930B0180910B01089580910B01806285
:1043600080930B0180910B01089580910B01826075
:1043700080930B0180910B01089580910B018F7741
:1043800080930B0180910B010895EBE0F1E08081B7
:10439000816080838081826080838081846080836B
:1043A000A39A808180618083808180628083808104
:1043B000806480838081806880830895EBE0F1E0F1
:1043C00080818E7F808380818D7F808380818B7FC1
:1043D0008083A39880818F7E808380818F7D80837E
:1043E00080818F7B808380818F77808308950E9476
:1043F0006F14809114020E947714882349F486E197
:104400000E94F21485E40E94F2140E94EA140895B6
:104410000E94EA1486EA90E09093150280931402B9
:1044200086EA0E947714882341F58DE20E94F214F7
:1044300088E00E94F2140E94EA14809114020E9403
:1044400077148823D1F481E30E94F21480E00E9463
:10445000F2140E94EA14809114020E9477148823B7
:1044600061F48CE20E94F21489E00E94F2140E942E
:10447000EA1481E080931F0508950E94EA1482E007
:1044800080931F050895809114020E947714882359
:1044900051F486E10E94F21485E40E94F2140E9415
:1044A000EA1480E008950E94EA1481E00895809162
:1044B00014020E947714882331F58DE20E94F214D1
:1044C00088E00E94F2140E94EA14809114020E9473
:1044D00077148823C1F481E30E94F21480E00E94E3
:1044E000F2140E94EA14809114020E947714882327
:1044F00051F48CE20E94F21489E00E94F2140E94AE
:10450000EA1480E008950E94EA1481E00895FF9281
:104510000F931F93DF93CF930F92CDB7DEB78091A8
:104520001F05882391F0813009F488C0109221057D
:104530001092200510922305109222050F90CF9122
:10454000DF911F910F91FF900895809114020E94B6
:10455000771480E00E94F214809114028F5F0E9411
:10456000C4140E940415082F0E940415F82E0E94FE
:104570000415182F0E940E1589830E94EA14909149
:104580007E058981992339F14F2D552747FD509597
:10459000542F4427602F772767FD7095462B572BA4
:1045A0005093210540932005282F332727FD309570
:1045B000322F2227812F992787FD9095282B392B81
:1045C00030932305209322050F90CF91DF911F9107
:1045D0000F91FF9008954F2D552747FD5095542F6B
:1045E0004427602F772767FD7095462B572B6091E6
:1045F000260570912705461B570B509321054093C4
:104600002005282F332727FD3095322F2227812F91
:10461000992787FD9095282B392B8091280590911B
:104620002905281B390B30932305209322050F9071
:10463000CF91DF911F910F91FF9008958091140207
:104640000E94771482E386CFDF93CF9300D000D00F
:10465000CDB7DEB780911F058823C1F0813009F402
:10466000ADC01092210510922005109223051092E2
:104670002205109225051092240526960FB6F8946F
:10468000DEBF0FBECDBFCF91DF91089580911402A0
:104690000E94771480E00E94F214809114028F5FD0
:1046A0000E94C4140E94041589830E9404158A8301
:1046B0000E9404158B830E9404158C830E940415AC
:1046C0008D830E940E158E830E94EA1480917E05D0
:1046D000882389F18A81992787FD9095982F8827CB
:1046E0002981332727FD3095822B932B9093210529
:1046F000809320058C81992787FD9095982F882796
:104700002B81332727FD3095822B932B9093230504
:10471000809322058E81992787FD9095982F882771
:104720002D81332727FD3095822B932B90932505E0
:1047300080932405A2CF8A81992787FD9095982F91
:1047400088272981332727FD3095822B932B2091B1
:10475000260530912705821B930B909321058093AA
:1047600020058C81992787FD9095982F88272B818C
:10477000332727FD3095822B932B209128053091EC
:104780002905821B930B90932305809322058E812C
:10479000992787FD9095982F88272D81332727FD0E
:1047A0003095822B932B20912A0530912B05821B6B
:1047B000930B90932505809324055FCF809114027D
:1047C0000E94771482E367CFCF93DF9310920C029D
:1047D00010920D0210920E0280E00E94EC20809157
:1047E0000D020E94002180910E020E94142110925D
:1047F00041051092400581E080937E05C1E0D0E044
:104800000E9424232091400530914105213131053A
:104810000CF435C180918F0390919003A091910386
:10482000B091920354E0B695A795979587955A95C0
:10483000D1F79093780380937703809193039091BD
:104840009403A0919503B091960344E0B695A79583
:10485000979587954A95D1F790937A03809379033A
:104860008091970390919803A0919903B0919A0336
:1048700034E0B695A795979587953A95D1F790939B
:104880007C0380937B0380919B0390919C03A09178
:104890009D03B0919E0324E0B695A79597958795C3
:1048A0002A95D1F790937E0380937D0380919F0397
:1048B0009091A003A091A103B091A203F4E0B6955A
:1048C000A79597958795FA95D1F790938003809354
:1048D0007F038091A3039091A403A091A503B091BD
:1048E000A603E4E0B695A79597958795EA95D1F745
:1048F00090938203809381038091A7039091A803F2
:10490000A091A903B091AA0374E0B695A7959795D5
:1049100087957A95D1F79093840380938303809150
:10492000AB039091AC03A091AD03B091AE0364E0F2
:10493000B695A795979587956A95D1F79093860335
:10494000809385038091B3039091B403A091B50344
:10495000B091B60354E0B695A795979587955A956B
:10496000D1F79C018091B7039091B803A091B9034E
:10497000B091BA0344E0B695A795979587954A9567
:10498000D1F7BC018091BB039091BC03A091BD0302
:10499000B091BE03F4E0B695A79597958795FA95E3
:1049A000D1F7AC018091AF039091B003A091B10316
:1049B000B091B203E4E0B695A79597958795EA95EF
:1049C000D1F78050924090938803809387032050C2
:1049D000324030938A032093890360507240709371
:1049E0008C0360938B034050524050938E0340934E
:1049F0008D0380912C0590912D0595958795959522
:104A0000879595958795959587959093270580939C
:104A1000260580912E0590912F0595958795959562
:104A2000879595958795959587959093290580937A
:104A3000280580913005909131059595879595953C
:104A40008795959587959595879590932B05809358
:104A50002A0510927E058FEF80930C0280930D0241
:104A600080930E020E94EC2080910D020E94002192
:104A700080910E020E941421DF91CF9108958091C0
:104A8000C603882309F486C11092C6032115310597
:104A900009F486C180915F0390916003AA2797FD76
:104AA000A095BA2F40918F0350919003609191038C
:104AB00070919203840F951FA61FB71F80938F03D9
:104AC00090939003A0939103B0939203809161031C
:104AD00090916203AA2797FDA095BA2F4091930366
:104AE000509194036091950370919603840F951FE4
:104AF000A61FB71F8093930390939403A0939503ED
:104B0000B09396038091630390916403AA2797FD65
:104B1000A095BA2F40919703509198036091990303
:104B200070919A03840F951FA61FB71F8093970358
:104B300090939803A0939903B0939A03809165038F
:104B400090916603AA2797FDA095BA2F40919B03E9
:104B500050919C0360919D0370919E03840F951F5B
:104B6000A61FB71F80939B0390939C03A0939D0364
:104B7000B0939E038091670390916803AA2797FDE5
:104B8000A095BA2F40919F035091A0036091A1037B
:104B90007091A203840F951FA61FB71F80939F03D8
:104BA0009093A003A093A103B093A2038091690303
:104BB00090916A03AA2797FDA095BA2F4091A3036D
:104BC0005091A4036091A5037091A603840F951FD3
:104BD000A61FB71F8093A3039093A403A093A503DC
:104BE000B093A60380916B0390916C03AA2797FD65
:104BF000A095BA2F4091A7035091A8036091A903F3
:104C00007091AA03840F951FA61FB71F8093A70357
:104C10009093A803A093A903B093AA0380916D0376
:104C200090916E03AA2797FDA095BA2F4091AB03F0
:104C30005091AC036091AD037091AE03840F951F4A
:104C4000A61FB71F8093AB039093AC03A093AD0353
:104C5000B093AE0380916F0390917003AA2797FDE4
:104C6000A095BA2F4091AF035091B0036091B1036A
:104C70007091B203840F951FA61FB71F8093AF03D7
:104C80009093B003A093B103B093B20380917103EA
:104C900090917203AA2797FDA095BA2F4091B30374
:104CA0005091B4036091B5037091B603840F951FC2
:104CB000A61FB71F8093B3039093B403A093B503CB
:104CC000B093B6038091730390917403AA2797FD64
:104CD000A095BA2F4091B7035091B8036091B903E2
:104CE0007091BA03840F951FA61FB71F8093B70357
:104CF0009093B803A093B903B093BA03809175035E
:104D000090917603AA2797FDA095BA2F4091BB03F7
:104D10005091BC036091BD037091BE03840F951F39
:104D2000A61FB71F8093BB039093BC03A093BD0342
:104D3000B093BE0380912C0590912D0540912005E4
:104D400050912105840F951F90932D0580932C057C
:104D500080912E0590912F054091220550912305B9
:104D6000840F951F90932F0580932E058091300519
:104D7000909131054091240550912505840F951F90
:104D800090933105809330052F5F3F4F309341055D
:104D90002093400580917E05882309F031CD5BCEBC
:104DA00010928F031092900310929103109292032D
:104DB0001092780310927703109293031092940349
:104DC000109295031092960310927A031092790331
:104DD00010929703109298031092990310929A03DD
:104DE00010927C0310927B0310929B0310929C0301
:104DF00010929D0310929E0310927E0310927D03E9
:104E000010929F031092A0031092A1031092A2038C
:104E10001092800310927F031092A3031092A403B8
:104E20001092A5031092A6031092820310928103A0
:104E30001092A7031092A8031092A9031092AA033C
:104E400010928403109283031092AB031092AC0370
:104E50001092AD031092AE03109286031092850358
:104E60001092AF031092B0031092B1031092B203EC
:104E700010928803109287031092B3031092B40328
:104E80001092B5031092B60310928A031092890310
:104E90001092B7031092B8031092B9031092BA039C
:104EA00010928C0310928B031092BB031092BC03E0
:104EB0001092BD031092BE0310928E0310928D03C8
:104EC00010922D0510922C0510922F0510922E0590
:104ED0001092310510923005D0934105C0934005E2
:104EE00080917E0559CF80911F05882379F081300C
:104EF00011F11092210510922005109223051092B5
:104F0000220510922505109224050895809114021F
:104F10000E94771480E00E94F214809114028F5F47
:104F20000E94C4140E940415809335050E94041544
:104F3000809336050895809114020E94771482E3CD
:104F40000E94F214809114028F5F0E94C4140E9488
:104F50000415809335050E940415809336050E9440
:104F6000041580933705089580911F05882309F063
:104F70004EC00E940415809337050E94041580934B
:104F800038050E940415809339050E940E15809300
:104F90003A050E94EA1480917E05882309F447C0EF
:104FA00080913605992787FD9095982F8827209125
:104FB0003505332727FD3095822B932B90932105C0
:104FC0008093200580913805992787FD9095982F2B
:104FD000882720913705332727FD3095822B932B87
:104FE000909323058093220580913A05992787FDA8
:104FF0009095982F882720913905332727FD3095E4
:10500000822B932B9093250580932405089581305E
:1050100009F4B3CF109221051092200510922305B8
:105020001092220510922505109224050895809172
:105030003605992787FD9095982F8827209135056B
:10504000332727FD3095822B932B20912605309115
:105050002705821B930B9093210580932005809157
:105060003805992787FD9095982F88272091370537
:10507000332727FD3095822B932B209128053091E3
:105080002905821B930B9093230580932205809121
:105090003A05992787FD9095982F88272091390503
:1050A000332727FD3095822B932B20912A053091B1
:1050B0002B05821B930B909325058093240508955F
:1050C000EF92FF920F931F938091240590912505F5
:1050D00097FD5BC08031910508F042C081E080936C
:1050E000160290911502981709F442C010923405E7
:1050F000809315026091200570912105882777FD26
:105100008095982F0E94C8297B018C01609122050F
:1051100070912305882777FD8095982F0E94C829D4
:105120009B01AC01C801B7010E94002D21EE3EE2B7
:1051300045E652E40E94C9280E94262A9B017093EA
:1051400033056093320577FF06C028593E4F3093F0
:105150003305209332051F910F91FF90EF90089532
:105160001092160280E090911502981709F0BECFB8
:10517000909134059F5F90933405953008F4B8CF33
:105180001092340580931702B3CF909581959F4F6D
:10519000A1CFA0E2B0E0EFECF8E20C945E2C6983C2
:1051A0007A838B839C832D833E834F83588799E03A
:1051B000E92EF12CEC0EFD1EB701CE0101960E94E6
:1051C000A62B8E010F5E1F4FB801CE0105960E94DF
:1051D000A62B9985923088F089898230C0F094306E
:1051E00019F4823029F009C0843029F4923079F41E
:1051F00068E172E0C6C0923041F420E09A858A8965
:10520000981321E02A87B701BCC0823041F420E026
:105210009A858A89981321E02A8BB801B2C0CD847F
:10522000DE84EF84F8880D891E892F89388D8824C3
:105230009924540140E050E060E070E0442455249B
:105240003201E0E0F0E0C60181709070892BD9F066
:10525000800E911EA21EB31EDB01CA01840D951D96
:10526000A61DB71D40E050E060E070E0801691069A
:10527000A206B30620F441E050E060E070E0480F81
:10528000591F6A1F7B1F440C551C661C771C37FF77
:1052900008C081E090E0A0E0B0E0482A592A6A2ADC
:1052A0007B2A3196E032F10549F0000F111F221FD1
:1052B000331FF694E794D794C794C5CF8B899C8904
:1052C0002B853C85820F931F02969C8F8B8F1A8EA5
:1052D0009A858A89981711F081E08A8F2B8D3C8DF1
:1052E00017C0CA0181709070892B61F0B694A794A1
:1052F0009794879480E090E0A0E0B0E8882A992A0B
:10530000AA2ABB2A76956795579547952F5F3F4FF9
:1053100077FDE7CFC9010BC0440F551F661F771FEC
:10532000B7FC4160880C991CAA1CBB1C019740303B
:10533000A0E05A07A0E06A07A0E47A0768F39C8F10
:105340008B8FDB01CA018F779070A070B0708034B2
:105350009105A105B10561F447FD0AC081149104CE
:10536000A104B10429F0405C5F4F6F4F7F4F40783C
:105370004D8F5E8F6F8F78A383E0898FBE01675E4C
:105380007F4FCB010E94C62AE0E1A0960C947A2CB4
:10539000A8E0B0E0EEECF9E20C94652C9B01AC01C6
:1053A00083E08983DA01C9018827B7FD83959927AE
:1053B000AA27BB27B82E211531054105510519F43F
:1053C00082E089833AC08823A9F0203080E0380742
:1053D00080E0480780E8580729F460E070E080E04A
:1053E0009FEC30C0EE24FF248701E21AF30A040B7D
:1053F000150B02C079018A018EE1C82ED12CDC8206
:10540000CB82ED82FE820F831887C801B7010E940C
:10541000792A01971816190684F4082E04C0EE0C98
:10542000FF1C001F111F0A94D2F7ED82FE820F832A
:105430001887C81AD90ADC82CB82BA82CE010196BB
:105440000E94C62AE9E028960C94812CACE0B0E0DA
:10545000ECE2FAE20C946C2C69837A838B839C8354
:10546000BE016B5F7F4FCE0101960E94A62B8D81FE
:105470008230A9F1823098F1843021F48E81882322
:1054800059F40FC02F81388537FD29C06E812F3127
:10549000310564F0662329F020E030E040E050E878
:1054A00022C02FEF3FEF4FEF5FE71DC08EE190E08E
:1054B000821B930B29853A854B855C8504C05695E4
:1054C0004795379527958A95D2F7662361F05095D1
:1054D0004095309521953F4F4F4F5F4F04C020E0DE
:1054E00030E040E050E0CA01B901E2E02C960C94B3
:1054F000882CEF92FF920F931F939B01AC012030F9
:1055000080E0380781E0480780E0580780F42F3FAB
:1055100031054105510509F020F4EE24FF248701EF
:1055200019C068E0E62EF12C012D112D13C020309A
:1055300080E0380780E0480781E0580730F490E1C8
:10554000E92EF12C012D112D05C088E1E82EF12C5A
:10555000012D112D80E290E0A0E0B0E08E199F09AE
:10556000A00BB10B04C05695479537952795EA9443
:10557000D2F7F901E05EFD4F2081821B9109A1095C
:10558000B1091F910F91FF90EF9008959F92AF92F4
:10559000BF92CF92DF92EF92FF920F931F93EE2470
:1055A000FF248701FC012481358146815781918048
:1055B0008081823010F44061A2C0843009F49BC025
:1055C000823029F420E030E040E050E005C02115B1
:1055D00031054105510519F4E0E0F0E092C0828107
:1055E00093816FEF823896070CF05AC062E87FEF24
:1055F000681B790B6A3171052CF020E030E040E047
:1056000050E02AC0AA24BB24650181E090E0A0E01C
:10561000B0E0062E04C0880F991FAA1FBB1F0A9472
:10562000D2F70197A109B10982239323A423B523BB
:105630000097A105B10529F071E0A72EB12CC12C6E
:10564000D12C04C056954795379527956A95D2F782
:105650002A293B294C295D29DA01C9018F779070ED
:10566000A070B07080349105A105B10539F427FF11
:1056700009C0205C3F4F4F4F5F4F04C0215C3F4F3C
:105680004F4F5F4F80E090E0203060E0360760E0F1
:10569000460760E4560710F081E090E0FC0123C06B
:1056A0008038910544F5FC01E158FF4FDA01C9014A
:1056B0008F779070A070B07080349105A105B1050E
:1056C00039F427FF09C0205C3F4F4F4F5F4F04C0A4
:1056D000215C3F4F4F4F5F4F57FF05C05695479591
:1056E00037952795319687E05695479537952795B5
:1056F0008A95D1F706C020E030E040E050E0EFEFBF
:10570000F0E0E22EF32E942F9F77802F8078892B64
:105710009E2F9795992797958F77082F092B9E2F66
:105720009695812F8078892B9794992497948F77D9
:10573000182F1929C801B7011F910F91FF90EF9001
:10574000DF90CF90BF90AF909F900895CF93DF935D
:10575000FC01DB01208131819281492F4F7750E09C
:10576000991F9927991F8381E82FEE0FE92B6E2F40
:1057700070E0881F8827881FED018983EE2371F56B
:10578000211531054105510511F482E02FC06E57F6
:105790007040FD017383628367E0220F331F441F53
:1057A000551F6A95D1F783E08C930AC0220F331FEF
:1057B000441F551FED018A819B8101979B838A833A
:1057C0002030E0E03E07E0E04E07E0E45E0770F3E3
:1057D000ED012C833D834E835F8325C0EF3F79F439
:1057E000211531054105510519F484E08C931BC046
:1057F00044FF03C081E08C9311C01C920FC06F570F
:105800007040ED017B836A8383E08C9387E0220FF5
:10581000331F441F551F8A95D1F75064FD0124831F
:10582000358346835783DF91CF910895629FD001DE
:10583000739FF001829FE00DF11D649FE00DF11D4B
:10584000929FF00D839FF00D749FF00D659FF00DFA
:105850009927729FB00DE11DF91F639FB00DE11DE7
:10586000F91FBD01CF0111240895AA1BBB1B51E1F3
:1058700007C0AA1FBB1FA617B70710F0A61BB70BC0
:10588000881F991F5A95A9F780959095BC01CD0165
:10589000089597FB092E07260AD077FD04D0E5DF8F
:1058A00006D000201AF4709561957F4F0895F6F7A1
:1058B000909581959F4F08952F923F924F925F92BE
:1058C0006F927F928F929F92AF92BF92CF92DF9210
:1058D000EF92FF920F931F93CF93DF93CDB7DEB775
:1058E000CA1BDB0B0FB6F894DEBF0FBECDBF1994F9
:1058F0002A88398848885F846E847D848C849B8460
:10590000AA84B984C884DF80EE80FD800C811B816D
:10591000AA81B981CE0FD11D0FB6F894DEBF0FBE9C
:10592000CDBFED010895AF92BF92CF92DF92EF927B
:10593000FF920F931F93CF93DF93EC0168817981DE
:105940008A819B81611571058105910521F464E2CD
:1059500079ED8BE597E02DE133EF41E050E00E94D7
:105960002A2F79018A0127EA31E440E050E00E94C1
:10597000162C5B016C01C801B7012CEE34EF4FEF20
:105980005FEF0E94162C6A0D7B1D8C1D9D1D97FFDD
:1059900004C06150704080409048688379838A8356
:1059A0009B837F77CB01DF91CF911F910F91FF9068
:1059B000EF90DF90CF90BF90AF9008950E94932C0E
:1059C000089580E293E00E94932C0895A0E0B0E057
:1059D0008093200390932103A0932203B093230389
:1059E0000895F5D058F080E891E009F49EEFF6D0E4
:1059F00028F040E851E059F45EEF09C0C0C028C16A
:105A0000E92FE07803D168F3092E052AC1F32617A0
:105A100037074807590738F00E2E07F8E02569F0D8
:105A2000E025E0640AC0EF6307F8009407FADB01A1
:105A3000B9019D01DC01CA01AD01EF9341D0D5D080
:105A40000AD05F91552331F02BED3FE049E450FD42
:105A500049EC7CC10895DF93DD27B92FBF7740E87B
:105A60005FE31616170648075B0710F4D92FF7D027
:105A70009F938F937F936F935AD1EEE4F1E082D09E
:105A8000B4D02F913F914F915F91FAD0DD2349F02F
:105A90009058A2EA2AED3FE049EC5FE3D0785D2719
:105AA00066D1DF91A2C09AD040F091D030F021F4BD
:105AB0005F3F19F05EC05111CCC061C0A7D098F310
:105AC0009923C9F35523B1F3951B550BBB27AA277F
:105AD00062177307840738F09F5F5F4F220F331FF1
