:100000000C94CD000C94EC000C94EC000C94EC00DF
:100010000C94EC000C94EC000C94EC000C94EC00B0
:100020000C94EC000C94EC000C9402100C94EC007A
:100030000C94EC000C9436100C94EC000C94571BB0
:100040000C94EC000C94EC000C94EC000C94EC0080
:100050000C94EC000C94EC000C94EC000C94EC0070
:100060000C94EC000C94221A0C94EC000C94EC0010
:100070000C94EC000C94291C0C94EC000C94EC00F7
:100080000C9431320C9447320C94EC000C94A43153
:100090000C94EC000C94EC000C94EC000C94EC0030
:1000A0000C94EC000C94EC000C9478310C948E3190
:1000B0000C94EC000C94E1300C94EC000C94EC00EB
:1000C0000C94EC000C94EC000C94EC000C94EC0000
:1000D0000C94EC000C94EC000C94EC000C94EC00F0
:1000E0000C94EC001313F712C512B012871275129C
:1000F0004C123012F711DF11781178117811781144
:10010000781178112412D41178117811781178119E
:100110007811781178117811781178117811781197
:10012000F711C512AC119F1178117811781178115F
:100130007811781178117811781178117811781177
:1001400087124C127811781113137512B811084ADE
:10015000D73B3BCE016E84BCBFFDC12F3D6C7431DB
:100160009ABD56833DDA3D00C77F11BED9E4BB4C32
:100170003E916BAAAABE000000803F05A84CCDB2FC
:10018000D44EB93836A9020C50B9918688083CA6DD
:10019000AAAA2ABE000000803F0011241FBECFEF94
:1001A000D1E2DEBFCDBF00E00CBF12E0A0E0B2E0C4
:1001B000ECEEF1E802C005900D92AE31B107D9F72F
:1001C00015E0AEE1B2E001C01D92A438B107E1F73D
:1001D0000E94EE000C94F5400C9400002F923F9288
:1001E0004F925F926F927F928F929F92AF92BF9247
:1001F000CF92DF92EF92FF920F931F93DF93CF93F3
:1002000000D00F92CDB7DEB70E94F61A0E94AD372C
:100210000E945D320E94CD1B6B017C010E94CD1BB0
:100220009B01AC0160935B0430935C0440935D04DC
:1002300050935E0410925F04109260041092610467
:1002400010926204AA24BB2400E019821A821B8245
:100250001C821FEF222423940E94D11A80934B0406
:100260000E94ED360E94293C80914B04873009F4AE
:10027000B3C10E94CD1B6C197D098E099F096E3197
:100280004BE4740740E0840740E0940708F090C115
:100290000E9466110E942B0C8091BF04882309F4F0
:1002A00072C080914B04863009F45CC18F3009F034
:1002B0004AC00E942F2C80914B04081769F20E94BB
:1002C0006E340E94753480910B01816080930B0124
:1002D00080910B01826080930B0180910B018460FF
:1002E00080930B01A39A80910B01806180930B0195
:1002F00080910B01806280930B0180910B018064DF
:1003000080930B0180910B01806880930B01109307
:100310000C0210930D0210930E028FEF0E94B53461
:1003200080910D020E94C93480910E020E94DD343A
:1003300080E00E94D22080E00E94B5201092180335
:1003400000914B0489CF60E00E94F11990914B0419
:10035000892F963009F406C1973008F05EC19230BB
:1003600009F456C1933008F063C2992309F49BC184
:10037000913021F40E946A3490914B04992309F042
:1003800098CF80E09ACF0E94CD1B9B01AC0160E02A
:1003900070E0CB01F0915B04E0915C0480905D041F
:1003A00040905E0430905F0450906004609061045F
:1003B00070906204B22FBF1BA1E02B1708F0A0E0E1
:1003C000F32FFE1BEF2FF1E03E1708F0F0E09E2E1A
:1003D0009A1AA92D99249394EA1708F09924F929D7
:1003E000E42FE8198E2EE1E0481508F0E0E0982CA3
:1003F0009F1AF1E0891408F0F0E0EF2BF52FF419C3
:100400004F2EF1E0541508F0F0E0842C8E1AE1E054
:10041000481408F0E0E0FE2B3194E1E0631508F0A9
:10042000E0E0432C4F1AF1E0341408F0F0E0EF2B39
:100430005194F1E0751508F0F0E0352C3E1AE1E03A
:10044000531408F0E0E0FE2B6194E1E0861508F01B
:10045000E0E0962D9F1B81E0691608F080E0E82B14
:1004600071947E1691F4992381F4332071F4442021
:1004700061F4882051F4992041F4A23030F4A13085
:1004800009F00FCFB03908F40CCF0E94CD1B9B01AF
:10049000AC0160935B0430935C0440935D04509323
:1004A0005E0410925F041092600410926104109236
:1004B000620480916304882309F4FBC18091F902EE
:1004C0009091FA02009709F48CC22091FD023091BC
:1004D000FE02289FA001299F500D389F500D112426
:1004E00057FD7FC2281739070CF0E6C64091180265
:1004F000240F311D3093FE022093FD0282179307D3
:1005000024F49093FE028093FD028091FB0290916F
:10051000FC02009709F460C22091FF0230910003B1
:10052000289FA001299F500D389F500D112457FD81
:1005300053C2281739070CF0D0C640911802240F77
:10054000311D309300032093FF02821793070CF0B4
:10055000A8CE909300038093FF0280914B048630D5
:1005600009F0A4CE90911F04913009F4BAC29130E1
:1005700008F03CC280E00E94D22080E00E94B520BA
:100580000E948E3510930C0210930D0210930E02F0
:100590008FEF0E94B53480910D020E94C934809182
:1005A0000E020E94DD34449A459A90914B04E6CEA7
:1005B0000E94D61B80914B04982F9450923008F4DF
:1005C00085C1873009F4ADC1863009F4E4C00E94CA
:1005D000CD1B6B017C015CCE0E94CD1B29813A8131
:1005E0004B815C81621B730B840B950B683C32E181
:1005F000730730E0830730E0930708F43ACE109396
:100600000C0210930D0210930E0233CE0E946A3436
:100610000E94713490914B04B1CE9A3009F4A1C07C
:100620009B30F8F4983009F490C0993008F440C039
:100630006091D5027091D6028091D7029091D80234
:1006400020E030E84BE355E40E94793D181614F59C
:1006500080E00E94B52080E00E94D22090914B045F
:100660008DCE9C3009F4CAC09C3008F4ADC09D30DA
:1006700009F084CE6091D5027091D6028091D702A4
:100680009091D80220E030EC4AED55E40E94793D8B
:100690001816F4F288E20E94B52088E20E94D22067
:1006A00090914B046BCE0E94851F90914B0466CEB7
:1006B00080914F04823009F450C5833008F0B5C1F1
:1006C000882309F081C40E948E3580910B018E7FB2
:1006D00080930B01109250040E946A3484E10E94BE
:1006E000D22084E10E94B5200E94CD1B9B01AC0169
:1006F00060935704709358048093590490935A045C
:100700008091530490915404A0915504B0915604E3
:10071000281B390B4A0B5B0B23336FEE360762E065
:10072000460760E0560710F020924F0480910C02BB
:100730000E94B53480910D020E94C93480910E024E
:100740000E94DD3490914B0419CE209212028091C8
:10075000BF04813009F0ADCD0E94D62190914B04A9
:100760000DCE6091D5027091D6028091D702909102
:10077000D80220E030E04AE755E40E94793D18169F
:100780000CF466CF88E20E94B52088E20E94D22055
:1007900090914B04F3CD80911F04813009F017CF65
:1007A00090911503923008F012CF9091180399237D
:1007B00009F004C64EEF40930C0210930D02109303
:1007C0000E028093180303CF6091D5027091D60278
:1007D0008091D7029091D80220E030E44CE955E4B2
:1007E0000E94793D18160CF433CF88E20E94B520A0
:1007F00088E20E94D22090914B04C0CD6091D50236
:100800007091D6028091D7029091D80220E030E812
:100810004BEB55E40E94793D18160CF03BCF80E07D
:100820000E94B52080E00E94D22090914B04A6CD7A
:100830009430D1F0953008F4E9CE80910C020E94FA
:10084000B53480910D020E94C93480910E020E943D
:10085000DD340E946A3489E10E94B52089E10E945A
:10086000D22090914B048ACD80910B018E7F809392
:100870000B0180910B018D7F80930B0180910B0107
:100880008B7F80930B01A39880910B018F7E8093C7
:100890000B0180910B018F7D80930B0180910B01E7
:1008A0008F7B80930B0180910B018F7780930B01DD
:1008B0003DCF8091F9029091FA029093FE028093CD
:1008C000FD028091FB029091FC0243CE0E948C407D
:1008D0006EE170E00E94EE3FA80EB91E5FE7A52210
:1008E000BB2480911803813009F4EEC3813008F0F5
:1008F00061C38A2D809580930C022092180380E2B8
:10090000A816B10408F0D4C080910D028F3F09F4FD
:100910005ECE80910E028F3F09F459CE10930C02E7
:1009200056CE80919400909195000E9491400E9433
:100930008C406EE170E00E94EE3F4C018A0C9B1CE3
:10094000FFE78F229924882D809580930C02809157
:100950009400909195000E9491400E948C406EE11D
:1009600070E00E94EE3F6C01C80CD91C2FE7C22238
:10097000DD248C2D809580930D02809194009091C0
:1009800095000E9491400E948C406EE170E00E94B0
:10099000EE3F5C01AC0CBD1C3FE7A322BB248A2DBB
:1009A000809580930E0280919400909195000E9412
:1009B00091400E948C4060E870E00E94EE3F8032DF
:1009C000910508F087C010930C020E94CD1B69832B
:1009D0007A838B839C83FBCD109200031092FF02DD
:1009E00060CC1092FE021092FD028FCD923011F079
:1009F000982FC4CC909120049923D1F30E94A7355D
:100A000060911303709114038EEF9FE00E94F040F9
:100A10000E948E358AEA61E00E94F119109220044A
:100A200010921F0490914B04A9CC843009F454C354
:100A3000843008F404C3853009F078CE0E948E35E6
:100A400080910B018F7B80930B0180910B018F773D
:100A500080930B010E94CD1B9B01AC016093570456
:100A6000709358048093590490935A0480915304CE
:100A700090915404A0915504B0915604281B390B51
:100A80004A0B5B0B2B329CE1390790E0490790E061
:100A9000590708F44BCE0E94CD1B6093530470930A
:100AA0005404809355049093560410924F043ECE04
:100AB00090E4A916B10408F0CCC380910C028F3FDA
:100AC00009F485CD80910E028F3F09F480CD1093FB
:100AD0000D027DCD8034910508F0E7C310930D021F
:100AE00074CF0E94A73580910C020E94B53480918A
:100AF0000D020E94C93480910E020E94DD34449898
:100B0000459880912204882309F4A8CD10922204EC
:100B10008091590261E00E94F11980915A0261E0CE
:100B20000E94F1198091290290912A0261E00E94AD
:100B3000F1198091290290912A02892F61E00E9487
:100B4000F11980915B0261E00E94F11980915C02D1
:100B500061E00E94F11980912D0290912E0261E0D6
:100B60000E94F11980912D0290912E02892F61E04F
:100B70000E94F11980915D0261E00E94F11980915B
:100B80005E0261E00E94F11980913102909132027F
:100B900061E00E94F1198091310290913202892F17
:100BA00061E00E94F11980915F0261E00E94F119F9
:100BB0008091600261E00E94F1198091350290916C
:100BC000360261E00E94F11980913502909136025F
:100BD000892F61E00E94F1198091610261E00E9419
:100BE000F1198091620261E00E94F119809139024D
:100BF00090913A0261E00E94F1198091390290913E
:100C00003A02892F61E00E94F1198091630261E04C
:100C10000E94F1198091640261E00E94F1198091B3
:100C20003D0290913E0261E00E94F11980913D02E7
:100C300090913E02892F61E00E94F1198091650236
:100C400061E00E94F1198091660261E00E94F11951
:100C5000809141029091420261E00E94F1198091DD
:100C6000410290914202892F61E00E94F119809126
:100C7000670261E00E94F1198091680261E00E94C0
:100C8000F119809145029091460261E00E94F119AC
:100C90008091450290914602892F61E00E94F119EE
:100CA0008091690261E00E94F11980916A0261E01D
:100CB0000E94F1198091490290914A0261E00E94DC
:100CC000F1198091490290914A02892F61E00E94B6
:100CD000F11980916B0261E00E94F11980916C0220
:100CE00061E00E94F11980914D0290914E0261E005
:100CF0000E94F11980914D0290914E02892F61E07E
:100D00000E94F11980916D0261E00E94F1198091B9
:100D10006E0261E00E94F11980915102909152029D
:100D200061E00E94F1198091510290915202892F45
:100D300061E00E94F11980916F0261E00E94F11957
:100D40008091700261E00E94F119809155029091AA
:100D5000560261E00E94F11980915502909156026D
:100D6000892F61E00E94F1198091280461E00E94BE
:100D7000F1198091290461E00E94F11980912A04FF
:100D800061E00E94F11980912B0461E00E94F11949
:100D900080912C0461E00E94F11980912D0461E0A2
:100DA0000E94F1198091230461E00E94F119809161
:100DB0004B0461E00E94F1198091030190E0807280
:100DC0009070959587959595879595958795959527
:100DD00087959595879561E00E94F119809115039B
:100DE00061E00E94F119609167047091680480913C
:100DF000690490916A0420E030E44FE054E40E94DA
:100E0000303F0E94ED3D862F61E00E94F119609114
:100E10006704709168048091690490916A0420E0ED
:100E200030E44FE054E40E94303F0E94ED3D872FB4
:100E300061E00E94F11960916B0470916C048091E3
:100E40006D0490916E040E94ED3D862F61E00E943A
:100E5000F11960916B0470916C0480916D04909114
:100E60006E040E94ED3D872F61E00E94F1196091B0
:100E70006F047091700480917104909172040E94CB
:100E8000ED3D862F61E00E94F11960916F04709131
:100E9000700480917104909172040E94ED3D872F3F
:100EA00061E00E94F1196091D5027091D6028091A3
:100EB000D7029091D8020E94E83D862F61E00E94FF
:100EC000F1196091D5027091D6028091D70290916C
:100ED000D8020E94E83D872F61E00E94F1196091DD
:100EE000D5027091D6028091D7029091D8020E94CB
:100EF000E83D61E00E94F1196091D5027091D6023F
:100F00008091D7029091D8020E94E83D892F61E03C
:100F10000E94F1196091D1027091D2028091D302A6
:100F20009091D4020E94E83D862F61E00E94F11961
:100F30006091D1027091D2028091D3029091D4023B
:100F40000E94E83D872F61E00E94F1196091D10273
:100F50007091D2028091D3029091D4020E94E83D18
:100F600061E00E94F1196091D1027091D2028091EA
:100F7000D3029091D4020E94E83D892F61E00E9443
:100F8000F1198091FB029091FC02959587959595BA
:100F9000879561E00E94F1198091F9029091FA021F
:100FA000959587959595879561E00E94F1199091A7
:100FB0004B04E4C9823009F0A2CC8A2D809580933D
:100FC0000E02109218039BCC813009F0AFCB0E9427
:100FD0008E3580910B018B7F80930B011092510411
:100FE0000E946A3484E10E94D22084E10E94B520EC
:100FF00080916B0290916C02E1E080399E070CF4C5
:101000003AC180916D0290916E02F1E080399F07A4
:101010000CF431C18091690290916A0221E080391B
:1010200092070CF428C180916F029091700231E018
:10103000803993070CF41FC11092500477CB0E94A3
:101040008E3580910B018F7B80930B010E94CD1B0D
:101050009B01AC016093570470935804809359042A
:1010600090935A048091530490915404A091550494
:10107000B0915604281B390B4A0B5B0B2D3C66E6DE
:10108000360764E0460760E0560708F439C18091EE
:10109000BD029091BE02E3E08A379E0708F43CC18E
:1010A00083EF0E94D22083EF0E94B5200E94CD1BC7
:1010B00060935304709354048093550490935604A2
:1010C000F4E0F0934F0432CB8A2D809580930D028B
:1010D00062E06093180313CC0E948E3580910B015F
:1010E0008F7B80930B0180910B018F7780930B0195
:1010F0000E94CD1B9B01AC01609357047093580470
:101100008093590490935A0480915304909154040D
:10111000A0915504B0915604281B390B4A0B5B0B68
:101120002F3865E2360760E0460760E0560708F4AE
:10113000FDCA84E10E94D2208CEE0E94B5200E945C
:10114000CD1B609353047093540480935504909383
:10115000560485E080934F04E9CA0E948E35809141
:101160000B018F7E80930B010E946E340E94CD1B79
:101170009B01AC0160935704709358048093590409
:1011800090935A048091530490915404A091550473
:10119000B0915604281B390B4A0B5B0B23336FEEBF
:1011A000360762E0460760E0560708F0F0C080911D
:1011B000030184FFD1C010925104809152048F5FCB
:1011C00080935204853108F00FC180916B02909199
:1011D0006C022091690230916A0241E0223C34079E
:1011E000ACF451E0833C95078CF040916D02509136
:1011F0006E0261E0433C56074CF040916F02509103
:101200007002E1E0433C5E070CF00DC140916F02BB
:1012100050917002F1E0423C5F070CF088C041E061
:10122000233C34070CF483C051E0833C95070CF455
:1012300083C080916D0290916E0261E0833C9607BD
:101240000CF0F8C084E10E94B52086EF0E94D22005
:101250006DCAE0E6AE16B10408F0B9C980910C027F
:101260008F3F09F4B4C980910D028F3F09F4AFC9D3
:1012700010930E02ACC9809150048F5F809350048C
:101280008B3008F453CA10925104109252040E94F9
:10129000CD1B609353047093540480935504909332
:1012A000560442E040934F0441CA8036910508F04D
:1012B0008CCB10930E0289CB821793070CF025C9B3
:1012C00040911802241B31093093FE022093FD0245
:1012D000281739070CF019C914C98217930714F09D
:1012E0000C94510140911802241B310930930003E2
:1012F0002093FF022817390714F00C94510129C9D3
:101300008091030184FD12CA10925204109251047C
:1013100082E0982E90924F040E94CD1B609353045C
:10132000709354048093550490935604FFC9E1E0F0
:10133000833C9E070CF086CF80916D0290916E02E7
:10134000F1E0833C9F070CF448C086EF0E94B52073
:1013500084E10E94D220EAC91092520480916B026B
:1013600090916C02E1E0833C9E072CF120916D028C
:1013700030916E02F1E0233C3F07ECF020915104E4
:101380002F5F209351042B3F08F423CFCDC98CEE5F
:101390000E94D2208CEE0E94B5200E94CD1B60934B
:1013A000530470935404809355049093560484E03E
:1013B00080934F04BBC9109251040BCF913041F17F
:1013C000923009F004C910930C0210930D028EEFB5
:1013D00080930E0210921803FAC884E10E94D22072
:1013E00084E10E94B520A2C980E00E94B52080E07F
:1013F0000E94D2200E94CD1B60935304709354042A
:10140000809355049093560493E090934F048EC9B3
:1014100010930C025EEF50930D0210930E0262E0E7
:1014200060931803D4C881EF0E94B52084E10E9424
:10143000D2207CC984E10E94B52081EF0E94D22095
:1014400075C981E090E021E00DB407FC0AC0019667
:1014500037E280319307C0F3209316030DB407FEE3
:10146000F6CF089584B1807F84B984B1876084B950
:1014700080E58CBD8DB581608DBD08951CBC1DBC03
:101480000895442309F1A62FB72FE82FF92F91E0F3
:1014900021912EBD21E030E00DB407FC0BC02F5F81
:1014A0003F4F57E220313507B8F3909316030DB440
:1014B00007FEF5CF20911603222331F42EB52D938C
:1014C0002E2F281B241720F308956623E9F0E82F18
:1014D000F92F91E021912EBD21E030E00DB407FC01
:1014E0000BC02F5F3F4F47E220313407B8F3909392
:1014F00016030DB407FEF5CF20911603222321F425
:101500002E2F281B261730F308958EBD81E090E022
:1015100021E00DB407FC0AC0019637E28031930741
:10152000C0F3209316030DB407FEF6CF8EB50895D1
:101530000F931F93DF93CF9300D0CDB7DEB72898DA
:1015400080E20E94850A8DE00E94850A289A2898E8
:1015500083E20E94850A81E00E94850A289A809190
:1015600013039091140399838A831B82289880E344
:101570000E94850A8E010F5F1F4FC80163E00E9421
:10158000650A289A28988AE20E94850AC80163E0C1
:101590000E94650A289A289881E20E94850A81E0C3
:1015A0000E94850A289A289882E20E94850A81E092
:1015B0000E94850A289A289884E20E94850A82E17E
:1015C0000E94850A289A289885E20E94850A88E266
:1015D0000E94850A289A289881E30E94850A8DE056
:1015E0000E94850A289A289880E50E94850A83E748
:1015F0000E94850A289A28988CE30E94850A81E037
:101600000E94850A289A28988DE30E94850A86E020
:101610000E94850A289A289880E20E94850A8FE015
:101620000E94850A289A0F900F900F90CF91DF911A
:101630001F910F9108952C9A289A0E94980A089554
:10164000CF93DF93EC012C9828988AE20E94850AB8
:10165000CE0165E00E94650A289A2C9ADF91CF910D
:101660000895CF93DF93EC01289880E30E94850AC8
:10167000CE0165E00E94650A289ADF91CF91089516
:101680008091B804882311F080E0089528988FEFA6
:101690000E94850A289A80740895DF93CF930F9251
:1016A000CDB7DEB71982289887E10E94850ABE016E
:1016B0006F5F7F4FCB0141E00E94410A289A8981E8
:1016C00081700F90CF91DF910895289882EE0E944B
:1016D000850A289A0895CF93DF93EC01289881E634
:1016E0000E94850ACE01BE014DE00E94410A289A5F
:1016F000289887E20E94850A80E40E94850A289A39
:10170000DF91CF910895DF93CF930F92CDB7DEB7DE
:1017100028988F71806269830E94850A6981862F6B
:101720000E94850A289A0F90CF91DF9108950F9318
:101730001F93DF93CF930F92CDB7DEB78B0128981D
:101740008F7149830E94850AC801B80149810E94AE
:10175000410A289A0F90CF91DF911F910F91089520
:101760000F931F93DF93CF930F92CDB7DEB78B010B
:1017700028988F71806249830E94850AC801498137
:10178000642F0E94650A289A0F90CF91DF911F91D4
:101790000F9108950F931F93DF93CF930F92CDB7BF
:1017A000DEB78C018091B8048823E1F72C9881E0A2
:1017B0008093B804289880E269830E94850A8AE4AD
:1017C0000E94850A289A289881EE0E94850A289A04
:1017D000289880EA0E94850AC80169810E94650AEA
:1017E000289A2C9A0F90CF91DF911F910F91089515
:1017F000EF92FF920F931F93DF93CF930F92CDB78A
:10180000DEB7182F062F289881EE99830E94850A4B
:10181000289A289888EA0E94850A9981002361F015
:10182000612F792F7B01F70181917F010E94850A49
:101830008E2D811B8017B8F3289A0F90CF91DF91DE
:101840001F910F91FF90EF900895289881EE0E94CC
:10185000850A289A08951F93CF93DF938091B80447
:10186000882321F0DF91CF911F91089528988FEF61
:101870000E94850A289A86FFF5CF80911503826021
:1018800080931503289887E20E94850A80E70E94CA
:10189000850A289A289881E60E94850A8DE695E0B7
:1018A000BC014DE00E94410A289A289887E20E94D4
:1018B000850A80E40E94850A289A289882EE0E9470
:1018C000850A289A40916D05242F442309F471C19B
:1018D00050916E05E52F60916F058091BF048823BC
:1018E00041F5E09171052E2F30E02F773070309365
:1018F00012032093110370917205872F90E08F7768
:1019000090709093100380930F03E7FD03C0309510
:1019100021953F4F3093FA022093F90277FD03C0DF
:10192000909581959F4F9093FC028093FB02242F0A
:10193000E52F30E03093660520936505F0E0F093E5
:101940006805E0936705C62FD0E0D0936A05C09381
:101950006905922F8827821B930B24E630E0B9019A
:101960000E94DA3F162F109510930C025E2F442729
:101970004E1B5F0BCA01B9010E94DA3F609560936C
:101980000E025C2F44274C1B5D0BCA01B9010E945B
:10199000DA3F609560930D02812F0E94B5348091EB
:1019A0000D020E94C93480910E020E94DD348091A4
:1019B000700580FF6EC1449881FF0EC14598982F35
:1019C00082FF0EC121E02093120284FD0DC186FF2B
:1019D00014C181E08093640497FD13C110926504E3
:1019E0008091730580FF14C180910B018E7F8093DD
:1019F0000B018091730581FF14C180910B018D7FD4
:101A000080930B018091730582FF14C180910B01BB
:101A10008B7F80930B018091730583FF14C1A39882
:101A20008091730584FF14C180910B018F7E809398
:101A30000B018091730585FF14C180910B018F7D8F
:101A400080930B018091730586FF14C180910B0177
:101A50008F7B80930B018091730587FD14C180916A
:101A60000B01806880930B018091BF04882321F4CF
:101A70008091740580FD83C280910B028093C50420
:101A8000853009F4BAC1863008F005C1833009F405
:101A900010C2843009F03FC09091610280916202CF
:101AA0009093C6048093C7049091690280916A0262
:101AB0009093C8048093C90490916B0280916C024A
:101AC0009093CA048093CB0490916D0280916E0232
:101AD0009093CC048093CD0490916F02809170021A
:101AE0009093CE048093CF04909128048091290490
:101AF0009093D0048093D10490912A0480912B0478
:101B00009093D2048093D304809123048093D404CF
:101B100085E080930B02289881EE0E94850A289A1E
:101B2000289888EA0E94850A8091C5040E94850A47
:101B30008091C6040E94850A8091C7040E94850A8C
:101B40008091C8040E94850A8091C9040E94850A78
:101B50008091CA040E94850A8091CB040E94850A64
:101B60008091CC040E94850A8091CD040E94850A50
:101B70008091CE040E94850A8091CF040E94850A3C
:101B80008091D0040E94850A8091D1040E94850A28
:101B90008091D2040E94850A8091D3040E94850A14
:101BA0008091D4040E94850A289ADF91CF911F91D9
:101BB000089550916E05E52F552309F08CCE609164
:101BC0006F05662309F0EFC180917005883009F434
:101BD000ECC1E62F262F81CE459A982F82FDF2CEBA
:101BE0001092120284FFF3CE0E94AD370E94DA1BDE
:101BF00090917005892F86FDECCE1092640497FFBA
:101C0000EDCE81E0809365048091730580FDECCE7C
:101C100080910B01816080930B018091730581FDA0
:101C2000ECCE80910B01826080930B018091730553
:101C300082FDECCE80910B01846080930B0180913A
:101C4000730583FDECCEA39A8091730584FDECCEE1
:101C500080910B01806180930B018091730585FD5C
:101C6000ECCE80910B01806280930B018091730513
:101C700086FDECCE80910B01806480930B018091F6
:101C8000730587FFECCE80910B018F7780930B015A
:101C9000EBCE449A91CE863009F45DC0873009F0CE
:101CA0003ACF6091D5027091D6028091D70290917F
:101CB000D8020E94E83D6093C6047093C7048093E5
:101CC000C8049093C9046091D1027091D2028091AE
:101CD000D3029091D4020E94E83D6093CA047093AD
:101CE000CB048093CC049093CD04609167047091F1
:101CF00068048091690490916A0420E030E44FE028
:101D000054E40E94303F0E94ED3D6093CE047093F6
:101D1000CF0460916B0470916C0480916D0490917C
:101D20006E040E94ED3D6093D0047093D1046091E5
:101D30006F047091700480917104909172040E94FC
:101D4000ED3D6093D2047093D3041092D40483E0E9
:101D500080930B02E0CE8091390290913A028093F9
:101D6000C6048091390290913A029093C704809101
:101D7000490290914A028093C8048091490290914F
:101D80004A029093C90480914D0290914E02809333
:101D9000CA0480914D0290914E029093CB048091A1
:101DA0005102909152028093CC0480915102909103
:101DB00052029093CD0480915502909156028093E7
:101DC000CE0480915502909156029093CF04909149
:101DD0002C0480912D049093D0048093D104909191
:101DE000BD028091BE029093D2048093D3041092DE
:101DF000D40487E080930B028ECE809129029091CB
:101E00002A028093C6048091290290912A0290931D
:101E1000C70480912D0290912E028093C804809176
:101E20002D0290912E029093C904809131029091DD
:101E300032028093CA0480913102909132029093D1
:101E4000CB0480913502909136028093CC0480912E
:101E50003502909136029093CD0480913D0290918D
:101E60003E028093CE0480913D0290913E02909379
:101E7000CF0480914102909142028093D0048091DE
:101E80004102909142029093D10480914502909139
:101E900046028093D204809145029091460290932D
:101EA000D30480914B048093D40486E080930B028A
:101EB00032CE9091590280915A029093C604809339
:101EC000C70490915B0280915C029093C804809358
:101ED000C90490915D0280915E029093CA04809340
:101EE000CB0490915F02809160029093CC04809328
:101EF000CD0490916302809164029093CE0480930C
:101F0000CF0490916502809166029093D0048093F3
:101F1000D10490916702809168029093D2048093DB
:101F2000D30430910301809103012091030190E0DB
:101F300080729070959587959595879595958795DD
:101F40009595879595958795880F991F221F22272C
:101F5000221F220F220F282B832F90E08071907078
:101F60009595879595958795959587959595879559
:101F7000282B2093D40484E080930B02CCCD0E94C4
:101F8000AD378FEF93E090936A028093690290934C
:101F9000700280936F021092800581E08093C204EA
:101FA0008093BF0469CD252F98CC8091710588233B
:101FB00009F00FCE80917205882311F0252F8DCC6A
:101FC0008CE30E94611B40916D05242F81CCCF933F
:101FD000DF93C8E6D0E01882ACE6B0E01C92E0EBFC
:101FE000F0E010821092B10010927000888182603F
:101FF00088838C9180688C93808182608083DF915C
:10200000CF9108951F920F920FB60F9211248F93C4
:1020100080911202882321F18091030186FD20C066
:10202000809168008D7F8093680080916C008F772D
:1020300080936C0081E0809313028DE08093B30065
:102040008091B10086608093B100809170008260C1
:1020500080937000109220021092210210922202AE
:102060008F910F900FBE0F901F9018951F920F9297
:102070000FB60F9211242F933F934F935F938F933B
:102080009F938091B100887F8093B100809113026B
:102090008823A9F08091030186FF65C080916800C4
:1020A00082608093680080916C00806880936C00EF
:1020B0008FEF9FEF909302028093010249C08091BD
:1020C0000102909102022FEF8F3F920709F463C043
:1020D0008130910509F498C09C0122503040253090
:1020E000310508F467C09C01275030402630310587
:1020F00008F0BDC026E32093B3002091B100266014
:102100002093B100209170002260209370002091F4
:10211000030130E0207430700024220F331F001CB4
:10212000220F331F001C232F302D4CE050E0481BA2
:10213000590B02C0220F331F4A95E2F7409120024B
:10214000420F409320020196909302028093010275
:102150009F918F915F914F913F912F910F900FBE63
:102160000F901F9018951092130283E38093B30091
:102170008091B10086608093B10080917000826090
:102180008093700080910102909102022FEF8F3FA7
:102190009207C9F6DDCF2091030126FF52C020919E
:1021A000680022602093680020916C0020682093D2
:1021B0006C00CECF26E32093B3002091B1002660BF
:1021C0002093B10020917000226020937000209134
:1021D000030130E0207430700024220F331F001CF4
:1021E000220F331F001C232F302D46E050E0481BE8
:1021F000590B02C0220F331F4A95E2F7409121028A
:10220000420F409321029FCF2091030130E02074C0
:102210003070022E232F000C221F330B000C221FC4
:10222000331F2093220226E32093B3002091B100B4
:1022300026602093B10020917000226020937000EE
:1022400082CF8CE18093B3008091B100866080934F
:10225000B100809170008260809370001092200223
:10226000109221021092220281E090E06DCF8D3019
:10227000910509F068CF109270008091680082602B
:102280008093680080916C00806880936C008FEF71
:102290009FEF90930202809301028091220280932B
:1022A00000028091210280931E028091200280937F
:1022B0001F0281E0809324044BCF80910002089597
:1022C00080911E02089580911F020895809112024C
:1022D000882351F180912404882331F1E0911F0279
:1022E000E093230410922404F0E0E533F105E8F0D4
:1022F0002091F9023091FA028091FB029091FC0248
:1023000037FDB9C1309312032093110397FD05C027
:102310009093100380930F030895909581959F4F9C
:102320009093100380930F030895EE58FF4FEE0F24
:10233000FF1F0590F491E02D19948093640410928E
:1023400065042091F9023091FA028091FB0290918C
:10235000FC02D6CF1092640481E080936504209142
:10236000F9023091FA028091FB029091FC02C8CFF1
:102370008091260490E001968370907080932604EB
:10238000823041F3833009F48AC18130B1F2109276
:102390006404109265042091F9023091FA02809150
:1023A000FB029091FC02ACCF109264042091F902E0
:1023B0003091FA028091FB029091FC02A1CF8091B2
:1023C000FB029091FC0202979093FC028093FB0227
:1023D0002EEF803092079CF580E09EEF9093FC02F8
:1023E0008093FB022091F9023091FA0289CF20916B
:1023F000F9023091FA028091F7029091F8022817C1
:10240000390724F02091FB023091FC022250304029
:102410003093FA022093F902C9013093FC02209311
:10242000FB024EEF2030340734F440E05EEF50936F
:10243000FA024093F9024EEF203034076CF22091FB
:10244000F9023091FA025CCF81E08093640420911C
:10245000F9023091FA028091FB029091FC0250CF78
:102460002091F9023091FA02225030403093FA0262
:102470002093F9024EEF203034070CF03DCF80E07E
:102480009EEF9093FA028093F9028091FB02909163
:10249000FC0220E032E036CF2091F9023091FA02BE
:1024A000225030403093FA022093F9028091FB02CF
:1024B0009091FC0202969093FC028093FB024EEFF7
:1024C0002030340734F420E03EEF3093FA022093BA
:1024D000F90242E0813094070CF412CF80E092E0E0
:1024E0009093FC028093FB020BCF1092FA021092A1
:1024F000F9021092FC021092FB0280914B0488308A
:1025000009F4DBC080E090E020E030E0FBCE2091D9
:10251000F9023091FA022E5F3F4F3093FA02209376
:10252000F9028091FB029091FC0202979093FC02C9
:102530008093FB0242E02130340734F020E032E0A7
:102540003093FA022093F9024EEF803094070CF09A
:10255000D7CE80E09EEF9093FC028093FB02D0CE1A
:102560008091FB029091FC0202969093FC02809372
:10257000FB0222E0813092070CF461CF80E092E010
:102580009093FC028093FB025ACF2091F902309184
:10259000FA028091FB029091FC02821793070CF4DF
:1025A0006EC09C012E5F3F4F3093FA022093F902D8
:1025B00002969093FC028093FB0242E021303407A4
:1025C00034F020E032E03093FA022093F90222E066
:1025D000813092070CF433CF80E092E09093FC02BC
:1025E0008093FB022091F9023091FA0289CE20916A
:1025F000F9023091FA022E5F3F4F3093FA02209396
:10260000F90242E0213034070CF476CE80E092E00B
:102610009093FA028093F9028091FB029091FC0260
:1026200020E032E06FCE8091250490E0019665E0D5
:1026300070E00E94EE3F80932504882311F5449AB0
:10264000459A10920E028FEF80930D0280930C0238
:102650000E94B53480910D020E94C93480910E020F
:102660000E94DD342091F9023091FA028091FB0240
:102670009091FC0245CE309521953F4F43CEC90144
:1026800091CF813091F08230A1F18330E9F18FEF69
:1026900080930E0280930D0280930C02D9CF81E0CB
:1026A000809364048093650423CE8FEF80930E02A1
:1026B00010920D0280930C02CBCF0E94AD378FEFAA
:1026C00093E090936A0280936902909370028093E2
:1026D0006F021092800581E08093C2048093BF0452
:1026E0002091F9023091FA028091FB029091FC0254
:1026F00007CE449845988FEF80930E0280930D0289
:1027000010920C0280E0A4CF10920E0210920D02E3
:1027100010920C0280E09CCF08950F931F93CF93EB
:10272000DF93FC0180819181009709F4CEC0209154
:102730003A0430913B0441E02E3034070CF49EC043
:10274000181619060CF02CC188E691E0821B930B39
:10275000959587959595879529E130E0281B390B4C
:1027600030930402209303024091C0045091C104AD
:1027700050936C0540936B052081318137FDF6C085
:102780008091F1029091F202B901681B790BCB01A3
:102790007093C1046093C004209107033091080333
:1027A000280F391F309308032093070376E0213464
:1027B00037070CF4A9C020E436E0309308032093D7
:1027C000070360EC72E19C01220F331F280F391FB1
:1027D000220F331F220F331F220F331F280F391FE1
:1027E00000811181C0910302D09104020C9FD0019D
:1027F0000D9FB00D1C9FB00D11242A0F3B1F841B91
:10280000950B880F991F280F391F260F371F3093FC
:1028100006032093050337FD8DC0121613060CF036
:1028200093C08081918197FDACC07DE5213C370745
:102830000CF48AC080EC9DE5909306038093050319
:102840002CED35E0318320838091EB029091EC02F6
:10285000181619060CF085C02F5F3F4F3183208377
:1028600042E0213034070CF441C080E092E09183D3
:102870008083DF91CF911F910F910895243B310503
:1028800094F42A3531057CF4181619060CF096C01C
:102890003595279535952795275E3F4F3093040250
:1028A0002093030261CF181619060CF040C084EB88
:1028B00090E0821B930B9595879595958795499602
:1028C00090930402809303024FCF1092080310925A
:1028D00007031092C1041092C00410926C0510926C
:1028E0006B05DF91CF911F910F9108956EEF20300E
:1028F00036070CF0BECF80E09EEF91838083DF919E
:10290000CF911F910F91089569EF203C36074CF449
:1029100020EC39EF309308032093070360E47DEE49
:1029200052CFB901660F771F620F731F4CCF84EB34
:1029300090E00CCF8081918197FD06C01092060334
:102940001092050320E030E082EA20343807FCF4DE
:1029500080E492EA909306038093050324E23AEF21
:1029600071CF21503040318320837ACF8091F102A2
:102970009091F202820F931F9093C1048093C00440
:102980000BCF109206031092050320E030E035953E
:10299000279535952795359527953595279552CFC8
:1029A00088E691E0821B930B959587959595879581
:1029B00049969093040280930302D6CE35952795CD
:1029C0003595279589E190E0821B930B9093040243
:1029D00080930302C9CECF92DF92EF92FF920F93C2
:1029E0001F93CF93DF93FC0180819181009709F4BD
:1029F000F7C020913A0430913B0441E02E30340777
:102A00000CF4C7C0181619060CF069C188E691E0ED
:102A1000821B930B959587959595879529E130E0D5
:102A2000281B390B3093060220930502C0917A05CA
:102A3000D0917B05D093C404C093C304808191815D
:102A400097FD2EC12091F3023091F402DC01A21B0C
:102A5000B30BB0937B05A0937A0580910903909105
:102A60000A038A0F9B1F90930A038093090366E071
:102A7000813496070CF4CBC080E496E090930A036F
:102A80008093090330ECC32E32E1D32EE12CF12CDC
:102A9000008111819D01220F331F2A0F3B1F220F3E
:102AA000331F220F331F220F331F2A0F3B1F4427D0
:102AB00037FD4095542F8091050290910602089FA2
:102AC000B001099F700D189F700D1124882777FDA4
:102AD0008095982F260F371F481F591FAC1BBD0B21
:102AE000AA0FBB1FBD01CB01AA2797FDA095BA2F46
:102AF000280F391F4A1F5B1F2C0D3D1D4E1D5F1DEA
:102B00002093010330930203409303035093040383
:102B100057FD9DC012161306140615060CF0A4C02E
:102B200017FDC9C0213C7DE5370770E0470770E01D
:102B300057070CF499C080EC9DE5A0E0B0E08093CD
:102B4000010390930203A0930303B09304032CEDBD
:102B500035E0318320838091E9029091EA021816D2
:102B600019060CF098C02F5F3F4F3183208342E05D
:102B7000213034070CF441C080E092E091838083DF
:102B8000DF91CF911F910F91FF90EF90DF90CF9049
:102B90000895243B310594F42A3531057CF4181648
:102BA00019060CF0AAC03595279535952795275E0F
:102BB0003F4F309306022093050238CF18161906AE
:102BC0000CF042C084EB90E0821B930B95958795A7
:102BD000959587954996909306028093050226CF96
:102BE00010920A031092090310927B0510927A0545
:102BF0001092C4041092C304C3CF6EEF2030360786
:102C00000CF0BECF80E09EEF91838083B9CF79EF47
:102C1000803C97077CF480EC99EF90930A038093B3
:102C2000090390E4C92E9DEED92E9FEFE92E9FEF68
:102C3000F92E2ECF6C01CC0CDD1CC80ED91EEE2453
:102C4000D7FCE094FE2C24CF84EB90E0E1CE17FD7E
:102C50000BC0109201031092020310920303109212
:102C6000040320E030E0A901203482EA38078FEF26
:102C700048078FEF580754F580E492EAAFEFBFEFB3
:102C80008093010390930203A0930303B093040382
:102C900024E23AEF5ECF215030403183208367CF6A
:102CA000A091F302B091F402A80FB91FB0937B0575
:102CB000A0937A05D2CE10920103109202031092D3
:102CC00003031092040320E030E0A9013595279515
:102CD0003595279535952795359527953ACF88E6EB
:102CE00091E0821B930B95958795959587954996CD
:102CF000909306028093050299CE359527953595D8
:102D0000279589E190E0821B930B909306028093B4
:102D100005028CCECF92DF92EF92FF920F931F931A
:102D2000CF93DF93FC0180819181009709F4B8C0B3
:102D3000C0917A05D0917B05D093C404C093C3049D
:102D40008081918197FDCDC02091F3023091F402F2
:102D5000DC01A21BB30BB0937B05A0937A05C09056
:102D60000903D0900A03CA0EDB1ED0920A03C09258
:102D7000090381E4C81686E0D8060CF49EC080E4FE
:102D800096E090930A038093090310E8C12E1CE09B
:102D9000D12EE12CF12C00811181CD01880F991FDA
:102DA0008A0F9B1F9C01220F331F220F331F280FF6
:102DB000391F442737FD4095542FB801660F771F00
:102DC000660F771F660F771F882777FD8095982FEE
:102DD000260F371F481F591FAC1BBD0BCD01880F95
:102DE000991F8A0F9B1FAA2797FDA095BA2F280F1E
:102DF000391F4A1F5B1F2C0D3D1D4E1D5F1D20936B
:102E0000010330930203409303035093040357FDDF
:102E10007AC012161306140615060CF081C017FDB1
:102E2000ADC0213C8DE5380780E0480780E05807B9
:102E30000CF476C080EC9DE5A0E0B0E08093010347
:102E400090930203A0930303B09304032CED35E0A9
:102E5000318320838091E9029091EA0218161906C5
:102E60000CF087C02F5F3F4F31832083121613066B
:102E70000CF06DC0225E3F4F3183208382E0213011
:102E800038070CF46CC080E092E091838083DF917E
:102E9000CF911F910F91FF90EF90DF90CF90089509
:102EA00010920A031092090310927B0510927A0582
:102EB0001092C4041092C304EACF80ECC81689EFC4
:102EC000D806D4F480EC99EF90930A038093090319
:102ED00060E8C62E63EFD62E6FEFE62E6FEFF62E6C
:102EE0005ACFA091F302B091F402A80FB91FB0938A
:102EF0007B05A0937A0533CFCC0CDD1CEE24D7FCE8
:102F0000E094FE2C48CF17FD0BC0109201031092E5
:102F10000203109203031092040320E030E0A901A1
:102F2000203482EA38078FEF48078FEF58078CF577
:102F300080E492EAAFEFBFEF809301039093020326
:102F4000A0930303B093040324E23AEF81CF211549
:102F5000310509F49CCF2E513040318320838EEF10
:102F6000203038070CF093CF80E09EEF9183808370
:102F70008ECF215030403183208378CF10920103CF
:102F800010920203109203031092040320E030E039
:102F9000A90135952795359527953595279535952B
:102FA000279556CFFC0180819181009709F48BC051
:102FB0006091C0047091C10470936C0560936B05BF
:102FC0002081318137FD99C08091F1029091F20208
:102FD000A901481B590BCA015093C1044093C00476
:102FE0002091070330910803280F391F30930803FD
:102FF0002093070356E0213435070CF471C020E418
:1030000036E03093080320930703A0E8BCE0AC014E
:10301000440F551F480F591F9A01220F331F220FCB
:10302000331F240F351F40815181440F551F440F1A
:10303000551F440F551F240F351F861B970BAC01DE
:10304000440F551F480F591F240F351F2A0F3B1FD0
:10305000309306032093050337FD5EC01216130656
:103060000CF064C08081918197FD82C05DE5213CB8
:1030700035070CF45BC080EC9DE5909306038093CC
:1030800005032CED35E0318320838091EB02909194
:10309000EC02181619060CF066C02F5F3F4F318303
:1030A0002083121613060CF04EC0225E3F4F318370
:1030B000208342E0213034070CF44CC080E092E0E1
:1030C0009183808308951092080310920703109251
:1030D000C1041092C00410926C0510926B05089503
:1030E00049EF203C3407A4F420EC39EF3093080377
:1030F00020930703A0E8B3EF8ACF8091F10290916B
:10310000F202820F931F9093C1048093C00468CF92
:10311000D901AA0FBB1F7BCF8081918197FD06C08B
:10312000109206031092050320E030E082EA20347A
:10313000380724F580E492EA909306038093050310
:1031400024E23AEFA0CF2115310561F02E51304035
:10315000318320835EEF2030350724F480E09EEF3A
:10316000918380830895215030403183208399CF0B
:10317000109206031092050320E030E03595279564
:103180003595279535952795359527957CCF85B726
:10319000806185BF8FEF81B912B897EF94B990EE37
:1031A00095B990EF97B990EB98B99CEF9AB993E0E5
:1031B0009BB98DB91EB810BA83BB80914E04882389
:1031C000E1F08130D1F0823051F19FEF9093010115
:1031D000109202019FE0909304018823A9F490913A
:1031E000050110920501109207019FEF90930A01CB
:1031F000882329F410920B01089514BAE6CF813088
:10320000C9F3823041F00895813011F0823059F7CE
:1032100090930501E8CF87EF80930B01089598E024
:1032200094BBD3CF1092B8001092BC000895589A66
:10323000599A1092B90081E08093B800089594EAF9
:103240009093BC009091BC0097FFFCCF9091B90087
:10325000987F983021F0903111F081E008958093AB
:10326000BB0084E88093BC008091BC0087FFFCCF4A
:103270009091B900987F983121F081E0903419F055
:10328000089580E0089580E0089524EA34E844E950
:103290002093BC009091BC0097FFFCCF9091B900A7
:1032A000987F983011F0903199F78093BB0030935C
:1032B000BC009091BC0097FFFCCF9091B900987F23
:1032C000903219F0983509F008954093BC00909120
:1032D000BC0094FDFCCFDCCF94EA9093BC009091AD
:1032E000BC0097FFFCCF9091B900987F983021F0F7
:1032F000903111F081E008958093BB0084E88093C1
:10330000BC008091BC0087FFFCCF9091B900987FF2
:10331000983121F081E0903419F0089580E008950B
:1033200080E0089584E98093BC008091BC0084FD16
:10333000FCCF08958093BB0084E88093BC0080910B
:10334000BC0087FFFCCF9091B900987F81E0983254
:1033500009F0089580E0089584EC8093BC0080918A
:10336000BC0087FFFCCF8091BB00089584E8809368
:10337000BC008091BC0087FFFCCF8091BB0008950A
:103380001092C50080E18093C400E0ECF0E0808101
:1033900082608083E1ECF0E0808188698083E2ECE8
:1033A000F0E080818660808308951092CD0080E1F6
:1033B0008093CC00E8ECF0E0808182608083E9ECCF
:1033C000F0E0808188618083EAECF0E080818660B3
:1033D000808308951092C0001092C1001092C20024
:1033E00008959091C00095FFFCCF8093C60066239E
:1033F00021F08091C00086FFFCCF08959091C80015
:1034000095FFFCCF8093CE00662321F08091C80009
:1034100086FFFCCF08958091C0008095881F882783
:10342000881F089587E990E02091C00027FD07C01C
:103430000197D1F781E080931A0380E0089580918D
:10344000C60008951F920F920FB60F920BB60F92FF
:1034500011242F933F934F935F936F937F938F9399
:103460009F93AF93BF93EF93FF938091C60090918A
:103470004B049F3021F1909111029923D9F490913E
:103480001F04913009F460C0923009F443C0FF91E9
:10349000EF91BF91AF919F918F917F916F915F91CC
:1034A0004F913F912F910F900BBE0F900FBE0F9039
:1034B0001F9018951092110280931F04E8CF8B3251
:1034C00009F44CC08D32F1F0873609F05BC0909161
:1034D00023048091C00085FFFCCF9093C6008091AB
:1034E000C00086FFFCCF909166009093BD04809150
:1034F000C00085FFFCCF9093C6008091C00086FF7E
:10350000FCCFC5CF8091BD048823D1F18150809339
:10351000BD042BC040912104442351F1413009F0F6
:10352000B6CF382F20E08091130390911403822BA3
:10353000932B9093140380931303409320041092D1
:10354000210440931102A3CF8A3A31F1853509F065
:103550009ECF9093110210921F0499CF8091BD04C9
:103560008F3FE9F08F5F8093BD04809366008FCF1B
:10357000809313031092140381E08093210487CF7A
:1035800080E0F3CF833709F082CF8DEF9FE0609129
:10359000BD040E94E2407BCF9093220478CF8FEF4E
:1035A000E4CF86B166B126B146B130E02870307004
:1035B000359527953595279535952795220F331FF6
:1035C00070E0647070707595679575956795260FB6
:1035D000371F220F331F50E04270507055954795AA
:1035E000240F351F220F8170820F0895F89414BCA8
:1035F00015BC10926E0010922001109221018EEFE6
:103600009FE00E94B44090931403809313038DEFC6
:103610009FE00E94AC408093BD04982F91509E3F44
:10362000E8F58093660080911303909114039C0148
:1036300021583C402330310508F510924E040E9479
:10364000122F0E94C7180E94061C0E94171F0E947A
:1036500078340E94320A0E941B0B80911603882343
:1036600029F4809115038160809315030E94C0198D
:103670000E94C0350E94E70F789408952CE08038AE
:10368000920721F481E080934E04D9CF2CE0843856
:103690009207A8F282E080934E04D1CF6091660039
:1036A0006093BD048DEF9FE00E94E240BCCF1F926B
:1036B0000F920FB60F9211240F900FBE0F901F9014
:1036C0001895CF93DF939EE1899FE00111248091AB
:1036D00068008D7F8093680080916C008F77809365
:1036E0006C00D99A10927A0080917A008061809360
:1036F0007A0010929000109291001092710088B39D
:10370000876088BB1092A0001092A10010927200F6
:1037100089B3876089BB10928000109281000E945B
:10372000EA190E943E0A0E9412190E94C71883B724
:103730008F6083BF81E0809370008091B0008D7FA7
:103740008093B0008091B10087608093B100209792
:1037500019F088952197E9F713BE8091B100887F11
:103760008093B100109270008091B00082608093CD
:10377000B0008FEF80930C0280930D0280930E02B5
:103780001092F6021092F5021092F8021092F702CF
:103790000E94F61ADF91CF910895609143047091D1
:1037A00044048091450490914604089581E08093FB
:1037B000BF02089580E090E0DC018093D5029093F1
:1037C000D602A093D702B093D8028093D1029093EF
:1037D000D202A093D302B093D40280936704909353
:1037E0006804A0936904B0936A0480936B04909377
:1037F0006C04A0936D04B0936E0480936F04909357
:103800007004A0937104B09372040895CF93DF9372
:10381000EAE7F0E01082ABE7B0E01C92CCE7D0E042
:10382000188280818660808388818064888380811B
:10383000806280838C91887F8C9380818860808374
:10384000808180688083808180648083DF91CF91D4
:1038500008951F920F920FB60F920BB60F9211247C
:103860002F933F934F935F936F937F938F939F9388
:10387000EF93FF9340914304309144042091450419
:103880009091460480914704E09148047091490466
:10389000F0914A04642F6F5F51E0641708F050E024
:1038A000530F41E0531708F040E0420F31E0421758
:1038B00008F030E0390F21E0391708F020E0280F38
:1038C00091E0281708F090E09E0F81E09E1708F025
:1038D00080E0870FE1E0871708F0E0E0EF0F6093EA
:1038E000430450934404409345043093460420938A
:1038F00047049093480480934904E0934A0420913C
:10390000780030E040917900942F80E0282B392B0B
:103910008091B902823009F4B1C1833008F444C007
:10392000833009F4D4C1843009F467C18091BA02AC
:10393000823009F44EC1833008F0CCC0882309F0EE
:1039400023C1809124028695809323028091BB023B
:10395000882309F0ECC181E08093B90281E0809373
:10396000BA0290912302983008F0ECC090917B004D
:10397000977F90937B0090912302905C90937C00C2
:10398000823009F4ECC0FF91EF919F918F917F916C
:103990006F915F914F913F912F910F900BBE0F90C0
:1039A0000FBE0F901F901895882309F0FEC06091FC
:1039B00024026E3009F4DCC1462F50E0FA01EE0F0C
:1039C000FF1FE75DFD4F3183208340FF77C0FA0181
:1039D000EE0FFF1FE95DFD4F80819181FA01EE0F2F
:1039E000FF1FE75DFD4F40815181262F269530E076
:1039F000841B950B220F331FF901EF58FD4F4081B7
:103A00005181841B950BF901E75AFD4F9183808307
:103A100097FDC9C144E08130940724F080E094E030
:103A200091838083603148F48C3391050CF0C0C1E0
:103A30002F533D4FF9019183808380916504882342
:103A400009F481C18091690290916A02F1E0843A9F
:103A50009F07CCF080916B0290916C0221E0843A38
:103A600092078CF080916D0290916E0241E0843A51
:103A700094074CF080916F0290917002E1E0843ADB
:103A80009E070CF060C181E0809366041092F802FA
:103A90001092F7021092A9001092A8001092AB00A9
:103AA0001092AA001092F6021092F502109299005C
:103AB0001092980010929B0010929A006F5F609392
:103AC0002402683108F432CF1092240281E08093FE
:103AD000C0022CCF833009F4BDC0843009F041CF3F
:103AE0009091260290932302909127029093BB021B
:103AF0009091BC02992309F014C183E08093B9022C
:103B00001092BA02609124026E3009F42BC1862F04
:103B100090E060FFFDC0603108F418C120914E04B0
:103B2000222309F0E1C040979595879521E030E088
:103B300002C0220F331F8A95E2F72093050180917E
:103B4000BA020FCF90917B00986090937B00909188
:103B50002302985C90937C00823009F014CF20916E
:103B60004E04222351F0213019F0223009F00BCFFE
:103B70008FEF8093050112B806CF80910501807FF9
:103B80008093050112B8FFCE813009F0EACE809112
:103B9000250280932302809128028093BC02109218
:103BA000B90282E08093BA02DCCE813009F0BECE49
:103BB0008091E3029091E402820F931F969587957E
:103BC0009093E4028093E3028091BA02823009F07C
:103BD000B2CE8091260280932302809127028093A7
:103BE000BB028091BC02882309F0A7C083E08093C8
:103BF000B90283E08093BA02B4CE80910A0288238E
:103C000009F494CE9091000193FD90CE9091000123
:103C100094FD8CCE482F4F5F40930A02453008F444
:103C200085CE8091F7029091F802009751F0809133
:103C3000ED029091EE02820F931F9093EE0280931B
:103C4000ED02483009F072CE10920A0281E08093B2
:103C500007026CCE80912502809323028091280276
:103C60008093BC028091BB02882309F054C081E09C
:103C70008093B90284E08093BA0273CE80910902E6
:103C8000882309F453CE639951CE64994FCE482FBF
:103C90004F5F40930902453008F448CE8091F50209
:103CA0009091F602009751F08091EF029091F0020E
:103CB000820F931F9093F0028093EF02483009F037
:103CC00035CE1092090281E0809308022FCE8091B8
:103CD000E1029091E202820F931F9695879590934F
:103CE000E2028093E10222CE213011F0223081F4F1
:103CF0004091050140979595879521E030E002C0FD
:103D0000220F331F8A95E2F7209524232093050183
:103D10008091BA0226CE8130D1F185E08093B9023C
:103D2000A9CF913009F085E08093B902E9CE8130C6
:103D3000B1F185E08093B90211CE813061F185E067
:103D40008093B90256CF10926604B8CE669581E092
:103D500090E002C0880F991F6A95E2F782B98091BE
:103D6000BA02FFCD8091BF028130A1F180E0F9CD90
:103D70008091BF02823009F01FCE3093BE022093A3
:103D8000BD021092BF0246984EE050E01ECE82E087
:103D90008093B9026FCF84E08093B9022ACF82E08A
:103DA0008093B902DBCD1182108280E090E03ACEA0
:103DB000AC01445C5F4F55954795483751057CF4FD
:103DC0002F533D4FCC9795958795CC96F9019183CC
:103DD000808333CE82E08093BF02469A98CEAC01B6
:103DE000445D5E4F5595479555954795443B510524
:103DF00074F42F533D4F845B90409595879595952E
:103E0000879588589F4FF9019183808316CE2F5351
:103E10003D4F845A914095958795959587959595B1
:103E200087958C549F4FF9019183808306CE0F9321
:103E30001F93CF93DF93E0E9F0E0108241E950E077
:103E4000DA011C9221E730E0E9011882A0EAB0E033
:103E50001C9281EA90E0EC01188202E710E0E80190
:103E60001882608163686083608163606083EA01B7
:103E700068816B6068834091F5025091F60250931F
:103E800099004093980010929B0010929A00E901CB
:103E900048814160488320812F7520832EB1277E81
:103EA0002EB92C9123682C93FC0120812B60208358
:103EB0008091F7029091F8029093A9008093A80056
:103EC0001092AB001092AA00E8018881816088837B
:103ED0008C918F758C93E2E0F1E08081877E808306
:103EE000DF91CF911F910F910895282F392F8EEFD9
:103EF0002030380714F420E03EEF82E0213038070C
:103F000014F020E032E0C90108958091070288236F
:103F1000C1F16091ED027091EE027695679576950C
:103F200067957093F2026093F1021092070210926B
:103F3000EE021092ED028091FB029091FC0297FD3F
:103F4000E3C075956795759567957595679588270D
:103F500077FD8095982F0E941B3E9B01AC016091DC
:103F6000D5027091D6028091D7029091D8020E941A
:103F7000B33C6093D5027093D6028093D70290939E
:103F8000D802809108028823C1F16091EF027091FC
:103F9000F00276956795769567957093F402609335
:103FA000F302109208021092F0021092EF02809138
:103FB000F9029091FA0297FD86C0759567957595FF
:103FC000679575956795882777FD8095982F0E944E
:103FD0001B3E9B01AC016091D1027091D202809195
:103FE000D3029091D4020E94B33C6093D1027093AB
:103FF000D2028093D3029093D4022091FD0230919B
:10400000FE02C901880F991F880F991F820F931F05
:1040100090930C0380930B034091FF025091000397
:104020009A01220F331F220F331F240F351F522FE7
:10403000432F20930D0330930E0320916404222319
:1040400039F55093F7024093F8029093F60280936B
:10405000F502181619065CF5909399008093980064
:104060008091F7029091F802181619062CF490939B
:10407000A9008093A8000895009709F06EC01092DF
:10408000A9001092A8001092AB001092AA00089507
:104090008DE093E06BE073E00E94643250910D0379
:1040A00040910E0380910B0390910C03CACF0097AF
:1040B00009F04BC0109299001092980010929B004A
:1040C00010929A00CDCF7595679575956795759502
:1040D0006795882777FD8095982F0E941B3E9B014E
:1040E000AC016091D1027091D2028091D302909183
:1040F000D4020E94B23C6093D1027093D2028093AA
:10410000D3029093D40279CF75956795759567958D
:1041100075956795882777FD8095982F0E941B3E9F
:104120009B01AC016091D5027091D6028091D702BB
:104130009091D8020E94B23C6093D5027093D6024F
:104140008093D7029093D8021CCF909581959F4F72
:1041500090939B0080939A0083CF909581959F4F79
:104160009093AB008093AA000895282F332727FD52
:10417000309537FD13C03093100320930F0387FD54
:1041800005C03093FC022093FB02089530952195E1
:104190003F4F3093FC022093FB0208953095219508
:1041A0003F4FE9CF282F332727FD309537FD13C028
:1041B000309312032093110387FD05C03093FA0258
:1041C0002093F9020895309521953F4F3093FA02DC
:1041D0002093F9020895309521953F4FE9CF8091C2
:1041E000BE04882389F5E091C204E23008F496C049
:1041F000F0E0DF01A295B295B07FBA27A07FBA2781
:10420000AB54BB4F12962D913C9113978091810531
:10421000909182052817390734F0C90101969093CF
:10422000820580938105E295F295F07FFE27E07F7D
:10423000FE27EB53FB4F2091A8043091A904318352
:104240002083938382830895813031F0823009F492
:104250006BC0833091F10895E091C204E23008F41C
:1042600093C0F0E0DF01A295B295B07FBA27A07F9E
:10427000BA27AB54BB4F16962D913C91179780915E
:104280008105909182052817390734F0C9010196FC
:104290009093820580938105E295F295F07FFE2749
:1042A000E07FFE27EB53FB4F2091AA043091AB0433
:1042B00035832483978386830895E091C204E23096
:1042C00008F468C0F0E0DF01A295B295B07FBA278C
:1042D000A07FBA27AB54BB4F1E962D913C911F97E0
:1042E00080918105909182052817390734F0C90122
:1042F00001969093820580938105E295F295F07F77
:10430000FE27E07FFE27EB53FB4F2091AA0430915C
:10431000AB0435872487978786870895F0E08091DE
:104320008105909182057FCFE091C204E230C0F117
:10433000F0E0DF01A295B295B07FBA27A07FBA273F
:10434000AB54BB4F1A962D913C911B9780918105E0
:10435000909182052817390734F0C901019690938E
:10436000820580938105E295F295F07FFE27E07F3C
:10437000FE27EB53FB4F2091A8043091A90431870D
:104380002087938782870895F0E08091810590913E
:10439000820582CFF0E08091810590918205ADCFBA
:1043A000F0E08091810590918205DDCF80918005BC
:1043B000823009F4D0C0833008F43FC0843009F45F
:1043C00091C0843008F063C08091BE04882309F452
:1043D000E1C0823009F4DEC080916F0290917002DA
:1043E00021E0803E92070CF48AC10E94CD1B2091EF
:1043F0007C0530917D0540917E0550917F05621BC3
:10440000730B840B950B6C392DEC720728E0820737
:1044100020E09207D8F11092820510928105109247
:10442000A9041092A8041092AB041092AA040E944E
:10443000EF2085E0809380050895882329F58091F9
:10444000BE04882309F03CC11092FE021092FD02C6
:104450009091C20485E0989FC0011124880F991F94
:10446000880F991F909300038093FF0281E080934F
:1044700080050E94CD1B60937C0570937D05809321
:104480007E0590937F050895813071F00895853001
:10449000E9F78091C2048F5F8093C2048A3009F4E7
:1044A0008BC11092800508958091BE04882309F481
:1044B000D0C0823009F4CDC080916F02909170021B
:1044C00021E0803E92070CF090CF1092A70410924A
:1044D000A6041092A0041092A1041092A2041092BB
:1044E000A304CCC08091BE04882349F1823039F105
:1044F00080916F029091700221E0813E92073CF51D
:104500000E94CD1B20917C0530917D0540917E0558
:1045100050917F05621B730B840B950B6C392DEC4E
:10452000720728E0820720E0920708F4AFCF1092CC
:1045300082051092810585E0809380050895809121
:10454000690290916A0221E0813E9207CCF285E0F7
:1045500080938005D5CF8091BE04882309F4A6C03E
:10456000823009F4A3C080916F029091700221E023
:10457000813E92070CF439CF83E0809380050E943E
:10458000CD1B60937C0570937D0580937E05909391
:104590007F052BCF8091690290916A0221E0803ED5
:1045A00092070CF022CF0E94CD1B2091B9043091CC
:1045B000BA044091BB045091BC04621B730B840B82
:1045C000950B6093B9047093BA048093BB049093E5
:1045D000BC040E94193E20E030E040ED52E40E940D
:1045E000303F20E034E244E759E40E94803D9B01E3
:1045F000AC0164E17EE288E793E40E94803D0E9482
:10460000ED3D70938205609381052091A404309163
:10461000A50440E050E060919C0470919D0480915D
:104620009E0490919F040E9401403093A90420931E
:10463000A8040E94EF2084E0809380050E94CD1B97
:1046400060937C0570937D0580937E0590937F0534
:10465000CCCE8091690290916A0221E0803E92075F
:104660000CF0C3CE1092A5041092A40410929C04E6
:1046700010929D0410929E0410929F040E94CD1BE4
:104680006093B9047093BA048093BB049093BC0404
:1046900082E0809380050E94CD1B60937C0570931F
:1046A0007D0580937E0590937F059FCE8091690262
:1046B00090916A0221E0813E92070CF496CE5CCF85
:1046C000813009F484C0823009F460C0833009F07D
:1046D000CDCE9091C20485E0989FC0011124880F2F
:1046E000991F880F991F909581959F4F9093FE0277
:1046F0008093FD02109200031092FF02B7CE0E9439
:10470000CD1B2091B9043091BA044091BB04509163
:10471000BC04621B730B840B950B6093B9047093FC
:10472000BA048093BB049093BC040E94193E20E01D
:1047300030E040ED52E40E94303F20E034E244E7B4
:1047400059E40E94803D9B01AC0164E17EE288E770
:1047500093E40E94803D0E94ED3D7093820560933A
:1047600081052091A6043091A70440E050E06091BB
:10477000A0047091A1048091A2049091A3040E94CE
:1047800001403093AB042093AA0453CF1092FE0251
:104790001092FD029091C20485E0989FC0011124FF
:1047A000880F991F880F991F909581959F4F90931F
:1047B00000038093FF025ACE91E09093C20480914F
:1047C000BE048823B9F482E08093BE046ACE90913F
:1047D000C20485E0989FC0011124880F991F880F9B
:1047E000991F9093FE028093FD0210920003109295
:1047F000FF023CCE813061F0823071F0833009F0ED
:1048000050CE1092BE040E949A3C1092BF0449CE32
:1048100083E08093BE0445CE9093BE041092BF0403
:1048200040CEAF92BF92CF92DF92EF92FF920F9362
:104830001F93CF93DF939C01220F331F220F331F4F
:10484000280F391F2115310509F47BC0862F8250AE
:10485000823008F484C0662309F084C08091D704B4
:104860009091D804821793070CF01BC28091E70443
:104870009091E804821793070CF01CC28091F70412
:104880009091F804821793070CF017C280910705E6
:1048900090910805821793070CF012C280911705BA
:1048A00090911805821793070CF0FEC1809127059F
:1048B00090912805821793070CF0F9C18091370574
:1048C00090913805821793070CF002C2809147053A
:1048D00090914805821793070CF0FDC1C0915705D0
:1048E000D0915805C217D3070CF07AC1B9018827B7
:1048F00077FD8095982F0E941B3E7B018C01609173
:10490000550570915605882777FD8095982F0E9450
:104910001B3E9B01AC01C801B7010E94303F7B01E7
:104920008C01BE01882777FD8095982F0E941B3E41
:104930009B01AC01C801B7010E94803D0E94E83D87
:1049400002C060E070E0CB01DF91CF911F910F9129
:10495000FF90EF90DF90CF90BF90AF90089530958B
:1049600021953F4F633009F4F3C0623001F16130AB
:1049700009F498C0662309F490C0613009F48CC131
:10498000623009F4A0C16330E1F6C0916305D091B3
:104990006405B901882777FD8095982F0E941B3EFA
:1049A0007B018C01609161057091620555C0809119
:1049B000DF049091E004821793070CF072C180919C
:1049C000EF049091F004821793070CF073C180916B
:1049D000FF0490910005821793070CF06EC180913F
:1049E0000F0590911005821793070CF069C1809113
:1049F0001F0590912005821793070CF055C18091F7
:104A00002F0590913005821793070CF050C18091CB
:104A10003F0590914005821793070CF059C1809192
:104A20004F0590915005821793070CF054C1C09127
:104A30005F05D0916005C217D3070CF0D1C0B90152
:104A4000882777FD8095982F0E941B3E7B018C0163
:104A500060915D0570915E05882777FD8095982FA0
:104A60000E941B3E9B01AC01C801B7010E94303F70
:104A70007B018C01BE01882777FD8095982F0E94CD
:104A80001B3E9B01AC01C801B7010E94803D0E9402
:104A9000E83D709561957F4F56CFC0915705D091F5
:104AA000580524CF8091DB049091DC048217930792
:104AB0000CF0F7C08091EB049091EC0482179307FF
:104AC0000CF0F8C08091FB049091FC0482179307CE
:104AD0000CF0F3C080910B0590910C0582179307A1
:104AE0000CF0EEC080911B0590911C058217930776
:104AF0000CF0DAC080912B0590912C05821793075A
:104B00000CF0D5C080913B0590913C05821793072E
:104B10000CF0DEC080914B0590914C0582179307F5
:104B20000CF0D9C0C0915B05D0915C05C217D307CA
:104B30000CF056C0B901882777FD8095982F0E9408
:104B40001B3E7B018C016091590570915A05DBCEAB
:104B50008091E3049091E404821793070CF0A1C0C4
:104B60008091F3049091F404821793070CF0A2C093
:104B70008091030590910405821793070CF09DC066
:104B80008091130590911405821793070CF098C03B
:104B90008091230590912405821793070CF084C01F
:104BA0008091330590913405821793070CF07FC0F4
:104BB0008091430590914405821793070CF088C0BB
:104BC0008091530590915405821793070CF083C090
:104BD000C0916305D0916405C217D3070CF4D9CEF8
:104BE000C8E0D0E0209709F079C0662391F44091A5
:104BF000D5045091D604249FC001259F900D349F69
:104C0000900D11246091D7047091D8040E94EE3F5A
:104C10009ACE6130D1F0623051F1633009F091CE1B
:104C20004091E1045091E204249FC001259F900D22
:104C3000349F900D11246091E3047091E4040E946C
:104C4000EE3F709561957F4F7ECE4091D904509193
:104C5000DA04249FC001259F900D349F900D1124EC
:104C60006091DB047091DC040E94EE3F6CCE4091B9
:104C7000DD045091DE04249FC001259F900D349FD8
:104C8000900D11246091DF047091E0040E94EE3FCA
:104C9000709561957F4F57CEC0915B05D0915C05B3
:104CA00049CFC0E0D0E09ECFC4E0D0E09BCFC5E0CC
:104CB000D0E098CFC1E0D0E095CFC2E0D0E092CF75
:104CC000C3E0D0E08FCFC0915F05D0916005B7CE33
:104CD000C6E0D0E087CFC7E0D0E084CFC930D105AF
:104CE00009F448CE662309F047C0FE01E295F2952B
:104CF000F07FFE27E07FFE27EB53FB4FC280D3807F
:104D0000A080B1802C193D09B901882777FD8095D5
:104D1000982F0E941B3E7B018C01C295D295D07FBB
:104D2000DC27C07FDC27CB52DB4F688179816A1991
:104D30007B09882777FD8095982F0E941B3E9B0159
:104D4000AC01C801B7010E94303F7B018C016A8130
:104D50007B816C197D09882777FD8095982F0E94AB
:104D60001B3E9B01AC01C801B7010E94803D0E941F
:104D7000E83D6A0D7B1DE7CD613009F450C062301B
:104D800009F482C0633009F0DCCDFE01E295F295B2
:104D9000F07FFE27E07FFE27EB53FB4FC684D784CE
:104DA000A484B5842C193D09B901882777FD809525
:104DB000982F0E941B3E7B018C01C295D295D07F1B
:104DC000DC27C07FDC27CB52DB4F6C857D856A19E1
:104DD0007B09882777FD8095982F0E941B3E9B01B9
:104DE000AC01C801B7010E94303F7B018C016E8588
:104DF0007F856C197D09882777FD8095982F0E9403
:104E00001B3E9B01AC01C801B7010E94803D0E947E
:104E1000E83D6A0D7B1D709561957F4F94CDFE0135
:104E2000E295F295F07FFE27E07FFE27EB53FB4FE4
:104E3000C680D780A480B5802C193D09B901882788
:104E400077FD8095982F0E941B3E7B018C01C295B7
:104E5000D295D07FDC27C07FDC27CB52DB4F6C8123
:104E60007D816A197B09882777FD8095982F0E949C
:104E70001B3E9B01AC01C801B7010E94303F7B0182
:104E80008C016E817F8165CFFE01E295F295F07F06
:104E9000FE27E07FFE27EB53FB4FC284D384A08420
:104EA000B1842C193D09B901882777FD8095982F89
:104EB0000E941B3E7B018C01C295D295D07FDC27DE
:104EC000C07FDC27CB52DB4F688579856A197B0967
:104ED000882777FD8095982F0E941B3E9B01AC018F
:104EE000C801B7010E94303F7B018C016A857B8538
:104EF00080CF8F929F92AF92BF92CF92DF92EF922C
:104F0000FF920F931F93CF93DF93C091F302D09141
:104F1000F4028091F5029091F60297FDD9C060915C
:104F2000D9047091DA046C177D070CF0BDC00FEF47
:104F30001FEF8091E9049091EA048C179D0744F0DB
:104F400081E09FEF0F3F190709F080E0082F10E084
:104F50008091F9049091FA048C179D072CF08FEF43
:104F60000F3F180709F46CC18091090590910A055B
:104F70008C179D072CF09FEF0F3F190709F472C1A2
:104F80008091190590911A058C179D072CF08FEFD1
:104F90000F3F180709F463C18091290590912A05F4
:104FA0008C179D072CF09FEF0F3F190709F454C190
:104FB0008091390590913A058C179D072CF08FEF61
:104FC0000F3F180709F445C18091490590914A05A2
:104FD0008C179D072CF09FEF0F3F190709F436C17E
:104FE000E0905905F0905A05EC16FD062CF08FEF75
:104FF0000F3F180709F427C1209709F458C001157D
:10500000110509F432C19FEF0F3F190709F4E9C0F8
:10501000F801E295F295F07FFE27E07FFE27EB5343
:10502000FB4FA480B58086809780CA19DB09BE013A
:10503000882777FD8095982F0E941B3E6B017C018D
:10504000E801C295D295D07FDC27C07FDC27CB5208
:10505000DB4F6E817F8168197909882777FD8095FC
:10506000982F0E941B3E9B01AC01C701B6010E9414
:10507000303F7B018C016C817D816A197B09882717
:1050800077FD8095982F0E941B3E9B01AC01C801C3
:10509000B7010E94803D0E94E83D680D791D709324
:1050A000AF046093AE0407C000E010E042CF10925E
:1050B000AF041092AE04DF91CF911F910F91FF903A
:1050C000EF90DF90CF90BF90AF909F908F9008951A
:1050D0006091E1047091E2046C177D070CF07EC0D2
:1050E0000FEF1FEF8091F1049091F2048C179D0750
:1050F00044F081E09FEF0F3F190709F080E0082F8F
:1051000010E080910105909102058C179D072CF00D
:105110008FEF0F3F180709F419C180911105909185
:1051200012058C179D072CF09FEF0F3F190709F40C
:105130000AC180912105909122058C179D072CF0C2
:105140008FEF0F3F180709F4FBC080913105909154
:1051500032058C179D072CF09FEF0F3F190709F4BC
:10516000ECC080914105909142058C179D072CF071
:105170008FEF0F3F180709F4DDC080915105909122
:1051800052058C179D072CF09FEF0F3F190709F46C
:10519000CEC0E0906105F0906205EC16FD062CF0A3
:1051A0008FEF0F3F180709F4BFC00115110509F073
:1051B0006EC02091E3043091E404C29FC001C39FFC
:1051C000900DD29F900D11240E94EE3F7095619535
:1051D0007F4F7093AF046093AE046DCF00E010E09A
:1051E00081CF60915B0570915C05882777FD809584
:1051F000982F0E941B3E5B016C01BE01882777FD42
:105200008095982F0E941B3E9B01AC01C601B50101
:105210000E94303F5B016C01B701882777FD8095C4
:10522000982F0E941B3E9B01AC01C601B5010E9454
:10523000803D0E94E83D7093AF046093AE043BCF85
:1052400002E010E091CE08E010E0D6CE07E010E0DA
:10525000C7CE06E010E0B8CE05E010E0A9CE04E02D
:1052600010E09ACE03E010E08BCE2091DB04309169
:10527000DC04C29FC001C39F900DD29F900D1124EA
:105280000E94EE3F7093AF046093AE0414CF8FEF93
:105290000F3F180709F45DC0F801E295F295F07F21
:1052A000FE27E07FFE27EB53FB4FA484B584868462
:1052B0009784CA19DB09BE01882777FD8095982F4E
:1052C0000E941B3E6B017C01E801C295D295D07F04
:1052D000DC27C07FDC27CB52DB4F6E857F856819CA
:1052E0007909882777FD8095982F0E941B3E9B01A6
:1052F000AC01C701B6010E94303F7B018C016C8577
:105300007D856A197B09882777FD8095982F0E94F3
:105310001B3E9B01AC01C801B7010E94803D0E9469
:10532000E83D680D791D52CF08E010E03ECF07E060
:1053300010E02FCF06E010E020CF05E010E011CF05
:1053400004E010E002CF03E010E0F3CE02E010E052
:10535000E4CE6091630570916405882777FD8095A0
:10536000982F0E941B3E5B016C01BE01882777FDD0
:105370008095982F0E941B3E9B01AC01C601B50190
:105380000E94303F5B016C01B701882777FD809553
:10539000982F0E941B3E9B01AC01C601B5010E94E3
:1053A000803D0E94E83D12CF8F929F92AF92BF92B4
:1053B000CF92DF92EF92FF920F931F93CF93DF93E1
:1053C000C091F102D091F2028091F7029091F8021F
:1053D00097FDD9C06091D5047091D6046C177D07F4
:1053E0000CF0BDC00FEF1FEF8091E5049091E60433
:1053F0008C179D0744F081E09FEF0F3F190709F0DC
:1054000080E0082F10E08091F5049091F6048C174D
:105410009D072CF08FEF0F3F180709F46CC18091A6
:105420000505909106058C179D072CF09FEF0F3F07
:10543000190709F472C180911505909116058C1712
:105440009D072CF08FEF0F3F180709F463C180917F
:105450002505909126058C179D072CF09FEF0F3F97
:10546000190709F454C180913505909136058C17C0
:105470009D072CF08FEF0F3F180709F445C180916D
:105480004505909146058C179D072CF09FEF0F3F27
:10549000190709F436C1E0905505F0905605EC1651
:1054A000FD062CF08FEF0F3F180709F427C1209756
:1054B00009F458C00115110509F432C19FEF0F3FDF
:1054C000190709F4E9C0F801E295F295F07FFE278B
:1054D000E07FFE27EB53FB4FA080B180828093805A
:1054E000CA19DB09BE01882777FD8095982F0E9495
:1054F0001B3E6B017C01E801C295D295D07FDC2771
:10550000C07FDC27CB52DB4F6A817B816819790928
:10551000882777FD8095982F0E941B3E9B01AC0148
:10552000C701B6010E94303F7B018C0168817981FF
:105530006A197B09882777FD8095982F0E941B3E6A
:105540009B01AC01C801B7010E94803D0E94E83D6B
:10555000680D791D7093AD046093AC0407C000E042
:1055600010E042CF1092AD041092AC04DF91CF91C5
:105570001F910F91FF90EF90DF90CF90BF90AF9071
:105580009F908F9008956091DD047091DE046C17F8
:105590007D070CF07EC00FEF1FEF8091ED0490911E
:1055A000EE048C179D0744F081E09FEF0F3F190731
:1055B00009F080E0082F10E08091FD049091FE0436
:1055C0008C179D072CF08FEF0F3F180709F419C1B6
:1055D00080910D0590910E058C179D072CF09FEF83
:1055E0000F3F190709F40AC180911D0590911E050E
:1055F0008C179D072CF08FEF0F3F180709F4FBC0A5
:1056000080912D0590912E058C179D072CF09FEF12
:105610000F3F190709F4ECC080913D0590913E05BC
:105620008C179D072CF08FEF0F3F180709F4DDC092
:1056300080914D0590914E058C179D072CF09FEFA2
:105640000F3F190709F4CEC0E0905D05F0905E05AC
:10565000EC16FD062CF08FEF0F3F180709F4BFC0C2
:105660000115110509F06EC02091DF043091E004AE
:10567000C29FC001C39F900DD29F900D11240E9424
:10568000EE3F709561957F4F7093AD046093AC04CD
:105690006DCF00E010E081CF609157057091580503
:1056A000882777FD8095982F0E941B3E5B016C0137
:1056B000BE01882777FD8095982F0E941B3E9B0195
:1056C000AC01C601B5010E94303F5B016C01B7011E
:1056D000882777FD8095982F0E941B3E9B01AC0187
:1056E000C601B5010E94803D0E94E83D7093AD0463
:1056F0006093AC043BCF02E010E091CE08E010E0F4
:10570000D6CE07E010E0C7CE06E010E0B8CE05E048
:1057100010E0A9CE04E010E09ACE03E010E08BCEBA
:105720002091D7043091D804C29FC001C39F900D2F
:10573000D29F900D11240E94EE3F7093AD046093B0
:10574000AC0414CF8FEF0F3F180709F45DC0F801C8
:10575000E295F295F07FFE27E07FFE27EB53FB4FAB
:10576000A084B18482849384CA19DB09BE0188278E
:1057700077FD8095982F0E941B3E6B017C01E8010C
:10578000C295D295D07FDC27C07FDC27CB52DB4F80
:105790006A857B8568197909882777FD8095982F18
:1057A0000E941B3E9B01AC01C701B6010E94303F25
:1057B0007B018C01688579856A197B09882777FDCB
:1057C0008095982F0E941B3E9B01AC01C801B70138
:1057D0000E94803D0E94E83D680D791D52CF08E08F
:1057E00010E03ECF07E010E02FCF06E010E020CF22
:1057F00005E010E011CF04E010E002CF03E010E07C
:10580000F3CE02E010E0E4CE60915F057091600598
:10581000882777FD8095982F0E941B3E5B016C01C5
:10582000BE01882777FD8095982F0E941B3E9B0123
:10583000AC01C601B5010E94303F5B016C01B701AC
:10584000882777FD8095982F0E941B3E9B01AC0115
:10585000C601B5010E94803D0E94E83D12CF2F9203
:105860003F924F925F926F927F928F929F92AF92F0
:10587000BF92CF92DF92EF92FF920F931F9380918E
:10588000BF04813009F428C28091FD029091FE028C
:1058900097FD9AC261E00E94112490930C038093BB
:1058A0000B038091FF029091000397FD85C260E099
:1058B0000E94112490930E0380930D0320916404A1
:1058C000222309F0FEC19093EC028093EB028091B9
:1058D0000B0390910C039093EA028093E90280916C
:1058E0000702882309F493C02091ED023091EE0263
:1058F00036952795369527953093F2022093F1023D
:10590000109207021092EE021092ED028091BF04F5
:10591000813009F408C20E94D429809187049091B3
:105920008804A0918904B0918A0480938F04909395
:105930009004A0939104B09392046091AC04709190
:10594000AD04882777FD8095982F0E941B3E7B0130
:105950008C010E94CD1B2091B0043091B104409184
:10596000B2045091B304621B730B840B950B0E941D
:10597000193E20E030E040ED52E40E94303F9B01B0
:10598000AC01C801B7010E94303F20E034E244E797
:1059900059E40E94803D9B01AC01609187047091A5
:1059A00088048091890490918A040E94B33C60939A
:1059B0008704709388048093890490938A040E94DA
:1059C000CD1B6093B0047093B1048093B2049093A4
:1059D000B30480911702813009F4C7C18DE093E0D0
:1059E0000E948D1380910D0390910E039093F80205
:1059F0008093F702181619060CF0F9C19093A900CC
:105A00008093A800809197048F5F80939704809182
:105A10000802882309F0C1C080919704823008F4FD
:105A2000ABC01092970460908B0470908C048090AF
:105A30008D0490908E0420908704309088044090CC
:105A4000890450908A04C401B301209193043091D9
:105A5000940440919504509196040E94B23C7B01BD
:105A60008C01C201B10120918F04309190044091CA
:105A70009104509192040E94B23C9B01AC01C80178
:105A8000B7010E94B33C20E030E040E05FE30E94B9
:105A9000303FD62EC72EB82EA92EA6019501852FF0
:105AA000942FA32FB22F8093730490937404A09328
:105AB0007504B093760480911702813009F41DC1FA
:105AC000F09098040091990410919A04E0909B043E
:105AD0008F2D902FA12FBE2D809367049093680483
