:100000000C94BE000C94DD000C94DD000C94DD001B
:100010000C94DD000C94DD000C94DD000C94DD00EC
:100020000C94DD000C94DD000C94A50B0C94DD0009
:100030000C94DD000C94D90B0C94DD000C9482150B
:100040000C94DD000C94DD000C94DD000C94DD00BC
:100050000C94DD000C94DD000C94DD000C94DD00AC
:100060000C94DD000C94C5140C94DD000C94DD00A0
:100070000C94DD000C946B160C94DD000C94DD00E8
:100080000C94901C0C94A61C0C94DD000C94031C86
:100090000C94DD000C94DD000C94DD000C94DD006C
:1000A0000C94DD000C94DD000C94D71B0C94ED1B1C
:1000B0000C94DD000C94401B0C94DD000C94DD00CE
:1000C0000C94DD000C94DD000C94DD000C94DD003C
:1000D0000C94DD000C94DD000C94DD000C94DD002C
:1000E0000C94DD00520E360E040EC70E910EBA0EA1
:1000F000DB0DBF0D920D7A0D1B0D1B0D1B0D1B0D86
:100100001B0D1B0D6E0D630D1B0D1B0D1B0D1B0D14
:100110001B0D1B0D1B0D1B0D1B0D1B0D1B0D1B0D9F
:10012000920D040E570D520D1B0D1B0D1B0D1B0DBB
:100130001B0D1B0D1B0D1B0D1B0D1B0D1B0D1B0D7F
:10014000910EDB0D1B0D1B0D520EBA0E7B0E084AD5
:10015000D73B3BCE016E84BCBFFDC12F3D6C7431DB
:100160009ABD56833DDA3D00C77F11BED9E4BB4C32
:100170003E916BAAAABE000000803F0011241FBE62
:10018000CFEFD1E2DEBFCDBF00E00CBF13E0A0E0B7
:10019000B2E0E0E2FBE502C005900D92A432B107A7
:1001A000D9F715E0A4E2B3E001C01D92A737B1076B
:1001B000E1F70E94DF000C948F2D0C9400008F92C9
:1001C0009F92AF92BF92CF92DF92EF92FF920F93E6
:1001D0001F93CF93DF930E943C150E940C220E9434
:1001E000BC1C0E943B167B018C01CC24CFEFD0E0DD
:1001F000DD24DA946EEF862E52E0A52E44E0B42E74
:1002000035E0932E0E941715809337050E944C21EC
:100210000E9488260E943B166E197F09800B910B65
:100220006E312BE4720720E0820720E0920708F08D
:1002300092C00E94090D0E94E9078091370586301F
:1002400009F06EC090910F05913009F4C9C1913049
:1002500008F0A7C180E00E94061B80E00E94CC1A33
:100260000E94ED1FD0920C02D0920D02D0920E028D
:100270008FEF0E94141F80910D020E94281F809111
:100280000E020E943C1F449A459A9091370599238B
:1002900009F05CC080E0C81609F4B4CF0E94CD1EFE
:1002A0000E94D41E80910B01816080930B0180918C
:1002B0000B01826080930B0180910B01846080931D
:1002C0000B01A39A80910B01806180930B018091B7
:1002D0000B01806280930B0180910B0180648093FD
:1002E0000B0180910B01806880930B01D0920C026E
:1002F000D0920D02D0920E028FEF0E94141F8091B7
:100300000D020E94281F80910E020E943C1F80E077
:100310000E94061B80E00E94CC1AC090370572CF65
:1003200060E00E94941490913705892F933039F141
:10033000943060F5913009F4C8C0923010F50E94F5
:100340007B1990913705992309F4A4CF0E94131AC1
:1003500080913705A0CF0E94441680913705982FD1
:100360009450923008F4B6C0873009F4B3C0863098
:1003700009F4C6C00E943B167B018C015ACF0E9433
:10038000C91E0E94D01E9091370581CF953009F487
:1003900085C0953008F44FC0963009F453CF97309C
:1003A00009F075CF80913B05823009F4F9C28330A2
:1003B00008F0BEC0882309F098C20E94062010925F
:1003C0003C050E94C91E84E10E94061B84E10E9434
:1003D000CC1A0E943B169B01AC01609343057093BD
:1003E0004405809345059093460580913F05909183
:1003F0004005A0914105B0914205281B390B4A0BDD
:100400005B0B23338FEE380782E0480780E0580704
:1004100018F081E080933B0580910C020E94141F2C
:1004200080910D020E94281F80910E020E943C1FA5
:10043000909137052CCF80910B018E7F80930B011B
:1004400080910B018D7F80930B0180910B018B7F3D
:1004500080930B01A39880910B018F7E80930B01F9
:1004600080910B018F7D80930B0180910B018F7B1D
:1004700080930B0180910B018F7780930B0180910A
:100480000C020E94141F80910D020E94281F80916F
:100490000E020E943C1F90913705F9CE80910C020C
:1004A0000E94141F80910D020E94281F80910E024D
:1004B0000E943C1F0E94C91E89E10E94CC1A89E15A
:1004C0000E94061B90913705E2CE0E94C91E9091B2
:1004D0003705DDCE0E94092BBE010E94712A809350
:1004E0000C020E94092BBE010E94712A80930D020A
:1004F0000E94092BBE010E94712A80930E023ACFFE
:1005000080910F05813009F035CF9091050492302C
:1005100008F030CF90910804992309F025C3809208
:100520000C02D0920D02D0920E028093080422CFCA
:10053000843009F481C2843008F4FBC1853009F0AD
:100540006BCF0E94ED1F0E943B169B01AC01609394
:10055000430570934405809345059093460580912B
:100560003F0590914005A0914105B0914205281B9F
:10057000390B4A0B5B0B2B328CE1380780E04807C4
:1005800080E0580708F448CF0E943B1660933F056F
:1005900070934005809341059093420510923B056E
:1005A0003BCF923011F0982F72CE90911005992385
:1005B000D1F30E94062060910304709104048EEF31
:1005C0009FE00E94C82C0E94ED1F8AEA61E00E9411
:1005D00094141092100510920F059091370557CE84
:1005E0000E94062080910C020E94141F80910D022F
:1005F0000E94281F80910E020E943C1F449845983B
:1006000080911205882309F413CF1092120580916E
:100610005F0361E00E9494148091600361E00E9496
:10062000941480912F039091300361E00E94941400
:1006300080912F0390913003892F61E00E949414E0
:100640008091610361E00E9494148091620361E0F3
:100650000E949414809133039091340361E00E94CE
:1006600094148091330390913403892F61E00E94A8
:1006700094148091630361E00E9494148091640358
:1006800061E00E949414809137039091380361E0F7
:100690000E9494148091370390913803892F61E070
:1006A0000E9494148091650361E00E9494148091EB
:1006B000660361E00E94941480913B0390913C0397
:1006C00061E00E94941480913B0390913C03892F38
:1006D00061E00E9494148091670361E00E94941489
:1006E0008091680361E00E94941480913F0390918F
:1006F000400361E00E94941480913F039091400375
:10070000892F61E00E9494148091690361E00E9446
:10071000941480916A0361E00E94941480914303D1
:100720009091440361E00E9494148091430390915E
:100730004403892F61E00E94941480916B0361E06F
:100740000E94941480916C0361E00E949414809143
:1007500047039091480361E00E94941480914703FD
:1007600090914803892F61E00E94941480916D0359
:1007700061E00E94941480916E0361E00E949414E1
:1007800080914B0390914C0361E00E9494148091FE
:100790004B0390914C03892F61E00E949414809147
:1007A0006F0361E00E9494148091700361E00E94E5
:1007B000941480914F039091500361E00E9494142F
:1007C00080914F0390915003892F61E00E9494140F
:1007D0008091710361E00E9494148091720361E042
:1007E0000E949414809153039091540361E00E94FD
:1007F00094148091530390915403892F61E00E94D7
:1008000094148091730361E00E94941480917403A6
:1008100061E00E949414809157039091580361E025
:100820000E9494148091570390915803892F61E09E
:100830000E9494148091750361E00E949414809149
:10084000760361E00E94941480915B0390915C03B5
:1008500061E00E94941480915B0390915C03892F66
:1008600061E00E9494148091180561E00E94941444
:100870008091190561E00E94941480911A0561E04D
:100880000E94941480911B0561E00E949414809151
:100890001C0561E00E94941480911D0561E00E9496
:1008A00094148091130561E00E949414809137059F
:1008B00061E00E9494148091030190E08072907036
:1008C0009595879595958795959587959595879510
:1008D0009595879561E00E9494148091050461E0EC
:1008E0000E94941490913705D2CC813009F094CDB8
:1008F0000E94ED1F10923D050E94C91E84E10E94D6
:10090000061B84E10E94CC1A8091710390917203BE
:1009100021E0803992070CF4C5C080917303909157
:10092000740341E0803994070CF4BCC010923C057C
:1009300073CD0E94ED1F0E943B169B01AC0160939A
:100940004305709344058093450590934605809137
:100950003F0590914005A0914105B0914205281BAB
:10096000390B4A0B5B0B2D3C86E6380784E04807C1
:1009700080E0580708F4C2C08091C3039091C4037B
:1009800023E08032920708F0A6C00E943B166093D5
:100990003F057093400580934105909342053CCDFF
:1009A0000E9406200E94CD1E0E943B169B01AC01B6
:1009B00060934305709344058093450590934605E5
:1009C00080913F0590914005A0914105B09142056D
:1009D000281B390B4A0B5B0B23338FEE380782E061
:1009E000480780E0580708F076C08091030184FF33
:1009F00090C010923D0580913E058F5F80933E052B
:100A0000853108F0BFC0809171039091720321E09D
:100A1000833C92070CF097C080917303909174030C
:100A200041E0833C94070CF498C086EF0E94CC1AF6
:100A300084E10E94061BF0CC0E9406200E943B1617
:100A40009B01AC0160934305709344058093450579
:100A50009093460580913F0590914005A0914105F6
:100A6000B0914205281B390B4A0B5B0B2F3885E2EE
:100A7000380780E0480780E0580708F4CDCC84E1CF
:100A80000E94061B8CEE0E94CC1A0E943B166093BB
:100A90003F057093400580934105909342059092E5
:100AA0003B05BACC80913C058F5F80933C058B3031
:100AB00008F4B2CC10923D0510923E050E943B1600
:100AC00060933F05709340058093410590934205E4
:100AD000A0923B05A1CC8CEE0E94061B8CEE0E94DE
:100AE000CC1A0E943B1660933F057093400580939B
:100AF000410590934205B0923B058ECC8091030155
:100B000084FD8ACC10923E0510923D05A0923B05D3
:100B10003CCF10923E05809171039091720341E0A9
:100B2000833C9407BCF0209173033091740341E03F
:100B3000233C34077CF080913D058F5F80933D0519
:100B40008B3F08F066CC84E10E94CC1A86EF0E94AD
:100B5000061B62CC10923D055ACF84E10E94061B11
:100B600084E10E94CC1A58CC913001F1923009F006
:100B700001CCD0920C02D0920D0280920E02109203
:100B80000804F8CB80E00E94CC1A80E00E94061B8B
:100B90000E943B1660933F0570934005809341058A
:100BA0009093420523E020933B0536CCD0920C0273
:100BB00080920D02D0920E02A0920804DBCB81E05D
:100BC00090E021E00DB407FC0AC0019637E28031C5
:100BD0009307C0F3209306040DB407FEF6CF0895E3
:100BE00084B1807F84B984B1876084B980E58CBD8D
:100BF0008DB581608DBD08951CBC1DBC0895442336
:100C000009F1A62FB72FE82FF92F91E021912EBDE2
:100C100021E030E00DB407FC0BC02F5F3F4F57E2DF
:100C200020313507B8F3909306040DB407FEF5CFD5
:100C300020910604222331F42EB52D932E2F281B4C
:100C4000241720F308956623E9F0E82FF92F91E0A7
:100C500021912EBD21E030E00DB407FC0BC02F5FC9
:100C60003F4F47E220313407B8F3909306040DB4A8
:100C700007FEF5CF20910604222321F42E2F281BF6
:100C8000261730F308958EBD81E090E021E00DB489
:100C900007FC0AC0019637E280319307C0F3209326
:100CA00006040DB407FEF6CF8EB508950F931F937B
:100CB000DF93CF9300D0CDB7DEB7289880E20E94B3
:100CC00043068DE00E944306289A289883E20E94FA
:100CD000430681E00E944306289A80910304909184
:100CE000040499838A831B82289880E30E94430628
:100CF0008E010F5F1F4FC80163E00E942306289AF0
:100D000028988AE20E944306C80163E00E942306F5
:100D1000289A289881E20E94430681E00E944306B7
:100D2000289A289882E20E94430681E00E944306A6
:100D3000289A289884E20E94430682E10E94430692
:100D4000289A289885E20E94430688E20E9443067A
:100D5000289A289881E30E9443068DE00E9443066A
:100D6000289A289880E50E94430683E70E9443065C
:100D7000289A28988CE30E94430681E00E9443064B
:100D8000289A28988DE30E94430686E00E94430635
:100D9000289A289880E20E9443068FE00E9443062A
:100DA000289A0F900F900F90CF91DF911F910F9184
:100DB00008952C9A289A0E9456060895CF93DF939F
:100DC000EC012C9828988AE20E944306CE0165E047
:100DD0000E942306289A2C9ADF91CF910895CF93F1
:100DE000DF93EC01289880E30E944306CE0165E082
:100DF0000E942306289ADF91CF91089580914A0599
:100E0000882311F080E0089528988FEF0E94430610
:100E1000289A80740895DF93CF930F92CDB7DEB7F1
:100E20001982289887E10E944306BE016F5F7F4FB9
:100E3000CB0141E00E94FF05289A898181700F90C3
:100E4000CF91DF910895289882EE0E944306289A58
:100E50000895CF93DF93EC01289881E60E94430622
:100E6000CE01BE014DE00E94FF05289A289887E236
:100E70000E94430680E40E944306289ADF91CF91A6
:100E80000895DF93CF930F92CDB7DEB728988F7177
:100E9000806269830E9443066981862F0E9443060F
:100EA000289A0F90CF91DF9108950F931F93DF93AE
:100EB000CF930F92CDB7DEB78B0128988F714983FE
:100EC0000E944306C801B80149810E94FF05289A83
:100ED0000F90CF91DF911F910F9108950F931F9362
:100EE000DF93CF930F92CDB7DEB78B0128988F7128
:100EF000806249830E944306C8014981642F0E9491
:100F00002306289A0F90CF91DF911F910F9108959A
:100F10000F931F93DF93CF930F92CDB7DEB78C0162
:100F200080914A058823E1F72C9881E080934A0557
:100F3000289880E269830E9443068AE40E9443065F
:100F4000289A289881EE0E944306289A289880EAD9
:100F50000E944306C80169810E942306289A2C9AA0
:100F60000F90CF91DF911F910F910895EF92FF9213
:100F70000F931F93DF93CF930F92CDB7DEB7182F48
:100F8000062F289881EE99830E944306289A289874
:100F900088EA0E9443069981002361F0612F792F2E
:100FA0007B01F70181917F010E9443068E2D811BF9
:100FB0008017B8F3289A0F90CF91DF911F910F916E
:100FC000FF90EF900895289881EE0E944306289A9A
:100FD00008951F93CF93DF9380914A05882321F0D2
:100FE000DF91CF911F91089528988FEF0E944306BB
:100FF000289A86FFF5CF80910504826080930504CE
:10100000289887E20E94430680E70E944306289AB8
:10101000289881E60E94430687E695E0BC014DE0F2
:101020000E94FF05289A289887E20E94430680E4E0
:101030000E944306289A289882EE0E944306289A26
:1010400060916705662309F4B8C150916B05409122
:101050006C05E091680570916905252F30E02F77C8
:1010600030703093020420930104842F90E08F7736
:101070009070909300048093FF0357FDA6C2220F47
:10108000331F220F331F309521953F4F3093F003CC
:101090002093EF0347FDA3C2880F991F880F991F64
:1010A000909581959F4F9093F2038093F10342E0D6
:1010B0002130340744F040E052E05093F003409375
:1010C000EF0320E032E042E08130940734F080E02A
:1010D00092E09093F2038093F1034EEF20303407B7
:1010E00034F440E05EEF5093F0034093EF032EEFB3
:1010F0008030920734F480E09EEF9093F203809367
:10110000F103262F30E03093600520935F05F0E077
:10111000F0936205E0936105C72FD0E0D09364059A
:10112000C0936305922F8827821B930B24E630E03F
:10113000B9010E945D2A162F109510930C025E2FA4
:1011400044274E1B5F0BCA01B9010E945D2A6095BE
:1011500060930E025C2F44274C1B5D0BCA01B90142
:101160000E945D2A609560930D02812F0E94141FDA
:1011700080910D020E94281F80910E020E943C1F48
:1011800080916A0580FF25C1449881FF25C145985B
:10119000982F82FF25C121E02093120284FD24C1F3
:1011A00086FF29C181E08093470597FD28C11092F1
:1011B000480580916D0580FF29C180910B018E7FCC
:1011C00080930B0180916D0581FF29C180910B01F6
:1011D0008D7F80930B0180916D0582FF29C18091E5
:1011E0000B018B7F80930B0180916D0583FF29C1DB
:1011F000A39880916D0584FF29C180910B018F7E9A
:1012000080930B0180916D0585FF29C180910B01B1
:101210008F7D80930B0180916D0586FF29C18091A0
:101220000B018F7B80930B0180916D0587FD29C198
:1012300080910B01806880930B0180910B02809359
:101240004F05843009F429C1853008F066C1833028
:1012500009F065C090915F03809160039093500501
:1012600080935105909161038091620390935205A0
:101270008093530590916303809164039093540588
:101280008093550590916503809166039093560570
:10129000809357059091690380916A039093580554
:1012A0008093590590916B0380916C0390935A053C
:1012B00080935B0590916D0380916E0390935C0524
:1012C00080935D053091030180910301209103011A
:1012D00090E08072907095958795959587959595F6
:1012E00087959595879595958795880F991F221FC6
:1012F0002227221F220F220F282B832F90E080719C
:1013000090709595879595958795959587959595E1
:101310008795282B20935E0584E080930B02289804
:1013200081EE0E944306289A289888EA0E94430684
:1013300080914F050E944306809150050E9443060C
:10134000809151050E944306809152050E944306F8
:10135000809153050E944306809154050E944306E4
:10136000809155050E944306809156050E944306D0
:10137000809157050E944306809158050E944306BC
:10138000809159050E94430680915A050E944306A8
:1013900080915B050E94430680915C050E94430694
:1013A00080915D050E94430680915E050E94430680
:1013B000289ADF91CF911F910895E0916805EE235F
:1013C00009F416C150916B0540916C057091690547
:1013D00044CE449A81FDDBCE459A982F82FDDBCE28
:1013E0001092120284FFDCCE0E940C2290916A05BA
:1013F000892F86FDD7CE1092470597FFD8CE81E082
:101400008093480580916D0580FDD7CE80910B01BA
:10141000816080930B0180916D0581FDD7CE809115
:101420000B01826080930B0180916D0582FDD7CE08
:1014300080910B01846080930B0180916D0583FD89
:10144000D7CEA39A80916D0584FDD7CE80910B01F4
:10145000806180930B0180916D0585FDD7CE8091D1
:101460000B01806280930B0180916D0586FDD7CEC4
:1014700080910B01806480930B0180916D0587FF43
:10148000D7CE80910B018F7780930B0180910B0257
:1014900080934F05843009F0D7CE909167038091F7
:1014A0006803909350058093510590916F0380914C
:1014B000700390935205809353059091710380912E
:1014C0007203909354058093550590917303809116
:1014D00074039093560580935705909175038091FE
:1014E0007603909358058093590590911805809143
:1014F000190590935A0580935B0590911A05809188
:101500001B0590935C0580935D0580911305809386
:101510005E0585E080930B0202CF853009F47DC023
:10152000863009F0FCCE80913F0390914003809378
:10153000500580913F039091400390935105809115
:101540004F03909150038093520580914F039091E7
:1015500050039093530580915303909154038093CB
:1015600054058091530390915403909355058091B5
:10157000570390915803809356058091570390919B
:1015800058039093570580915B0390915C0380937F
:10159000580580915B0390915C039093590590915D
:1015A0001C0580911D0590935A0580935B059091D1
:1015B000C3038091C40390935C0580935D051092F2
:1015C0005E0583E080930B02AACE220F331F220F09
:1015D000331F3093F0032093EF0347FF5DCD880F57
:1015E000991F880F991F9093F2038093F1035FCDA9
:1015F00070916905772361F480916A05883041F420
:1016000050916B05552309F464C040916C0525CDBC
:1016100050916B0540916C0520CD80912F039091E6
:1016200030038093500580912F0390913003909365
:10163000510580913303909134038093520580913A
:101640003303909134039093530580913703909125
:101650003803809354058091370390913803909319
:10166000550580913B0390913C03809356058091F2
:101670003B0390913C0390935705809143039091D5
:1016800044038093580580914303909144039093C1
:101690005905809147039091480380935A058091A2
:1016A00047039091480390935B0580914B03909181
:1016B0004C0380935C0580914B0390914C03909375
:1016C0005D058091370580935E0586E080930B026F
:1016D00026CE40916C05442379F0109202041092BA
:1016E0000104842F90E08F77907090930004809392
:1016F000FF0320E030E0C3CC8CE30E948C155091B6
:101700006B0540916C0560916705E09168057091EB
:101710006905A3CCCF93DF93C8E6D0E01882ACE68E
:10172000B0E01C92E0EBF0E010821092B100109259
:1017300070008881826088838C9180688C9380811E
:1017400082608083DF91CF9108951F920F920FB630
:101750000F9211248F9380911202882321F180919E
:10176000030186FD20C0809168008D7F8093680012
:1017700080916C008F7780936C0081E080931302DE
:101780008DE08093B3008091B10086608093B100BA
:1017900080917000826080937000109226031092F6
:1017A0002703109228038F910F900FBE0F901F9068
:1017B00018951F920F920FB60F9211242F933F93FB
:1017C0004F935F938F939F938091B100887F809315
:1017D000B100809113028823A9F08091030186FF54
:1017E00065C08091680082608093680080916C0081
:1017F000806880936C008FEF9FEF9093020280933C
:10180000010249C080910102909102022FEF8F3FA7
:10181000920709F463C08130910509F498C09C01D6
:10182000225030402530310508F467C09C01275014
:1018300030402630310508F0BDC026E32093B300C8
:101840002091B10026602093B100209170002260A9
:10185000209370002091030130E020743070002448
:10186000220F331F001C220F331F001C232F302D8B
:101870004CE050E0481B590B02C0220F331F4A9521
:10188000E2F740912603420F40932603019690937E
:101890000202809301029F918F915F914F913F913E
:1018A0002F910F900FBE0F901F901895109213025A
:1018B00083E38093B3008091B10086608093B10090
:1018C00080917000826080937000809101029091FD
:1018D00002022FEF8F3F9207C9F6DDCF209103015F
:1018E00026FF52C02091680022602093680020915A
:1018F0006C00206820936C00CECF26E32093B300C9
:101900002091B10026602093B100209170002260E8
:10191000209370002091030130E020743070002487
:10192000220F331F001C220F331F001C232F302DCA
:1019300046E050E0481B590B02C0220F331F4A9566
:10194000E2F740912703420F409327039FCF209156
:10195000030130E020743070022E232F000C221F70
:10196000330B000C221F331F2093280326E3209300
:10197000B3002091B10026602093B1002091700047
:1019800022602093700082CF8CE18093B30080911D
:10199000B10086608093B100809170008260809376
:1019A000700010922603109227031092280381E002
:1019B00090E06DCF8D30910509F068CF10927000E6
:1019C0008091680082608093680080916C008068DC
:1019D00080936C008FEF9FEF90930202809301023F
:1019E0008091280380930002809127038093240331
:1019F000809126038093250381E0809314054BCFCB
:101A00008091000208958091240308958091250318
:101A10000895809112028823B1F1809114058823E2
:101A200091F1E0912503E093130510921405F0E085
:101A3000E533F10548F12091EF033091F0038091F7
:101A4000F1039091F20337FD27C035952795359521
:101A50002795309302042093010497FD09C09595C2
:101A6000879595958795909300048093FF0308953B
:101A7000909581959F4F959587959595879590938E
:101A800000048093FF030895EE58FF4FEE0FFF1FF1
:101A90000590F491E02D1994309521953F4FD5CFC5
:101AA0008093470510924805C6CF1092470581E004
:101AB000809348052091EF033091F0038091F1036A
:101AC0009091F203C0CF109247052091EF0330911F
:101AD000F0038091F1039091F203B5CF81E0809300
:101AE00047052091EF033091F0038091F10390912D
:101AF000F203A9CF8091F1039091F2034E97909356
:101B0000F2038093F1032EEF803092079CF580E082
:101B10009EEF9093F2038093F1032091EF033091B5
:101B2000F00391CF2091EF033091F0038091ED030A
:101B30009091EE032817390724F02091F10330919A
:101B4000F2032E5130403093F0032093EF03C9018C
:101B50003093F2032093F1034EEF2030340734F436
:101B600040E05EEF5093F0034093EF034EEF2030E0
:101B700034076CF22091EF033091F00364CF209191
:101B8000EF033091F0032E5130403093F003209357
:101B9000EF034EEF203034070CF017C180E09EEFCA
:101BA0009093F0038093EF038091F1039091F203FF
:101BB00020E830E04ECF2091EF033091F0032E511A
:101BC00030403093F0032093EF038091F103909124
:101BD000F2034E969093F2038093F1034EEF203080
:101BE000340734F420E03EEF3093F0032093EF030A
:101BF00042E0813094070CF426CF80E092E090938D
:101C0000F2038093F1031FCF2091EF033091F00393
:101C10008091F1039091F203821793070CF4DAC0DC
:101C20009C01225E3F4F3093F0032093EF034E96CA
:101C30009093F2038093F10342E02130340734F0B3
:101C400020E032E03093F0032093EF0322E0813074
:101C500092070CF48FCF80E092E09093F203809390
:101C6000F1032091EF033091F003EDCE2091EF03CB
:101C70003091F003225E3F4F3093F0032093EF0347
:101C800042E0213034070CF4A0C080E092E0909351
:101C9000F0038093EF038091F1039091F20320E829
:101CA00030E0D7CE8091150590E0019665E070E0B8
:101CB0000E94712A80931505882309F08DC0449AEB
:101CC000459A10920E028FEF80930D0280930C02C2
:101CD0000E94141F80910D020E94281F80910E0205
:101CE0000E943C1F2091EF033091F0038091F1039B
:101CF0009091F203A8CE8091160590E00196837032
:101D0000907080931605823009F4CFCE833009F4A9
:101D100053C0813009F4C4CE109247051092480593
:101D20008ACE2091EF033091F003225E3F4F309333
:101D3000F0032093EF038091F1039091F2034E970B
:101D40009093F2038093F10342E02130340734F0A2
:101D500020E032E03093F0032093EF034EEF803029
:101D600094070CF070CE80E09EEF9093F203809386
:101D7000F10369CE1092F0031092EF031092F20378
:101D80001092F10380E090E020E030E05ECE8091A0
:101D9000F1039091F2034E969093F2038093F10336
:101DA00022E0813092070CF4E5CE80E092E090933F
:101DB000F2038093F103DECE81E0809347058093A8
:101DC00048052091EF033091F0038091F103909149
:101DD000F20339CEC90125CF813061F0823091F014
:101DE0008330D9F08FEF80930E0280930D028093A1
:101DF0000C026ECF8FEF80930E0210920D02809333
:101E00000C0266CF449845988FEF80930E02809322
:101E10000D0210920C0280E05BCF10920E02109225
:101E20000D0210920C0280E053CF08950F931F9380
:101E3000CF93DF93FC0180819181009709F4B7C0B3
:101E400020912A0530912B0541E02E3034070CF407
:101E500088C0181619060CF013C188E691E0821BA1
:101E6000930B959587959595879529E130E0281BEB
:101E7000390B309304022093030240914B0550919B
:101E80004C0550936605409365052081318137FDEF
:101E9000D2C08091E7039091E803B901681B790BE8
:101EA000CB0170934C0560934B052091F703309163
:101EB000F803280F391F3093F8032093F70376E0D7
:101EC000213437070CF484C020E436E03093F80363
:101ED0002093F70360EC72E19C01220F331FDC01B9
:101EE000AA0FBB1FAA0FBB1FAA0FBB1F2A0F3B1FA6
:101EF00000811181C0910302D09104020C9FD00196
:101F00000D9FB00D1C9FB00D11242A0F3B1F481BC5
:101F1000590B440F551F240F351F260F371F3093C1
:101F2000F6032093F50337FD69C0121613060CF073
:101F30006FC08081918197FD89C07DE5213C370785
:101F40000CF466C080EC9DE59093F6038093F50356
:101F500080E092E091838083DF91CF911F910F9178
:101F60000895243B310594F42A3531057CF4181684
:101F700019060CF093C03595279535952795275E62
:101F80003F4F309304022093030277CF18161906AF
:101F900094F584EB90E0821B930B9595879595952E
:101FA00087954996909304028093030266CF10921E
:101FB000F8031092F70310924C0510924B05109203
:101FC000660510926505DF91CF911F910F910895DD
:101FD00069EF203C36074CF420EC39EF3093F803DE
:101FE0002093F70360E47DEE77CFB901660F771F8A
:101FF000620F731F71CF84EB90E031CF80819181AC
:1020000097FD06C01092F6031092F50320E030E031
:1020100082EA2034380704F580E492EA9093F603CC
:102020008093F50380E09EEF91838083DF91CF91D1
:102030001F910F9108958091E7039091E803820F1B
:10204000931F90934C0580934B052FCF1092F6036E
:102050001092F50320E030E03595279535952795CA
:1020600035952795359527953183208342E021309A
:1020700034070CF06DCF6EEF203036079CF26CCF3A
:1020800088E691E0821B930B9595879595958795AA
:1020900049969093040280930302EFCE35952795DD
:1020A0003595279589E190E0821B930B909304026C
:1020B00080930302E2CE0F931F93CF93DF93FC0133
:1020C00080819181009709F4B7C020912A05309151
:1020D0002B0541E02E3034070CF488C01816190681
:1020E0000CF013C188E691E0821B930B95958795C0
:1020F0009595879529E130E0281B390B309306022E
:1021000020930502409174055091750550934E053A
:1021100040934D052081318137FDD2C08091E90384
:102120009091EA03B901681B790BCB017093750597
:10213000609374052091F9033091FA03280F391F39
:102140003093FA032093F90376E0213437070CF437
:1021500084C020E436E03093FA032093F90360EC66
:1021600072E19C01220F331FDC01AA0FBB1FAA0FD3
:10217000BB1FAA0FBB1F2A0F3B1F00811181C091FB
:102180000502D09106020C9FD0010D9FB00D1C9F3F
:10219000B00D11242A0F3B1F481B590B440F551F2C
:1021A000240F351F260F371F3093F4032093F303BA
:1021B00037FD69C0121613060CF06FC08081918143
:1021C00097FD89C07DE5213C37070CF466C080ECA3
:1021D0009DE59093F4038093F30380E092E0918374
:1021E0008083DF91CF911F910F910895243B31059A
:1021F00094F42A3531057CF4181619060CF093C0B6
:102200003595279535952795275E3F4F30930602E4
:102210002093050277CF1816190694F584EB90E009
:10222000821B930B959587959595879549969093E5
:1022300006028093050266CF1092FA031092F9030A
:10224000109275051092740510924E0510924D056E
:10225000DF91CF911F910F91089569EF203C3607D0
:102260004CF420EC39EF3093FA032093F90360E447
:102270007DEE77CFB901660F771F620F731F71CFA5
:1022800084EB90E031CF8081918197FD06C0109260
:10229000F4031092F30320E030E082EA20343807A0
:1022A00004F580E492EA9093F4038093F30380E0D2
:1022B0009EEF91838083DF91CF911F910F910895BD
:1022C0008091E9039091EA03820F931F9093750523
:1022D000809374052FCF1092F4031092F30320E043
:1022E00030E0359527953595279535952795359582
:1022F00027953183208342E0213034070CF06DCFE5
:102300006EEF203036079CF26CCF88E691E0821B9E
:10231000930B959587959595879549969093060289
:1023200080930502EFCE359527953595279589E160
:1023300090E0821B930B9093060280930502E2CEFD
:10234000FC0180819181009709F47BC0A091740504
:10235000B0917505B0934E05A0934D052081318154
:1023600037FD89C08091E9039091EA03A901481BD8
:10237000590BCA0150937505409374052091F903D8
:102380003091FA03280F391F3093FA032093F90391
:1023900056E0213435070CF461C020E436E0309378
:1023A000FA032093F90360E87CE09C01220F331FBD
:1023B000280F391F220F331F220F331F220F331F05
:1023C000280F391F40815181440F551F440F551F5D
:1023D000440F551F240F351FAD01481B590BCA016F
:1023E000880F991F840F951F280F391F260F371F3D
:1023F0003093F4032093F30337FD4CC012161306F9
:102400000CF052C08081918197FD67C05DE5213C51
:1024100035070CF449C080EC9DE59093F40380935C
:10242000F3032CED35E0225E3F4F3183208342E001
:10243000213034070CF448C080E092E0918380831F
:1024400008951092FA031092F903109275051092F4
:10245000740510924E0510924D05089549EF203CE9
:102460003407A4F420EC39EF3093FA032093F903F6
:1024700060E873EF9ACF8091E9039091EA03820FAD
:10248000931F909375058093740578CFB901660FFB
:10249000771F8BCF8081918197FD06C01092F40346
:1024A0001092F30320E030E082EA20343807DCF4B5
:1024B00080E492EA9093F4038093F30324E23AEFEA
:1024C0002E513040318320835EEF2030350724F4D5
:1024D00080E09EEF9183808308951092F403109220
:1024E000F30320E030E03595279535952795359510
:1024F00027953595279531832083121613060CF402
:1025000092CF21153105E1F60895FC01808191817A
:10251000009709F47BC0A0914B05B0914C05B09396
:102520006605A09365052081318137FD89C08091C2
:10253000E7039091E803A901481B590BCA01509386
:102540004C0540934B052091F7033091F803280F79
:10255000391F3093F8032093F70356E021343507F1
:102560000CF461C020E436E03093F8032093F703C5
:1025700060E87CE09C01220F331F280F391F220FD7
:10258000331F220F331F220F331F280F391F4081A3
:102590005181440F551F440F551F440F551F240FE1
:1025A000351FAD01481B590BCA01880F991F840FB5
:1025B000951F280F391F260F371F3093F6032093DE
:1025C000F50337FD4CC0121613060CF052C0808183
:1025D000918197FD67C05DE5213C35070CF449C04A
:1025E00080EC9DE59093F6038093F5032CED35E0A8
:1025F000225E3F4F3183208342E0213034070CF4C8
:1026000048C080E092E09183808308951092F8039F
:102610001092F70310924C0510924B05109266052C
:1026200010926505089549EF203C3407A4F420EC8E
:1026300039EF3093F8032093F70360E873EF9ACFF4
:102640008091E7039091E803820F931F90934C05CC
:1026500080934B0578CFB901660F771F8BCF8081B0
:10266000918197FD06C01092F6031092F50320E0C9
:1026700030E082EA20343807DCF480E492EA909378
:10268000F6038093F50324E23AEF2E513040318374
:1026900020835EEF2030350724F480E09EEF9183A5
:1026A000808308951092F6031092F50320E030E045
:1026B0003595279535952795359527953595279502
:1026C00031832083121613060CF492CF21153105A5
:1026D000E1F6089585B7806185BF8FEF81B912B8A3
:1026E00097EF94B990EE95B990EF97B990EB98B9B0
:1026F0009CEF9AB993E09BB98DB91EB810BA83BB11
:1027000080913A058823E1F08130D1F0823051F197
:102710009FEF90930101109202019FE090930401BA
:102720008823A9F4909105011092050110920701E8
:102730009FEF90930A01882329F410920B010895CA
:1027400014BAE6CF8130C9F3823041F00895813068
:1027500011F0823059F790930501E8CF87EF80930D
:102760000B01089598E094BBD3CF1092B80010925B
:10277000BC000895589A599A1092B90081E080934C
:10278000B800089594EA9093BC009091BC0097FF24
:10279000FCCF9091B900987F983021F0903111F0E2
:1027A00081E008958093BB0084E88093BC00809111
:1027B000BC0087FFFCCF9091B900987F983121F041
:1027C00081E0903419F0089580E0089580E0089544
:1027D00024EA34E844E92093BC009091BC0097FFC0
:1027E000FCCF9091B900987F983011F0903199F713
:1027F0008093BB003093BC009091BC0097FFFCCF4E
:102800009091B900987F903219F0983509F00895A9
:102810004093BC009091BC0094FDFCCFDCCF94EAC7
:102820009093BC009091BC0097FFFCCF9091B900B1
:10283000987F983021F0903111F081E008958093D5
:10284000BB0084E88093BC008091BC0087FFFCCF74
:102850009091B900987F983121F081E0903419F07F
:10286000089580E0089580E0089584E98093BC0095
:102870008091BC0084FDFCCF08958093BB0084E868
:102880008093BC008091BC0087FFFCCF9091B90081
:10289000987F81E0983209F0089580E0089584ECF3
:1028A0008093BC008091BC0087FFFCCF8091BB006F
:1028B000089584E88093BC008091BC0087FFFCCF22
:1028C0008091BB0008951092C50080E18093C40000
:1028D000E0ECF0E0808182608083E1ECF0E08081D8
:1028E00088698083E2ECF0E08081866080830895CF
:1028F0001092CD0080E18093CC00E8ECF0E0808184
:1029000082608083E9ECF0E0808188618083EAEC7A
:10291000F0E080818660808308951092C00010925C
:10292000C1001092C20008959091C00095FFFCCFA5
:102930008093C600662321F08091C00086FFFCCF03
:1029400008959091C80095FFFCCF8093CE00662338
:1029500021F08091C80086FFFCCF08958091C000CF
:102960008095881F8827881F089587E990E0209127
:10297000C00027FD07C00197D1F781E080930A04CA
:1029800080E008958091C60008951F920F920FB6BF
:102990000F9211242F933F934F938F939F93909176
:1029A000C600809111028823C9F480910F058130FF
:1029B00061F08230C1F09F918F914F913F912F91A3
:1029C0000F900FBE0F901F9018959A3A69F19535A8
:1029D00091F78093110210920F05EDCF1092110222
:1029E00090930F05E8CF409111054423A9F04130A1
:1029F00011F7392F20E08091030490910404822B79
:102A0000932B909304048093030440931005109239
:102A1000110540931102CFCF909303041092040448
:102A200081E080931105C7CF80931205C4CF86B192
:102A300066B126B146B130E02870307035952795E3
:102A40003595279535952795220F331F70E06470D3
:102A500070707595679575956795260F371F220FCE
:102A6000331F50E04270507055954795240F351F25
:102A7000220F8170820F0895F89414BC15BC109237
:102A80006E0010922001109221018EEF9FE00E94B3
:102A9000C22C90930404809303049C0121583C4071
:102AA00023303105F8F410923A050E946A130E940F
:102AB00048160E941D190E94D71E0E94F0050E9410
:102AC000D90680910604882329F480910504816049
:102AD000809305040E9463140E941F200E948A0BA9
:102AE000789408952CE08038920721F481E0809357
:102AF0003A05DBCF2CE084389207B8F282E080936D
:102B00003A05D3CF1F920F920FB60F9211240F9058
:102B10000FBE0F901F901895CF93DF939EE1899F72
:102B2000E0011124809168008D7F8093680080917E
:102B30006C008F7780936C00D99A10927A00809104
:102B40007A00806180937A00109290001092910038
:102B50001092710088B3876088BB1092A000109219
:102B6000A1001092720089B3876089BB1092800027
:102B7000109281000E948D140E94FC050E94B513E2
:102B80000E946A1383B78F6083BF81E080937000D7
:102B90008091B0008D7F8093B0008091B1008760FC
:102BA0008093B100209719F088952197E9F713BE1B
:102BB0008091B100887F8093B10010927000809165
:102BC000B00082608093B0008FEF80930C028093FE
:102BD0000D0280930E021092EC031092EB03109200
:102BE000EE031092ED03F89414BC15BC10926E0025
:102BF00010922001109221018EEF9FE00E94C22CC2
:102C000090930404809303049C0121583C4023309A
:102C1000310508F510923A050E946A130E94481681
:102C20000E941D190E94D71E0E94F0050E94D9061D
:102C300080910604882329F48091050481608093A3
:102C400005040E9463140E941F200E948A0B78943E
:102C5000DF91CF9108952CE08038920721F481E034
:102C600080933A05D9CF2CE084389207A8F282E00D
:102C700080933A05D1CF60913305709134058091EE
:102C8000350590913605089581E08093C503089538
:102C9000CF93DF93EAE7F0E01082ABE7B0E01C925D
:102CA000CCE7D0E018828081866080838881806450
:102CB00088838081806280838C91887F8C938081DF
:102CC0008860808380818068808380818064808345
:102CD000DF91CF9108951F920F920FB60F920BB60E
:102CE0000F9211242F933F934F935F936F938F9382
:102CF0009F93AF93BF93EF93FF9380913305909190
:102D00003405A0913505B09136050196A11DB11D80
:102D10008093330590933405A0933505B093360521
:102D20002091780030E040917900942F80E0282BAA
:102D3000392B8091BF03823009F4ACC1833008F491
:102D400045C0833009F4C9C1843009F468C1809159
:102D5000C003823009F44FC1833008F0CDC088230E
:102D600009F024C180912A038695809329038091DC
:102D7000C103882309F0E1C181E08093BF0381E0B2
:102D80008093C00390912903983008F0EDC0909192
:102D90007B00977F90937B0090912903905C9093A8
:102DA0007C00823009F4EDC0FF91EF91BF91AF91AB
:102DB0009F918F916F915F914F913F912F910F90C4
:102DC0000BBE0F900FBE0F901F901895882309F02F
:102DD000FEC060912A036E3009F4D0C1462F50E046
:102DE000FA01EE0FFF1FE15DFC4F3183208340FFAE
:102DF00077C0FA01EE0FFF1FE35DFC4F80819181E8
:102E0000FA01EE0FFF1FE15DFC4F40815181262F3B
:102E1000269530E0841B950B220F331FF901E958EA
:102E2000FC4F40815181841B950BF901E15AFC4F05
:102E30009183808397FDBDC144E08130940724F0E5
:102E400080E094E091838083603148F48C33910575
:102E50000CF0B4C129533C4FF901918380838091D8
:102E60004805882309F475C180916F039091700320
:102E7000F1E0843A9F07CCF0809171039091720346
:102E800021E0843A92078CF080917303909174034F
:102E900041E0843A94074CF0809175039091760359
:102EA000E1E0843A9E070CF054C181E0809349052B
:102EB0001092EE031092ED031092A9001092A80058
:102EC0001092AB001092AA001092EC031092EB0348
:102ED000109299001092980010929B0010929A0004
:102EE0006F5F60932A03683108F431CF10922A0390
:102EF00081E08093C6032BCF833009F4B7C08430C0
:102F000009F040CF90912C039093290390912D03C9
:102F10009093C1039091C203992309F008C183E003
:102F20008093BF031092C00360912A036E3009F4AE
:102F30001FC1862F90E060FFF1C0603108F40CC122
:102F400020913A05222309F0D5C0409795958795A1
:102F500021E030E002C0220F331F8A95E2F7209370
:102F600005018091C0030ECF90917B0098609093F3
:102F70007B0090912903985C90937C00823009F04B
:102F800013CF20913A05222351F0213019F022303D
:102F900009F00ACF8FEF8093050112B805CF809119
:102FA0000501807F8093050112B8FECE813009F0C3
:102FB000E9CE80912B038093290380912E03809387
:102FC000C2031092BF0382E08093C003DBCE813046
:102FD00009F0BDCE8091D9039091DA03820F931F3F
:102FE000969587959093DA038093D9038091C003D7
:102FF000823009F0B1CE80912C0380932903809117
:103000002D038093C1038091C203882309F09BC0E4
:1030100083E08093BF0383E08093C003B3CE8091AD
:103020000A02882309F493CE9091000193FD8FCE7C
:103030009091000194FD8BCE482F4F5F40930A0280
:10304000453008F484CE8091E3039091E403820F2D
:10305000931F9093E4038093E303483009F077CE05
:1030600010920A0281E08093070271CE80912B03B7
:103070008093290380912E038093C2038091C10322
:10308000882309F04EC081E08093BF0384E08093E1
:10309000C00378CE80910902882309F458CE639941
:1030A00056CE649954CE482F4F5F40930902453065
:1030B00008F44DCE8091E5039091E603820F931FB3
:1030C0009093E6038093E503483009F040CE1092D8
:1030D000090281E0809308023ACE8091D703909153
:1030E000D803820F931F969587959093D80380936A
:1030F000D7032DCE213011F0223081F4409105010B
:1031000040979595879521E030E002C0220F331F4C
:103110008A95E2F720952423209305018091C0032E
:1031200031CE8130D1F185E08093BF03AFCF9130B4
:1031300009F085E08093BF03F5CE8130B1F185E0E1
:103140008093BF031CCE813061F185E08093BF0383
:1031500062CF10924905C4CE669581E090E002C02E
:10316000880F991F6A95E2F782B98091C0030ACE51
:103170008091C5038130A1F180E004CE8091C50328
:10318000823009F02BCE3093C4032093C3031092F6
:10319000C50346984EE050E02ACE82E08093BF03FC
:1031A00075CF84E08093BF0336CF82E08093BF0366
:1031B000E6CD1182108280E090E046CEAC01445C06
:1031C0005F4F55954795483751057CF429533C4F3F
:1031D000CC9795958795CC96F901918380833FCEC6
:1031E00082E08093C503469AA4CEAC01445D5E4F55
:1031F0005595479555954795443B510574F429538A
:103200003C4F845B90409595879595958795885818
:103210009F4FF9019183808322CE29533C4F845ADA
:1032200091409595879595958795959587958C541B
:103230009F4FF9019183808312CE0F931F93CF93F9
:10324000DF93E0E9F0E0108241E950E0DA011C92FE
:1032500021E730E0E9011882A0EAB0E01C9281EA9F
:1032600090E0EC01188202E710E0E801188260812A
:1032700063686083608163606083EA0168816B607A
:1032800068834091EB035091EC0350939900409375
:10329000980010929B0010929A00E90148814160C9
:1032A000488320812F7520832EB1277E2EB92C9143
:1032B00023682C93FC0120812B6020838091ED03F7
:1032C0009091EE039093A9008093A8001092AB0018
:1032D0001092AA00E8018881816088838C918F75A3
:1032E0008C93E2E0F1E08081877E8083DF91CF9153
:1032F0001F910F91089580910702882391F080918A
:10330000E3039091E403969587959695879590931E
:10331000E8038093E703109207021092E4031092EF
:10332000E30380910802882391F08091E503909156
:10333000E60396958795969587959093EA038093F3
:10334000E903109208021092E6031092E5038091BF
:10335000EF039091F0039093FC038093FB03209183
:10336000F1033091F2033093FE032093FD0340916B
:103370004705442371F53093E2032093E1039093D2
:10338000E0038093DF033093EE032093ED039093EB
:10339000EC038093EB031816190654F590939900EB
:1033A000809398008091ED039091EE031816190612
:1033B0002CF49093A9008093A8000895009759F5E4
:1033C0001092A9001092A8001092AB001092AA00CF
:1033D00008958DEF93E06BEF73E00E94C31C209182
:1033E000FD033091FE038091FB039091FC03C3CF5A
:1033F000009749F4109299001092980010929B0047
:1034000010929A00CFCF909581959F4F90939B00FB
:1034100080939A00C7CF909581959F4F9093AB0072
:103420008093AA0008952091F1033091F203309324
:10343000FE032093FD038091EF039091F00390939E
:10344000FC038093FB0340914705442309F070C0BF
:103450003093E2032093E1039093E0038093DF0332
:1034600080910702882359F18091E3039091E4034E
:1034700096958795969587959093E8038093E703B3
:10348000109207021092E4031092E3038091170256
:10349000813009F461C08DEF93E00E94160F809196
:1034A000FD039091FE039093EE038093ED031816B5
:1034B00019060CF056C09093A9008093A800809143
:1034C00008028823A1F18091E5039091E603969587
:1034D0008795969587959093EA038093E9031092D8
:1034E00008021092E6031092E503809117028130E2
:1034F00071F18BEF93E00E945B108091FB03909140
:10350000FC039093EC038093EB03181619062CF43C
:1035100090939900809398000895009769F5109210
:1035200099001092980010929B0010929A000895B2
:103530008DEF93E06BEF73E00E94C31C2091FD03BD
:103540003091FE038091FB039091FC0381CF8BEFC0
:1035500093E00E94A011D1CF8DEF93E00E948512DD
:103560009ECF009789F41092A9001092A8001092A3
:10357000AB001092AA00A3CF909581959F4F909396
:103580009B0080939A000895909581959F4F90930A
:10359000AB008093AA0093CF282F332727FD3095C7
:1035A00037FD30C0309300042093FF0387FD1EC019
:1035B000220F331F220F331F3093F2032093F103A6
:1035C00082E0213038073CF080E092E09093F203F3
:1035D0008093F10308958EEF2030380734F480E0B3
:1035E0009EEF9093F2038093F1030895220F331F0F
:1035F000220F331F309521953F4F3093F2032093D4
:10360000F103DECF309521953F4FCCCF282F3327C4
:1036100027FD309537FD30C030930204209301041C
:1036200087FD1EC0220F331F220F331F3093F0037C
:103630002093EF0382E0213038073CF080E092E0F5
:103640009093F0038093EF0308958EEF20303807B6
:1036500034F480E09EEF9093F0038093EF0308959D
:10366000220F331F220F331F309521953F4F309388
:10367000F0032093EF03DECF309521953F4FCCCF61
:103680001F920F920FB60F9211248F939F938091E8
:103690004905882361F01092EE031092ED03109219
:1036A000A9001092A8001092AB001092AA001092EC
:1036B000D8031092D7038091ED039091EE03009709
:1036C00041F58091E1039091E20397FD69C081E0AB
:1036D00080932E038EE080932B0381E080930A0277
:1036E0008091A0008F758093A00080910201877E59
:1036F0008093020180917200897F8093720089B368
:10370000866089BB9F918F910F900FBE0F901F9085
:103710001895181619062CF510922E038FE0809339
:103720002B038091A0008F7D8093A0008091720078
:103730008B7F80937200809102018F7E80930201C3
:103740008091A00080688093A000809172008260C8
:10375000809372009F918F910F900FBE0F901F90DA
:10376000189510922E038EE080932B038091A00079
:103770008F778093A000809172008D7F809372007C
:1037800080910201877F809302018091A000806276
:103790008093A00080917200846080937200B2CF09
:1037A00081E080932E038FE080932B0396CF1F92AE
:1037B0000F920FB60F9211248F939F9381E0809305
:1037C0002E039EE090932B0380930A029F918F918A
:1037D0000F900FBE0F901F9018951F920F920FB66B
:1037E0000F9211248F939F9381E080932E039FE08B
:1037F00090932B0380930A029F918F910F900FBE9D
:103800000F901F9018951F920F920FB60F921124D0
:103810008F939F9380914905882361F01092EC0368
:103820001092EB03109299001092980010929B0056
:1038300010929A001092DA031092D9038091EB0350
:103840009091EC03009731F58091DF039091E003B4
:1038500097FD5FC081E080932D038CE080932C0363
:1038600081E080930902809190008F758093900091
:103870008EB1877E8EB980917100897F80937100AF
:1038800088B3866088BB9F918F910F900FBE0F9079
:103890001F901895181619060CF510922D038DE03F
:1038A00080932C03809190008F7D80939000809175
:1038B00071008B7F80937100749880919000806874
:1038C00080939000809171008260809371009F913D
:1038D0008F910F900FBE0F901F90189510922D038F
:1038E0008CE080932C03809190008F7780939000E0
:1038F000809171008D7F809371007398809190000A
:103900008062809390008091710084608093710048
:10391000BACF81E080932D038DE080932C03A0CF5C
:103920001F920F920FB60F9211248F939F9381E0F5
:1039300080932D039CE090932C03809309029F9128
:103940008F910F900FBE0F901F9018951F920F929E
:103950000FB60F9211248F939F9381E080932D03D4
:103960009DE090932C03809309029F918F910F907B
:103970000FBE0F901F901895809194009091950024
:103980000E940E2B08952F923F924F925F926F925A
:103990007F928F929F92AF92BF92CF92DF92EF92DF
:1039A000FF920F931F93DF93CF93CDB7DEB7289786
:1039B0000FB6F894DEBF0FBECDBF2C017A836983AA
:1039C000FC010190F081E02DFC83EB83FB01019071
:1039D000F081E02DFE83ED836091C7037091C803F1
:1039E0006530710534F41092C8031092C70360E08B
:1039F00070E04091C9035091CA034530510534F439
:103A00001092CA031092C90340E050E08091CB03AA
:103A10009091CC038530910524F41092CC03109240
:103A2000CB030091CD031091CE030530110534F482
:103A30001092CE031092CD0300E010E06090CF030F
:103A40007090D003F5E06F16710434F41092D00337
:103A50001092CF03662477242091D1033091D203B2
:103A60002530310534F41092D2031092D10320E0B6
:103A700030E08091D3039091D4038530910524F4F4
:103A80001092D4031092D3038091D5039091D60362
:103A90008530910534F41092D6031092D50380E05E
:103AA00090E0EE24FF24E61AF70A5A01B594A79491
:103AB000159507956901D594C7944C019594879401
:103AC0000E94092B93012E5130402E0D3F1D200FD7
:103AD000311F2C0D3D1D2A193B09281939094CE3CA
:103AE000242E312CB1010E94712A280F391F3887EA
:103AF0002F83E090C903F090CA03F594E7940091F6
:103B0000CB031091CC031595079515950795C0909B
:103B1000CD03D090CE03D594C7948090D1039090DC
:103B2000D203959487946090D3037090D4037594D6
:103B3000679475946794A090D503B090D603B5941C
:103B4000A7940E94092B9701200F311F2E5130405E
:103B50002C0D3D1D2A193B09281939092619370949
:103B6000B1010E94712A280F391F4B815C8157FDDA
:103B700097C05A01CC24B7FCC094DC2C8F81988567
:103B80003C01882477FC8094982C79010027F7FC6D
:103B90000095102FC401B3016E197F09800B910BA2
:103BA000A60195010E943E2AF7E0959587957795A5
:103BB0006795FA95D1F76A0D7B1D8C1D9D1DF2014D
:103BC000718360832D813E8137FD99C05901CC24DA
:103BD000B7FCC094DC2CC801B701660D771D881DA9
:103BE000991DA60195010E943E2A37E0959587957B
:103BF000779567953A95D1F76A0D7B1D8C1D9D1DB4
:103C00009B01E981FA8171836083F2E021303F07F3
:103C100044F080E092E0E981FA819183808320E0A2
:103C200032E0F20180819181F2E081309F074CF017
:103C300080E092E0F20191838083E981FA81208122
:103C40003181FEEF20303F074CF480E09EEFE981A8
:103C5000FA8191838083F20180819181FEEF80302F
:103C60009F072CF480E09EEFF201918380832896D9
:103C70000FB6F894DEBF0FBECDBFCF91DF911F917D
:103C80000F91FF90EF90DF90CF90BF90AF909F90FB
:103C90008F907F906F905F904F903F902F900895FE
:103CA0004D815E815A01CC24B7FCC094DC2C8F81FD
:103CB00098853C01882477FC8094982C7901002712
:103CC000F7FC0095102FC801B701660D771D881D00
:103CD000991DA60195010E943E2AE7E095958795DA
:103CE00077956795EA95D1F7261B370B480B590B4B
:103CF000F201318320832D813E8137FF67CF2B81F5
:103D00003C815901CC24B7FCC094DC2CC401B30124
:103D10006E197F09800B910BA60195010E943E2A26
:103D200027E095958795779567952A95D1F7A61AF7
:103D3000B70AC80AD90A9501E981FA81B182A0823D
:103D400064CF80916F039091700321E0843A9207D1
:103D5000D4F0809171039091720321E0843A92072C
:103D600094F0809173039091740321E0843A920758
:103D700074F081E0209175033091760391E0243A4C
:103D800039071CF4089581E0089580E0089581E0EA
:103D9000089581E08093470508951092470508959E
:103DA00081E0809348050895109248050895A0E8A1
:103DB000B0E01C92E1E8F0E010828C91896A8C936B
:103DC00080818960808380910C0290E090938900CB
:103DD0008093880080910D0290E090938B008093F7
:103DE0008A0080910E0290E090938D0080938C0069
:103DF000089581E090910704891B8093070488232C
:103E000039F480918000877F809380002F980895F7
:103E1000809180008860809380008FEF90E0909385
:103E20008D0080938C000895882359F09091800034
:103E300090689093800090E0909389008093880030
:103E40000895809180008F77809380002D98089549
:103E5000882359F09091800090629093800090E0C8
:103E600090938B0080938A000895809180008F7DCD
:103E7000809380002E980895882359F090918000B7
:103E800098609093800090E090938D0080938C00D8
:103E9000089580918000877F809380002F980895F7
:103EA000833009F45AC0843080F0853009F441C071
:103EB0008530D0F4662309F468C080910B018F7EB1
:103EC00080930B0180910B0108958130E1F18230E4
:103ED00080F0662309F446C080910B018B7F8093AC
:103EE0000B0180910B0108958630C9F0873061F095
:103EF0000895662309F451C080910B018E7F809351
:103F00000B0180910B010895662309F05EC080913A
:103F10000B01806880930B0180910B01089566234B
:103F200049F180910B018F7B80930B0180910B01F4
:103F300008956623D1F180910B018F7D80930B0151
:103F400080910B0108956623C1F180910B018D7F53
:103F500080930B0180910B010895662399F0A3983B
:103F600084B3089580910B01846080930B0180914C
:103F70000B01089580910B01806480930B01809167
:103F80000B010895A39A84B3089580910B01806179
:103F900080930B0180910B01089580910B0181604A
:103FA00080930B0180910B01089580910B01806239
:103FB00080930B0180910B01089580910B01826029
:103FC00080930B0180910B01089580910B018F77F5
:103FD00080930B0180910B010895EBE0F1E080816B
:103FE000816080838081826080838081846080831F
:103FF000A39A8081806180838081806280838081B8
:10400000806480838081806880830895EBE0F1E0A4
:1040100080818E7F808380818D7F808380818B7F74
:104020008083A39880818F7E808380818F7D808331
:1040300080818F7B808380818F77808308950E9429
:10404000BA13809114020E94C213882349F486E1B6
:104050000E943D1485E40E943D140E943514089589
:104060000E94351486EA90E0909315028093140222
:1040700086EA0E94C213882341F58DE20E943D1416
:1040800088E00E943D140E943514809114020E9421
:10409000C2138823D1F481E30E943D1480E00E9482
:1040A0003D140E943514809114020E94C21388238B
:1040B00061F48CE20E943D1489E00E943D140E944C
:1040C000351481E08093170508950E94351482E02D
:1040D000809317050895809114020E94C2138823CB
:1040E00051F486E10E943D1485E40E943D140E9433
:1040F000351480E008950E94351481E00895809180
:1041000014020E94C213882331F58DE20E943D14EF
:1041100088E00E943D140E943514809114020E9490
:10412000C2138823C1F481E30E943D1480E00E9401
:104130003D140E943514809114020E94C2138823FA
:1041400051F48CE20E943D1489E00E943D140E94CB
:10415000351480E008950E94351481E00895FF929F
:104160000F931F93DF93CF930F92CDB7DEB780915C
:104170001705882391F0813009F488C01092190541
:104180001092180510921B0510921A050F90CF91EE
:10419000DF911F910F91FF900895809114020E946A
:1041A000C21380E00E943D14809114028F5F0E9430
:1041B0000F140E944F14082F0E944F14F82E0E94D3
:1041C0004F14182F0E94591489830E94351490911E
:1041D00076058981992339F14F2D552747FD509553
:1041E000542F4427602F772767FD7095462B572B58
:1041F0005093190540931805282F332727FD309534
:10420000322F2227812F992787FD9095282B392B34
:1042100030931B0520931A050F90CF91DF911F91CA
:104220000F91FF9008954F2D552747FD5095542F1E
:104230004427602F772767FD7095462B572B609199
:104240001E0570911F05461B570B5093190540938F
:104250001805282F332727FD3095322F2227812F4D
:10426000992787FD9095282B392B809120059091D7
:104270002105281B390B30931B0520931A050F903D
:10428000CF91DF911F910F91FF90089580911402BB
:104290000E94C21382E386CFDF93CF9300D000D079
:1042A000CDB7DEB7809117058823C1F0813009F4BE
:1042B000ADC0109219051092180510921B051092AE
:1042C0001A0510921D0510921C0526960FB6F8943B
:1042D000DEBF0FBECDBFCF91DF9108958091140254
:1042E0000E94C21380E00E943D14809114028F5FEF
:1042F0000E940F140E944F1489830E944F148A83D6
:104300000E944F148B830E944F148C830E944F1481
:104310008D830E9459148E830E94351480917605F6
:10432000882389F18A81992787FD9095982F88277E
:104330002981332727FD3095822B932B90931905E4
:10434000809318058C81992787FD9095982F882751
:104350002B81332727FD3095822B932B90931B05C0
:1043600080931A058E81992787FD9095982F88272D
:104370002D81332727FD3095822B932B90931D059C
:1043800080931C05A2CF8A81992787FD9095982F4D
:1043900088272981332727FD3095822B932B209165
:1043A0001E0530911F05821B930B90931905809376
:1043B00018058C81992787FD9095982F88272B8148
:1043C000332727FD3095822B932B209120053091A8
:1043D0002105821B930B90931B0580931A058E81F8
:1043E000992787FD9095982F88272D81332727FDC2
:1043F0003095822B932B2091220530912305821B2F
:10440000930B90931D0580931C055FCF8091140240
:104410000E94C21382E367CFCF93DF9310920C0206
:1044200010920D0210920E0280E00E94141F8091E3
:104430000D020E94281F80910E020E943C1F1092C4
:1044400039051092380581E080937605C1E0D0E00F
:104450000E944C21209138053091390521313105D8
:104460000CF435C180918F0390919003A09191033A
:10447000B091920354E0B695A795979587955A9574
:10448000D1F7909378038093770380919303909171
:104490009403A0919503B091960344E0B695A79537
:1044A000979587954A95D1F790937A0380937903EE
:1044B0008091970390919803A0919903B0919A03EA
:1044C00034E0B695A795979587953A95D1F790934F
:1044D0007C0380937B0380919B0390919C03A0912C
:1044E0009D03B0919E0324E0B695A7959795879577
:1044F0002A95D1F790937E0380937D0380919F034B
:104500009091A003A091A103B091A203F4E0B6950D
:10451000A79597958795FA95D1F790938003809307
:104520007F038091A3039091A403A091A503B09170
:10453000A603E4E0B695A79597958795EA95D1F7F8
:1045400090938203809381038091A7039091A803A5
:10455000A091A903B091AA0374E0B695A795979589
:1045600087957A95D1F79093840380938303809104
:10457000AB039091AC03A091AD03B091AE0364E0A6
:10458000B695A795979587956A95D1F790938603E9
:10459000809385038091B3039091B403A091B503F8
:1045A000B091B60354E0B695A795979587955A951F
:1045B000D1F79C018091B7039091B803A091B90302
:1045C000B091BA0344E0B695A795979587954A951B
:1045D000D1F7BC018091BB039091BC03A091BD03B6
:1045E000B091BE03F4E0B695A79597958795FA9597
:1045F000D1F7AC018091AF039091B003A091B103CA
:10460000B091B203E4E0B695A79597958795EA95A2
:10461000D1F7805092409093880380938703205075
:10462000324030938A032093890360507240709324
:104630008C0360938B034050524050938E03409301
:104640008D038091240590912505959587959595E5
:104650008795959587959595879590931F05809358
:104660001E0580912605909127059595879595952E
:104670008795959587959595879590932105809336
:104680002005809128059091290595958795959508
:104690008795959587959595879590932305809314
:1046A0002205109276058FEF80930C0280930D0205
:1046B00080930E020E94141F80910D020E94281FF9
:1046C00080910E020E943C1FDF91CF91089580914E
:1046D000C603882309F486C11092C603211531054B
:1046E00009F486C180915F0390916003AA2797FD2A
:1046F000A095BA2F40918F03509190036091910340
:1047000070919203840F951FA61FB71F80938F038C
:1047100090939003A0939103B093920380916103CF
:1047200090916203AA2797FDA095BA2F4091930319
:10473000509194036091950370919603840F951F97
:10474000A61FB71F8093930390939403A0939503A0
:10475000B09396038091630390916403AA2797FD19
:10476000A095BA2F409197035091980360919903B7
:1047700070919A03840F951FA61FB71F809397030C
:1047800090939803A0939903B0939A038091650343
:1047900090916603AA2797FDA095BA2F40919B039D
:1047A00050919C0360919D0370919E03840F951F0F
:1047B000A61FB71F80939B0390939C03A0939D0318
:1047C000B0939E038091670390916803AA2797FD99
:1047D000A095BA2F40919F035091A0036091A1032F
:1047E0007091A203840F951FA61FB71F80939F038C
:1047F0009093A003A093A103B093A20380916903B7
:1048000090916A03AA2797FDA095BA2F4091A30320
:104810005091A4036091A5037091A603840F951F86
:10482000A61FB71F8093A3039093A403A093A5038F
:10483000B093A60380916B0390916C03AA2797FD18
:10484000A095BA2F4091A7035091A8036091A903A6
:104850007091AA03840F951FA61FB71F8093A7030B
:104860009093A803A093A903B093AA0380916D032A
:1048700090916E03AA2797FDA095BA2F4091AB03A4
:104880005091AC036091AD037091AE03840F951FFE
:10489000A61FB71F8093AB039093AC03A093AD0307
:1048A000B093AE0380916F0390917003AA2797FD98
:1048B000A095BA2F4091AF035091B0036091B1031E
:1048C0007091B203840F951FA61FB71F8093AF038B
:1048D0009093B003A093B103B093B203809171039E
:1048E00090917203AA2797FDA095BA2F4091B30328
:1048F0005091B4036091B5037091B603840F951F76
:10490000A61FB71F8093B3039093B403A093B5037E
:10491000B093B6038091730390917403AA2797FD17
:10492000A095BA2F4091B7035091B8036091B90395
:104930007091BA03840F951FA61FB71F8093B7030A
:104940009093B803A093B903B093BA038091750311
:1049500090917603AA2797FDA095BA2F4091BB03AB
:104960005091BC036091BD037091BE03840F951FED
:10497000A61FB71F8093BB039093BC03A093BD03F6
:10498000B093BE03809124059091250540911805B0
:1049900050911905840F951F909325058093240548
:1049A000809126059091270540911A0550911B058D
:1049B000840F951F909327058093260580912805E5
:1049C0009091290540911C0550911D05840F951F5C
:1049D00090932905809328052F5F3F4F3093390529
:1049E0002093380580917605882309F031CD5BCE80
:1049F00010928F03109290031092910310929203E1
:104A000010927803109277031092930310929403FC
:104A1000109295031092960310927A0310927903E4
:104A200010929703109298031092990310929A0390
:104A300010927C0310927B0310929B0310929C03B4
:104A400010929D0310929E0310927E0310927D039C
:104A500010929F031092A0031092A1031092A20340
:104A60001092800310927F031092A3031092A4036C
:104A70001092A5031092A603109282031092810354
:104A80001092A7031092A8031092A9031092AA03F0
:104A900010928403109283031092AB031092AC0324
:104AA0001092AD031092AE0310928603109285030C
:104AB0001092AF031092B0031092B1031092B203A0
:104AC00010928803109287031092B3031092B403DC
:104AD0001092B5031092B60310928A0310928903C4
:104AE0001092B7031092B8031092B9031092BA0350
:104AF00010928C0310928B031092BB031092BC0394
:104B00001092BD031092BE0310928E0310928D037B
:104B10001092250510922405109227051092260563
:104B20001092290510922805D0933905C0933805B5
:104B30008091760559CF80911705882379F08130CF
:104B400011F1109219051092180510921B05109280
:104B50001A0510921D0510921C05089580911402EB
:104B60000E94C21380E00E943D14809114028F5F66
:104B70000E940F140E944F1480932D050E944F1421
:104B800080932E050895809114020E94C21382E33F
:104B90000E943D14809114028F5F0E940F140E94A6
:104BA0004F1480932D050E944F1480932E050E9470
:104BB0004F1480932F05089580911705882309F0DD
:104BC0004EC00E944F1480932F050E944F14809373
:104BD00030050E944F14809331050E945914809330
:104BE00032050E94351480917605882309F447C068
:104BF00080912E05992787FD9095982F88272091E1
:104C00002D05332727FD3095822B932B9093190583
:104C10008093180580913005992787FD9095982FEE
:104C2000882720912F05332727FD3095822B932B42
:104C300090931B0580931A0580913205992787FD73
:104C40009095982F882720913105332727FD30959F
:104C5000822B932B90931D0580931C050895813022
:104C600009F4B3CF109219051092180510921B0584
:104C700010921A0510921D0510921C05089580913E
:104C80002E05992787FD9095982F882720912D052F
:104C9000332727FD3095822B932B20911E053091D1
:104CA0001F05821B930B9093190580931805809123
:104CB0003005992787FD9095982F882720912F05FB
:104CC000332727FD3095822B932B2091200530919F
:104CD0002105821B930B90931B0580931A058091ED
:104CE0003205992787FD9095982F882720913105C7
:104CF000332727FD3095822B932B2091220530916D
:104D00002305821B930B90931D0580931C0508952A
:104D1000EF92FF920F931F9380911C0590911D05B8
:104D200097FD5BC08031910508F042C081E080931F
:104D3000160290911502981709F442C010922C05A2
:104D4000809315026091180570911905882777FDE9
:104D50008095982F0E94F0277B018C0160911A05A5
:104D600070911B05882777FD8095982F0E94F0276A
:104D70009B01AC01C801B7010E94282B21EE3EE245
:104D800045E652E40E94F1260E944E289B01709352
:104D90002B0560932A0577FF06C028593E4F3093B4
:104DA0002B0520932A051F910F91FF90EF900895F6
:104DB0001092160280E090911502981709F0BECF6C
:104DC00090912C059F5F90932C05953008F4B8CFF7
:104DD00010922C0580931702B3CF909581959F4F29
:104DE000A1CFA0E2B0E0E7EFF6E20C94862A698357
:104DF0007A838B839C832D833E834F83588799E0EE
:104E0000E92EF12CEC0EFD1EB701CE0101960E9499
:104E1000CE298E010F5E1F4FB801CE0105960E946C
:104E2000CE299985923088F089898230C0F09430FB
:104E300019F4823029F009C0843029F4923079F4D1
:104E400068E172E0C6C0923041F420E09A858A8918
:104E5000981321E02A87B701BCC0823041F420E0DA
:104E60009A858A89981321E02A8BB801B2C0CD8433
:104E7000DE84EF84F8880D891E892F89388D882477
:104E80009924540140E050E060E070E0442455244F
:104E90003201E0E0F0E0C60181709070892BD9F01A
:104EA000800E911EA21EB31EDB01CA01840D951D4A
:104EB000A61DB71D40E050E060E070E0801691064E
:104EC000A206B30620F441E050E060E070E0480F35
:104ED000591F6A1F7B1F440C551C661C771C37FF2B
:104EE00008C081E090E0A0E0B0E0482A592A6A2A90
:104EF0007B2A3196E032F10549F0000F111F221F85
:104F0000331FF694E794D794C794C5CF8B899C89B7
:104F10002B853C85820F931F02969C8F8B8F1A8E58
:104F20009A858A89981711F081E08A8F2B8D3C8DA4
:104F300017C0CA0181709070892B61F0B694A79454
:104F40009794879480E090E0A0E0B0E8882A992ABE
:104F5000AA2ABB2A76956795579547952F5F3F4FAD
:104F600077FDE7CFC9010BC0440F551F661F771FA0
:104F7000B7FC4160880C991CAA1CBB1C01974030EF
:104F8000A0E05A07A0E06A07A0E47A0768F39C8FC4
:104F90008B8FDB01CA018F779070A070B070803466
:104FA0009105A105B10561F447FD0AC08114910482
:104FB000A104B10429F0405C5F4F6F4F7F4F4078F0
:104FC0004D8F5E8F6F8F78A383E0898FBE01675E00
:104FD0007F4FCB010E94EE28E0E1A0960C94A22A1C
:104FE000A8E0B0E0E6EFF7E20C948D2A9B01AC015B
:104FF00083E08983DA01C9018827B7FD8395992762
:10500000AA27BB27B82E211531054105510519F4F2
:1050100082E089833AC08823A9F0203080E03807F5
:1050200080E0480780E8580729F460E070E080E0FD
:105030009FEC30C0EE24FF248701E21AF30A040B30
:10504000150B02C079018A018EE1C82ED12CDC82B9
:10505000CB82ED82FE820F831887C801B7010E94C0
:10506000A12801971816190684F4082E04C0EE0C26
:10507000FF1C001F111F0A94D2F7ED82FE820F83DE
:105080001887C81AD90ADC82CB82BA82CE0101966F
:105090000E94EE28E9E028960C94A92AACE0B0E042
:1050A000E4E5F8E20C94942A69837A838B839C83E9
:1050B000BE016B5F7F4FCE0101960E94CE298D818C
:1050C0008230A9F1823098F1843021F48E818823D6
:1050D00059F40FC02F81388537FD29C06E812F31DB
:1050E000310564F0662329F020E030E040E050E82C
:1050F00022C02FEF3FEF4FEF5FE71DC08EE190E042
:10510000821B930B29853A854B855C8504C0569597
:105110004795379527958A95D2F7662361F0509584
:105120004095309521953F4F4F4F5F4F04C020E091
:1051300030E040E050E0CA01B901E2E02C960C9466
:10514000B02AEF92FF920F931F939B01AC01203086
:1051500080E0380781E0480780E0580780F42F3F5F
:1051600031054105510509F020F4EE24FF248701A3
:1051700019C068E0E62EF12C012D112D13C020304E
:1051800080E0380780E0480781E0580730F490E17C
:10519000E92EF12C012D112D05C088E1E82EF12C0E
:1051A000012D112D80E290E0A0E0B0E08E199F0962
:1051B000A00BB10B04C05695479537952795EA94F7
:1051C000D2F7F901E05EFD4F2081821B9109A10910
:1051D000B1091F910F91FF90EF9008959F92AF92A8
:1051E000BF92CF92DF92EF92FF920F931F93EE2424
:1051F000FF248701FC0124813581468157819180FC
:105200008081823010F44061A2C0843009F49BC0D8
:10521000823029F420E030E040E050E005C0211564
:1052200031054105510519F4E0E0F0E092C08281BA
:1052300093816FEF823896070CF05AC062E87FEFD7
:10524000681B790B6A3171052CF020E030E040E0FA
:1052500050E02AC0AA24BB24650181E090E0A0E0D0
:10526000B0E0062E04C0880F991FAA1FBB1F0A9426
:10527000D2F70197A109B10982239323A423B5236F
:105280000097A105B10529F071E0A72EB12CC12C22
:10529000D12C04C056954795379527956A95D2F736
:1052A0002A293B294C295D29DA01C9018F779070A1
:1052B000A070B07080349105A105B10539F427FFC5
:1052C00009C0205C3F4F4F4F5F4F04C0215C3F4FF0
:1052D0004F4F5F4F80E090E0203060E0360760E0A5
:1052E000460760E4560710F081E090E0FC0123C01F
:1052F0008038910544F5FC01E158FF4FDA01C901FE
:105300008F779070A070B07080349105A105B105C1
:1053100039F427FF09C0205C3F4F4F4F5F4F04C057
:10532000215C3F4F4F4F5F4F57FF05C05695479544
:1053300037952795319687E0569547953795279568
:105340008A95D1F706C020E030E040E050E0EFEF72
:10535000F0E0E22EF32E942F9F77802F8078892B18
:105360009E2F9795992797958F77082F092B9E2F1A
:105370009695812F8078892B9794992497948F778D
:10538000182F1929C801B7011F910F91FF90EF90B5
:10539000DF90CF90BF90AF909F900895CF93DF9311
:1053A000FC01DB01208131819281492F4F7750E050
:1053B000991F9927991F8381E82FEE0FE92B6E2FF4
:1053C00070E0881F8827881FED018983EE2371F51F
:1053D000211531054105510511F482E02FC06E57AA
:1053E0007040FD017383628367E0220F331F441F07
:1053F000551F6A95D1F783E08C930AC0220F331FA3
:10540000441F551FED018A819B8101979B838A83ED
:105410002030E0E03E07E0E04E07E0E45E0770F396
:10542000ED012C833D834E835F8325C0EF3F79F4EC
:10543000211531054105510519F484E08C931BC0F9
:1054400044FF03C081E08C9311C01C920FC06F57C2
:105450007040ED017B836A8383E08C9387E0220FA9
:10546000331F441F551F8A95D1F75064FD012483D3
:10547000358346835783DF91CF910895629FD00192
:10548000739FF001829FE00DF11D649FE00DF11DFF
:10549000929FF00D839FF00D749FF00D659FF00DAE
:1054A0009927729FB00DE11DF91F639FB00DE11D9B
:1054B000F91FBD01CF0111240895AA1BBB1B51E1A7
:1054C00007C0AA1FBB1FA617B70710F0A61BB70B74
:1054D000881F991F5A95A9F780959095BC01CD0119
:1054E000089597FB092E07260AD077FD04D0E5DF43
:1054F00006D000201AF4709561957F4F0895F6F755
:10550000909581959F4F08952F923F924F925F9271
:105510006F927F928F929F92AF92BF92CF92DF92C3
:10552000EF92FF920F931F93CF93DF93CDB7DEB728
:10553000CA1BDB0B0FB6F894DEBF0FBECDBF1994AC
:105540002A88398848885F846E847D848C849B8413
:10555000AA84B984C884DF80EE80FD800C811B8121
:10556000AA81B981CE0FD11D0FB6F894DEBF0FBE50
:10557000CDBFED010895AF92BF92CF92DF92EF922F
:10558000FF920F931F93CF93DF93EC016881798192
:105590008A819B81611571058105910521F464E281
:1055A00079ED8BE597E02DE133EF41E050E00E948B
:1055B000522D79018A0127EA31E440E050E00E944F
:1055C0003E2A5B016C01C801B7012CEE34EF4FEFAE
:1055D0005FEF0E943E2A6A0D7B1D8C1D9D1D97FF6B
:1055E00004C06150704080409048688379838A830A
:1055F0009B837F77CB01DF91CF911F910F91FF901C
:10560000EF90DF90CF90BF90AF9008950E94BB2A9B
:10561000089580E293E00E94BB2A0895A0E0B0E0E4
:105620008093200390932103A0932203B09323033C
:105630000895F5D058F080E891E009F49EEFF6D097
:1056400028F040E851E059F45EEF09C0C0C028C11D
:10565000E92FE07803D168F3092E052AC1F3261754
:1056600037074807590738F00E2E07F8E02569F08C
:10567000E025E0640AC0EF6307F8009407FADB0155
:10568000B9019D01DC01CA01AD01EF9341D0D5D034
:105690000AD05F91552331F02BED3FE049E450FDF6
:1056A00049EC7CC10895DF93DD27B92FBF7740E82F
:1056B0005FE31616170648075B0710F4D92FF7D0DB
:1056C0009F938F937F936F935AD1EEE4F1E082D052
:1056D000B4D02F913F914F915F91FAD0DD2349F0E3
:1056E0009058A2EA2AED3FE049EC5FE3D0785D27CD
:1056F00066D1DF91A2C09AD040F091D030F021F471
:105700005F3F19F05EC05111CCC061C0A7D098F3C3
:105710009923C9F35523B1F3951B550BBB27AA2732
:1057200062177307840738F09F5F5F4F220F331FA4
:10573000441FAA1FA9F333D00E2E3AF0E0E830D070
:1057400091505040E695001CCAF729D0FE2F27D073
:10575000660F771F881FBB1F261737074807AB0741
:10576000B0E809F0BB0B802DBF01FF2793585F4FB6
:105770002AF09E3F510568F024C093C05F3FECF3D0
:10578000983EDCF3869577956795B795F7959F5F7B
:10579000C9F7880F911D9695879597F90895E1E0CF
:1057A000660F771F881FBB1F621773078407BA072E
:1057B00020F0621B730B840BBA0BEE1F88F7E09589
:1057C000089597F99F6780E870E060E008959FEF83
:1057D00080EC0895DF93CF931F930F93FF92EF9286
:1057E000DF927B018C01689405C0DA2EEF0170D046
:1057F000FE01E894A5912591359145915591AEF31F
:10580000EF01DDD0FE019701A801DA9479F7DF906E
:10581000EF90FF900F911F91CF91DF910895002499
:105820000A941616170618060906089500240A9405
:1058300012161306140605060895092E0394000C8B
:1058400011F4882352F0BB0F40F4BF2B11F460FF1A
:1058500004C06F5F7F4F8F4F9F4F089557FD905843
:10586000440F551F59F05F3F71F04795880F97FB24
:10587000991F61F09F3F79F08795089512161306DE
:105880001406551FF2CF4695F1DF08C0161617060D
:105890001806991FF1CF8695710561050894089542
:1058A000E894BB2766277727CB0197F908959B01DA
:1058B000AC0160E070E080E89FE3D4C0B0DF28F086
:1058C000B5DF18F0952309F07CCF81CF1124E9CF03
:1058D000C5DFA0F3959FD1F3950F50E0551F629F50
:1058E000F001729FBB27F00DB11D639FAA27F00D39
:1058F000B11DAA1F649F6627B00DA11D661F829F60
:105900002227B00DA11D621F739FB00DA11D621F44
:10591000839FA00D611D221F749F3327A00D611D61
:10592000231F849F600D211D822F762F6A2F112443
:105930009F5750408AF0E1F088234AF0EE0FFF1F96
:10594000BB1F661F771F881F91505040A9F79E3FCD
:10595000510570F036CFA5CF5F3FECF3983EDCF3F6
:10596000869577956795B795F795E7959F5FC1F70A
:10597000FE2B880F911D9695879597F908959B01A9
:10598000AC012FCAA8E1B0E042E050E00C94362D03
:105990000E94442D272F0C94452D5058BB27AA2731
:1059A0000ED04BCF3CDF30F041DF20F031F49F3F91
:1059B00011F41EF40CCF0EF4E095E7FB02CFE92FB3
:1059C0004DDF80F3BA17620773078407950718F055
:1059D00071F49EF565CF0EF4E0950B2EBA2FA02D35
:1059E0000B01B90190010C01CA01A0011124FF278C
:1059F000591B99F0593F50F4503E68F11A16F04087
:105A0000A22F232F342F4427585FF3CF4695379585
:105A10002795A795F0405395C9F77EF41F16BA0B4A
:105A2000620B730B840BBAF09150A1F0FF0FBB1FF8
:105A3000661F771F881FC2F70EC0BA0F621F731F41
:105A4000841F48F4879577956795B795F7959E3F9E
:105A500008F0B3CF9395880F08F09927EE0F97952C
:105A60008795089553DEE9CEDC01CB01FC01F9995D
:105A7000FECF06C0F2BDE1BDF89A319600B40D929A
:105A800041505040B8F70895262FF999FECF1FBA1C
:105A900092BD81BD20BD0FB6F894FA9AF99A0FBE57
:105AA0000196089597FB092E05260ED057FD04D0C8
:105AB00014D00AD0001C38F45095409530952195AB
:105AC0003F4F4F4F5F4F0895F6F790958095709533
:105AD00061957F4F8F4F9F4F0895A1E21A2EAA1B09
